{
	"contracts/twittwr.sol": {
		"Twitter": {
			"abi": [
				{
					"inputs": [
						{
							"internalType": "string",
							"name": "_tweets",
							"type": "string"
						}
					],
					"name": "createTweet",
					"outputs": [],
					"stateMutability": "nonpayable",
					"type": "function"
				},
				{
					"inputs": [
						{
							"internalType": "address",
							"name": "_all_owner",
							"type": "address"
						}
					],
					"name": "getAllTweet",
					"outputs": [
						{
							"components": [
								{
									"internalType": "address",
									"name": "aithor",
									"type": "address"
								},
								{
									"internalType": "string",
									"name": "content",
									"type": "string"
								},
								{
									"internalType": "uint256",
									"name": "timesstamp",
									"type": "uint256"
								},
								{
									"internalType": "uint256",
									"name": "likes",
									"type": "uint256"
								}
							],
							"internalType": "struct Twitter.Tweet[]",
							"name": "",
							"type": "tuple[]"
						}
					],
					"stateMutability": "view",
					"type": "function"
				},
				{
					"inputs": [
						{
							"internalType": "uint256",
							"name": "_i",
							"type": "uint256"
						},
						{
							"internalType": "address",
							"name": "_owner",
							"type": "address"
						}
					],
					"name": "getTweet",
					"outputs": [
						{
							"components": [
								{
									"internalType": "address",
									"name": "aithor",
									"type": "address"
								},
								{
									"internalType": "string",
									"name": "content",
									"type": "string"
								},
								{
									"internalType": "uint256",
									"name": "timesstamp",
									"type": "uint256"
								},
								{
									"internalType": "uint256",
									"name": "likes",
									"type": "uint256"
								}
							],
							"internalType": "struct Twitter.Tweet",
							"name": "",
							"type": "tuple"
						}
					],
					"stateMutability": "view",
					"type": "function"
				},
				{
					"inputs": [
						{
							"internalType": "address",
							"name": "",
							"type": "address"
						},
						{
							"internalType": "uint256",
							"name": "",
							"type": "uint256"
						}
					],
					"name": "tweets",
					"outputs": [
						{
							"internalType": "address",
							"name": "aithor",
							"type": "address"
						},
						{
							"internalType": "string",
							"name": "content",
							"type": "string"
						},
						{
							"internalType": "uint256",
							"name": "timesstamp",
							"type": "uint256"
						},
						{
							"internalType": "uint256",
							"name": "likes",
							"type": "uint256"
						}
					],
					"stateMutability": "view",
					"type": "function"
				}
			],
			"devdoc": {
				"kind": "dev",
				"methods": {},
				"version": 1
			},
			"evm": {
				"assembly": "    /* \"contracts/twittwr.sol\":65:916  contract Twitter {... */\n  mstore(0x40, 0x80)\n  callvalue\n  dup1\n  iszero\n  tag_1\n  jumpi\n  0x00\n  dup1\n  revert\ntag_1:\n  pop\n  dataSize(sub_0)\n  dup1\n  dataOffset(sub_0)\n  0x00\n  codecopy\n  0x00\n  return\nstop\n\nsub_0: assembly {\n        /* \"contracts/twittwr.sol\":65:916  contract Twitter {... */\n      mstore(0x40, 0x80)\n      callvalue\n      dup1\n      iszero\n      tag_1\n      jumpi\n      0x00\n      dup1\n      revert\n    tag_1:\n      pop\n      jumpi(tag_2, lt(calldatasize, 0x04))\n      shr(0xe0, calldataload(0x00))\n      dup1\n      0x05a1b4a9\n      eq\n      tag_3\n      jumpi\n      dup1\n      0x4e46b4e5\n      eq\n      tag_4\n      jumpi\n      dup1\n      0x7c9cd2bc\n      eq\n      tag_5\n      jumpi\n      dup1\n      0xb64988b8\n      eq\n      tag_6\n      jumpi\n    tag_2:\n      0x00\n      dup1\n      revert\n        /* \"contracts/twittwr.sol\":258:298  mapping(address => Tweet[])public tweets */\n    tag_3:\n      tag_7\n      0x04\n      dup1\n      calldatasize\n      sub\n      dup2\n      add\n      swap1\n      tag_8\n      swap2\n      swap1\n      tag_9\n      jump\t// in\n    tag_8:\n      tag_10\n      jump\t// in\n    tag_7:\n      mload(0x40)\n      tag_11\n      swap5\n      swap4\n      swap3\n      swap2\n      swap1\n      tag_12\n      jump\t// in\n    tag_11:\n      mload(0x40)\n      dup1\n      swap2\n      sub\n      swap1\n      return\n        /* \"contracts/twittwr.sol\":669:790  function getTweet(uint _i ,address _owner)public view  returns (Tweet memory) {... */\n    tag_4:\n      tag_13\n      0x04\n      dup1\n      calldatasize\n      sub\n      dup2\n      add\n      swap1\n      tag_14\n      swap2\n      swap1\n      tag_15\n      jump\t// in\n    tag_14:\n      tag_16\n      jump\t// in\n    tag_13:\n      mload(0x40)\n      tag_17\n      swap2\n      swap1\n      tag_18\n      jump\t// in\n    tag_17:\n      mload(0x40)\n      dup1\n      swap2\n      sub\n      swap1\n      return\n        /* \"contracts/twittwr.sol\":305:664  function createTweet(string memory _tweets)public {... */\n    tag_5:\n      tag_19\n      0x04\n      dup1\n      calldatasize\n      sub\n      dup2\n      add\n      swap1\n      tag_20\n      swap2\n      swap1\n      tag_21\n      jump\t// in\n    tag_20:\n      tag_22\n      jump\t// in\n    tag_19:\n      stop\n        /* \"contracts/twittwr.sol\":795:914  function getAllTweet(address _all_owner)public  view  returns(Tweet[] memory){... */\n    tag_6:\n      tag_23\n      0x04\n      dup1\n      calldatasize\n      sub\n      dup2\n      add\n      swap1\n      tag_24\n      swap2\n      swap1\n      tag_25\n      jump\t// in\n    tag_24:\n      tag_26\n      jump\t// in\n    tag_23:\n      mload(0x40)\n      tag_27\n      swap2\n      swap1\n      tag_28\n      jump\t// in\n    tag_27:\n      mload(0x40)\n      dup1\n      swap2\n      sub\n      swap1\n      return\n        /* \"contracts/twittwr.sol\":258:298  mapping(address => Tweet[])public tweets */\n    tag_10:\n      mstore(0x20, 0x00)\n      dup2\n      0x00\n      mstore\n      keccak256(0x00, 0x40)\n      dup2\n      dup2\n      sload\n      dup2\n      lt\n      tag_29\n      jumpi\n      0x00\n      dup1\n      revert\n    tag_29:\n      swap1\n      0x00\n      mstore\n      keccak256(0x00, 0x20)\n      swap1\n      0x04\n      mul\n      add\n      0x00\n      swap2\n      pop\n      swap2\n      pop\n      pop\n      dup1\n      0x00\n      add\n      0x00\n      swap1\n      sload\n      swap1\n      0x0100\n      exp\n      swap1\n      div\n      0xffffffffffffffffffffffffffffffffffffffff\n      and\n      swap1\n      dup1\n      0x01\n      add\n      dup1\n      sload\n      tag_31\n      swap1\n      tag_32\n      jump\t// in\n    tag_31:\n      dup1\n      0x1f\n      add\n      0x20\n      dup1\n      swap2\n      div\n      mul\n      0x20\n      add\n      mload(0x40)\n      swap1\n      dup2\n      add\n      0x40\n      mstore\n      dup1\n      swap3\n      swap2\n      swap1\n      dup2\n      dup2\n      mstore\n      0x20\n      add\n      dup3\n      dup1\n      sload\n      tag_33\n      swap1\n      tag_32\n      jump\t// in\n    tag_33:\n      dup1\n      iszero\n      tag_34\n      jumpi\n      dup1\n      0x1f\n      lt\n      tag_35\n      jumpi\n      0x0100\n      dup1\n      dup4\n      sload\n      div\n      mul\n      dup4\n      mstore\n      swap2\n      0x20\n      add\n      swap2\n      jump(tag_34)\n    tag_35:\n      dup3\n      add\n      swap2\n      swap1\n      0x00\n      mstore\n      keccak256(0x00, 0x20)\n      swap1\n    tag_36:\n      dup2\n      sload\n      dup2\n      mstore\n      swap1\n      0x01\n      add\n      swap1\n      0x20\n      add\n      dup1\n      dup4\n      gt\n      tag_36\n      jumpi\n      dup3\n      swap1\n      sub\n      0x1f\n      and\n      dup3\n      add\n      swap2\n    tag_34:\n      pop\n      pop\n      pop\n      pop\n      pop\n      swap1\n      dup1\n      0x02\n      add\n      sload\n      swap1\n      dup1\n      0x03\n      add\n      sload\n      swap1\n      pop\n      dup5\n      jump\t// out\n        /* \"contracts/twittwr.sol\":669:790  function getTweet(uint _i ,address _owner)public view  returns (Tweet memory) {... */\n    tag_16:\n        /* \"contracts/twittwr.sol\":733:745  Tweet memory */\n      tag_37\n      tag_38\n      jump\t// in\n    tag_37:\n        /* \"contracts/twittwr.sol\":765:771  tweets */\n      0x00\n        /* \"contracts/twittwr.sol\":765:779  tweets[_owner] */\n      dup1\n        /* \"contracts/twittwr.sol\":772:778  _owner */\n      dup4\n        /* \"contracts/twittwr.sol\":765:779  tweets[_owner] */\n      0xffffffffffffffffffffffffffffffffffffffff\n      and\n      0xffffffffffffffffffffffffffffffffffffffff\n      and\n      dup2\n      mstore\n      0x20\n      add\n      swap1\n      dup2\n      mstore\n      0x20\n      add\n      0x00\n      keccak256\n        /* \"contracts/twittwr.sol\":780:782  _i */\n      dup4\n        /* \"contracts/twittwr.sol\":765:783  tweets[_owner][_i] */\n      dup2\n      sload\n      dup2\n      lt\n      tag_40\n      jumpi\n      tag_41\n      tag_42\n      jump\t// in\n    tag_41:\n    tag_40:\n      swap1\n      0x00\n      mstore\n      keccak256(0x00, 0x20)\n      swap1\n      0x04\n      mul\n      add\n        /* \"contracts/twittwr.sol\":758:783  return tweets[_owner][_i] */\n      mload(0x40)\n      dup1\n      0x80\n      add\n      0x40\n      mstore\n      swap1\n      dup2\n      0x00\n      dup3\n      add\n      0x00\n      swap1\n      sload\n      swap1\n      0x0100\n      exp\n      swap1\n      div\n      0xffffffffffffffffffffffffffffffffffffffff\n      and\n      0xffffffffffffffffffffffffffffffffffffffff\n      and\n      0xffffffffffffffffffffffffffffffffffffffff\n      and\n      dup2\n      mstore\n      0x20\n      add\n      0x01\n      dup3\n      add\n      dup1\n      sload\n      tag_44\n      swap1\n      tag_32\n      jump\t// in\n    tag_44:\n      dup1\n      0x1f\n      add\n      0x20\n      dup1\n      swap2\n      div\n      mul\n      0x20\n      add\n      mload(0x40)\n      swap1\n      dup2\n      add\n      0x40\n      mstore\n      dup1\n      swap3\n      swap2\n      swap1\n      dup2\n      dup2\n      mstore\n      0x20\n      add\n      dup3\n      dup1\n      sload\n      tag_45\n      swap1\n      tag_32\n      jump\t// in\n    tag_45:\n      dup1\n      iszero\n      tag_46\n      jumpi\n      dup1\n      0x1f\n      lt\n      tag_47\n      jumpi\n      0x0100\n      dup1\n      dup4\n      sload\n      div\n      mul\n      dup4\n      mstore\n      swap2\n      0x20\n      add\n      swap2\n      jump(tag_46)\n    tag_47:\n      dup3\n      add\n      swap2\n      swap1\n      0x00\n      mstore\n      keccak256(0x00, 0x20)\n      swap1\n    tag_48:\n      dup2\n      sload\n      dup2\n      mstore\n      swap1\n      0x01\n      add\n      swap1\n      0x20\n      add\n      dup1\n      dup4\n      gt\n      tag_48\n      jumpi\n      dup3\n      swap1\n      sub\n      0x1f\n      and\n      dup3\n      add\n      swap2\n    tag_46:\n      pop\n      pop\n      pop\n      pop\n      pop\n      dup2\n      mstore\n      0x20\n      add\n      0x02\n      dup3\n      add\n      sload\n      dup2\n      mstore\n      0x20\n      add\n      0x03\n      dup3\n      add\n      sload\n      dup2\n      mstore\n      pop\n      pop\n      swap1\n      pop\n        /* \"contracts/twittwr.sol\":669:790  function getTweet(uint _i ,address _owner)public view  returns (Tweet memory) {... */\n      swap3\n      swap2\n      pop\n      pop\n      jump\t// out\n        /* \"contracts/twittwr.sol\":305:664  function createTweet(string memory _tweets)public {... */\n    tag_22:\n        /* \"contracts/twittwr.sol\":123:126  100 */\n      0x64\n        /* \"contracts/twittwr.sol\":379:386  _tweets */\n      dup2\n        /* \"contracts/twittwr.sol\":373:394  bytes(_tweets).length */\n      mload\n        /* \"contracts/twittwr.sol\":373:414  bytes(_tweets).length <= MAX_TWEEN_LENGTH */\n      gt\n      iszero\n        /* \"contracts/twittwr.sol\":365:442  require(bytes(_tweets).length <= MAX_TWEEN_LENGTH, \"tweet is to leangth...!\") */\n      tag_50\n      jumpi\n      mload(0x40)\n      0x08c379a000000000000000000000000000000000000000000000000000000000\n      dup2\n      mstore\n      0x04\n      add\n      tag_51\n      swap1\n      tag_52\n      jump\t// in\n    tag_51:\n      mload(0x40)\n      dup1\n      swap2\n      sub\n      swap1\n      revert\n    tag_50:\n        /* \"contracts/twittwr.sol\":452:473  Tweet memory newTweet */\n      0x00\n        /* \"contracts/twittwr.sol\":476:614  Tweet({... */\n      mload(0x40)\n      dup1\n      0x80\n      add\n      0x40\n      mstore\n      dup1\n        /* \"contracts/twittwr.sol\":503:513  msg.sender */\n      caller\n        /* \"contracts/twittwr.sol\":476:614  Tweet({... */\n      0xffffffffffffffffffffffffffffffffffffffff\n      and\n      dup2\n      mstore\n      0x20\n      add\n        /* \"contracts/twittwr.sol\":535:542  _tweets */\n      dup4\n        /* \"contracts/twittwr.sol\":476:614  Tweet({... */\n      dup2\n      mstore\n      0x20\n      add\n        /* \"contracts/twittwr.sol\":567:582  block.timestamp */\n      timestamp\n        /* \"contracts/twittwr.sol\":476:614  Tweet({... */\n      dup2\n      mstore\n      0x20\n      add\n        /* \"contracts/twittwr.sol\":602:603  0 */\n      0x00\n        /* \"contracts/twittwr.sol\":476:614  Tweet({... */\n      dup2\n      mstore\n      pop\n        /* \"contracts/twittwr.sol\":452:614  Tweet memory newTweet = Tweet({... */\n      swap1\n      pop\n        /* \"contracts/twittwr.sol\":624:630  tweets */\n      0x00\n        /* \"contracts/twittwr.sol\":624:642  tweets[msg.sender] */\n      dup1\n        /* \"contracts/twittwr.sol\":631:641  msg.sender */\n      caller\n        /* \"contracts/twittwr.sol\":624:642  tweets[msg.sender] */\n      0xffffffffffffffffffffffffffffffffffffffff\n      and\n      0xffffffffffffffffffffffffffffffffffffffff\n      and\n      dup2\n      mstore\n      0x20\n      add\n      swap1\n      dup2\n      mstore\n      0x20\n      add\n      0x00\n      keccak256\n        /* \"contracts/twittwr.sol\":648:656  newTweet */\n      dup2\n        /* \"contracts/twittwr.sol\":624:657  tweets[msg.sender].push(newTweet) */\n      swap1\n      dup1\n      0x01\n      dup2\n      sload\n      add\n      dup1\n      dup3\n      sstore\n      dup1\n      swap2\n      pop\n      pop\n      0x01\n      swap1\n      sub\n      swap1\n      0x00\n      mstore\n      keccak256(0x00, 0x20)\n      swap1\n      0x04\n      mul\n      add\n      0x00\n      swap1\n      swap2\n      swap1\n      swap2\n      swap1\n      swap2\n      pop\n      0x00\n      dup3\n      add\n      mload\n      dup2\n      0x00\n      add\n      exp(0x0100, 0x00)\n      dup2\n      sload\n      dup2\n      0xffffffffffffffffffffffffffffffffffffffff\n      mul\n      not\n      and\n      swap1\n      dup4\n      0xffffffffffffffffffffffffffffffffffffffff\n      and\n      mul\n      or\n      swap1\n      sstore\n      pop\n      0x20\n      dup3\n      add\n      mload\n      dup2\n      0x01\n      add\n      swap1\n      dup2\n      tag_54\n      swap2\n      swap1\n      tag_55\n      jump\t// in\n    tag_54:\n      pop\n      0x40\n      dup3\n      add\n      mload\n      dup2\n      0x02\n      add\n      sstore\n      0x60\n      dup3\n      add\n      mload\n      dup2\n      0x03\n      add\n      sstore\n      pop\n      pop\n        /* \"contracts/twittwr.sol\":355:664  {... */\n      pop\n        /* \"contracts/twittwr.sol\":305:664  function createTweet(string memory _tweets)public {... */\n      pop\n      jump\t// out\n        /* \"contracts/twittwr.sol\":795:914  function getAllTweet(address _all_owner)public  view  returns(Tweet[] memory){... */\n    tag_26:\n        /* \"contracts/twittwr.sol\":857:871  Tweet[] memory */\n      0x60\n        /* \"contracts/twittwr.sol\":889:895  tweets */\n      0x00\n        /* \"contracts/twittwr.sol\":889:907  tweets[_all_owner] */\n      dup1\n        /* \"contracts/twittwr.sol\":896:906  _all_owner */\n      dup4\n        /* \"contracts/twittwr.sol\":889:907  tweets[_all_owner] */\n      0xffffffffffffffffffffffffffffffffffffffff\n      and\n      0xffffffffffffffffffffffffffffffffffffffff\n      and\n      dup2\n      mstore\n      0x20\n      add\n      swap1\n      dup2\n      mstore\n      0x20\n      add\n      0x00\n      keccak256\n        /* \"contracts/twittwr.sol\":882:907  return tweets[_all_owner] */\n      dup1\n      sload\n      dup1\n      0x20\n      mul\n      0x20\n      add\n      mload(0x40)\n      swap1\n      dup2\n      add\n      0x40\n      mstore\n      dup1\n      swap3\n      swap2\n      swap1\n      dup2\n      dup2\n      mstore\n      0x20\n      add\n      0x00\n      swap1\n    tag_57:\n      dup3\n      dup3\n      lt\n      iszero\n      tag_58\n      jumpi\n      dup4\n      dup3\n      swap1\n      0x00\n      mstore\n      keccak256(0x00, 0x20)\n      swap1\n      0x04\n      mul\n      add\n      mload(0x40)\n      dup1\n      0x80\n      add\n      0x40\n      mstore\n      swap1\n      dup2\n      0x00\n      dup3\n      add\n      0x00\n      swap1\n      sload\n      swap1\n      0x0100\n      exp\n      swap1\n      div\n      0xffffffffffffffffffffffffffffffffffffffff\n      and\n      0xffffffffffffffffffffffffffffffffffffffff\n      and\n      0xffffffffffffffffffffffffffffffffffffffff\n      and\n      dup2\n      mstore\n      0x20\n      add\n      0x01\n      dup3\n      add\n      dup1\n      sload\n      tag_60\n      swap1\n      tag_32\n      jump\t// in\n    tag_60:\n      dup1\n      0x1f\n      add\n      0x20\n      dup1\n      swap2\n      div\n      mul\n      0x20\n      add\n      mload(0x40)\n      swap1\n      dup2\n      add\n      0x40\n      mstore\n      dup1\n      swap3\n      swap2\n      swap1\n      dup2\n      dup2\n      mstore\n      0x20\n      add\n      dup3\n      dup1\n      sload\n      tag_61\n      swap1\n      tag_32\n      jump\t// in\n    tag_61:\n      dup1\n      iszero\n      tag_62\n      jumpi\n      dup1\n      0x1f\n      lt\n      tag_63\n      jumpi\n      0x0100\n      dup1\n      dup4\n      sload\n      div\n      mul\n      dup4\n      mstore\n      swap2\n      0x20\n      add\n      swap2\n      jump(tag_62)\n    tag_63:\n      dup3\n      add\n      swap2\n      swap1\n      0x00\n      mstore\n      keccak256(0x00, 0x20)\n      swap1\n    tag_64:\n      dup2\n      sload\n      dup2\n      mstore\n      swap1\n      0x01\n      add\n      swap1\n      0x20\n      add\n      dup1\n      dup4\n      gt\n      tag_64\n      jumpi\n      dup3\n      swap1\n      sub\n      0x1f\n      and\n      dup3\n      add\n      swap2\n    tag_62:\n      pop\n      pop\n      pop\n      pop\n      pop\n      dup2\n      mstore\n      0x20\n      add\n      0x02\n      dup3\n      add\n      sload\n      dup2\n      mstore\n      0x20\n      add\n      0x03\n      dup3\n      add\n      sload\n      dup2\n      mstore\n      pop\n      pop\n      dup2\n      mstore\n      0x20\n      add\n      swap1\n      0x01\n      add\n      swap1\n      jump(tag_57)\n    tag_58:\n      pop\n      pop\n      pop\n      pop\n      swap1\n      pop\n        /* \"contracts/twittwr.sol\":795:914  function getAllTweet(address _all_owner)public  view  returns(Tweet[] memory){... */\n      swap2\n      swap1\n      pop\n      jump\t// out\n    tag_38:\n      mload(0x40)\n      dup1\n      0x80\n      add\n      0x40\n      mstore\n      dup1\n      and(0xffffffffffffffffffffffffffffffffffffffff, 0x00)\n      dup2\n      mstore\n      0x20\n      add\n      0x60\n      dup2\n      mstore\n      0x20\n      add\n      0x00\n      dup2\n      mstore\n      0x20\n      add\n      0x00\n      dup2\n      mstore\n      pop\n      swap1\n      jump\t// out\n        /* \"#utility.yul\":7:82   */\n    tag_65:\n        /* \"#utility.yul\":40:46   */\n      0x00\n        /* \"#utility.yul\":73:75   */\n      0x40\n        /* \"#utility.yul\":67:76   */\n      mload\n        /* \"#utility.yul\":57:76   */\n      swap1\n      pop\n        /* \"#utility.yul\":7:82   */\n      swap1\n      jump\t// out\n        /* \"#utility.yul\":88:205   */\n    tag_66:\n        /* \"#utility.yul\":197:198   */\n      0x00\n        /* \"#utility.yul\":194:195   */\n      dup1\n        /* \"#utility.yul\":187:199   */\n      revert\n        /* \"#utility.yul\":211:328   */\n    tag_67:\n        /* \"#utility.yul\":320:321   */\n      0x00\n        /* \"#utility.yul\":317:318   */\n      dup1\n        /* \"#utility.yul\":310:322   */\n      revert\n        /* \"#utility.yul\":334:460   */\n    tag_68:\n        /* \"#utility.yul\":371:378   */\n      0x00\n        /* \"#utility.yul\":411:453   */\n      0xffffffffffffffffffffffffffffffffffffffff\n        /* \"#utility.yul\":404:409   */\n      dup3\n        /* \"#utility.yul\":400:454   */\n      and\n        /* \"#utility.yul\":389:454   */\n      swap1\n      pop\n        /* \"#utility.yul\":334:460   */\n      swap2\n      swap1\n      pop\n      jump\t// out\n        /* \"#utility.yul\":466:562   */\n    tag_69:\n        /* \"#utility.yul\":503:510   */\n      0x00\n        /* \"#utility.yul\":532:556   */\n      tag_127\n        /* \"#utility.yul\":550:555   */\n      dup3\n        /* \"#utility.yul\":532:556   */\n      tag_68\n      jump\t// in\n    tag_127:\n        /* \"#utility.yul\":521:556   */\n      swap1\n      pop\n        /* \"#utility.yul\":466:562   */\n      swap2\n      swap1\n      pop\n      jump\t// out\n        /* \"#utility.yul\":568:690   */\n    tag_70:\n        /* \"#utility.yul\":641:665   */\n      tag_129\n        /* \"#utility.yul\":659:664   */\n      dup2\n        /* \"#utility.yul\":641:665   */\n      tag_69\n      jump\t// in\n    tag_129:\n        /* \"#utility.yul\":634:639   */\n      dup2\n        /* \"#utility.yul\":631:666   */\n      eq\n        /* \"#utility.yul\":621:684   */\n      tag_130\n      jumpi\n        /* \"#utility.yul\":680:681   */\n      0x00\n        /* \"#utility.yul\":677:678   */\n      dup1\n        /* \"#utility.yul\":670:682   */\n      revert\n        /* \"#utility.yul\":621:684   */\n    tag_130:\n        /* \"#utility.yul\":568:690   */\n      pop\n      jump\t// out\n        /* \"#utility.yul\":696:835   */\n    tag_71:\n        /* \"#utility.yul\":742:747   */\n      0x00\n        /* \"#utility.yul\":780:786   */\n      dup2\n        /* \"#utility.yul\":767:787   */\n      calldataload\n        /* \"#utility.yul\":758:787   */\n      swap1\n      pop\n        /* \"#utility.yul\":796:829   */\n      tag_132\n        /* \"#utility.yul\":823:828   */\n      dup2\n        /* \"#utility.yul\":796:829   */\n      tag_70\n      jump\t// in\n    tag_132:\n        /* \"#utility.yul\":696:835   */\n      swap3\n      swap2\n      pop\n      pop\n      jump\t// out\n        /* \"#utility.yul\":841:918   */\n    tag_72:\n        /* \"#utility.yul\":878:885   */\n      0x00\n        /* \"#utility.yul\":907:912   */\n      dup2\n        /* \"#utility.yul\":896:912   */\n      swap1\n      pop\n        /* \"#utility.yul\":841:918   */\n      swap2\n      swap1\n      pop\n      jump\t// out\n        /* \"#utility.yul\":924:1046   */\n    tag_73:\n        /* \"#utility.yul\":997:1021   */\n      tag_135\n        /* \"#utility.yul\":1015:1020   */\n      dup2\n        /* \"#utility.yul\":997:1021   */\n      tag_72\n      jump\t// in\n    tag_135:\n        /* \"#utility.yul\":990:995   */\n      dup2\n        /* \"#utility.yul\":987:1022   */\n      eq\n        /* \"#utility.yul\":977:1040   */\n      tag_136\n      jumpi\n        /* \"#utility.yul\":1036:1037   */\n      0x00\n        /* \"#utility.yul\":1033:1034   */\n      dup1\n        /* \"#utility.yul\":1026:1038   */\n      revert\n        /* \"#utility.yul\":977:1040   */\n    tag_136:\n        /* \"#utility.yul\":924:1046   */\n      pop\n      jump\t// out\n        /* \"#utility.yul\":1052:1191   */\n    tag_74:\n        /* \"#utility.yul\":1098:1103   */\n      0x00\n        /* \"#utility.yul\":1136:1142   */\n      dup2\n        /* \"#utility.yul\":1123:1143   */\n      calldataload\n        /* \"#utility.yul\":1114:1143   */\n      swap1\n      pop\n        /* \"#utility.yul\":1152:1185   */\n      tag_138\n        /* \"#utility.yul\":1179:1184   */\n      dup2\n        /* \"#utility.yul\":1152:1185   */\n      tag_73\n      jump\t// in\n    tag_138:\n        /* \"#utility.yul\":1052:1191   */\n      swap3\n      swap2\n      pop\n      pop\n      jump\t// out\n        /* \"#utility.yul\":1197:1671   */\n    tag_9:\n        /* \"#utility.yul\":1265:1271   */\n      0x00\n        /* \"#utility.yul\":1273:1279   */\n      dup1\n        /* \"#utility.yul\":1322:1324   */\n      0x40\n        /* \"#utility.yul\":1310:1319   */\n      dup4\n        /* \"#utility.yul\":1301:1308   */\n      dup6\n        /* \"#utility.yul\":1297:1320   */\n      sub\n        /* \"#utility.yul\":1293:1325   */\n      slt\n        /* \"#utility.yul\":1290:1409   */\n      iszero\n      tag_140\n      jumpi\n        /* \"#utility.yul\":1328:1407   */\n      tag_141\n      tag_66\n      jump\t// in\n    tag_141:\n        /* \"#utility.yul\":1290:1409   */\n    tag_140:\n        /* \"#utility.yul\":1448:1449   */\n      0x00\n        /* \"#utility.yul\":1473:1526   */\n      tag_142\n        /* \"#utility.yul\":1518:1525   */\n      dup6\n        /* \"#utility.yul\":1509:1515   */\n      dup3\n        /* \"#utility.yul\":1498:1507   */\n      dup7\n        /* \"#utility.yul\":1494:1516   */\n      add\n        /* \"#utility.yul\":1473:1526   */\n      tag_71\n      jump\t// in\n    tag_142:\n        /* \"#utility.yul\":1463:1526   */\n      swap3\n      pop\n        /* \"#utility.yul\":1419:1536   */\n      pop\n        /* \"#utility.yul\":1575:1577   */\n      0x20\n        /* \"#utility.yul\":1601:1654   */\n      tag_143\n        /* \"#utility.yul\":1646:1653   */\n      dup6\n        /* \"#utility.yul\":1637:1643   */\n      dup3\n        /* \"#utility.yul\":1626:1635   */\n      dup7\n        /* \"#utility.yul\":1622:1644   */\n      add\n        /* \"#utility.yul\":1601:1654   */\n      tag_74\n      jump\t// in\n    tag_143:\n        /* \"#utility.yul\":1591:1654   */\n      swap2\n      pop\n        /* \"#utility.yul\":1546:1664   */\n      pop\n        /* \"#utility.yul\":1197:1671   */\n      swap3\n      pop\n      swap3\n      swap1\n      pop\n      jump\t// out\n        /* \"#utility.yul\":1677:1795   */\n    tag_75:\n        /* \"#utility.yul\":1764:1788   */\n      tag_145\n        /* \"#utility.yul\":1782:1787   */\n      dup2\n        /* \"#utility.yul\":1764:1788   */\n      tag_69\n      jump\t// in\n    tag_145:\n        /* \"#utility.yul\":1759:1762   */\n      dup3\n        /* \"#utility.yul\":1752:1789   */\n      mstore\n        /* \"#utility.yul\":1677:1795   */\n      pop\n      pop\n      jump\t// out\n        /* \"#utility.yul\":1801:1900   */\n    tag_76:\n        /* \"#utility.yul\":1853:1859   */\n      0x00\n        /* \"#utility.yul\":1887:1892   */\n      dup2\n        /* \"#utility.yul\":1881:1893   */\n      mload\n        /* \"#utility.yul\":1871:1893   */\n      swap1\n      pop\n        /* \"#utility.yul\":1801:1900   */\n      swap2\n      swap1\n      pop\n      jump\t// out\n        /* \"#utility.yul\":1906:2075   */\n    tag_77:\n        /* \"#utility.yul\":1990:2001   */\n      0x00\n        /* \"#utility.yul\":2024:2030   */\n      dup3\n        /* \"#utility.yul\":2019:2022   */\n      dup3\n        /* \"#utility.yul\":2012:2031   */\n      mstore\n        /* \"#utility.yul\":2064:2068   */\n      0x20\n        /* \"#utility.yul\":2059:2062   */\n      dup3\n        /* \"#utility.yul\":2055:2069   */\n      add\n        /* \"#utility.yul\":2040:2069   */\n      swap1\n      pop\n        /* \"#utility.yul\":1906:2075   */\n      swap3\n      swap2\n      pop\n      pop\n      jump\t// out\n        /* \"#utility.yul\":2081:2220   */\n    tag_78:\n        /* \"#utility.yul\":2170:2176   */\n      dup3\n        /* \"#utility.yul\":2165:2168   */\n      dup2\n        /* \"#utility.yul\":2160:2163   */\n      dup4\n        /* \"#utility.yul\":2154:2177   */\n      mcopy\n        /* \"#utility.yul\":2211:2212   */\n      0x00\n        /* \"#utility.yul\":2202:2208   */\n      dup4\n        /* \"#utility.yul\":2197:2200   */\n      dup4\n        /* \"#utility.yul\":2193:2209   */\n      add\n        /* \"#utility.yul\":2186:2213   */\n      mstore\n        /* \"#utility.yul\":2081:2220   */\n      pop\n      pop\n      pop\n      jump\t// out\n        /* \"#utility.yul\":2226:2328   */\n    tag_79:\n        /* \"#utility.yul\":2267:2273   */\n      0x00\n        /* \"#utility.yul\":2318:2320   */\n      0x1f\n        /* \"#utility.yul\":2314:2321   */\n      not\n        /* \"#utility.yul\":2309:2311   */\n      0x1f\n        /* \"#utility.yul\":2302:2307   */\n      dup4\n        /* \"#utility.yul\":2298:2312   */\n      add\n        /* \"#utility.yul\":2294:2322   */\n      and\n        /* \"#utility.yul\":2284:2322   */\n      swap1\n      pop\n        /* \"#utility.yul\":2226:2328   */\n      swap2\n      swap1\n      pop\n      jump\t// out\n        /* \"#utility.yul\":2334:2711   */\n    tag_80:\n        /* \"#utility.yul\":2422:2425   */\n      0x00\n        /* \"#utility.yul\":2450:2489   */\n      tag_151\n        /* \"#utility.yul\":2483:2488   */\n      dup3\n        /* \"#utility.yul\":2450:2489   */\n      tag_76\n      jump\t// in\n    tag_151:\n        /* \"#utility.yul\":2505:2576   */\n      tag_152\n        /* \"#utility.yul\":2569:2575   */\n      dup2\n        /* \"#utility.yul\":2564:2567   */\n      dup6\n        /* \"#utility.yul\":2505:2576   */\n      tag_77\n      jump\t// in\n    tag_152:\n        /* \"#utility.yul\":2498:2576   */\n      swap4\n      pop\n        /* \"#utility.yul\":2585:2650   */\n      tag_153\n        /* \"#utility.yul\":2643:2649   */\n      dup2\n        /* \"#utility.yul\":2638:2641   */\n      dup6\n        /* \"#utility.yul\":2631:2635   */\n      0x20\n        /* \"#utility.yul\":2624:2629   */\n      dup7\n        /* \"#utility.yul\":2620:2636   */\n      add\n        /* \"#utility.yul\":2585:2650   */\n      tag_78\n      jump\t// in\n    tag_153:\n        /* \"#utility.yul\":2675:2704   */\n      tag_154\n        /* \"#utility.yul\":2697:2703   */\n      dup2\n        /* \"#utility.yul\":2675:2704   */\n      tag_79\n      jump\t// in\n    tag_154:\n        /* \"#utility.yul\":2670:2673   */\n      dup5\n        /* \"#utility.yul\":2666:2705   */\n      add\n        /* \"#utility.yul\":2659:2705   */\n      swap2\n      pop\n        /* \"#utility.yul\":2426:2711   */\n      pop\n        /* \"#utility.yul\":2334:2711   */\n      swap3\n      swap2\n      pop\n      pop\n      jump\t// out\n        /* \"#utility.yul\":2717:2835   */\n    tag_81:\n        /* \"#utility.yul\":2804:2828   */\n      tag_156\n        /* \"#utility.yul\":2822:2827   */\n      dup2\n        /* \"#utility.yul\":2804:2828   */\n      tag_72\n      jump\t// in\n    tag_156:\n        /* \"#utility.yul\":2799:2802   */\n      dup3\n        /* \"#utility.yul\":2792:2829   */\n      mstore\n        /* \"#utility.yul\":2717:2835   */\n      pop\n      pop\n      jump\t// out\n        /* \"#utility.yul\":2841:3485   */\n    tag_12:\n        /* \"#utility.yul\":3038:3042   */\n      0x00\n        /* \"#utility.yul\":3076:3079   */\n      0x80\n        /* \"#utility.yul\":3065:3074   */\n      dup3\n        /* \"#utility.yul\":3061:3080   */\n      add\n        /* \"#utility.yul\":3053:3080   */\n      swap1\n      pop\n        /* \"#utility.yul\":3090:3161   */\n      tag_158\n        /* \"#utility.yul\":3158:3159   */\n      0x00\n        /* \"#utility.yul\":3147:3156   */\n      dup4\n        /* \"#utility.yul\":3143:3160   */\n      add\n        /* \"#utility.yul\":3134:3140   */\n      dup8\n        /* \"#utility.yul\":3090:3161   */\n      tag_75\n      jump\t// in\n    tag_158:\n        /* \"#utility.yul\":3208:3217   */\n      dup2\n        /* \"#utility.yul\":3202:3206   */\n      dup2\n        /* \"#utility.yul\":3198:3218   */\n      sub\n        /* \"#utility.yul\":3193:3195   */\n      0x20\n        /* \"#utility.yul\":3182:3191   */\n      dup4\n        /* \"#utility.yul\":3178:3196   */\n      add\n        /* \"#utility.yul\":3171:3219   */\n      mstore\n        /* \"#utility.yul\":3236:3314   */\n      tag_159\n        /* \"#utility.yul\":3309:3313   */\n      dup2\n        /* \"#utility.yul\":3300:3306   */\n      dup7\n        /* \"#utility.yul\":3236:3314   */\n      tag_80\n      jump\t// in\n    tag_159:\n        /* \"#utility.yul\":3228:3314   */\n      swap1\n      pop\n        /* \"#utility.yul\":3324:3396   */\n      tag_160\n        /* \"#utility.yul\":3392:3394   */\n      0x40\n        /* \"#utility.yul\":3381:3390   */\n      dup4\n        /* \"#utility.yul\":3377:3395   */\n      add\n        /* \"#utility.yul\":3368:3374   */\n      dup6\n        /* \"#utility.yul\":3324:3396   */\n      tag_81\n      jump\t// in\n    tag_160:\n        /* \"#utility.yul\":3406:3478   */\n      tag_161\n        /* \"#utility.yul\":3474:3476   */\n      0x60\n        /* \"#utility.yul\":3463:3472   */\n      dup4\n        /* \"#utility.yul\":3459:3477   */\n      add\n        /* \"#utility.yul\":3450:3456   */\n      dup5\n        /* \"#utility.yul\":3406:3478   */\n      tag_81\n      jump\t// in\n    tag_161:\n        /* \"#utility.yul\":2841:3485   */\n      swap6\n      swap5\n      pop\n      pop\n      pop\n      pop\n      pop\n      jump\t// out\n        /* \"#utility.yul\":3491:3965   */\n    tag_15:\n        /* \"#utility.yul\":3559:3565   */\n      0x00\n        /* \"#utility.yul\":3567:3573   */\n      dup1\n        /* \"#utility.yul\":3616:3618   */\n      0x40\n        /* \"#utility.yul\":3604:3613   */\n      dup4\n        /* \"#utility.yul\":3595:3602   */\n      dup6\n        /* \"#utility.yul\":3591:3614   */\n      sub\n        /* \"#utility.yul\":3587:3619   */\n      slt\n        /* \"#utility.yul\":3584:3703   */\n      iszero\n      tag_163\n      jumpi\n        /* \"#utility.yul\":3622:3701   */\n      tag_164\n      tag_66\n      jump\t// in\n    tag_164:\n        /* \"#utility.yul\":3584:3703   */\n    tag_163:\n        /* \"#utility.yul\":3742:3743   */\n      0x00\n        /* \"#utility.yul\":3767:3820   */\n      tag_165\n        /* \"#utility.yul\":3812:3819   */\n      dup6\n        /* \"#utility.yul\":3803:3809   */\n      dup3\n        /* \"#utility.yul\":3792:3801   */\n      dup7\n        /* \"#utility.yul\":3788:3810   */\n      add\n        /* \"#utility.yul\":3767:3820   */\n      tag_74\n      jump\t// in\n    tag_165:\n        /* \"#utility.yul\":3757:3820   */\n      swap3\n      pop\n        /* \"#utility.yul\":3713:3830   */\n      pop\n        /* \"#utility.yul\":3869:3871   */\n      0x20\n        /* \"#utility.yul\":3895:3948   */\n      tag_166\n        /* \"#utility.yul\":3940:3947   */\n      dup6\n        /* \"#utility.yul\":3931:3937   */\n      dup3\n        /* \"#utility.yul\":3920:3929   */\n      dup7\n        /* \"#utility.yul\":3916:3938   */\n      add\n        /* \"#utility.yul\":3895:3948   */\n      tag_71\n      jump\t// in\n    tag_166:\n        /* \"#utility.yul\":3885:3948   */\n      swap2\n      pop\n        /* \"#utility.yul\":3840:3958   */\n      pop\n        /* \"#utility.yul\":3491:3965   */\n      swap3\n      pop\n      swap3\n      swap1\n      pop\n      jump\t// out\n        /* \"#utility.yul\":3971:4079   */\n    tag_82:\n        /* \"#utility.yul\":4048:4072   */\n      tag_168\n        /* \"#utility.yul\":4066:4071   */\n      dup2\n        /* \"#utility.yul\":4048:4072   */\n      tag_69\n      jump\t// in\n    tag_168:\n        /* \"#utility.yul\":4043:4046   */\n      dup3\n        /* \"#utility.yul\":4036:4073   */\n      mstore\n        /* \"#utility.yul\":3971:4079   */\n      pop\n      pop\n      jump\t// out\n        /* \"#utility.yul\":4085:4244   */\n    tag_83:\n        /* \"#utility.yul\":4159:4170   */\n      0x00\n        /* \"#utility.yul\":4193:4199   */\n      dup3\n        /* \"#utility.yul\":4188:4191   */\n      dup3\n        /* \"#utility.yul\":4181:4200   */\n      mstore\n        /* \"#utility.yul\":4233:4237   */\n      0x20\n        /* \"#utility.yul\":4228:4231   */\n      dup3\n        /* \"#utility.yul\":4224:4238   */\n      add\n        /* \"#utility.yul\":4209:4238   */\n      swap1\n      pop\n        /* \"#utility.yul\":4085:4244   */\n      swap3\n      swap2\n      pop\n      pop\n      jump\t// out\n        /* \"#utility.yul\":4250:4607   */\n    tag_84:\n        /* \"#utility.yul\":4328:4331   */\n      0x00\n        /* \"#utility.yul\":4356:4395   */\n      tag_171\n        /* \"#utility.yul\":4389:4394   */\n      dup3\n        /* \"#utility.yul\":4356:4395   */\n      tag_76\n      jump\t// in\n    tag_171:\n        /* \"#utility.yul\":4411:4472   */\n      tag_172\n        /* \"#utility.yul\":4465:4471   */\n      dup2\n        /* \"#utility.yul\":4460:4463   */\n      dup6\n        /* \"#utility.yul\":4411:4472   */\n      tag_83\n      jump\t// in\n    tag_172:\n        /* \"#utility.yul\":4404:4472   */\n      swap4\n      pop\n        /* \"#utility.yul\":4481:4546   */\n      tag_173\n        /* \"#utility.yul\":4539:4545   */\n      dup2\n        /* \"#utility.yul\":4534:4537   */\n      dup6\n        /* \"#utility.yul\":4527:4531   */\n      0x20\n        /* \"#utility.yul\":4520:4525   */\n      dup7\n        /* \"#utility.yul\":4516:4532   */\n      add\n        /* \"#utility.yul\":4481:4546   */\n      tag_78\n      jump\t// in\n    tag_173:\n        /* \"#utility.yul\":4571:4600   */\n      tag_174\n        /* \"#utility.yul\":4593:4599   */\n      dup2\n        /* \"#utility.yul\":4571:4600   */\n      tag_79\n      jump\t// in\n    tag_174:\n        /* \"#utility.yul\":4566:4569   */\n      dup5\n        /* \"#utility.yul\":4562:4601   */\n      add\n        /* \"#utility.yul\":4555:4601   */\n      swap2\n      pop\n        /* \"#utility.yul\":4332:4607   */\n      pop\n        /* \"#utility.yul\":4250:4607   */\n      swap3\n      swap2\n      pop\n      pop\n      jump\t// out\n        /* \"#utility.yul\":4613:4721   */\n    tag_85:\n        /* \"#utility.yul\":4690:4714   */\n      tag_176\n        /* \"#utility.yul\":4708:4713   */\n      dup2\n        /* \"#utility.yul\":4690:4714   */\n      tag_72\n      jump\t// in\n    tag_176:\n        /* \"#utility.yul\":4685:4688   */\n      dup3\n        /* \"#utility.yul\":4678:4715   */\n      mstore\n        /* \"#utility.yul\":4613:4721   */\n      pop\n      pop\n      jump\t// out\n        /* \"#utility.yul\":4779:5737   */\n    tag_86:\n        /* \"#utility.yul\":4890:4893   */\n      0x00\n        /* \"#utility.yul\":4926:4930   */\n      0x80\n        /* \"#utility.yul\":4921:4924   */\n      dup4\n        /* \"#utility.yul\":4917:4931   */\n      add\n        /* \"#utility.yul\":5015:5019   */\n      0x00\n        /* \"#utility.yul\":5008:5013   */\n      dup4\n        /* \"#utility.yul\":5004:5020   */\n      add\n        /* \"#utility.yul\":4998:5021   */\n      mload\n        /* \"#utility.yul\":5034:5097   */\n      tag_178\n        /* \"#utility.yul\":5091:5095   */\n      0x00\n        /* \"#utility.yul\":5086:5089   */\n      dup7\n        /* \"#utility.yul\":5082:5096   */\n      add\n        /* \"#utility.yul\":5068:5080   */\n      dup3\n        /* \"#utility.yul\":5034:5097   */\n      tag_82\n      jump\t// in\n    tag_178:\n        /* \"#utility.yul\":4941:5107   */\n      pop\n        /* \"#utility.yul\":5192:5196   */\n      0x20\n        /* \"#utility.yul\":5185:5190   */\n      dup4\n        /* \"#utility.yul\":5181:5197   */\n      add\n        /* \"#utility.yul\":5175:5198   */\n      mload\n        /* \"#utility.yul\":5245:5248   */\n      dup5\n        /* \"#utility.yul\":5239:5243   */\n      dup3\n        /* \"#utility.yul\":5235:5249   */\n      sub\n        /* \"#utility.yul\":5228:5232   */\n      0x20\n        /* \"#utility.yul\":5223:5226   */\n      dup7\n        /* \"#utility.yul\":5219:5233   */\n      add\n        /* \"#utility.yul\":5212:5250   */\n      mstore\n        /* \"#utility.yul\":5271:5344   */\n      tag_179\n        /* \"#utility.yul\":5339:5343   */\n      dup3\n        /* \"#utility.yul\":5325:5337   */\n      dup3\n        /* \"#utility.yul\":5271:5344   */\n      tag_84\n      jump\t// in\n    tag_179:\n        /* \"#utility.yul\":5263:5344   */\n      swap2\n      pop\n        /* \"#utility.yul\":5117:5355   */\n      pop\n        /* \"#utility.yul\":5443:5447   */\n      0x40\n        /* \"#utility.yul\":5436:5441   */\n      dup4\n        /* \"#utility.yul\":5432:5448   */\n      add\n        /* \"#utility.yul\":5426:5449   */\n      mload\n        /* \"#utility.yul\":5462:5525   */\n      tag_180\n        /* \"#utility.yul\":5519:5523   */\n      0x40\n        /* \"#utility.yul\":5514:5517   */\n      dup7\n        /* \"#utility.yul\":5510:5524   */\n      add\n        /* \"#utility.yul\":5496:5508   */\n      dup3\n        /* \"#utility.yul\":5462:5525   */\n      tag_85\n      jump\t// in\n    tag_180:\n        /* \"#utility.yul\":5365:5535   */\n      pop\n        /* \"#utility.yul\":5618:5622   */\n      0x60\n        /* \"#utility.yul\":5611:5616   */\n      dup4\n        /* \"#utility.yul\":5607:5623   */\n      add\n        /* \"#utility.yul\":5601:5624   */\n      mload\n        /* \"#utility.yul\":5637:5700   */\n      tag_181\n        /* \"#utility.yul\":5694:5698   */\n      0x60\n        /* \"#utility.yul\":5689:5692   */\n      dup7\n        /* \"#utility.yul\":5685:5699   */\n      add\n        /* \"#utility.yul\":5671:5683   */\n      dup3\n        /* \"#utility.yul\":5637:5700   */\n      tag_85\n      jump\t// in\n    tag_181:\n        /* \"#utility.yul\":5545:5710   */\n      pop\n        /* \"#utility.yul\":5727:5731   */\n      dup1\n        /* \"#utility.yul\":5720:5731   */\n      swap2\n      pop\n        /* \"#utility.yul\":4895:5737   */\n      pop\n        /* \"#utility.yul\":4779:5737   */\n      swap3\n      swap2\n      pop\n      pop\n      jump\t// out\n        /* \"#utility.yul\":5743:6100   */\n    tag_18:\n        /* \"#utility.yul\":5878:5882   */\n      0x00\n        /* \"#utility.yul\":5916:5918   */\n      0x20\n        /* \"#utility.yul\":5905:5914   */\n      dup3\n        /* \"#utility.yul\":5901:5919   */\n      add\n        /* \"#utility.yul\":5893:5919   */\n      swap1\n      pop\n        /* \"#utility.yul\":5965:5974   */\n      dup2\n        /* \"#utility.yul\":5959:5963   */\n      dup2\n        /* \"#utility.yul\":5955:5975   */\n      sub\n        /* \"#utility.yul\":5951:5952   */\n      0x00\n        /* \"#utility.yul\":5940:5949   */\n      dup4\n        /* \"#utility.yul\":5936:5953   */\n      add\n        /* \"#utility.yul\":5929:5976   */\n      mstore\n        /* \"#utility.yul\":5993:6093   */\n      tag_183\n        /* \"#utility.yul\":6088:6092   */\n      dup2\n        /* \"#utility.yul\":6079:6085   */\n      dup5\n        /* \"#utility.yul\":5993:6093   */\n      tag_86\n      jump\t// in\n    tag_183:\n        /* \"#utility.yul\":5985:6093   */\n      swap1\n      pop\n        /* \"#utility.yul\":5743:6100   */\n      swap3\n      swap2\n      pop\n      pop\n      jump\t// out\n        /* \"#utility.yul\":6106:6223   */\n    tag_87:\n        /* \"#utility.yul\":6215:6216   */\n      0x00\n        /* \"#utility.yul\":6212:6213   */\n      dup1\n        /* \"#utility.yul\":6205:6217   */\n      revert\n        /* \"#utility.yul\":6229:6346   */\n    tag_88:\n        /* \"#utility.yul\":6338:6339   */\n      0x00\n        /* \"#utility.yul\":6335:6336   */\n      dup1\n        /* \"#utility.yul\":6328:6340   */\n      revert\n        /* \"#utility.yul\":6352:6532   */\n    tag_89:\n        /* \"#utility.yul\":6400:6477   */\n      0x4e487b7100000000000000000000000000000000000000000000000000000000\n        /* \"#utility.yul\":6397:6398   */\n      0x00\n        /* \"#utility.yul\":6390:6478   */\n      mstore\n        /* \"#utility.yul\":6497:6501   */\n      0x41\n        /* \"#utility.yul\":6494:6495   */\n      0x04\n        /* \"#utility.yul\":6487:6502   */\n      mstore\n        /* \"#utility.yul\":6521:6525   */\n      0x24\n        /* \"#utility.yul\":6518:6519   */\n      0x00\n        /* \"#utility.yul\":6511:6526   */\n      revert\n        /* \"#utility.yul\":6538:6819   */\n    tag_90:\n        /* \"#utility.yul\":6621:6648   */\n      tag_188\n        /* \"#utility.yul\":6643:6647   */\n      dup3\n        /* \"#utility.yul\":6621:6648   */\n      tag_79\n      jump\t// in\n    tag_188:\n        /* \"#utility.yul\":6613:6619   */\n      dup2\n        /* \"#utility.yul\":6609:6649   */\n      add\n        /* \"#utility.yul\":6751:6757   */\n      dup2\n        /* \"#utility.yul\":6739:6749   */\n      dup2\n        /* \"#utility.yul\":6736:6758   */\n      lt\n        /* \"#utility.yul\":6715:6733   */\n      0xffffffffffffffff\n        /* \"#utility.yul\":6703:6713   */\n      dup3\n        /* \"#utility.yul\":6700:6734   */\n      gt\n        /* \"#utility.yul\":6697:6759   */\n      or\n        /* \"#utility.yul\":6694:6782   */\n      iszero\n      tag_189\n      jumpi\n        /* \"#utility.yul\":6762:6780   */\n      tag_190\n      tag_89\n      jump\t// in\n    tag_190:\n        /* \"#utility.yul\":6694:6782   */\n    tag_189:\n        /* \"#utility.yul\":6802:6812   */\n      dup1\n        /* \"#utility.yul\":6798:6800   */\n      0x40\n        /* \"#utility.yul\":6791:6813   */\n      mstore\n        /* \"#utility.yul\":6581:6819   */\n      pop\n        /* \"#utility.yul\":6538:6819   */\n      pop\n      pop\n      jump\t// out\n        /* \"#utility.yul\":6825:6954   */\n    tag_91:\n        /* \"#utility.yul\":6859:6865   */\n      0x00\n        /* \"#utility.yul\":6886:6906   */\n      tag_192\n      tag_65\n      jump\t// in\n    tag_192:\n        /* \"#utility.yul\":6876:6906   */\n      swap1\n      pop\n        /* \"#utility.yul\":6915:6948   */\n      tag_193\n        /* \"#utility.yul\":6943:6947   */\n      dup3\n        /* \"#utility.yul\":6935:6941   */\n      dup3\n        /* \"#utility.yul\":6915:6948   */\n      tag_90\n      jump\t// in\n    tag_193:\n        /* \"#utility.yul\":6825:6954   */\n      swap2\n      swap1\n      pop\n      jump\t// out\n        /* \"#utility.yul\":6960:7268   */\n    tag_92:\n        /* \"#utility.yul\":7022:7026   */\n      0x00\n        /* \"#utility.yul\":7112:7130   */\n      0xffffffffffffffff\n        /* \"#utility.yul\":7104:7110   */\n      dup3\n        /* \"#utility.yul\":7101:7131   */\n      gt\n        /* \"#utility.yul\":7098:7154   */\n      iszero\n      tag_195\n      jumpi\n        /* \"#utility.yul\":7134:7152   */\n      tag_196\n      tag_89\n      jump\t// in\n    tag_196:\n        /* \"#utility.yul\":7098:7154   */\n    tag_195:\n        /* \"#utility.yul\":7172:7201   */\n      tag_197\n        /* \"#utility.yul\":7194:7200   */\n      dup3\n        /* \"#utility.yul\":7172:7201   */\n      tag_79\n      jump\t// in\n    tag_197:\n        /* \"#utility.yul\":7164:7201   */\n      swap1\n      pop\n        /* \"#utility.yul\":7256:7260   */\n      0x20\n        /* \"#utility.yul\":7250:7254   */\n      dup2\n        /* \"#utility.yul\":7246:7261   */\n      add\n        /* \"#utility.yul\":7238:7261   */\n      swap1\n      pop\n        /* \"#utility.yul\":6960:7268   */\n      swap2\n      swap1\n      pop\n      jump\t// out\n        /* \"#utility.yul\":7274:7422   */\n    tag_93:\n        /* \"#utility.yul\":7372:7378   */\n      dup3\n        /* \"#utility.yul\":7367:7370   */\n      dup2\n        /* \"#utility.yul\":7362:7365   */\n      dup4\n        /* \"#utility.yul\":7349:7379   */\n      calldatacopy\n        /* \"#utility.yul\":7413:7414   */\n      0x00\n        /* \"#utility.yul\":7404:7410   */\n      dup4\n        /* \"#utility.yul\":7399:7402   */\n      dup4\n        /* \"#utility.yul\":7395:7411   */\n      add\n        /* \"#utility.yul\":7388:7415   */\n      mstore\n        /* \"#utility.yul\":7274:7422   */\n      pop\n      pop\n      pop\n      jump\t// out\n        /* \"#utility.yul\":7428:7853   */\n    tag_94:\n        /* \"#utility.yul\":7506:7511   */\n      0x00\n        /* \"#utility.yul\":7531:7597   */\n      tag_200\n        /* \"#utility.yul\":7547:7596   */\n      tag_201\n        /* \"#utility.yul\":7589:7595   */\n      dup5\n        /* \"#utility.yul\":7547:7596   */\n      tag_92\n      jump\t// in\n    tag_201:\n        /* \"#utility.yul\":7531:7597   */\n      tag_91\n      jump\t// in\n    tag_200:\n        /* \"#utility.yul\":7522:7597   */\n      swap1\n      pop\n        /* \"#utility.yul\":7620:7626   */\n      dup3\n        /* \"#utility.yul\":7613:7618   */\n      dup2\n        /* \"#utility.yul\":7606:7627   */\n      mstore\n        /* \"#utility.yul\":7658:7662   */\n      0x20\n        /* \"#utility.yul\":7651:7656   */\n      dup2\n        /* \"#utility.yul\":7647:7663   */\n      add\n        /* \"#utility.yul\":7696:7699   */\n      dup5\n        /* \"#utility.yul\":7687:7693   */\n      dup5\n        /* \"#utility.yul\":7682:7685   */\n      dup5\n        /* \"#utility.yul\":7678:7694   */\n      add\n        /* \"#utility.yul\":7675:7700   */\n      gt\n        /* \"#utility.yul\":7672:7784   */\n      iszero\n      tag_202\n      jumpi\n        /* \"#utility.yul\":7703:7782   */\n      tag_203\n      tag_88\n      jump\t// in\n    tag_203:\n        /* \"#utility.yul\":7672:7784   */\n    tag_202:\n        /* \"#utility.yul\":7793:7847   */\n      tag_204\n        /* \"#utility.yul\":7840:7846   */\n      dup5\n        /* \"#utility.yul\":7835:7838   */\n      dup3\n        /* \"#utility.yul\":7830:7833   */\n      dup6\n        /* \"#utility.yul\":7793:7847   */\n      tag_93\n      jump\t// in\n    tag_204:\n        /* \"#utility.yul\":7512:7853   */\n      pop\n        /* \"#utility.yul\":7428:7853   */\n      swap4\n      swap3\n      pop\n      pop\n      pop\n      jump\t// out\n        /* \"#utility.yul\":7873:8213   */\n    tag_95:\n        /* \"#utility.yul\":7929:7934   */\n      0x00\n        /* \"#utility.yul\":7978:7981   */\n      dup3\n        /* \"#utility.yul\":7971:7975   */\n      0x1f\n        /* \"#utility.yul\":7963:7969   */\n      dup4\n        /* \"#utility.yul\":7959:7976   */\n      add\n        /* \"#utility.yul\":7955:7982   */\n      slt\n        /* \"#utility.yul\":7945:8067   */\n      tag_206\n      jumpi\n        /* \"#utility.yul\":7986:8065   */\n      tag_207\n      tag_87\n      jump\t// in\n    tag_207:\n        /* \"#utility.yul\":7945:8067   */\n    tag_206:\n        /* \"#utility.yul\":8103:8109   */\n      dup2\n        /* \"#utility.yul\":8090:8110   */\n      calldataload\n        /* \"#utility.yul\":8128:8207   */\n      tag_208\n        /* \"#utility.yul\":8203:8206   */\n      dup5\n        /* \"#utility.yul\":8195:8201   */\n      dup3\n        /* \"#utility.yul\":8188:8192   */\n      0x20\n        /* \"#utility.yul\":8180:8186   */\n      dup7\n        /* \"#utility.yul\":8176:8193   */\n      add\n        /* \"#utility.yul\":8128:8207   */\n      tag_94\n      jump\t// in\n    tag_208:\n        /* \"#utility.yul\":8119:8207   */\n      swap2\n      pop\n        /* \"#utility.yul\":7935:8213   */\n      pop\n        /* \"#utility.yul\":7873:8213   */\n      swap3\n      swap2\n      pop\n      pop\n      jump\t// out\n        /* \"#utility.yul\":8219:8728   */\n    tag_21:\n        /* \"#utility.yul\":8288:8294   */\n      0x00\n        /* \"#utility.yul\":8337:8339   */\n      0x20\n        /* \"#utility.yul\":8325:8334   */\n      dup3\n        /* \"#utility.yul\":8316:8323   */\n      dup5\n        /* \"#utility.yul\":8312:8335   */\n      sub\n        /* \"#utility.yul\":8308:8340   */\n      slt\n        /* \"#utility.yul\":8305:8424   */\n      iszero\n      tag_210\n      jumpi\n        /* \"#utility.yul\":8343:8422   */\n      tag_211\n      tag_66\n      jump\t// in\n    tag_211:\n        /* \"#utility.yul\":8305:8424   */\n    tag_210:\n        /* \"#utility.yul\":8491:8492   */\n      0x00\n        /* \"#utility.yul\":8480:8489   */\n      dup3\n        /* \"#utility.yul\":8476:8493   */\n      add\n        /* \"#utility.yul\":8463:8494   */\n      calldataload\n        /* \"#utility.yul\":8521:8539   */\n      0xffffffffffffffff\n        /* \"#utility.yul\":8513:8519   */\n      dup2\n        /* \"#utility.yul\":8510:8540   */\n      gt\n        /* \"#utility.yul\":8507:8624   */\n      iszero\n      tag_212\n      jumpi\n        /* \"#utility.yul\":8543:8622   */\n      tag_213\n      tag_67\n      jump\t// in\n    tag_213:\n        /* \"#utility.yul\":8507:8624   */\n    tag_212:\n        /* \"#utility.yul\":8648:8711   */\n      tag_214\n        /* \"#utility.yul\":8703:8710   */\n      dup5\n        /* \"#utility.yul\":8694:8700   */\n      dup3\n        /* \"#utility.yul\":8683:8692   */\n      dup6\n        /* \"#utility.yul\":8679:8701   */\n      add\n        /* \"#utility.yul\":8648:8711   */\n      tag_95\n      jump\t// in\n    tag_214:\n        /* \"#utility.yul\":8638:8711   */\n      swap2\n      pop\n        /* \"#utility.yul\":8434:8721   */\n      pop\n        /* \"#utility.yul\":8219:8728   */\n      swap3\n      swap2\n      pop\n      pop\n      jump\t// out\n        /* \"#utility.yul\":8734:9063   */\n    tag_25:\n        /* \"#utility.yul\":8793:8799   */\n      0x00\n        /* \"#utility.yul\":8842:8844   */\n      0x20\n        /* \"#utility.yul\":8830:8839   */\n      dup3\n        /* \"#utility.yul\":8821:8828   */\n      dup5\n        /* \"#utility.yul\":8817:8840   */\n      sub\n        /* \"#utility.yul\":8813:8845   */\n      slt\n        /* \"#utility.yul\":8810:8929   */\n      iszero\n      tag_216\n      jumpi\n        /* \"#utility.yul\":8848:8927   */\n      tag_217\n      tag_66\n      jump\t// in\n    tag_217:\n        /* \"#utility.yul\":8810:8929   */\n    tag_216:\n        /* \"#utility.yul\":8968:8969   */\n      0x00\n        /* \"#utility.yul\":8993:9046   */\n      tag_218\n        /* \"#utility.yul\":9038:9045   */\n      dup5\n        /* \"#utility.yul\":9029:9035   */\n      dup3\n        /* \"#utility.yul\":9018:9027   */\n      dup6\n        /* \"#utility.yul\":9014:9036   */\n      add\n        /* \"#utility.yul\":8993:9046   */\n      tag_71\n      jump\t// in\n    tag_218:\n        /* \"#utility.yul\":8983:9046   */\n      swap2\n      pop\n        /* \"#utility.yul\":8939:9056   */\n      pop\n        /* \"#utility.yul\":8734:9063   */\n      swap3\n      swap2\n      pop\n      pop\n      jump\t// out\n        /* \"#utility.yul\":9069:9204   */\n    tag_96:\n        /* \"#utility.yul\":9157:9163   */\n      0x00\n        /* \"#utility.yul\":9191:9196   */\n      dup2\n        /* \"#utility.yul\":9185:9197   */\n      mload\n        /* \"#utility.yul\":9175:9197   */\n      swap1\n      pop\n        /* \"#utility.yul\":9069:9204   */\n      swap2\n      swap1\n      pop\n      jump\t// out\n        /* \"#utility.yul\":9210:9415   */\n    tag_97:\n        /* \"#utility.yul\":9330:9341   */\n      0x00\n        /* \"#utility.yul\":9364:9370   */\n      dup3\n        /* \"#utility.yul\":9359:9362   */\n      dup3\n        /* \"#utility.yul\":9352:9371   */\n      mstore\n        /* \"#utility.yul\":9404:9408   */\n      0x20\n        /* \"#utility.yul\":9399:9402   */\n      dup3\n        /* \"#utility.yul\":9395:9409   */\n      add\n        /* \"#utility.yul\":9380:9409   */\n      swap1\n      pop\n        /* \"#utility.yul\":9210:9415   */\n      swap3\n      swap2\n      pop\n      pop\n      jump\t// out\n        /* \"#utility.yul\":9421:9574   */\n    tag_98:\n        /* \"#utility.yul\":9509:9513   */\n      0x00\n        /* \"#utility.yul\":9532:9535   */\n      dup2\n        /* \"#utility.yul\":9524:9535   */\n      swap1\n      pop\n        /* \"#utility.yul\":9562:9566   */\n      0x20\n        /* \"#utility.yul\":9557:9560   */\n      dup3\n        /* \"#utility.yul\":9553:9567   */\n      add\n        /* \"#utility.yul\":9545:9567   */\n      swap1\n      pop\n        /* \"#utility.yul\":9421:9574   */\n      swap2\n      swap1\n      pop\n      jump\t// out\n        /* \"#utility.yul\":9632:10580   */\n    tag_99:\n        /* \"#utility.yul\":9733:9736   */\n      0x00\n        /* \"#utility.yul\":9769:9773   */\n      0x80\n        /* \"#utility.yul\":9764:9767   */\n      dup4\n        /* \"#utility.yul\":9760:9774   */\n      add\n        /* \"#utility.yul\":9858:9862   */\n      0x00\n        /* \"#utility.yul\":9851:9856   */\n      dup4\n        /* \"#utility.yul\":9847:9863   */\n      add\n        /* \"#utility.yul\":9841:9864   */\n      mload\n        /* \"#utility.yul\":9877:9940   */\n      tag_223\n        /* \"#utility.yul\":9934:9938   */\n      0x00\n        /* \"#utility.yul\":9929:9932   */\n      dup7\n        /* \"#utility.yul\":9925:9939   */\n      add\n        /* \"#utility.yul\":9911:9923   */\n      dup3\n        /* \"#utility.yul\":9877:9940   */\n      tag_82\n      jump\t// in\n    tag_223:\n        /* \"#utility.yul\":9784:9950   */\n      pop\n        /* \"#utility.yul\":10035:10039   */\n      0x20\n        /* \"#utility.yul\":10028:10033   */\n      dup4\n        /* \"#utility.yul\":10024:10040   */\n      add\n        /* \"#utility.yul\":10018:10041   */\n      mload\n        /* \"#utility.yul\":10088:10091   */\n      dup5\n        /* \"#utility.yul\":10082:10086   */\n      dup3\n        /* \"#utility.yul\":10078:10092   */\n      sub\n        /* \"#utility.yul\":10071:10075   */\n      0x20\n        /* \"#utility.yul\":10066:10069   */\n      dup7\n        /* \"#utility.yul\":10062:10076   */\n      add\n        /* \"#utility.yul\":10055:10093   */\n      mstore\n        /* \"#utility.yul\":10114:10187   */\n      tag_224\n        /* \"#utility.yul\":10182:10186   */\n      dup3\n        /* \"#utility.yul\":10168:10180   */\n      dup3\n        /* \"#utility.yul\":10114:10187   */\n      tag_84\n      jump\t// in\n    tag_224:\n        /* \"#utility.yul\":10106:10187   */\n      swap2\n      pop\n        /* \"#utility.yul\":9960:10198   */\n      pop\n        /* \"#utility.yul\":10286:10290   */\n      0x40\n        /* \"#utility.yul\":10279:10284   */\n      dup4\n        /* \"#utility.yul\":10275:10291   */\n      add\n        /* \"#utility.yul\":10269:10292   */\n      mload\n        /* \"#utility.yul\":10305:10368   */\n      tag_225\n        /* \"#utility.yul\":10362:10366   */\n      0x40\n        /* \"#utility.yul\":10357:10360   */\n      dup7\n        /* \"#utility.yul\":10353:10367   */\n      add\n        /* \"#utility.yul\":10339:10351   */\n      dup3\n        /* \"#utility.yul\":10305:10368   */\n      tag_85\n      jump\t// in\n    tag_225:\n        /* \"#utility.yul\":10208:10378   */\n      pop\n        /* \"#utility.yul\":10461:10465   */\n      0x60\n        /* \"#utility.yul\":10454:10459   */\n      dup4\n        /* \"#utility.yul\":10450:10466   */\n      add\n        /* \"#utility.yul\":10444:10467   */\n      mload\n        /* \"#utility.yul\":10480:10543   */\n      tag_226\n        /* \"#utility.yul\":10537:10541   */\n      0x60\n        /* \"#utility.yul\":10532:10535   */\n      dup7\n        /* \"#utility.yul\":10528:10542   */\n      add\n        /* \"#utility.yul\":10514:10526   */\n      dup3\n        /* \"#utility.yul\":10480:10543   */\n      tag_85\n      jump\t// in\n    tag_226:\n        /* \"#utility.yul\":10388:10553   */\n      pop\n        /* \"#utility.yul\":10570:10574   */\n      dup1\n        /* \"#utility.yul\":10563:10574   */\n      swap2\n      pop\n        /* \"#utility.yul\":9738:10580   */\n      pop\n        /* \"#utility.yul\":9632:10580   */\n      swap3\n      swap2\n      pop\n      pop\n      jump\t// out\n        /* \"#utility.yul\":10586:10826   */\n    tag_100:\n        /* \"#utility.yul\":10697:10707   */\n      0x00\n        /* \"#utility.yul\":10732:10820   */\n      tag_228\n        /* \"#utility.yul\":10816:10819   */\n      dup4\n        /* \"#utility.yul\":10808:10814   */\n      dup4\n        /* \"#utility.yul\":10732:10820   */\n      tag_99\n      jump\t// in\n    tag_228:\n        /* \"#utility.yul\":10718:10820   */\n      swap1\n      pop\n        /* \"#utility.yul\":10586:10826   */\n      swap3\n      swap2\n      pop\n      pop\n      jump\t// out\n        /* \"#utility.yul\":10832:10966   */\n    tag_101:\n        /* \"#utility.yul\":10923:10927   */\n      0x00\n        /* \"#utility.yul\":10955:10959   */\n      0x20\n        /* \"#utility.yul\":10950:10953   */\n      dup3\n        /* \"#utility.yul\":10946:10960   */\n      add\n        /* \"#utility.yul\":10938:10960   */\n      swap1\n      pop\n        /* \"#utility.yul\":10832:10966   */\n      swap2\n      swap1\n      pop\n      jump\t// out\n        /* \"#utility.yul\":11028:12107   */\n    tag_102:\n        /* \"#utility.yul\":11189:11192   */\n      0x00\n        /* \"#utility.yul\":11218:11293   */\n      tag_231\n        /* \"#utility.yul\":11287:11292   */\n      dup3\n        /* \"#utility.yul\":11218:11293   */\n      tag_96\n      jump\t// in\n    tag_231:\n        /* \"#utility.yul\":11309:11416   */\n      tag_232\n        /* \"#utility.yul\":11409:11415   */\n      dup2\n        /* \"#utility.yul\":11404:11407   */\n      dup6\n        /* \"#utility.yul\":11309:11416   */\n      tag_97\n      jump\t// in\n    tag_232:\n        /* \"#utility.yul\":11302:11416   */\n      swap4\n      pop\n        /* \"#utility.yul\":11442:11445   */\n      dup4\n        /* \"#utility.yul\":11487:11491   */\n      0x20\n        /* \"#utility.yul\":11479:11485   */\n      dup3\n        /* \"#utility.yul\":11475:11492   */\n      mul\n        /* \"#utility.yul\":11470:11473   */\n      dup6\n        /* \"#utility.yul\":11466:11493   */\n      add\n        /* \"#utility.yul\":11517:11594   */\n      tag_233\n        /* \"#utility.yul\":11588:11593   */\n      dup6\n        /* \"#utility.yul\":11517:11594   */\n      tag_98\n      jump\t// in\n    tag_233:\n        /* \"#utility.yul\":11617:11624   */\n      dup1\n        /* \"#utility.yul\":11648:11649   */\n      0x00\n        /* \"#utility.yul\":11633:12062   */\n    tag_234:\n        /* \"#utility.yul\":11658:11664   */\n      dup6\n        /* \"#utility.yul\":11655:11656   */\n      dup2\n        /* \"#utility.yul\":11652:11665   */\n      lt\n        /* \"#utility.yul\":11633:12062   */\n      iszero\n      tag_236\n      jumpi\n        /* \"#utility.yul\":11729:11738   */\n      dup5\n        /* \"#utility.yul\":11723:11727   */\n      dup5\n        /* \"#utility.yul\":11719:11739   */\n      sub\n        /* \"#utility.yul\":11714:11717   */\n      dup10\n        /* \"#utility.yul\":11707:11740   */\n      mstore\n        /* \"#utility.yul\":11780:11786   */\n      dup2\n        /* \"#utility.yul\":11774:11787   */\n      mload\n        /* \"#utility.yul\":11808:11914   */\n      tag_237\n        /* \"#utility.yul\":11909:11913   */\n      dup6\n        /* \"#utility.yul\":11894:11907   */\n      dup3\n        /* \"#utility.yul\":11808:11914   */\n      tag_100\n      jump\t// in\n    tag_237:\n        /* \"#utility.yul\":11800:11914   */\n      swap5\n      pop\n        /* \"#utility.yul\":11937:12018   */\n      tag_238\n        /* \"#utility.yul\":12011:12017   */\n      dup4\n        /* \"#utility.yul\":11937:12018   */\n      tag_101\n      jump\t// in\n    tag_238:\n        /* \"#utility.yul\":11927:12018   */\n      swap3\n      pop\n        /* \"#utility.yul\":12047:12051   */\n      0x20\n        /* \"#utility.yul\":12042:12045   */\n      dup11\n        /* \"#utility.yul\":12038:12052   */\n      add\n        /* \"#utility.yul\":12031:12052   */\n      swap10\n      pop\n        /* \"#utility.yul\":11693:12062   */\n      pop\n        /* \"#utility.yul\":11680:11681   */\n      0x01\n        /* \"#utility.yul\":11677:11678   */\n      dup2\n        /* \"#utility.yul\":11673:11682   */\n      add\n        /* \"#utility.yul\":11668:11682   */\n      swap1\n      pop\n        /* \"#utility.yul\":11633:12062   */\n      jump(tag_234)\n    tag_236:\n        /* \"#utility.yul\":11637:11651   */\n      pop\n        /* \"#utility.yul\":12078:12082   */\n      dup3\n        /* \"#utility.yul\":12071:12082   */\n      swap8\n      pop\n        /* \"#utility.yul\":12098:12101   */\n      dup8\n        /* \"#utility.yul\":12091:12101   */\n      swap6\n      pop\n        /* \"#utility.yul\":11194:12107   */\n      pop\n      pop\n      pop\n      pop\n      pop\n        /* \"#utility.yul\":11028:12107   */\n      swap3\n      swap2\n      pop\n      pop\n      jump\t// out\n        /* \"#utility.yul\":12113:12570   */\n    tag_28:\n        /* \"#utility.yul\":12298:12302   */\n      0x00\n        /* \"#utility.yul\":12336:12338   */\n      0x20\n        /* \"#utility.yul\":12325:12334   */\n      dup3\n        /* \"#utility.yul\":12321:12339   */\n      add\n        /* \"#utility.yul\":12313:12339   */\n      swap1\n      pop\n        /* \"#utility.yul\":12385:12394   */\n      dup2\n        /* \"#utility.yul\":12379:12383   */\n      dup2\n        /* \"#utility.yul\":12375:12395   */\n      sub\n        /* \"#utility.yul\":12371:12372   */\n      0x00\n        /* \"#utility.yul\":12360:12369   */\n      dup4\n        /* \"#utility.yul\":12356:12373   */\n      add\n        /* \"#utility.yul\":12349:12396   */\n      mstore\n        /* \"#utility.yul\":12413:12563   */\n      tag_240\n        /* \"#utility.yul\":12558:12562   */\n      dup2\n        /* \"#utility.yul\":12549:12555   */\n      dup5\n        /* \"#utility.yul\":12413:12563   */\n      tag_102\n      jump\t// in\n    tag_240:\n        /* \"#utility.yul\":12405:12563   */\n      swap1\n      pop\n        /* \"#utility.yul\":12113:12570   */\n      swap3\n      swap2\n      pop\n      pop\n      jump\t// out\n        /* \"#utility.yul\":12576:12756   */\n    tag_103:\n        /* \"#utility.yul\":12624:12701   */\n      0x4e487b7100000000000000000000000000000000000000000000000000000000\n        /* \"#utility.yul\":12621:12622   */\n      0x00\n        /* \"#utility.yul\":12614:12702   */\n      mstore\n        /* \"#utility.yul\":12721:12725   */\n      0x22\n        /* \"#utility.yul\":12718:12719   */\n      0x04\n        /* \"#utility.yul\":12711:12726   */\n      mstore\n        /* \"#utility.yul\":12745:12749   */\n      0x24\n        /* \"#utility.yul\":12742:12743   */\n      0x00\n        /* \"#utility.yul\":12735:12750   */\n      revert\n        /* \"#utility.yul\":12762:13082   */\n    tag_32:\n        /* \"#utility.yul\":12806:12812   */\n      0x00\n        /* \"#utility.yul\":12843:12844   */\n      0x02\n        /* \"#utility.yul\":12837:12841   */\n      dup3\n        /* \"#utility.yul\":12833:12845   */\n      div\n        /* \"#utility.yul\":12823:12845   */\n      swap1\n      pop\n        /* \"#utility.yul\":12890:12891   */\n      0x01\n        /* \"#utility.yul\":12884:12888   */\n      dup3\n        /* \"#utility.yul\":12880:12892   */\n      and\n        /* \"#utility.yul\":12911:12929   */\n      dup1\n        /* \"#utility.yul\":12901:12982   */\n      tag_243\n      jumpi\n        /* \"#utility.yul\":12967:12971   */\n      0x7f\n        /* \"#utility.yul\":12959:12965   */\n      dup3\n        /* \"#utility.yul\":12955:12972   */\n      and\n        /* \"#utility.yul\":12945:12972   */\n      swap2\n      pop\n        /* \"#utility.yul\":12901:12982   */\n    tag_243:\n        /* \"#utility.yul\":13029:13031   */\n      0x20\n        /* \"#utility.yul\":13021:13027   */\n      dup3\n        /* \"#utility.yul\":13018:13032   */\n      lt\n        /* \"#utility.yul\":12998:13016   */\n      dup2\n        /* \"#utility.yul\":12995:13033   */\n      sub\n        /* \"#utility.yul\":12992:13076   */\n      tag_244\n      jumpi\n        /* \"#utility.yul\":13048:13066   */\n      tag_245\n      tag_103\n      jump\t// in\n    tag_245:\n        /* \"#utility.yul\":12992:13076   */\n    tag_244:\n        /* \"#utility.yul\":12813:13082   */\n      pop\n        /* \"#utility.yul\":12762:13082   */\n      swap2\n      swap1\n      pop\n      jump\t// out\n        /* \"#utility.yul\":13088:13268   */\n    tag_42:\n        /* \"#utility.yul\":13136:13213   */\n      0x4e487b7100000000000000000000000000000000000000000000000000000000\n        /* \"#utility.yul\":13133:13134   */\n      0x00\n        /* \"#utility.yul\":13126:13214   */\n      mstore\n        /* \"#utility.yul\":13233:13237   */\n      0x32\n        /* \"#utility.yul\":13230:13231   */\n      0x04\n        /* \"#utility.yul\":13223:13238   */\n      mstore\n        /* \"#utility.yul\":13257:13261   */\n      0x24\n        /* \"#utility.yul\":13254:13255   */\n      0x00\n        /* \"#utility.yul\":13247:13262   */\n      revert\n        /* \"#utility.yul\":13274:13447   */\n    tag_104:\n        /* \"#utility.yul\":13414:13439   */\n      0x747765657420697320746f206c65616e6774682e2e2e21000000000000000000\n        /* \"#utility.yul\":13410:13411   */\n      0x00\n        /* \"#utility.yul\":13402:13408   */\n      dup3\n        /* \"#utility.yul\":13398:13412   */\n      add\n        /* \"#utility.yul\":13391:13440   */\n      mstore\n        /* \"#utility.yul\":13274:13447   */\n      pop\n      jump\t// out\n        /* \"#utility.yul\":13453:13819   */\n    tag_105:\n        /* \"#utility.yul\":13595:13598   */\n      0x00\n        /* \"#utility.yul\":13616:13683   */\n      tag_249\n        /* \"#utility.yul\":13680:13682   */\n      0x17\n        /* \"#utility.yul\":13675:13678   */\n      dup4\n        /* \"#utility.yul\":13616:13683   */\n      tag_77\n      jump\t// in\n    tag_249:\n        /* \"#utility.yul\":13609:13683   */\n      swap2\n      pop\n        /* \"#utility.yul\":13692:13785   */\n      tag_250\n        /* \"#utility.yul\":13781:13784   */\n      dup3\n        /* \"#utility.yul\":13692:13785   */\n      tag_104\n      jump\t// in\n    tag_250:\n        /* \"#utility.yul\":13810:13812   */\n      0x20\n        /* \"#utility.yul\":13805:13808   */\n      dup3\n        /* \"#utility.yul\":13801:13813   */\n      add\n        /* \"#utility.yul\":13794:13813   */\n      swap1\n      pop\n        /* \"#utility.yul\":13453:13819   */\n      swap2\n      swap1\n      pop\n      jump\t// out\n        /* \"#utility.yul\":13825:14244   */\n    tag_52:\n        /* \"#utility.yul\":13991:13995   */\n      0x00\n        /* \"#utility.yul\":14029:14031   */\n      0x20\n        /* \"#utility.yul\":14018:14027   */\n      dup3\n        /* \"#utility.yul\":14014:14032   */\n      add\n        /* \"#utility.yul\":14006:14032   */\n      swap1\n      pop\n        /* \"#utility.yul\":14078:14087   */\n      dup2\n        /* \"#utility.yul\":14072:14076   */\n      dup2\n        /* \"#utility.yul\":14068:14088   */\n      sub\n        /* \"#utility.yul\":14064:14065   */\n      0x00\n        /* \"#utility.yul\":14053:14062   */\n      dup4\n        /* \"#utility.yul\":14049:14066   */\n      add\n        /* \"#utility.yul\":14042:14089   */\n      mstore\n        /* \"#utility.yul\":14106:14237   */\n      tag_252\n        /* \"#utility.yul\":14232:14236   */\n      dup2\n        /* \"#utility.yul\":14106:14237   */\n      tag_105\n      jump\t// in\n    tag_252:\n        /* \"#utility.yul\":14098:14237   */\n      swap1\n      pop\n        /* \"#utility.yul\":13825:14244   */\n      swap2\n      swap1\n      pop\n      jump\t// out\n        /* \"#utility.yul\":14250:14391   */\n    tag_106:\n        /* \"#utility.yul\":14299:14303   */\n      0x00\n        /* \"#utility.yul\":14322:14325   */\n      dup2\n        /* \"#utility.yul\":14314:14325   */\n      swap1\n      pop\n        /* \"#utility.yul\":14345:14348   */\n      dup2\n        /* \"#utility.yul\":14342:14343   */\n      0x00\n        /* \"#utility.yul\":14335:14349   */\n      mstore\n        /* \"#utility.yul\":14379:14383   */\n      0x20\n        /* \"#utility.yul\":14376:14377   */\n      0x00\n        /* \"#utility.yul\":14366:14384   */\n      keccak256\n        /* \"#utility.yul\":14358:14384   */\n      swap1\n      pop\n        /* \"#utility.yul\":14250:14391   */\n      swap2\n      swap1\n      pop\n      jump\t// out\n        /* \"#utility.yul\":14397:14490   */\n    tag_107:\n        /* \"#utility.yul\":14434:14440   */\n      0x00\n        /* \"#utility.yul\":14481:14483   */\n      0x20\n        /* \"#utility.yul\":14476:14478   */\n      0x1f\n        /* \"#utility.yul\":14469:14474   */\n      dup4\n        /* \"#utility.yul\":14465:14479   */\n      add\n        /* \"#utility.yul\":14461:14484   */\n      div\n        /* \"#utility.yul\":14451:14484   */\n      swap1\n      pop\n        /* \"#utility.yul\":14397:14490   */\n      swap2\n      swap1\n      pop\n      jump\t// out\n        /* \"#utility.yul\":14496:14603   */\n    tag_108:\n        /* \"#utility.yul\":14540:14548   */\n      0x00\n        /* \"#utility.yul\":14590:14595   */\n      dup3\n        /* \"#utility.yul\":14584:14588   */\n      dup3\n        /* \"#utility.yul\":14580:14596   */\n      shl\n        /* \"#utility.yul\":14559:14596   */\n      swap1\n      pop\n        /* \"#utility.yul\":14496:14603   */\n      swap3\n      swap2\n      pop\n      pop\n      jump\t// out\n        /* \"#utility.yul\":14609:15002   */\n    tag_109:\n        /* \"#utility.yul\":14678:14684   */\n      0x00\n        /* \"#utility.yul\":14728:14729   */\n      0x08\n        /* \"#utility.yul\":14716:14726   */\n      dup4\n        /* \"#utility.yul\":14712:14730   */\n      mul\n        /* \"#utility.yul\":14751:14848   */\n      tag_257\n        /* \"#utility.yul\":14781:14847   */\n      0xffffffffffffffffffffffffffffffffffffffffffffffffffffffffffffffff\n        /* \"#utility.yul\":14770:14779   */\n      dup3\n        /* \"#utility.yul\":14751:14848   */\n      tag_108\n      jump\t// in\n    tag_257:\n        /* \"#utility.yul\":14869:14908   */\n      tag_258\n        /* \"#utility.yul\":14899:14907   */\n      dup7\n        /* \"#utility.yul\":14888:14897   */\n      dup4\n        /* \"#utility.yul\":14869:14908   */\n      tag_108\n      jump\t// in\n    tag_258:\n        /* \"#utility.yul\":14857:14908   */\n      swap6\n      pop\n        /* \"#utility.yul\":14941:14945   */\n      dup1\n        /* \"#utility.yul\":14937:14946   */\n      not\n        /* \"#utility.yul\":14930:14935   */\n      dup5\n        /* \"#utility.yul\":14926:14947   */\n      and\n        /* \"#utility.yul\":14917:14947   */\n      swap4\n      pop\n        /* \"#utility.yul\":14990:14994   */\n      dup1\n        /* \"#utility.yul\":14980:14988   */\n      dup7\n        /* \"#utility.yul\":14976:14995   */\n      and\n        /* \"#utility.yul\":14969:14974   */\n      dup5\n        /* \"#utility.yul\":14966:14996   */\n      or\n        /* \"#utility.yul\":14956:14996   */\n      swap3\n      pop\n        /* \"#utility.yul\":14685:15002   */\n      pop\n      pop\n        /* \"#utility.yul\":14609:15002   */\n      swap4\n      swap3\n      pop\n      pop\n      pop\n      jump\t// out\n        /* \"#utility.yul\":15008:15068   */\n    tag_110:\n        /* \"#utility.yul\":15036:15039   */\n      0x00\n        /* \"#utility.yul\":15057:15062   */\n      dup2\n        /* \"#utility.yul\":15050:15062   */\n      swap1\n      pop\n        /* \"#utility.yul\":15008:15068   */\n      swap2\n      swap1\n      pop\n      jump\t// out\n        /* \"#utility.yul\":15074:15216   */\n    tag_111:\n        /* \"#utility.yul\":15124:15133   */\n      0x00\n        /* \"#utility.yul\":15157:15210   */\n      tag_261\n        /* \"#utility.yul\":15175:15209   */\n      tag_262\n        /* \"#utility.yul\":15184:15208   */\n      tag_263\n        /* \"#utility.yul\":15202:15207   */\n      dup5\n        /* \"#utility.yul\":15184:15208   */\n      tag_72\n      jump\t// in\n    tag_263:\n        /* \"#utility.yul\":15175:15209   */\n      tag_110\n      jump\t// in\n    tag_262:\n        /* \"#utility.yul\":15157:15210   */\n      tag_72\n      jump\t// in\n    tag_261:\n        /* \"#utility.yul\":15144:15210   */\n      swap1\n      pop\n        /* \"#utility.yul\":15074:15216   */\n      swap2\n      swap1\n      pop\n      jump\t// out\n        /* \"#utility.yul\":15222:15297   */\n    tag_112:\n        /* \"#utility.yul\":15265:15268   */\n      0x00\n        /* \"#utility.yul\":15286:15291   */\n      dup2\n        /* \"#utility.yul\":15279:15291   */\n      swap1\n      pop\n        /* \"#utility.yul\":15222:15297   */\n      swap2\n      swap1\n      pop\n      jump\t// out\n        /* \"#utility.yul\":15303:15572   */\n    tag_113:\n        /* \"#utility.yul\":15413:15452   */\n      tag_266\n        /* \"#utility.yul\":15444:15451   */\n      dup4\n        /* \"#utility.yul\":15413:15452   */\n      tag_111\n      jump\t// in\n    tag_266:\n        /* \"#utility.yul\":15474:15565   */\n      tag_267\n        /* \"#utility.yul\":15523:15564   */\n      tag_268\n        /* \"#utility.yul\":15547:15563   */\n      dup3\n        /* \"#utility.yul\":15523:15564   */\n      tag_112\n      jump\t// in\n    tag_268:\n        /* \"#utility.yul\":15515:15521   */\n      dup5\n        /* \"#utility.yul\":15508:15512   */\n      dup5\n        /* \"#utility.yul\":15502:15513   */\n      sload\n        /* \"#utility.yul\":15474:15565   */\n      tag_109\n      jump\t// in\n    tag_267:\n        /* \"#utility.yul\":15468:15472   */\n      dup3\n        /* \"#utility.yul\":15461:15566   */\n      sstore\n        /* \"#utility.yul\":15379:15572   */\n      pop\n        /* \"#utility.yul\":15303:15572   */\n      pop\n      pop\n      pop\n      jump\t// out\n        /* \"#utility.yul\":15578:15651   */\n    tag_114:\n        /* \"#utility.yul\":15623:15626   */\n      0x00\n        /* \"#utility.yul\":15578:15651   */\n      swap1\n      jump\t// out\n        /* \"#utility.yul\":15657:15846   */\n    tag_115:\n        /* \"#utility.yul\":15734:15766   */\n      tag_271\n      tag_114\n      jump\t// in\n    tag_271:\n        /* \"#utility.yul\":15775:15840   */\n      tag_272\n        /* \"#utility.yul\":15833:15839   */\n      dup2\n        /* \"#utility.yul\":15825:15831   */\n      dup5\n        /* \"#utility.yul\":15819:15823   */\n      dup5\n        /* \"#utility.yul\":15775:15840   */\n      tag_113\n      jump\t// in\n    tag_272:\n        /* \"#utility.yul\":15710:15846   */\n      pop\n        /* \"#utility.yul\":15657:15846   */\n      pop\n      pop\n      jump\t// out\n        /* \"#utility.yul\":15852:16038   */\n    tag_116:\n        /* \"#utility.yul\":15912:16032   */\n    tag_274:\n        /* \"#utility.yul\":15929:15932   */\n      dup2\n        /* \"#utility.yul\":15922:15927   */\n      dup2\n        /* \"#utility.yul\":15919:15933   */\n      lt\n        /* \"#utility.yul\":15912:16032   */\n      iszero\n      tag_276\n      jumpi\n        /* \"#utility.yul\":15983:16022   */\n      tag_277\n        /* \"#utility.yul\":16020:16021   */\n      0x00\n        /* \"#utility.yul\":16013:16018   */\n      dup3\n        /* \"#utility.yul\":15983:16022   */\n      tag_115\n      jump\t// in\n    tag_277:\n        /* \"#utility.yul\":15956:15957   */\n      0x01\n        /* \"#utility.yul\":15949:15954   */\n      dup2\n        /* \"#utility.yul\":15945:15958   */\n      add\n        /* \"#utility.yul\":15936:15958   */\n      swap1\n      pop\n        /* \"#utility.yul\":15912:16032   */\n      jump(tag_274)\n    tag_276:\n        /* \"#utility.yul\":15852:16038   */\n      pop\n      pop\n      jump\t// out\n        /* \"#utility.yul\":16044:16587   */\n    tag_117:\n        /* \"#utility.yul\":16145:16147   */\n      0x1f\n        /* \"#utility.yul\":16140:16143   */\n      dup3\n        /* \"#utility.yul\":16137:16148   */\n      gt\n        /* \"#utility.yul\":16134:16580   */\n      iszero\n      tag_279\n      jumpi\n        /* \"#utility.yul\":16179:16217   */\n      tag_280\n        /* \"#utility.yul\":16211:16216   */\n      dup2\n        /* \"#utility.yul\":16179:16217   */\n      tag_106\n      jump\t// in\n    tag_280:\n        /* \"#utility.yul\":16263:16292   */\n      tag_281\n        /* \"#utility.yul\":16281:16291   */\n      dup5\n        /* \"#utility.yul\":16263:16292   */\n      tag_107\n      jump\t// in\n    tag_281:\n        /* \"#utility.yul\":16253:16261   */\n      dup2\n        /* \"#utility.yul\":16249:16293   */\n      add\n        /* \"#utility.yul\":16446:16448   */\n      0x20\n        /* \"#utility.yul\":16434:16444   */\n      dup6\n        /* \"#utility.yul\":16431:16449   */\n      lt\n        /* \"#utility.yul\":16428:16477   */\n      iszero\n      tag_282\n      jumpi\n        /* \"#utility.yul\":16467:16475   */\n      dup2\n        /* \"#utility.yul\":16452:16475   */\n      swap1\n      pop\n        /* \"#utility.yul\":16428:16477   */\n    tag_282:\n        /* \"#utility.yul\":16490:16570   */\n      tag_283\n        /* \"#utility.yul\":16546:16568   */\n      tag_284\n        /* \"#utility.yul\":16564:16567   */\n      dup6\n        /* \"#utility.yul\":16546:16568   */\n      tag_107\n      jump\t// in\n    tag_284:\n        /* \"#utility.yul\":16536:16544   */\n      dup4\n        /* \"#utility.yul\":16532:16569   */\n      add\n        /* \"#utility.yul\":16519:16530   */\n      dup3\n        /* \"#utility.yul\":16490:16570   */\n      tag_116\n      jump\t// in\n    tag_283:\n        /* \"#utility.yul\":16149:16580   */\n      pop\n      pop\n        /* \"#utility.yul\":16134:16580   */\n    tag_279:\n        /* \"#utility.yul\":16044:16587   */\n      pop\n      pop\n      pop\n      jump\t// out\n        /* \"#utility.yul\":16593:16710   */\n    tag_118:\n        /* \"#utility.yul\":16647:16655   */\n      0x00\n        /* \"#utility.yul\":16697:16702   */\n      dup3\n        /* \"#utility.yul\":16691:16695   */\n      dup3\n        /* \"#utility.yul\":16687:16703   */\n      shr\n        /* \"#utility.yul\":16666:16703   */\n      swap1\n      pop\n        /* \"#utility.yul\":16593:16710   */\n      swap3\n      swap2\n      pop\n      pop\n      jump\t// out\n        /* \"#utility.yul\":16716:16885   */\n    tag_119:\n        /* \"#utility.yul\":16760:16766   */\n      0x00\n        /* \"#utility.yul\":16793:16844   */\n      tag_287\n        /* \"#utility.yul\":16841:16842   */\n      0x00\n        /* \"#utility.yul\":16837:16843   */\n      not\n        /* \"#utility.yul\":16829:16834   */\n      dup5\n        /* \"#utility.yul\":16826:16827   */\n      0x08\n        /* \"#utility.yul\":16822:16835   */\n      mul\n        /* \"#utility.yul\":16793:16844   */\n      tag_118\n      jump\t// in\n    tag_287:\n        /* \"#utility.yul\":16789:16845   */\n      not\n        /* \"#utility.yul\":16874:16878   */\n      dup1\n        /* \"#utility.yul\":16868:16872   */\n      dup4\n        /* \"#utility.yul\":16864:16879   */\n      and\n        /* \"#utility.yul\":16854:16879   */\n      swap2\n      pop\n        /* \"#utility.yul\":16767:16885   */\n      pop\n        /* \"#utility.yul\":16716:16885   */\n      swap3\n      swap2\n      pop\n      pop\n      jump\t// out\n        /* \"#utility.yul\":16890:17185   */\n    tag_120:\n        /* \"#utility.yul\":16966:16970   */\n      0x00\n        /* \"#utility.yul\":17112:17141   */\n      tag_289\n        /* \"#utility.yul\":17137:17140   */\n      dup4\n        /* \"#utility.yul\":17131:17135   */\n      dup4\n        /* \"#utility.yul\":17112:17141   */\n      tag_119\n      jump\t// in\n    tag_289:\n        /* \"#utility.yul\":17104:17141   */\n      swap2\n      pop\n        /* \"#utility.yul\":17174:17177   */\n      dup3\n        /* \"#utility.yul\":17171:17172   */\n      0x02\n        /* \"#utility.yul\":17167:17178   */\n      mul\n        /* \"#utility.yul\":17161:17165   */\n      dup3\n        /* \"#utility.yul\":17158:17179   */\n      or\n        /* \"#utility.yul\":17150:17179   */\n      swap1\n      pop\n        /* \"#utility.yul\":16890:17185   */\n      swap3\n      swap2\n      pop\n      pop\n      jump\t// out\n        /* \"#utility.yul\":17190:18585   */\n    tag_55:\n        /* \"#utility.yul\":17307:17344   */\n      tag_291\n        /* \"#utility.yul\":17340:17343   */\n      dup3\n        /* \"#utility.yul\":17307:17344   */\n      tag_76\n      jump\t// in\n    tag_291:\n        /* \"#utility.yul\":17409:17427   */\n      0xffffffffffffffff\n        /* \"#utility.yul\":17401:17407   */\n      dup2\n        /* \"#utility.yul\":17398:17428   */\n      gt\n        /* \"#utility.yul\":17395:17451   */\n      iszero\n      tag_292\n      jumpi\n        /* \"#utility.yul\":17431:17449   */\n      tag_293\n      tag_89\n      jump\t// in\n    tag_293:\n        /* \"#utility.yul\":17395:17451   */\n    tag_292:\n        /* \"#utility.yul\":17475:17513   */\n      tag_294\n        /* \"#utility.yul\":17507:17511   */\n      dup3\n        /* \"#utility.yul\":17501:17512   */\n      sload\n        /* \"#utility.yul\":17475:17513   */\n      tag_32\n      jump\t// in\n    tag_294:\n        /* \"#utility.yul\":17560:17627   */\n      tag_295\n        /* \"#utility.yul\":17620:17626   */\n      dup3\n        /* \"#utility.yul\":17612:17618   */\n      dup3\n        /* \"#utility.yul\":17606:17610   */\n      dup6\n        /* \"#utility.yul\":17560:17627   */\n      tag_117\n      jump\t// in\n    tag_295:\n        /* \"#utility.yul\":17654:17655   */\n      0x00\n        /* \"#utility.yul\":17678:17682   */\n      0x20\n        /* \"#utility.yul\":17665:17682   */\n      swap1\n      pop\n        /* \"#utility.yul\":17710:17712   */\n      0x1f\n        /* \"#utility.yul\":17702:17708   */\n      dup4\n        /* \"#utility.yul\":17699:17713   */\n      gt\n        /* \"#utility.yul\":17727:17728   */\n      0x01\n        /* \"#utility.yul\":17722:18340   */\n      dup2\n      eq\n      tag_297\n      jumpi\n        /* \"#utility.yul\":18384:18385   */\n      0x00\n        /* \"#utility.yul\":18401:18407   */\n      dup5\n        /* \"#utility.yul\":18398:18475   */\n      iszero\n      tag_298\n      jumpi\n        /* \"#utility.yul\":18450:18459   */\n      dup3\n        /* \"#utility.yul\":18445:18448   */\n      dup8\n        /* \"#utility.yul\":18441:18460   */\n      add\n        /* \"#utility.yul\":18435:18461   */\n      mload\n        /* \"#utility.yul\":18426:18461   */\n      swap1\n      pop\n        /* \"#utility.yul\":18398:18475   */\n    tag_298:\n        /* \"#utility.yul\":18501:18568   */\n      tag_299\n        /* \"#utility.yul\":18561:18567   */\n      dup6\n        /* \"#utility.yul\":18554:18559   */\n      dup3\n        /* \"#utility.yul\":18501:18568   */\n      tag_120\n      jump\t// in\n    tag_299:\n        /* \"#utility.yul\":18495:18499   */\n      dup7\n        /* \"#utility.yul\":18488:18569   */\n      sstore\n        /* \"#utility.yul\":18357:18579   */\n      pop\n        /* \"#utility.yul\":17692:18579   */\n      jump(tag_296)\n        /* \"#utility.yul\":17722:18340   */\n    tag_297:\n        /* \"#utility.yul\":17774:17778   */\n      0x1f\n        /* \"#utility.yul\":17770:17779   */\n      not\n        /* \"#utility.yul\":17762:17768   */\n      dup5\n        /* \"#utility.yul\":17758:17780   */\n      and\n        /* \"#utility.yul\":17808:17845   */\n      tag_300\n        /* \"#utility.yul\":17840:17844   */\n      dup7\n        /* \"#utility.yul\":17808:17845   */\n      tag_106\n      jump\t// in\n    tag_300:\n        /* \"#utility.yul\":17867:17868   */\n      0x00\n        /* \"#utility.yul\":17881:18089   */\n    tag_301:\n        /* \"#utility.yul\":17895:17902   */\n      dup3\n        /* \"#utility.yul\":17892:17893   */\n      dup2\n        /* \"#utility.yul\":17889:17903   */\n      lt\n        /* \"#utility.yul\":17881:18089   */\n      iszero\n      tag_303\n      jumpi\n        /* \"#utility.yul\":17974:17983   */\n      dup5\n        /* \"#utility.yul\":17969:17972   */\n      dup10\n        /* \"#utility.yul\":17965:17984   */\n      add\n        /* \"#utility.yul\":17959:17985   */\n      mload\n        /* \"#utility.yul\":17951:17957   */\n      dup3\n        /* \"#utility.yul\":17944:17986   */\n      sstore\n        /* \"#utility.yul\":18025:18026   */\n      0x01\n        /* \"#utility.yul\":18017:18023   */\n      dup3\n        /* \"#utility.yul\":18013:18027   */\n      add\n        /* \"#utility.yul\":18003:18027   */\n      swap2\n      pop\n        /* \"#utility.yul\":18072:18074   */\n      0x20\n        /* \"#utility.yul\":18061:18070   */\n      dup6\n        /* \"#utility.yul\":18057:18075   */\n      add\n        /* \"#utility.yul\":18044:18075   */\n      swap5\n      pop\n        /* \"#utility.yul\":17918:17922   */\n      0x20\n        /* \"#utility.yul\":17915:17916   */\n      dup2\n        /* \"#utility.yul\":17911:17923   */\n      add\n        /* \"#utility.yul\":17906:17923   */\n      swap1\n      pop\n        /* \"#utility.yul\":17881:18089   */\n      jump(tag_301)\n    tag_303:\n        /* \"#utility.yul\":18117:18123   */\n      dup7\n        /* \"#utility.yul\":18108:18115   */\n      dup4\n        /* \"#utility.yul\":18105:18124   */\n      lt\n        /* \"#utility.yul\":18102:18281   */\n      iszero\n      tag_304\n      jumpi\n        /* \"#utility.yul\":18175:18184   */\n      dup5\n        /* \"#utility.yul\":18170:18173   */\n      dup10\n        /* \"#utility.yul\":18166:18185   */\n      add\n        /* \"#utility.yul\":18160:18186   */\n      mload\n        /* \"#utility.yul\":18218:18266   */\n      tag_305\n        /* \"#utility.yul\":18260:18264   */\n      0x1f\n        /* \"#utility.yul\":18252:18258   */\n      dup10\n        /* \"#utility.yul\":18248:18265   */\n      and\n        /* \"#utility.yul\":18237:18246   */\n      dup3\n        /* \"#utility.yul\":18218:18266   */\n      tag_119\n      jump\t// in\n    tag_305:\n        /* \"#utility.yul\":18210:18216   */\n      dup4\n        /* \"#utility.yul\":18203:18267   */\n      sstore\n        /* \"#utility.yul\":18125:18281   */\n      pop\n        /* \"#utility.yul\":18102:18281   */\n    tag_304:\n        /* \"#utility.yul\":18327:18328   */\n      0x01\n        /* \"#utility.yul\":18323:18324   */\n      0x02\n        /* \"#utility.yul\":18315:18321   */\n      dup9\n        /* \"#utility.yul\":18311:18325   */\n      mul\n        /* \"#utility.yul\":18307:18329   */\n      add\n        /* \"#utility.yul\":18301:18305   */\n      dup9\n        /* \"#utility.yul\":18294:18330   */\n      sstore\n        /* \"#utility.yul\":17729:18340   */\n      pop\n      pop\n      pop\n        /* \"#utility.yul\":17692:18579   */\n    tag_296:\n      pop\n        /* \"#utility.yul\":17282:18585   */\n      pop\n      pop\n      pop\n        /* \"#utility.yul\":17190:18585   */\n      pop\n      pop\n      jump\t// out\n\n    auxdata: 0xa2646970667358221220f670b31dcb35b250b3d924f3528fbedf8633b009754f588432c6e4c5298ed9bf64736f6c634300081a0033\n}\n",
				"bytecode": {
					"linkReferences": {},
					"object": "6080604052348015600e575f80fd5b50610fba8061001c5f395ff3fe608060405234801561000f575f80fd5b506004361061004a575f3560e01c806305a1b4a91461004e5780634e46b4e5146100815780637c9cd2bc146100b1578063b64988b8146100cd575b5f80fd5b61006860048036038101906100639190610713565b6100fd565b60405161007894939291906107df565b60405180910390f35b61009b60048036038101906100969190610829565b6101e7565b6040516100a8919061092d565b60405180910390f35b6100cb60048036038101906100c69190610a79565b610354565b005b6100e760048036038101906100e29190610ac0565b6104aa565b6040516100f49190610c06565b60405180910390f35b5f602052815f5260405f208181548110610115575f80fd5b905f5260205f2090600402015f9150915050805f015f9054906101000a900473ffffffffffffffffffffffffffffffffffffffff169080600101805461015a90610c53565b80601f016020809104026020016040519081016040528092919081815260200182805461018690610c53565b80156101d15780601f106101a8576101008083540402835291602001916101d1565b820191905f5260205f20905b8154815290600101906020018083116101b457829003601f168201915b5050505050908060020154908060030154905084565b6101ef61063a565b5f808373ffffffffffffffffffffffffffffffffffffffff1673ffffffffffffffffffffffffffffffffffffffff1681526020019081526020015f20838154811061023d5761023c610c83565b5b905f5260205f2090600402016040518060800160405290815f82015f9054906101000a900473ffffffffffffffffffffffffffffffffffffffff1673ffffffffffffffffffffffffffffffffffffffff1673ffffffffffffffffffffffffffffffffffffffff1681526020016001820180546102b890610c53565b80601f01602080910402602001604051908101604052809291908181526020018280546102e490610c53565b801561032f5780601f106103065761010080835404028352916020019161032f565b820191905f5260205f20905b81548152906001019060200180831161031257829003601f168201915b5050505050815260200160028201548152602001600382015481525050905092915050565b606481511115610399576040517f08c379a000000000000000000000000000000000000000000000000000000000815260040161039090610cfa565b60405180910390fd5b5f60405180608001604052803373ffffffffffffffffffffffffffffffffffffffff1681526020018381526020014281526020015f81525090505f803373ffffffffffffffffffffffffffffffffffffffff1673ffffffffffffffffffffffffffffffffffffffff1681526020019081526020015f2081908060018154018082558091505060019003905f5260205f2090600402015f909190919091505f820151815f015f6101000a81548173ffffffffffffffffffffffffffffffffffffffff021916908373ffffffffffffffffffffffffffffffffffffffff160217905550602082015181600101908161048f9190610eb5565b50604082015181600201556060820151816003015550505050565b60605f808373ffffffffffffffffffffffffffffffffffffffff1673ffffffffffffffffffffffffffffffffffffffff1681526020019081526020015f20805480602002602001604051908101604052809291908181526020015f905b8282101561062f578382905f5260205f2090600402016040518060800160405290815f82015f9054906101000a900473ffffffffffffffffffffffffffffffffffffffff1673ffffffffffffffffffffffffffffffffffffffff1673ffffffffffffffffffffffffffffffffffffffff16815260200160018201805461058c90610c53565b80601f01602080910402602001604051908101604052809291908181526020018280546105b890610c53565b80156106035780601f106105da57610100808354040283529160200191610603565b820191905f5260205f20905b8154815290600101906020018083116105e657829003601f168201915b505050505081526020016002820154815260200160038201548152505081526020019060010190610507565b505050509050919050565b60405180608001604052805f73ffffffffffffffffffffffffffffffffffffffff168152602001606081526020015f81526020015f81525090565b5f604051905090565b5f80fd5b5f80fd5b5f73ffffffffffffffffffffffffffffffffffffffff82169050919050565b5f6106af82610686565b9050919050565b6106bf816106a5565b81146106c9575f80fd5b50565b5f813590506106da816106b6565b92915050565b5f819050919050565b6106f2816106e0565b81146106fc575f80fd5b50565b5f8135905061070d816106e9565b92915050565b5f80604083850312156107295761072861067e565b5b5f610736858286016106cc565b9250506020610747858286016106ff565b9150509250929050565b61075a816106a5565b82525050565b5f81519050919050565b5f82825260208201905092915050565b8281835e5f83830152505050565b5f601f19601f8301169050919050565b5f6107a282610760565b6107ac818561076a565b93506107bc81856020860161077a565b6107c581610788565b840191505092915050565b6107d9816106e0565b82525050565b5f6080820190506107f25f830187610751565b81810360208301526108048186610798565b905061081360408301856107d0565b61082060608301846107d0565b95945050505050565b5f806040838503121561083f5761083e61067e565b5b5f61084c858286016106ff565b925050602061085d858286016106cc565b9150509250929050565b610870816106a5565b82525050565b5f82825260208201905092915050565b5f61089082610760565b61089a8185610876565b93506108aa81856020860161077a565b6108b381610788565b840191505092915050565b6108c7816106e0565b82525050565b5f608083015f8301516108e25f860182610867565b50602083015184820360208601526108fa8282610886565b915050604083015161090f60408601826108be565b50606083015161092260608601826108be565b508091505092915050565b5f6020820190508181035f83015261094581846108cd565b905092915050565b5f80fd5b5f80fd5b7f4e487b71000000000000000000000000000000000000000000000000000000005f52604160045260245ffd5b61098b82610788565b810181811067ffffffffffffffff821117156109aa576109a9610955565b5b80604052505050565b5f6109bc610675565b90506109c88282610982565b919050565b5f67ffffffffffffffff8211156109e7576109e6610955565b5b6109f082610788565b9050602081019050919050565b828183375f83830152505050565b5f610a1d610a18846109cd565b6109b3565b905082815260208101848484011115610a3957610a38610951565b5b610a448482856109fd565b509392505050565b5f82601f830112610a6057610a5f61094d565b5b8135610a70848260208601610a0b565b91505092915050565b5f60208284031215610a8e57610a8d61067e565b5b5f82013567ffffffffffffffff811115610aab57610aaa610682565b5b610ab784828501610a4c565b91505092915050565b5f60208284031215610ad557610ad461067e565b5b5f610ae2848285016106cc565b91505092915050565b5f81519050919050565b5f82825260208201905092915050565b5f819050602082019050919050565b5f608083015f830151610b295f860182610867565b5060208301518482036020860152610b418282610886565b9150506040830151610b5660408601826108be565b506060830151610b6960608601826108be565b508091505092915050565b5f610b7f8383610b14565b905092915050565b5f602082019050919050565b5f610b9d82610aeb565b610ba78185610af5565b935083602082028501610bb985610b05565b805f5b85811015610bf45784840389528151610bd58582610b74565b9450610be083610b87565b925060208a01995050600181019050610bbc565b50829750879550505050505092915050565b5f6020820190508181035f830152610c1e8184610b93565b905092915050565b7f4e487b71000000000000000000000000000000000000000000000000000000005f52602260045260245ffd5b5f6002820490506001821680610c6a57607f821691505b602082108103610c7d57610c7c610c26565b5b50919050565b7f4e487b71000000000000000000000000000000000000000000000000000000005f52603260045260245ffd5b7f747765657420697320746f206c65616e6774682e2e2e210000000000000000005f82015250565b5f610ce460178361076a565b9150610cef82610cb0565b602082019050919050565b5f6020820190508181035f830152610d1181610cd8565b9050919050565b5f819050815f5260205f209050919050565b5f6020601f8301049050919050565b5f82821b905092915050565b5f60088302610d747fffffffffffffffffffffffffffffffffffffffffffffffffffffffffffffffff82610d39565b610d7e8683610d39565b95508019841693508086168417925050509392505050565b5f819050919050565b5f610db9610db4610daf846106e0565b610d96565b6106e0565b9050919050565b5f819050919050565b610dd283610d9f565b610de6610dde82610dc0565b848454610d45565b825550505050565b5f90565b610dfa610dee565b610e05818484610dc9565b505050565b5b81811015610e2857610e1d5f82610df2565b600181019050610e0b565b5050565b601f821115610e6d57610e3e81610d18565b610e4784610d2a565b81016020851015610e56578190505b610e6a610e6285610d2a565b830182610e0a565b50505b505050565b5f82821c905092915050565b5f610e8d5f1984600802610e72565b1980831691505092915050565b5f610ea58383610e7e565b9150826002028217905092915050565b610ebe82610760565b67ffffffffffffffff811115610ed757610ed6610955565b5b610ee18254610c53565b610eec828285610e2c565b5f60209050601f831160018114610f1d575f8415610f0b578287015190505b610f158582610e9a565b865550610f7c565b601f198416610f2b86610d18565b5f5b82811015610f5257848901518255600182019150602085019450602081019050610f2d565b86831015610f6f5784890151610f6b601f891682610e7e565b8355505b6001600288020188555050505b50505050505056fea2646970667358221220f670b31dcb35b250b3d924f3528fbedf8633b009754f588432c6e4c5298ed9bf64736f6c634300081a0033",
					"opcodes": "PUSH1 0x80 PUSH1 0x40 MSTORE CALLVALUE DUP1 ISZERO PUSH1 0xE JUMPI PUSH0 DUP1 REVERT JUMPDEST POP PUSH2 0xFBA DUP1 PUSH2 0x1C PUSH0 CODECOPY PUSH0 RETURN INVALID PUSH1 0x80 PUSH1 0x40 MSTORE CALLVALUE DUP1 ISZERO PUSH2 0xF JUMPI PUSH0 DUP1 REVERT JUMPDEST POP PUSH1 0x4 CALLDATASIZE LT PUSH2 0x4A JUMPI PUSH0 CALLDATALOAD PUSH1 0xE0 SHR DUP1 PUSH4 0x5A1B4A9 EQ PUSH2 0x4E JUMPI DUP1 PUSH4 0x4E46B4E5 EQ PUSH2 0x81 JUMPI DUP1 PUSH4 0x7C9CD2BC EQ PUSH2 0xB1 JUMPI DUP1 PUSH4 0xB64988B8 EQ PUSH2 0xCD JUMPI JUMPDEST PUSH0 DUP1 REVERT JUMPDEST PUSH2 0x68 PUSH1 0x4 DUP1 CALLDATASIZE SUB DUP2 ADD SWAP1 PUSH2 0x63 SWAP2 SWAP1 PUSH2 0x713 JUMP JUMPDEST PUSH2 0xFD JUMP JUMPDEST PUSH1 0x40 MLOAD PUSH2 0x78 SWAP5 SWAP4 SWAP3 SWAP2 SWAP1 PUSH2 0x7DF JUMP JUMPDEST PUSH1 0x40 MLOAD DUP1 SWAP2 SUB SWAP1 RETURN JUMPDEST PUSH2 0x9B PUSH1 0x4 DUP1 CALLDATASIZE SUB DUP2 ADD SWAP1 PUSH2 0x96 SWAP2 SWAP1 PUSH2 0x829 JUMP JUMPDEST PUSH2 0x1E7 JUMP JUMPDEST PUSH1 0x40 MLOAD PUSH2 0xA8 SWAP2 SWAP1 PUSH2 0x92D JUMP JUMPDEST PUSH1 0x40 MLOAD DUP1 SWAP2 SUB SWAP1 RETURN JUMPDEST PUSH2 0xCB PUSH1 0x4 DUP1 CALLDATASIZE SUB DUP2 ADD SWAP1 PUSH2 0xC6 SWAP2 SWAP1 PUSH2 0xA79 JUMP JUMPDEST PUSH2 0x354 JUMP JUMPDEST STOP JUMPDEST PUSH2 0xE7 PUSH1 0x4 DUP1 CALLDATASIZE SUB DUP2 ADD SWAP1 PUSH2 0xE2 SWAP2 SWAP1 PUSH2 0xAC0 JUMP JUMPDEST PUSH2 0x4AA JUMP JUMPDEST PUSH1 0x40 MLOAD PUSH2 0xF4 SWAP2 SWAP1 PUSH2 0xC06 JUMP JUMPDEST PUSH1 0x40 MLOAD DUP1 SWAP2 SUB SWAP1 RETURN JUMPDEST PUSH0 PUSH1 0x20 MSTORE DUP2 PUSH0 MSTORE PUSH1 0x40 PUSH0 KECCAK256 DUP2 DUP2 SLOAD DUP2 LT PUSH2 0x115 JUMPI PUSH0 DUP1 REVERT JUMPDEST SWAP1 PUSH0 MSTORE PUSH1 0x20 PUSH0 KECCAK256 SWAP1 PUSH1 0x4 MUL ADD PUSH0 SWAP2 POP SWAP2 POP POP DUP1 PUSH0 ADD PUSH0 SWAP1 SLOAD SWAP1 PUSH2 0x100 EXP SWAP1 DIV PUSH20 0xFFFFFFFFFFFFFFFFFFFFFFFFFFFFFFFFFFFFFFFF AND SWAP1 DUP1 PUSH1 0x1 ADD DUP1 SLOAD PUSH2 0x15A SWAP1 PUSH2 0xC53 JUMP JUMPDEST DUP1 PUSH1 0x1F ADD PUSH1 0x20 DUP1 SWAP2 DIV MUL PUSH1 0x20 ADD PUSH1 0x40 MLOAD SWAP1 DUP2 ADD PUSH1 0x40 MSTORE DUP1 SWAP3 SWAP2 SWAP1 DUP2 DUP2 MSTORE PUSH1 0x20 ADD DUP3 DUP1 SLOAD PUSH2 0x186 SWAP1 PUSH2 0xC53 JUMP JUMPDEST DUP1 ISZERO PUSH2 0x1D1 JUMPI DUP1 PUSH1 0x1F LT PUSH2 0x1A8 JUMPI PUSH2 0x100 DUP1 DUP4 SLOAD DIV MUL DUP4 MSTORE SWAP2 PUSH1 0x20 ADD SWAP2 PUSH2 0x1D1 JUMP JUMPDEST DUP3 ADD SWAP2 SWAP1 PUSH0 MSTORE PUSH1 0x20 PUSH0 KECCAK256 SWAP1 JUMPDEST DUP2 SLOAD DUP2 MSTORE SWAP1 PUSH1 0x1 ADD SWAP1 PUSH1 0x20 ADD DUP1 DUP4 GT PUSH2 0x1B4 JUMPI DUP3 SWAP1 SUB PUSH1 0x1F AND DUP3 ADD SWAP2 JUMPDEST POP POP POP POP POP SWAP1 DUP1 PUSH1 0x2 ADD SLOAD SWAP1 DUP1 PUSH1 0x3 ADD SLOAD SWAP1 POP DUP5 JUMP JUMPDEST PUSH2 0x1EF PUSH2 0x63A JUMP JUMPDEST PUSH0 DUP1 DUP4 PUSH20 0xFFFFFFFFFFFFFFFFFFFFFFFFFFFFFFFFFFFFFFFF AND PUSH20 0xFFFFFFFFFFFFFFFFFFFFFFFFFFFFFFFFFFFFFFFF AND DUP2 MSTORE PUSH1 0x20 ADD SWAP1 DUP2 MSTORE PUSH1 0x20 ADD PUSH0 KECCAK256 DUP4 DUP2 SLOAD DUP2 LT PUSH2 0x23D JUMPI PUSH2 0x23C PUSH2 0xC83 JUMP JUMPDEST JUMPDEST SWAP1 PUSH0 MSTORE PUSH1 0x20 PUSH0 KECCAK256 SWAP1 PUSH1 0x4 MUL ADD PUSH1 0x40 MLOAD DUP1 PUSH1 0x80 ADD PUSH1 0x40 MSTORE SWAP1 DUP2 PUSH0 DUP3 ADD PUSH0 SWAP1 SLOAD SWAP1 PUSH2 0x100 EXP SWAP1 DIV PUSH20 0xFFFFFFFFFFFFFFFFFFFFFFFFFFFFFFFFFFFFFFFF AND PUSH20 0xFFFFFFFFFFFFFFFFFFFFFFFFFFFFFFFFFFFFFFFF AND PUSH20 0xFFFFFFFFFFFFFFFFFFFFFFFFFFFFFFFFFFFFFFFF AND DUP2 MSTORE PUSH1 0x20 ADD PUSH1 0x1 DUP3 ADD DUP1 SLOAD PUSH2 0x2B8 SWAP1 PUSH2 0xC53 JUMP JUMPDEST DUP1 PUSH1 0x1F ADD PUSH1 0x20 DUP1 SWAP2 DIV MUL PUSH1 0x20 ADD PUSH1 0x40 MLOAD SWAP1 DUP2 ADD PUSH1 0x40 MSTORE DUP1 SWAP3 SWAP2 SWAP1 DUP2 DUP2 MSTORE PUSH1 0x20 ADD DUP3 DUP1 SLOAD PUSH2 0x2E4 SWAP1 PUSH2 0xC53 JUMP JUMPDEST DUP1 ISZERO PUSH2 0x32F JUMPI DUP1 PUSH1 0x1F LT PUSH2 0x306 JUMPI PUSH2 0x100 DUP1 DUP4 SLOAD DIV MUL DUP4 MSTORE SWAP2 PUSH1 0x20 ADD SWAP2 PUSH2 0x32F JUMP JUMPDEST DUP3 ADD SWAP2 SWAP1 PUSH0 MSTORE PUSH1 0x20 PUSH0 KECCAK256 SWAP1 JUMPDEST DUP2 SLOAD DUP2 MSTORE SWAP1 PUSH1 0x1 ADD SWAP1 PUSH1 0x20 ADD DUP1 DUP4 GT PUSH2 0x312 JUMPI DUP3 SWAP1 SUB PUSH1 0x1F AND DUP3 ADD SWAP2 JUMPDEST POP POP POP POP POP DUP2 MSTORE PUSH1 0x20 ADD PUSH1 0x2 DUP3 ADD SLOAD DUP2 MSTORE PUSH1 0x20 ADD PUSH1 0x3 DUP3 ADD SLOAD DUP2 MSTORE POP POP SWAP1 POP SWAP3 SWAP2 POP POP JUMP JUMPDEST PUSH1 0x64 DUP2 MLOAD GT ISZERO PUSH2 0x399 JUMPI PUSH1 0x40 MLOAD PUSH32 0x8C379A000000000000000000000000000000000000000000000000000000000 DUP2 MSTORE PUSH1 0x4 ADD PUSH2 0x390 SWAP1 PUSH2 0xCFA JUMP JUMPDEST PUSH1 0x40 MLOAD DUP1 SWAP2 SUB SWAP1 REVERT JUMPDEST PUSH0 PUSH1 0x40 MLOAD DUP1 PUSH1 0x80 ADD PUSH1 0x40 MSTORE DUP1 CALLER PUSH20 0xFFFFFFFFFFFFFFFFFFFFFFFFFFFFFFFFFFFFFFFF AND DUP2 MSTORE PUSH1 0x20 ADD DUP4 DUP2 MSTORE PUSH1 0x20 ADD TIMESTAMP DUP2 MSTORE PUSH1 0x20 ADD PUSH0 DUP2 MSTORE POP SWAP1 POP PUSH0 DUP1 CALLER PUSH20 0xFFFFFFFFFFFFFFFFFFFFFFFFFFFFFFFFFFFFFFFF AND PUSH20 0xFFFFFFFFFFFFFFFFFFFFFFFFFFFFFFFFFFFFFFFF AND DUP2 MSTORE PUSH1 0x20 ADD SWAP1 DUP2 MSTORE PUSH1 0x20 ADD PUSH0 KECCAK256 DUP2 SWAP1 DUP1 PUSH1 0x1 DUP2 SLOAD ADD DUP1 DUP3 SSTORE DUP1 SWAP2 POP POP PUSH1 0x1 SWAP1 SUB SWAP1 PUSH0 MSTORE PUSH1 0x20 PUSH0 KECCAK256 SWAP1 PUSH1 0x4 MUL ADD PUSH0 SWAP1 SWAP2 SWAP1 SWAP2 SWAP1 SWAP2 POP PUSH0 DUP3 ADD MLOAD DUP2 PUSH0 ADD PUSH0 PUSH2 0x100 EXP DUP2 SLOAD DUP2 PUSH20 0xFFFFFFFFFFFFFFFFFFFFFFFFFFFFFFFFFFFFFFFF MUL NOT AND SWAP1 DUP4 PUSH20 0xFFFFFFFFFFFFFFFFFFFFFFFFFFFFFFFFFFFFFFFF AND MUL OR SWAP1 SSTORE POP PUSH1 0x20 DUP3 ADD MLOAD DUP2 PUSH1 0x1 ADD SWAP1 DUP2 PUSH2 0x48F SWAP2 SWAP1 PUSH2 0xEB5 JUMP JUMPDEST POP PUSH1 0x40 DUP3 ADD MLOAD DUP2 PUSH1 0x2 ADD SSTORE PUSH1 0x60 DUP3 ADD MLOAD DUP2 PUSH1 0x3 ADD SSTORE POP POP POP POP JUMP JUMPDEST PUSH1 0x60 PUSH0 DUP1 DUP4 PUSH20 0xFFFFFFFFFFFFFFFFFFFFFFFFFFFFFFFFFFFFFFFF AND PUSH20 0xFFFFFFFFFFFFFFFFFFFFFFFFFFFFFFFFFFFFFFFF AND DUP2 MSTORE PUSH1 0x20 ADD SWAP1 DUP2 MSTORE PUSH1 0x20 ADD PUSH0 KECCAK256 DUP1 SLOAD DUP1 PUSH1 0x20 MUL PUSH1 0x20 ADD PUSH1 0x40 MLOAD SWAP1 DUP2 ADD PUSH1 0x40 MSTORE DUP1 SWAP3 SWAP2 SWAP1 DUP2 DUP2 MSTORE PUSH1 0x20 ADD PUSH0 SWAP1 JUMPDEST DUP3 DUP3 LT ISZERO PUSH2 0x62F JUMPI DUP4 DUP3 SWAP1 PUSH0 MSTORE PUSH1 0x20 PUSH0 KECCAK256 SWAP1 PUSH1 0x4 MUL ADD PUSH1 0x40 MLOAD DUP1 PUSH1 0x80 ADD PUSH1 0x40 MSTORE SWAP1 DUP2 PUSH0 DUP3 ADD PUSH0 SWAP1 SLOAD SWAP1 PUSH2 0x100 EXP SWAP1 DIV PUSH20 0xFFFFFFFFFFFFFFFFFFFFFFFFFFFFFFFFFFFFFFFF AND PUSH20 0xFFFFFFFFFFFFFFFFFFFFFFFFFFFFFFFFFFFFFFFF AND PUSH20 0xFFFFFFFFFFFFFFFFFFFFFFFFFFFFFFFFFFFFFFFF AND DUP2 MSTORE PUSH1 0x20 ADD PUSH1 0x1 DUP3 ADD DUP1 SLOAD PUSH2 0x58C SWAP1 PUSH2 0xC53 JUMP JUMPDEST DUP1 PUSH1 0x1F ADD PUSH1 0x20 DUP1 SWAP2 DIV MUL PUSH1 0x20 ADD PUSH1 0x40 MLOAD SWAP1 DUP2 ADD PUSH1 0x40 MSTORE DUP1 SWAP3 SWAP2 SWAP1 DUP2 DUP2 MSTORE PUSH1 0x20 ADD DUP3 DUP1 SLOAD PUSH2 0x5B8 SWAP1 PUSH2 0xC53 JUMP JUMPDEST DUP1 ISZERO PUSH2 0x603 JUMPI DUP1 PUSH1 0x1F LT PUSH2 0x5DA JUMPI PUSH2 0x100 DUP1 DUP4 SLOAD DIV MUL DUP4 MSTORE SWAP2 PUSH1 0x20 ADD SWAP2 PUSH2 0x603 JUMP JUMPDEST DUP3 ADD SWAP2 SWAP1 PUSH0 MSTORE PUSH1 0x20 PUSH0 KECCAK256 SWAP1 JUMPDEST DUP2 SLOAD DUP2 MSTORE SWAP1 PUSH1 0x1 ADD SWAP1 PUSH1 0x20 ADD DUP1 DUP4 GT PUSH2 0x5E6 JUMPI DUP3 SWAP1 SUB PUSH1 0x1F AND DUP3 ADD SWAP2 JUMPDEST POP POP POP POP POP DUP2 MSTORE PUSH1 0x20 ADD PUSH1 0x2 DUP3 ADD SLOAD DUP2 MSTORE PUSH1 0x20 ADD PUSH1 0x3 DUP3 ADD SLOAD DUP2 MSTORE POP POP DUP2 MSTORE PUSH1 0x20 ADD SWAP1 PUSH1 0x1 ADD SWAP1 PUSH2 0x507 JUMP JUMPDEST POP POP POP POP SWAP1 POP SWAP2 SWAP1 POP JUMP JUMPDEST PUSH1 0x40 MLOAD DUP1 PUSH1 0x80 ADD PUSH1 0x40 MSTORE DUP1 PUSH0 PUSH20 0xFFFFFFFFFFFFFFFFFFFFFFFFFFFFFFFFFFFFFFFF AND DUP2 MSTORE PUSH1 0x20 ADD PUSH1 0x60 DUP2 MSTORE PUSH1 0x20 ADD PUSH0 DUP2 MSTORE PUSH1 0x20 ADD PUSH0 DUP2 MSTORE POP SWAP1 JUMP JUMPDEST PUSH0 PUSH1 0x40 MLOAD SWAP1 POP SWAP1 JUMP JUMPDEST PUSH0 DUP1 REVERT JUMPDEST PUSH0 DUP1 REVERT JUMPDEST PUSH0 PUSH20 0xFFFFFFFFFFFFFFFFFFFFFFFFFFFFFFFFFFFFFFFF DUP3 AND SWAP1 POP SWAP2 SWAP1 POP JUMP JUMPDEST PUSH0 PUSH2 0x6AF DUP3 PUSH2 0x686 JUMP JUMPDEST SWAP1 POP SWAP2 SWAP1 POP JUMP JUMPDEST PUSH2 0x6BF DUP2 PUSH2 0x6A5 JUMP JUMPDEST DUP2 EQ PUSH2 0x6C9 JUMPI PUSH0 DUP1 REVERT JUMPDEST POP JUMP JUMPDEST PUSH0 DUP2 CALLDATALOAD SWAP1 POP PUSH2 0x6DA DUP2 PUSH2 0x6B6 JUMP JUMPDEST SWAP3 SWAP2 POP POP JUMP JUMPDEST PUSH0 DUP2 SWAP1 POP SWAP2 SWAP1 POP JUMP JUMPDEST PUSH2 0x6F2 DUP2 PUSH2 0x6E0 JUMP JUMPDEST DUP2 EQ PUSH2 0x6FC JUMPI PUSH0 DUP1 REVERT JUMPDEST POP JUMP JUMPDEST PUSH0 DUP2 CALLDATALOAD SWAP1 POP PUSH2 0x70D DUP2 PUSH2 0x6E9 JUMP JUMPDEST SWAP3 SWAP2 POP POP JUMP JUMPDEST PUSH0 DUP1 PUSH1 0x40 DUP4 DUP6 SUB SLT ISZERO PUSH2 0x729 JUMPI PUSH2 0x728 PUSH2 0x67E JUMP JUMPDEST JUMPDEST PUSH0 PUSH2 0x736 DUP6 DUP3 DUP7 ADD PUSH2 0x6CC JUMP JUMPDEST SWAP3 POP POP PUSH1 0x20 PUSH2 0x747 DUP6 DUP3 DUP7 ADD PUSH2 0x6FF JUMP JUMPDEST SWAP2 POP POP SWAP3 POP SWAP3 SWAP1 POP JUMP JUMPDEST PUSH2 0x75A DUP2 PUSH2 0x6A5 JUMP JUMPDEST DUP3 MSTORE POP POP JUMP JUMPDEST PUSH0 DUP2 MLOAD SWAP1 POP SWAP2 SWAP1 POP JUMP JUMPDEST PUSH0 DUP3 DUP3 MSTORE PUSH1 0x20 DUP3 ADD SWAP1 POP SWAP3 SWAP2 POP POP JUMP JUMPDEST DUP3 DUP2 DUP4 MCOPY PUSH0 DUP4 DUP4 ADD MSTORE POP POP POP JUMP JUMPDEST PUSH0 PUSH1 0x1F NOT PUSH1 0x1F DUP4 ADD AND SWAP1 POP SWAP2 SWAP1 POP JUMP JUMPDEST PUSH0 PUSH2 0x7A2 DUP3 PUSH2 0x760 JUMP JUMPDEST PUSH2 0x7AC DUP2 DUP6 PUSH2 0x76A JUMP JUMPDEST SWAP4 POP PUSH2 0x7BC DUP2 DUP6 PUSH1 0x20 DUP7 ADD PUSH2 0x77A JUMP JUMPDEST PUSH2 0x7C5 DUP2 PUSH2 0x788 JUMP JUMPDEST DUP5 ADD SWAP2 POP POP SWAP3 SWAP2 POP POP JUMP JUMPDEST PUSH2 0x7D9 DUP2 PUSH2 0x6E0 JUMP JUMPDEST DUP3 MSTORE POP POP JUMP JUMPDEST PUSH0 PUSH1 0x80 DUP3 ADD SWAP1 POP PUSH2 0x7F2 PUSH0 DUP4 ADD DUP8 PUSH2 0x751 JUMP JUMPDEST DUP2 DUP2 SUB PUSH1 0x20 DUP4 ADD MSTORE PUSH2 0x804 DUP2 DUP7 PUSH2 0x798 JUMP JUMPDEST SWAP1 POP PUSH2 0x813 PUSH1 0x40 DUP4 ADD DUP6 PUSH2 0x7D0 JUMP JUMPDEST PUSH2 0x820 PUSH1 0x60 DUP4 ADD DUP5 PUSH2 0x7D0 JUMP JUMPDEST SWAP6 SWAP5 POP POP POP POP POP JUMP JUMPDEST PUSH0 DUP1 PUSH1 0x40 DUP4 DUP6 SUB SLT ISZERO PUSH2 0x83F JUMPI PUSH2 0x83E PUSH2 0x67E JUMP JUMPDEST JUMPDEST PUSH0 PUSH2 0x84C DUP6 DUP3 DUP7 ADD PUSH2 0x6FF JUMP JUMPDEST SWAP3 POP POP PUSH1 0x20 PUSH2 0x85D DUP6 DUP3 DUP7 ADD PUSH2 0x6CC JUMP JUMPDEST SWAP2 POP POP SWAP3 POP SWAP3 SWAP1 POP JUMP JUMPDEST PUSH2 0x870 DUP2 PUSH2 0x6A5 JUMP JUMPDEST DUP3 MSTORE POP POP JUMP JUMPDEST PUSH0 DUP3 DUP3 MSTORE PUSH1 0x20 DUP3 ADD SWAP1 POP SWAP3 SWAP2 POP POP JUMP JUMPDEST PUSH0 PUSH2 0x890 DUP3 PUSH2 0x760 JUMP JUMPDEST PUSH2 0x89A DUP2 DUP6 PUSH2 0x876 JUMP JUMPDEST SWAP4 POP PUSH2 0x8AA DUP2 DUP6 PUSH1 0x20 DUP7 ADD PUSH2 0x77A JUMP JUMPDEST PUSH2 0x8B3 DUP2 PUSH2 0x788 JUMP JUMPDEST DUP5 ADD SWAP2 POP POP SWAP3 SWAP2 POP POP JUMP JUMPDEST PUSH2 0x8C7 DUP2 PUSH2 0x6E0 JUMP JUMPDEST DUP3 MSTORE POP POP JUMP JUMPDEST PUSH0 PUSH1 0x80 DUP4 ADD PUSH0 DUP4 ADD MLOAD PUSH2 0x8E2 PUSH0 DUP7 ADD DUP3 PUSH2 0x867 JUMP JUMPDEST POP PUSH1 0x20 DUP4 ADD MLOAD DUP5 DUP3 SUB PUSH1 0x20 DUP7 ADD MSTORE PUSH2 0x8FA DUP3 DUP3 PUSH2 0x886 JUMP JUMPDEST SWAP2 POP POP PUSH1 0x40 DUP4 ADD MLOAD PUSH2 0x90F PUSH1 0x40 DUP7 ADD DUP3 PUSH2 0x8BE JUMP JUMPDEST POP PUSH1 0x60 DUP4 ADD MLOAD PUSH2 0x922 PUSH1 0x60 DUP7 ADD DUP3 PUSH2 0x8BE JUMP JUMPDEST POP DUP1 SWAP2 POP POP SWAP3 SWAP2 POP POP JUMP JUMPDEST PUSH0 PUSH1 0x20 DUP3 ADD SWAP1 POP DUP2 DUP2 SUB PUSH0 DUP4 ADD MSTORE PUSH2 0x945 DUP2 DUP5 PUSH2 0x8CD JUMP JUMPDEST SWAP1 POP SWAP3 SWAP2 POP POP JUMP JUMPDEST PUSH0 DUP1 REVERT JUMPDEST PUSH0 DUP1 REVERT JUMPDEST PUSH32 0x4E487B7100000000000000000000000000000000000000000000000000000000 PUSH0 MSTORE PUSH1 0x41 PUSH1 0x4 MSTORE PUSH1 0x24 PUSH0 REVERT JUMPDEST PUSH2 0x98B DUP3 PUSH2 0x788 JUMP JUMPDEST DUP2 ADD DUP2 DUP2 LT PUSH8 0xFFFFFFFFFFFFFFFF DUP3 GT OR ISZERO PUSH2 0x9AA JUMPI PUSH2 0x9A9 PUSH2 0x955 JUMP JUMPDEST JUMPDEST DUP1 PUSH1 0x40 MSTORE POP POP POP JUMP JUMPDEST PUSH0 PUSH2 0x9BC PUSH2 0x675 JUMP JUMPDEST SWAP1 POP PUSH2 0x9C8 DUP3 DUP3 PUSH2 0x982 JUMP JUMPDEST SWAP2 SWAP1 POP JUMP JUMPDEST PUSH0 PUSH8 0xFFFFFFFFFFFFFFFF DUP3 GT ISZERO PUSH2 0x9E7 JUMPI PUSH2 0x9E6 PUSH2 0x955 JUMP JUMPDEST JUMPDEST PUSH2 0x9F0 DUP3 PUSH2 0x788 JUMP JUMPDEST SWAP1 POP PUSH1 0x20 DUP2 ADD SWAP1 POP SWAP2 SWAP1 POP JUMP JUMPDEST DUP3 DUP2 DUP4 CALLDATACOPY PUSH0 DUP4 DUP4 ADD MSTORE POP POP POP JUMP JUMPDEST PUSH0 PUSH2 0xA1D PUSH2 0xA18 DUP5 PUSH2 0x9CD JUMP JUMPDEST PUSH2 0x9B3 JUMP JUMPDEST SWAP1 POP DUP3 DUP2 MSTORE PUSH1 0x20 DUP2 ADD DUP5 DUP5 DUP5 ADD GT ISZERO PUSH2 0xA39 JUMPI PUSH2 0xA38 PUSH2 0x951 JUMP JUMPDEST JUMPDEST PUSH2 0xA44 DUP5 DUP3 DUP6 PUSH2 0x9FD JUMP JUMPDEST POP SWAP4 SWAP3 POP POP POP JUMP JUMPDEST PUSH0 DUP3 PUSH1 0x1F DUP4 ADD SLT PUSH2 0xA60 JUMPI PUSH2 0xA5F PUSH2 0x94D JUMP JUMPDEST JUMPDEST DUP2 CALLDATALOAD PUSH2 0xA70 DUP5 DUP3 PUSH1 0x20 DUP7 ADD PUSH2 0xA0B JUMP JUMPDEST SWAP2 POP POP SWAP3 SWAP2 POP POP JUMP JUMPDEST PUSH0 PUSH1 0x20 DUP3 DUP5 SUB SLT ISZERO PUSH2 0xA8E JUMPI PUSH2 0xA8D PUSH2 0x67E JUMP JUMPDEST JUMPDEST PUSH0 DUP3 ADD CALLDATALOAD PUSH8 0xFFFFFFFFFFFFFFFF DUP2 GT ISZERO PUSH2 0xAAB JUMPI PUSH2 0xAAA PUSH2 0x682 JUMP JUMPDEST JUMPDEST PUSH2 0xAB7 DUP5 DUP3 DUP6 ADD PUSH2 0xA4C JUMP JUMPDEST SWAP2 POP POP SWAP3 SWAP2 POP POP JUMP JUMPDEST PUSH0 PUSH1 0x20 DUP3 DUP5 SUB SLT ISZERO PUSH2 0xAD5 JUMPI PUSH2 0xAD4 PUSH2 0x67E JUMP JUMPDEST JUMPDEST PUSH0 PUSH2 0xAE2 DUP5 DUP3 DUP6 ADD PUSH2 0x6CC JUMP JUMPDEST SWAP2 POP POP SWAP3 SWAP2 POP POP JUMP JUMPDEST PUSH0 DUP2 MLOAD SWAP1 POP SWAP2 SWAP1 POP JUMP JUMPDEST PUSH0 DUP3 DUP3 MSTORE PUSH1 0x20 DUP3 ADD SWAP1 POP SWAP3 SWAP2 POP POP JUMP JUMPDEST PUSH0 DUP2 SWAP1 POP PUSH1 0x20 DUP3 ADD SWAP1 POP SWAP2 SWAP1 POP JUMP JUMPDEST PUSH0 PUSH1 0x80 DUP4 ADD PUSH0 DUP4 ADD MLOAD PUSH2 0xB29 PUSH0 DUP7 ADD DUP3 PUSH2 0x867 JUMP JUMPDEST POP PUSH1 0x20 DUP4 ADD MLOAD DUP5 DUP3 SUB PUSH1 0x20 DUP7 ADD MSTORE PUSH2 0xB41 DUP3 DUP3 PUSH2 0x886 JUMP JUMPDEST SWAP2 POP POP PUSH1 0x40 DUP4 ADD MLOAD PUSH2 0xB56 PUSH1 0x40 DUP7 ADD DUP3 PUSH2 0x8BE JUMP JUMPDEST POP PUSH1 0x60 DUP4 ADD MLOAD PUSH2 0xB69 PUSH1 0x60 DUP7 ADD DUP3 PUSH2 0x8BE JUMP JUMPDEST POP DUP1 SWAP2 POP POP SWAP3 SWAP2 POP POP JUMP JUMPDEST PUSH0 PUSH2 0xB7F DUP4 DUP4 PUSH2 0xB14 JUMP JUMPDEST SWAP1 POP SWAP3 SWAP2 POP POP JUMP JUMPDEST PUSH0 PUSH1 0x20 DUP3 ADD SWAP1 POP SWAP2 SWAP1 POP JUMP JUMPDEST PUSH0 PUSH2 0xB9D DUP3 PUSH2 0xAEB JUMP JUMPDEST PUSH2 0xBA7 DUP2 DUP6 PUSH2 0xAF5 JUMP JUMPDEST SWAP4 POP DUP4 PUSH1 0x20 DUP3 MUL DUP6 ADD PUSH2 0xBB9 DUP6 PUSH2 0xB05 JUMP JUMPDEST DUP1 PUSH0 JUMPDEST DUP6 DUP2 LT ISZERO PUSH2 0xBF4 JUMPI DUP5 DUP5 SUB DUP10 MSTORE DUP2 MLOAD PUSH2 0xBD5 DUP6 DUP3 PUSH2 0xB74 JUMP JUMPDEST SWAP5 POP PUSH2 0xBE0 DUP4 PUSH2 0xB87 JUMP JUMPDEST SWAP3 POP PUSH1 0x20 DUP11 ADD SWAP10 POP POP PUSH1 0x1 DUP2 ADD SWAP1 POP PUSH2 0xBBC JUMP JUMPDEST POP DUP3 SWAP8 POP DUP8 SWAP6 POP POP POP POP POP POP SWAP3 SWAP2 POP POP JUMP JUMPDEST PUSH0 PUSH1 0x20 DUP3 ADD SWAP1 POP DUP2 DUP2 SUB PUSH0 DUP4 ADD MSTORE PUSH2 0xC1E DUP2 DUP5 PUSH2 0xB93 JUMP JUMPDEST SWAP1 POP SWAP3 SWAP2 POP POP JUMP JUMPDEST PUSH32 0x4E487B7100000000000000000000000000000000000000000000000000000000 PUSH0 MSTORE PUSH1 0x22 PUSH1 0x4 MSTORE PUSH1 0x24 PUSH0 REVERT JUMPDEST PUSH0 PUSH1 0x2 DUP3 DIV SWAP1 POP PUSH1 0x1 DUP3 AND DUP1 PUSH2 0xC6A JUMPI PUSH1 0x7F DUP3 AND SWAP2 POP JUMPDEST PUSH1 0x20 DUP3 LT DUP2 SUB PUSH2 0xC7D JUMPI PUSH2 0xC7C PUSH2 0xC26 JUMP JUMPDEST JUMPDEST POP SWAP2 SWAP1 POP JUMP JUMPDEST PUSH32 0x4E487B7100000000000000000000000000000000000000000000000000000000 PUSH0 MSTORE PUSH1 0x32 PUSH1 0x4 MSTORE PUSH1 0x24 PUSH0 REVERT JUMPDEST PUSH32 0x747765657420697320746F206C65616E6774682E2E2E21000000000000000000 PUSH0 DUP3 ADD MSTORE POP JUMP JUMPDEST PUSH0 PUSH2 0xCE4 PUSH1 0x17 DUP4 PUSH2 0x76A JUMP JUMPDEST SWAP2 POP PUSH2 0xCEF DUP3 PUSH2 0xCB0 JUMP JUMPDEST PUSH1 0x20 DUP3 ADD SWAP1 POP SWAP2 SWAP1 POP JUMP JUMPDEST PUSH0 PUSH1 0x20 DUP3 ADD SWAP1 POP DUP2 DUP2 SUB PUSH0 DUP4 ADD MSTORE PUSH2 0xD11 DUP2 PUSH2 0xCD8 JUMP JUMPDEST SWAP1 POP SWAP2 SWAP1 POP JUMP JUMPDEST PUSH0 DUP2 SWAP1 POP DUP2 PUSH0 MSTORE PUSH1 0x20 PUSH0 KECCAK256 SWAP1 POP SWAP2 SWAP1 POP JUMP JUMPDEST PUSH0 PUSH1 0x20 PUSH1 0x1F DUP4 ADD DIV SWAP1 POP SWAP2 SWAP1 POP JUMP JUMPDEST PUSH0 DUP3 DUP3 SHL SWAP1 POP SWAP3 SWAP2 POP POP JUMP JUMPDEST PUSH0 PUSH1 0x8 DUP4 MUL PUSH2 0xD74 PUSH32 0xFFFFFFFFFFFFFFFFFFFFFFFFFFFFFFFFFFFFFFFFFFFFFFFFFFFFFFFFFFFFFFFF DUP3 PUSH2 0xD39 JUMP JUMPDEST PUSH2 0xD7E DUP7 DUP4 PUSH2 0xD39 JUMP JUMPDEST SWAP6 POP DUP1 NOT DUP5 AND SWAP4 POP DUP1 DUP7 AND DUP5 OR SWAP3 POP POP POP SWAP4 SWAP3 POP POP POP JUMP JUMPDEST PUSH0 DUP2 SWAP1 POP SWAP2 SWAP1 POP JUMP JUMPDEST PUSH0 PUSH2 0xDB9 PUSH2 0xDB4 PUSH2 0xDAF DUP5 PUSH2 0x6E0 JUMP JUMPDEST PUSH2 0xD96 JUMP JUMPDEST PUSH2 0x6E0 JUMP JUMPDEST SWAP1 POP SWAP2 SWAP1 POP JUMP JUMPDEST PUSH0 DUP2 SWAP1 POP SWAP2 SWAP1 POP JUMP JUMPDEST PUSH2 0xDD2 DUP4 PUSH2 0xD9F JUMP JUMPDEST PUSH2 0xDE6 PUSH2 0xDDE DUP3 PUSH2 0xDC0 JUMP JUMPDEST DUP5 DUP5 SLOAD PUSH2 0xD45 JUMP JUMPDEST DUP3 SSTORE POP POP POP POP JUMP JUMPDEST PUSH0 SWAP1 JUMP JUMPDEST PUSH2 0xDFA PUSH2 0xDEE JUMP JUMPDEST PUSH2 0xE05 DUP2 DUP5 DUP5 PUSH2 0xDC9 JUMP JUMPDEST POP POP POP JUMP JUMPDEST JUMPDEST DUP2 DUP2 LT ISZERO PUSH2 0xE28 JUMPI PUSH2 0xE1D PUSH0 DUP3 PUSH2 0xDF2 JUMP JUMPDEST PUSH1 0x1 DUP2 ADD SWAP1 POP PUSH2 0xE0B JUMP JUMPDEST POP POP JUMP JUMPDEST PUSH1 0x1F DUP3 GT ISZERO PUSH2 0xE6D JUMPI PUSH2 0xE3E DUP2 PUSH2 0xD18 JUMP JUMPDEST PUSH2 0xE47 DUP5 PUSH2 0xD2A JUMP JUMPDEST DUP2 ADD PUSH1 0x20 DUP6 LT ISZERO PUSH2 0xE56 JUMPI DUP2 SWAP1 POP JUMPDEST PUSH2 0xE6A PUSH2 0xE62 DUP6 PUSH2 0xD2A JUMP JUMPDEST DUP4 ADD DUP3 PUSH2 0xE0A JUMP JUMPDEST POP POP JUMPDEST POP POP POP JUMP JUMPDEST PUSH0 DUP3 DUP3 SHR SWAP1 POP SWAP3 SWAP2 POP POP JUMP JUMPDEST PUSH0 PUSH2 0xE8D PUSH0 NOT DUP5 PUSH1 0x8 MUL PUSH2 0xE72 JUMP JUMPDEST NOT DUP1 DUP4 AND SWAP2 POP POP SWAP3 SWAP2 POP POP JUMP JUMPDEST PUSH0 PUSH2 0xEA5 DUP4 DUP4 PUSH2 0xE7E JUMP JUMPDEST SWAP2 POP DUP3 PUSH1 0x2 MUL DUP3 OR SWAP1 POP SWAP3 SWAP2 POP POP JUMP JUMPDEST PUSH2 0xEBE DUP3 PUSH2 0x760 JUMP JUMPDEST PUSH8 0xFFFFFFFFFFFFFFFF DUP2 GT ISZERO PUSH2 0xED7 JUMPI PUSH2 0xED6 PUSH2 0x955 JUMP JUMPDEST JUMPDEST PUSH2 0xEE1 DUP3 SLOAD PUSH2 0xC53 JUMP JUMPDEST PUSH2 0xEEC DUP3 DUP3 DUP6 PUSH2 0xE2C JUMP JUMPDEST PUSH0 PUSH1 0x20 SWAP1 POP PUSH1 0x1F DUP4 GT PUSH1 0x1 DUP2 EQ PUSH2 0xF1D JUMPI PUSH0 DUP5 ISZERO PUSH2 0xF0B JUMPI DUP3 DUP8 ADD MLOAD SWAP1 POP JUMPDEST PUSH2 0xF15 DUP6 DUP3 PUSH2 0xE9A JUMP JUMPDEST DUP7 SSTORE POP PUSH2 0xF7C JUMP JUMPDEST PUSH1 0x1F NOT DUP5 AND PUSH2 0xF2B DUP7 PUSH2 0xD18 JUMP JUMPDEST PUSH0 JUMPDEST DUP3 DUP2 LT ISZERO PUSH2 0xF52 JUMPI DUP5 DUP10 ADD MLOAD DUP3 SSTORE PUSH1 0x1 DUP3 ADD SWAP2 POP PUSH1 0x20 DUP6 ADD SWAP5 POP PUSH1 0x20 DUP2 ADD SWAP1 POP PUSH2 0xF2D JUMP JUMPDEST DUP7 DUP4 LT ISZERO PUSH2 0xF6F JUMPI DUP5 DUP10 ADD MLOAD PUSH2 0xF6B PUSH1 0x1F DUP10 AND DUP3 PUSH2 0xE7E JUMP JUMPDEST DUP4 SSTORE POP JUMPDEST PUSH1 0x1 PUSH1 0x2 DUP9 MUL ADD DUP9 SSTORE POP POP POP JUMPDEST POP POP POP POP POP POP JUMP INVALID LOG2 PUSH5 0x6970667358 0x22 SLT KECCAK256 0xF6 PUSH17 0xB31DCB35B250B3D924F3528FBEDF8633B0 MULMOD PUSH22 0x4F588432C6E4C5298ED9BF64736F6C634300081A0033 "
				},
				"gasEstimates": {
					"creation": {
						"codeDepositCost": "805200",
						"executionCost": "836",
						"totalCost": "806036"
					},
					"external": {
						"createTweet(string)": "infinite",
						"getAllTweet(address)": "infinite",
						"getTweet(uint256,address)": "infinite",
						"tweets(address,uint256)": "infinite"
					}
				},
				"methodIdentifiers": {
					"createTweet(string)": "7c9cd2bc",
					"getAllTweet(address)": "b64988b8",
					"getTweet(uint256,address)": "4e46b4e5",
					"tweets(address,uint256)": "05a1b4a9"
				}
			},
			"storageLayout": {
				"storage": [
					{
						"astId": 19,
						"contract": "contracts/twittwr.sol:Twitter",
						"label": "tweets",
						"offset": 0,
						"slot": "0",
						"type": "t_mapping(t_address,t_array(t_struct(Tweet)13_storage)dyn_storage)"
					}
				],
				"types": {
					"t_address": {
						"encoding": "inplace",
						"label": "address",
						"numberOfBytes": "20"
					},
					"t_array(t_struct(Tweet)13_storage)dyn_storage": {
						"base": "t_struct(Tweet)13_storage",
						"encoding": "dynamic_array",
						"label": "struct Twitter.Tweet[]",
						"numberOfBytes": "32"
					},
					"t_mapping(t_address,t_array(t_struct(Tweet)13_storage)dyn_storage)": {
						"encoding": "mapping",
						"key": "t_address",
						"label": "mapping(address => struct Twitter.Tweet[])",
						"numberOfBytes": "32",
						"value": "t_array(t_struct(Tweet)13_storage)dyn_storage"
					},
					"t_string_storage": {
						"encoding": "bytes",
						"label": "string",
						"numberOfBytes": "32"
					},
					"t_struct(Tweet)13_storage": {
						"encoding": "inplace",
						"label": "struct Twitter.Tweet",
						"members": [
							{
								"astId": 6,
								"contract": "contracts/twittwr.sol:Twitter",
								"label": "aithor",
								"offset": 0,
								"slot": "0",
								"type": "t_address"
							},
							{
								"astId": 8,
								"contract": "contracts/twittwr.sol:Twitter",
								"label": "content",
								"offset": 0,
								"slot": "1",
								"type": "t_string_storage"
							},
							{
								"astId": 10,
								"contract": "contracts/twittwr.sol:Twitter",
								"label": "timesstamp",
								"offset": 0,
								"slot": "2",
								"type": "t_uint256"
							},
							{
								"astId": 12,
								"contract": "contracts/twittwr.sol:Twitter",
								"label": "likes",
								"offset": 0,
								"slot": "3",
								"type": "t_uint256"
							}
						],
						"numberOfBytes": "128"
					},
					"t_uint256": {
						"encoding": "inplace",
						"label": "uint256",
						"numberOfBytes": "32"
					}
				}
			},
			"userdoc": {
				"kind": "user",
				"methods": {},
				"version": 1
			}
		}
	}
}