{
	"contracts/twittwr.sol": {
		"Twitter": {
			"abi": [
				{
					"inputs": [],
					"stateMutability": "nonpayable",
					"type": "constructor"
				},
				{
					"inputs": [],
					"name": "MAX_TWEEN_LENGTH",
					"outputs": [
						{
							"internalType": "uint16",
							"name": "",
							"type": "uint16"
						}
					],
					"stateMutability": "view",
					"type": "function"
				},
				{
					"inputs": [
						{
							"internalType": "uint16",
							"name": "newLength",
							"type": "uint16"
						}
					],
					"name": "changeTweenLength",
					"outputs": [],
					"stateMutability": "nonpayable",
					"type": "function"
				},
				{
					"inputs": [
						{
							"internalType": "string",
							"name": "_tweets",
							"type": "string"
						}
					],
					"name": "createTweet",
					"outputs": [],
					"stateMutability": "nonpayable",
					"type": "function"
				},
				{
					"inputs": [
						{
							"internalType": "address",
							"name": "_all_owner",
							"type": "address"
						}
					],
					"name": "getAllTweet",
					"outputs": [
						{
							"components": [
								{
									"internalType": "uint256",
									"name": "id",
									"type": "uint256"
								},
								{
									"internalType": "address",
									"name": "aithor",
									"type": "address"
								},
								{
									"internalType": "string",
									"name": "content",
									"type": "string"
								},
								{
									"internalType": "uint256",
									"name": "timesstamp",
									"type": "uint256"
								},
								{
									"internalType": "uint256",
									"name": "likes",
									"type": "uint256"
								}
							],
							"internalType": "struct Twitter.Tweet[]",
							"name": "",
							"type": "tuple[]"
						}
					],
					"stateMutability": "view",
					"type": "function"
				},
				{
					"inputs": [
						{
							"internalType": "uint256",
							"name": "_i",
							"type": "uint256"
						},
						{
							"internalType": "address",
							"name": "_owner",
							"type": "address"
						}
					],
					"name": "getTweet",
					"outputs": [
						{
							"components": [
								{
									"internalType": "uint256",
									"name": "id",
									"type": "uint256"
								},
								{
									"internalType": "address",
									"name": "aithor",
									"type": "address"
								},
								{
									"internalType": "string",
									"name": "content",
									"type": "string"
								},
								{
									"internalType": "uint256",
									"name": "timesstamp",
									"type": "uint256"
								},
								{
									"internalType": "uint256",
									"name": "likes",
									"type": "uint256"
								}
							],
							"internalType": "struct Twitter.Tweet",
							"name": "",
							"type": "tuple"
						}
					],
					"stateMutability": "view",
					"type": "function"
				},
				{
					"inputs": [
						{
							"internalType": "address",
							"name": "aithor",
							"type": "address"
						},
						{
							"internalType": "uint256",
							"name": "id",
							"type": "uint256"
						}
					],
					"name": "likeTweet",
					"outputs": [],
					"stateMutability": "nonpayable",
					"type": "function"
				},
				{
					"inputs": [],
					"name": "owner",
					"outputs": [
						{
							"internalType": "address",
							"name": "",
							"type": "address"
						}
					],
					"stateMutability": "view",
					"type": "function"
				},
				{
					"inputs": [
						{
							"internalType": "address",
							"name": "",
							"type": "address"
						},
						{
							"internalType": "uint256",
							"name": "",
							"type": "uint256"
						}
					],
					"name": "tweets",
					"outputs": [
						{
							"internalType": "uint256",
							"name": "id",
							"type": "uint256"
						},
						{
							"internalType": "address",
							"name": "aithor",
							"type": "address"
						},
						{
							"internalType": "string",
							"name": "content",
							"type": "string"
						},
						{
							"internalType": "uint256",
							"name": "timesstamp",
							"type": "uint256"
						},
						{
							"internalType": "uint256",
							"name": "likes",
							"type": "uint256"
						}
					],
					"stateMutability": "view",
					"type": "function"
				},
				{
					"inputs": [
						{
							"internalType": "address",
							"name": "aithor",
							"type": "address"
						},
						{
							"internalType": "uint256",
							"name": "id",
							"type": "uint256"
						}
					],
					"name": "unlikeTweet",
					"outputs": [],
					"stateMutability": "nonpayable",
					"type": "function"
				}
			],
			"devdoc": {
				"kind": "dev",
				"methods": {},
				"version": 1
			},
			"evm": {
				"assembly": "    /* \"contracts/twittwr.sol\":65:1709  contract Twitter {... */\n  mstore(0x40, 0x80)\n    /* \"contracts/twittwr.sol\":124:127  100 */\n  0x64\n    /* \"contracts/twittwr.sol\":89:127  uint16 public  MAX_TWEEN_LENGTH  = 100 */\n  0x00\n  dup1\n  0x0100\n  exp\n  dup2\n  sload\n  dup2\n  0xffff\n  mul\n  not\n  and\n  swap1\n  dup4\n  0xffff\n  and\n  mul\n  or\n  swap1\n  sstore\n  pop\n    /* \"contracts/twittwr.sol\":353:399  constructor(){... */\n  callvalue\n  dup1\n  iszero\n  tag_1\n  jumpi\n  0x00\n  dup1\n  revert\ntag_1:\n  pop\n    /* \"contracts/twittwr.sol\":382:392  msg.sender */\n  caller\n    /* \"contracts/twittwr.sol\":376:381  owner */\n  0x02\n  0x00\n    /* \"contracts/twittwr.sol\":376:392  owner=msg.sender */\n  0x0100\n  exp\n  dup2\n  sload\n  dup2\n  0xffffffffffffffffffffffffffffffffffffffff\n  mul\n  not\n  and\n  swap1\n  dup4\n  0xffffffffffffffffffffffffffffffffffffffff\n  and\n  mul\n  or\n  swap1\n  sstore\n  pop\n    /* \"contracts/twittwr.sol\":65:1709  contract Twitter {... */\n  dataSize(sub_0)\n  dup1\n  dataOffset(sub_0)\n  0x00\n  codecopy\n  0x00\n  return\nstop\n\nsub_0: assembly {\n        /* \"contracts/twittwr.sol\":65:1709  contract Twitter {... */\n      mstore(0x40, 0x80)\n      callvalue\n      dup1\n      iszero\n      tag_1\n      jumpi\n      0x00\n      dup1\n      revert\n    tag_1:\n      pop\n      jumpi(tag_2, lt(calldatasize, 0x04))\n      shr(0xe0, calldataload(0x00))\n      dup1\n      0x63378216\n      gt\n      tag_12\n      jumpi\n      dup1\n      0x63378216\n      eq\n      tag_7\n      jumpi\n      dup1\n      0x7c9cd2bc\n      eq\n      tag_8\n      jumpi\n      dup1\n      0x8da5cb5b\n      eq\n      tag_9\n      jumpi\n      dup1\n      0xb64988b8\n      eq\n      tag_10\n      jumpi\n      dup1\n      0xbf8ba78b\n      eq\n      tag_11\n      jumpi\n      jump(tag_2)\n    tag_12:\n      dup1\n      0x05a1b4a9\n      eq\n      tag_3\n      jumpi\n      dup1\n      0x3d9b569f\n      eq\n      tag_4\n      jumpi\n      dup1\n      0x425812ce\n      eq\n      tag_5\n      jumpi\n      dup1\n      0x4e46b4e5\n      eq\n      tag_6\n      jumpi\n    tag_2:\n      0x00\n      dup1\n      revert\n        /* \"contracts/twittwr.sol\":279:319  mapping(address => Tweet[])public tweets */\n    tag_3:\n      tag_13\n      0x04\n      dup1\n      calldatasize\n      sub\n      dup2\n      add\n      swap1\n      tag_14\n      swap2\n      swap1\n      tag_15\n      jump\t// in\n    tag_14:\n      tag_16\n      jump\t// in\n    tag_13:\n      mload(0x40)\n      tag_17\n      swap6\n      swap5\n      swap4\n      swap3\n      swap2\n      swap1\n      tag_18\n      jump\t// in\n    tag_17:\n      mload(0x40)\n      dup1\n      swap2\n      sub\n      swap1\n      return\n        /* \"contracts/twittwr.sol\":1207:1456  function unlikeTweet(address aithor,uint256 id)external {... */\n    tag_4:\n      tag_19\n      0x04\n      dup1\n      calldatasize\n      sub\n      dup2\n      add\n      swap1\n      tag_20\n      swap2\n      swap1\n      tag_15\n      jump\t// in\n    tag_20:\n      tag_21\n      jump\t// in\n    tag_19:\n      stop\n        /* \"contracts/twittwr.sol\":89:127  uint16 public  MAX_TWEEN_LENGTH  = 100 */\n    tag_5:\n      tag_22\n      tag_23\n      jump\t// in\n    tag_22:\n      mload(0x40)\n      tag_24\n      swap2\n      swap1\n      tag_25\n      jump\t// in\n    tag_24:\n      mload(0x40)\n      dup1\n      swap2\n      sub\n      swap1\n      return\n        /* \"contracts/twittwr.sol\":1462:1583  function getTweet(uint _i ,address _owner)public view  returns (Tweet memory) {... */\n    tag_6:\n      tag_26\n      0x04\n      dup1\n      calldatasize\n      sub\n      dup2\n      add\n      swap1\n      tag_27\n      swap2\n      swap1\n      tag_28\n      jump\t// in\n    tag_27:\n      tag_29\n      jump\t// in\n    tag_26:\n      mload(0x40)\n      tag_30\n      swap2\n      swap1\n      tag_31\n      jump\t// in\n    tag_30:\n      mload(0x40)\n      dup1\n      swap2\n      sub\n      swap1\n      return\n        /* \"contracts/twittwr.sol\":1032:1202  function likeTweet(address aithor,uint256 id)external {... */\n    tag_7:\n      tag_32\n      0x04\n      dup1\n      calldatasize\n      sub\n      dup2\n      add\n      swap1\n      tag_33\n      swap2\n      swap1\n      tag_15\n      jump\t// in\n    tag_33:\n      tag_34\n      jump\t// in\n    tag_32:\n      stop\n        /* \"contracts/twittwr.sol\":623:1024  function createTweet(string memory _tweets)public {... */\n    tag_8:\n      tag_35\n      0x04\n      dup1\n      calldatasize\n      sub\n      dup2\n      add\n      swap1\n      tag_36\n      swap2\n      swap1\n      tag_37\n      jump\t// in\n    tag_36:\n      tag_38\n      jump\t// in\n    tag_35:\n      stop\n        /* \"contracts/twittwr.sol\":325:346  address public  owner */\n    tag_9:\n      tag_39\n      tag_40\n      jump\t// in\n    tag_39:\n      mload(0x40)\n      tag_41\n      swap2\n      swap1\n      tag_42\n      jump\t// in\n    tag_41:\n      mload(0x40)\n      dup1\n      swap2\n      sub\n      swap1\n      return\n        /* \"contracts/twittwr.sol\":1588:1707  function getAllTweet(address _all_owner)public  view  returns(Tweet[] memory){... */\n    tag_10:\n      tag_43\n      0x04\n      dup1\n      calldatasize\n      sub\n      dup2\n      add\n      swap1\n      tag_44\n      swap2\n      swap1\n      tag_45\n      jump\t// in\n    tag_44:\n      tag_46\n      jump\t// in\n    tag_43:\n      mload(0x40)\n      tag_47\n      swap2\n      swap1\n      tag_48\n      jump\t// in\n    tag_47:\n      mload(0x40)\n      dup1\n      swap2\n      sub\n      swap1\n      return\n        /* \"contracts/twittwr.sol\":512:618  function changeTweenLength(uint16 newLength)public onliyOwner{... */\n    tag_11:\n      tag_49\n      0x04\n      dup1\n      calldatasize\n      sub\n      dup2\n      add\n      swap1\n      tag_50\n      swap2\n      swap1\n      tag_51\n      jump\t// in\n    tag_50:\n      tag_52\n      jump\t// in\n    tag_49:\n      stop\n        /* \"contracts/twittwr.sol\":279:319  mapping(address => Tweet[])public tweets */\n    tag_16:\n      mstore(0x20, 0x01)\n      dup2\n      0x00\n      mstore\n      keccak256(0x00, 0x40)\n      dup2\n      dup2\n      sload\n      dup2\n      lt\n      tag_53\n      jumpi\n      0x00\n      dup1\n      revert\n    tag_53:\n      swap1\n      0x00\n      mstore\n      keccak256(0x00, 0x20)\n      swap1\n      0x05\n      mul\n      add\n      0x00\n      swap2\n      pop\n      swap2\n      pop\n      pop\n      dup1\n      0x00\n      add\n      sload\n      swap1\n      dup1\n      0x01\n      add\n      0x00\n      swap1\n      sload\n      swap1\n      0x0100\n      exp\n      swap1\n      div\n      0xffffffffffffffffffffffffffffffffffffffff\n      and\n      swap1\n      dup1\n      0x02\n      add\n      dup1\n      sload\n      tag_55\n      swap1\n      tag_56\n      jump\t// in\n    tag_55:\n      dup1\n      0x1f\n      add\n      0x20\n      dup1\n      swap2\n      div\n      mul\n      0x20\n      add\n      mload(0x40)\n      swap1\n      dup2\n      add\n      0x40\n      mstore\n      dup1\n      swap3\n      swap2\n      swap1\n      dup2\n      dup2\n      mstore\n      0x20\n      add\n      dup3\n      dup1\n      sload\n      tag_57\n      swap1\n      tag_56\n      jump\t// in\n    tag_57:\n      dup1\n      iszero\n      tag_58\n      jumpi\n      dup1\n      0x1f\n      lt\n      tag_59\n      jumpi\n      0x0100\n      dup1\n      dup4\n      sload\n      div\n      mul\n      dup4\n      mstore\n      swap2\n      0x20\n      add\n      swap2\n      jump(tag_58)\n    tag_59:\n      dup3\n      add\n      swap2\n      swap1\n      0x00\n      mstore\n      keccak256(0x00, 0x20)\n      swap1\n    tag_60:\n      dup2\n      sload\n      dup2\n      mstore\n      swap1\n      0x01\n      add\n      swap1\n      0x20\n      add\n      dup1\n      dup4\n      gt\n      tag_60\n      jumpi\n      dup3\n      swap1\n      sub\n      0x1f\n      and\n      dup3\n      add\n      swap2\n    tag_58:\n      pop\n      pop\n      pop\n      pop\n      pop\n      swap1\n      dup1\n      0x03\n      add\n      sload\n      swap1\n      dup1\n      0x04\n      add\n      sload\n      swap1\n      pop\n      dup6\n      jump\t// out\n        /* \"contracts/twittwr.sol\":1207:1456  function unlikeTweet(address aithor,uint256 id)external {... */\n    tag_21:\n        /* \"contracts/twittwr.sol\":1306:1308  id */\n      dup1\n        /* \"contracts/twittwr.sol\":1283:1289  tweets */\n      0x01\n        /* \"contracts/twittwr.sol\":1283:1297  tweets[aithor] */\n      0x00\n        /* \"contracts/twittwr.sol\":1290:1296  aithor */\n      dup5\n        /* \"contracts/twittwr.sol\":1283:1297  tweets[aithor] */\n      0xffffffffffffffffffffffffffffffffffffffff\n      and\n      0xffffffffffffffffffffffffffffffffffffffff\n      and\n      dup2\n      mstore\n      0x20\n      add\n      swap1\n      dup2\n      mstore\n      0x20\n      add\n      0x00\n      keccak256\n        /* \"contracts/twittwr.sol\":1298:1300  id */\n      dup3\n        /* \"contracts/twittwr.sol\":1283:1301  tweets[aithor][id] */\n      dup2\n      sload\n      dup2\n      lt\n      tag_62\n      jumpi\n      tag_63\n      tag_64\n      jump\t// in\n    tag_63:\n    tag_62:\n      swap1\n      0x00\n      mstore\n      keccak256(0x00, 0x20)\n      swap1\n      0x05\n      mul\n      add\n        /* \"contracts/twittwr.sol\":1283:1304  tweets[aithor][id].id */\n      0x00\n      add\n      sload\n        /* \"contracts/twittwr.sol\":1283:1308  tweets[aithor][id].id==id */\n      eq\n        /* \"contracts/twittwr.sol\":1275:1338  require(tweets[aithor][id].id==id, \"tweet dose not exists...!\") */\n      tag_66\n      jumpi\n      mload(0x40)\n      0x08c379a000000000000000000000000000000000000000000000000000000000\n      dup2\n      mstore\n      0x04\n      add\n      tag_67\n      swap1\n      tag_68\n      jump\t// in\n    tag_67:\n      mload(0x40)\n      dup1\n      swap2\n      sub\n      swap1\n      revert\n    tag_66:\n        /* \"contracts/twittwr.sol\":1383:1384  0 */\n      0x00\n        /* \"contracts/twittwr.sol\":1358:1364  tweets */\n      0x01\n        /* \"contracts/twittwr.sol\":1358:1372  tweets[aithor] */\n      0x00\n        /* \"contracts/twittwr.sol\":1365:1371  aithor */\n      dup5\n        /* \"contracts/twittwr.sol\":1358:1372  tweets[aithor] */\n      0xffffffffffffffffffffffffffffffffffffffff\n      and\n      0xffffffffffffffffffffffffffffffffffffffff\n      and\n      dup2\n      mstore\n      0x20\n      add\n      swap1\n      dup2\n      mstore\n      0x20\n      add\n      0x00\n      keccak256\n        /* \"contracts/twittwr.sol\":1373:1375  id */\n      dup3\n        /* \"contracts/twittwr.sol\":1358:1376  tweets[aithor][id] */\n      dup2\n      sload\n      dup2\n      lt\n      tag_69\n      jumpi\n      tag_70\n      tag_64\n      jump\t// in\n    tag_70:\n    tag_69:\n      swap1\n      0x00\n      mstore\n      keccak256(0x00, 0x20)\n      swap1\n      0x05\n      mul\n      add\n        /* \"contracts/twittwr.sol\":1358:1382  tweets[aithor][id].likes */\n      0x04\n      add\n      sload\n        /* \"contracts/twittwr.sol\":1358:1384  tweets[aithor][id].likes>0 */\n      gt\n        /* \"contracts/twittwr.sol\":1350:1411  require(tweets[aithor][id].likes>0, \"tweet like is zero...!\") */\n      tag_72\n      jumpi\n      mload(0x40)\n      0x08c379a000000000000000000000000000000000000000000000000000000000\n      dup2\n      mstore\n      0x04\n      add\n      tag_73\n      swap1\n      tag_74\n      jump\t// in\n    tag_73:\n      mload(0x40)\n      dup1\n      swap2\n      sub\n      swap1\n      revert\n    tag_72:\n        /* \"contracts/twittwr.sol\":1423:1429  tweets */\n      0x01\n        /* \"contracts/twittwr.sol\":1423:1437  tweets[aithor] */\n      0x00\n        /* \"contracts/twittwr.sol\":1430:1436  aithor */\n      dup4\n        /* \"contracts/twittwr.sol\":1423:1437  tweets[aithor] */\n      0xffffffffffffffffffffffffffffffffffffffff\n      and\n      0xffffffffffffffffffffffffffffffffffffffff\n      and\n      dup2\n      mstore\n      0x20\n      add\n      swap1\n      dup2\n      mstore\n      0x20\n      add\n      0x00\n      keccak256\n        /* \"contracts/twittwr.sol\":1438:1440  id */\n      dup2\n        /* \"contracts/twittwr.sol\":1423:1441  tweets[aithor][id] */\n      dup2\n      sload\n      dup2\n      lt\n      tag_75\n      jumpi\n      tag_76\n      tag_64\n      jump\t// in\n    tag_76:\n    tag_75:\n      swap1\n      0x00\n      mstore\n      keccak256(0x00, 0x20)\n      swap1\n      0x05\n      mul\n      add\n        /* \"contracts/twittwr.sol\":1423:1447  tweets[aithor][id].likes */\n      0x04\n      add\n      0x00\n        /* \"contracts/twittwr.sol\":1423:1449  tweets[aithor][id].likes-- */\n      dup2\n      sload\n      dup1\n      swap3\n      swap2\n      swap1\n      tag_78\n      swap1\n      tag_79\n      jump\t// in\n    tag_78:\n      swap2\n      swap1\n      pop\n      sstore\n      pop\n        /* \"contracts/twittwr.sol\":1207:1456  function unlikeTweet(address aithor,uint256 id)external {... */\n      pop\n      pop\n      jump\t// out\n        /* \"contracts/twittwr.sol\":89:127  uint16 public  MAX_TWEEN_LENGTH  = 100 */\n    tag_23:\n      0x00\n      dup1\n      sload\n      swap1\n      0x0100\n      exp\n      swap1\n      div\n      0xffff\n      and\n      dup2\n      jump\t// out\n        /* \"contracts/twittwr.sol\":1462:1583  function getTweet(uint _i ,address _owner)public view  returns (Tweet memory) {... */\n    tag_29:\n        /* \"contracts/twittwr.sol\":1526:1538  Tweet memory */\n      tag_80\n      tag_81\n      jump\t// in\n    tag_80:\n        /* \"contracts/twittwr.sol\":1558:1564  tweets */\n      0x01\n        /* \"contracts/twittwr.sol\":1558:1572  tweets[_owner] */\n      0x00\n        /* \"contracts/twittwr.sol\":1565:1571  _owner */\n      dup4\n        /* \"contracts/twittwr.sol\":1558:1572  tweets[_owner] */\n      0xffffffffffffffffffffffffffffffffffffffff\n      and\n      0xffffffffffffffffffffffffffffffffffffffff\n      and\n      dup2\n      mstore\n      0x20\n      add\n      swap1\n      dup2\n      mstore\n      0x20\n      add\n      0x00\n      keccak256\n        /* \"contracts/twittwr.sol\":1573:1575  _i */\n      dup4\n        /* \"contracts/twittwr.sol\":1558:1576  tweets[_owner][_i] */\n      dup2\n      sload\n      dup2\n      lt\n      tag_83\n      jumpi\n      tag_84\n      tag_64\n      jump\t// in\n    tag_84:\n    tag_83:\n      swap1\n      0x00\n      mstore\n      keccak256(0x00, 0x20)\n      swap1\n      0x05\n      mul\n      add\n        /* \"contracts/twittwr.sol\":1551:1576  return tweets[_owner][_i] */\n      mload(0x40)\n      dup1\n      0xa0\n      add\n      0x40\n      mstore\n      swap1\n      dup2\n      0x00\n      dup3\n      add\n      sload\n      dup2\n      mstore\n      0x20\n      add\n      0x01\n      dup3\n      add\n      0x00\n      swap1\n      sload\n      swap1\n      0x0100\n      exp\n      swap1\n      div\n      0xffffffffffffffffffffffffffffffffffffffff\n      and\n      0xffffffffffffffffffffffffffffffffffffffff\n      and\n      0xffffffffffffffffffffffffffffffffffffffff\n      and\n      dup2\n      mstore\n      0x20\n      add\n      0x02\n      dup3\n      add\n      dup1\n      sload\n      tag_86\n      swap1\n      tag_56\n      jump\t// in\n    tag_86:\n      dup1\n      0x1f\n      add\n      0x20\n      dup1\n      swap2\n      div\n      mul\n      0x20\n      add\n      mload(0x40)\n      swap1\n      dup2\n      add\n      0x40\n      mstore\n      dup1\n      swap3\n      swap2\n      swap1\n      dup2\n      dup2\n      mstore\n      0x20\n      add\n      dup3\n      dup1\n      sload\n      tag_87\n      swap1\n      tag_56\n      jump\t// in\n    tag_87:\n      dup1\n      iszero\n      tag_88\n      jumpi\n      dup1\n      0x1f\n      lt\n      tag_89\n      jumpi\n      0x0100\n      dup1\n      dup4\n      sload\n      div\n      mul\n      dup4\n      mstore\n      swap2\n      0x20\n      add\n      swap2\n      jump(tag_88)\n    tag_89:\n      dup3\n      add\n      swap2\n      swap1\n      0x00\n      mstore\n      keccak256(0x00, 0x20)\n      swap1\n    tag_90:\n      dup2\n      sload\n      dup2\n      mstore\n      swap1\n      0x01\n      add\n      swap1\n      0x20\n      add\n      dup1\n      dup4\n      gt\n      tag_90\n      jumpi\n      dup3\n      swap1\n      sub\n      0x1f\n      and\n      dup3\n      add\n      swap2\n    tag_88:\n      pop\n      pop\n      pop\n      pop\n      pop\n      dup2\n      mstore\n      0x20\n      add\n      0x03\n      dup3\n      add\n      sload\n      dup2\n      mstore\n      0x20\n      add\n      0x04\n      dup3\n      add\n      sload\n      dup2\n      mstore\n      pop\n      pop\n      swap1\n      pop\n        /* \"contracts/twittwr.sol\":1462:1583  function getTweet(uint _i ,address _owner)public view  returns (Tweet memory) {... */\n      swap3\n      swap2\n      pop\n      pop\n      jump\t// out\n        /* \"contracts/twittwr.sol\":1032:1202  function likeTweet(address aithor,uint256 id)external {... */\n    tag_34:\n        /* \"contracts/twittwr.sol\":1127:1129  id */\n      dup1\n        /* \"contracts/twittwr.sol\":1104:1110  tweets */\n      0x01\n        /* \"contracts/twittwr.sol\":1104:1118  tweets[aithor] */\n      0x00\n        /* \"contracts/twittwr.sol\":1111:1117  aithor */\n      dup5\n        /* \"contracts/twittwr.sol\":1104:1118  tweets[aithor] */\n      0xffffffffffffffffffffffffffffffffffffffff\n      and\n      0xffffffffffffffffffffffffffffffffffffffff\n      and\n      dup2\n      mstore\n      0x20\n      add\n      swap1\n      dup2\n      mstore\n      0x20\n      add\n      0x00\n      keccak256\n        /* \"contracts/twittwr.sol\":1119:1121  id */\n      dup3\n        /* \"contracts/twittwr.sol\":1104:1122  tweets[aithor][id] */\n      dup2\n      sload\n      dup2\n      lt\n      tag_92\n      jumpi\n      tag_93\n      tag_64\n      jump\t// in\n    tag_93:\n    tag_92:\n      swap1\n      0x00\n      mstore\n      keccak256(0x00, 0x20)\n      swap1\n      0x05\n      mul\n      add\n        /* \"contracts/twittwr.sol\":1104:1125  tweets[aithor][id].id */\n      0x00\n      add\n      sload\n        /* \"contracts/twittwr.sol\":1104:1129  tweets[aithor][id].id==id */\n      eq\n        /* \"contracts/twittwr.sol\":1096:1159  require(tweets[aithor][id].id==id, \"tweet dose not exists...!\") */\n      tag_95\n      jumpi\n      mload(0x40)\n      0x08c379a000000000000000000000000000000000000000000000000000000000\n      dup2\n      mstore\n      0x04\n      add\n      tag_96\n      swap1\n      tag_68\n      jump\t// in\n    tag_96:\n      mload(0x40)\n      dup1\n      swap2\n      sub\n      swap1\n      revert\n    tag_95:\n        /* \"contracts/twittwr.sol\":1169:1175  tweets */\n      0x01\n        /* \"contracts/twittwr.sol\":1169:1183  tweets[aithor] */\n      0x00\n        /* \"contracts/twittwr.sol\":1176:1182  aithor */\n      dup4\n        /* \"contracts/twittwr.sol\":1169:1183  tweets[aithor] */\n      0xffffffffffffffffffffffffffffffffffffffff\n      and\n      0xffffffffffffffffffffffffffffffffffffffff\n      and\n      dup2\n      mstore\n      0x20\n      add\n      swap1\n      dup2\n      mstore\n      0x20\n      add\n      0x00\n      keccak256\n        /* \"contracts/twittwr.sol\":1184:1186  id */\n      dup2\n        /* \"contracts/twittwr.sol\":1169:1187  tweets[aithor][id] */\n      dup2\n      sload\n      dup2\n      lt\n      tag_97\n      jumpi\n      tag_98\n      tag_64\n      jump\t// in\n    tag_98:\n    tag_97:\n      swap1\n      0x00\n      mstore\n      keccak256(0x00, 0x20)\n      swap1\n      0x05\n      mul\n      add\n        /* \"contracts/twittwr.sol\":1169:1193  tweets[aithor][id].likes */\n      0x04\n      add\n      0x00\n        /* \"contracts/twittwr.sol\":1169:1195  tweets[aithor][id].likes++ */\n      dup2\n      sload\n      dup1\n      swap3\n      swap2\n      swap1\n      tag_100\n      swap1\n      tag_101\n      jump\t// in\n    tag_100:\n      swap2\n      swap1\n      pop\n      sstore\n      pop\n        /* \"contracts/twittwr.sol\":1032:1202  function likeTweet(address aithor,uint256 id)external {... */\n      pop\n      pop\n      jump\t// out\n        /* \"contracts/twittwr.sol\":623:1024  function createTweet(string memory _tweets)public {... */\n    tag_38:\n        /* \"contracts/twittwr.sol\":716:732  MAX_TWEEN_LENGTH */\n      0x00\n      dup1\n      sload\n      swap1\n      0x0100\n      exp\n      swap1\n      div\n      0xffff\n      and\n        /* \"contracts/twittwr.sol\":691:732  bytes(_tweets).length <= MAX_TWEEN_LENGTH */\n      0xffff\n      and\n        /* \"contracts/twittwr.sol\":697:704  _tweets */\n      dup2\n        /* \"contracts/twittwr.sol\":691:712  bytes(_tweets).length */\n      mload\n        /* \"contracts/twittwr.sol\":691:732  bytes(_tweets).length <= MAX_TWEEN_LENGTH */\n      gt\n      iszero\n        /* \"contracts/twittwr.sol\":683:760  require(bytes(_tweets).length <= MAX_TWEEN_LENGTH, \"tweet is to leangth...!\") */\n      tag_103\n      jumpi\n      mload(0x40)\n      0x08c379a000000000000000000000000000000000000000000000000000000000\n      dup2\n      mstore\n      0x04\n      add\n      tag_104\n      swap1\n      tag_105\n      jump\t// in\n    tag_104:\n      mload(0x40)\n      dup1\n      swap2\n      sub\n      swap1\n      revert\n    tag_103:\n        /* \"contracts/twittwr.sol\":770:791  Tweet memory newTweet */\n      0x00\n        /* \"contracts/twittwr.sol\":794:974  Tweet({... */\n      mload(0x40)\n      dup1\n      0xa0\n      add\n      0x40\n      mstore\n      dup1\n        /* \"contracts/twittwr.sol\":817:823  tweets */\n      0x01\n        /* \"contracts/twittwr.sol\":817:835  tweets[msg.sender] */\n      0x00\n        /* \"contracts/twittwr.sol\":824:834  msg.sender */\n      caller\n        /* \"contracts/twittwr.sol\":817:835  tweets[msg.sender] */\n      0xffffffffffffffffffffffffffffffffffffffff\n      and\n      0xffffffffffffffffffffffffffffffffffffffff\n      and\n      dup2\n      mstore\n      0x20\n      add\n      swap1\n      dup2\n      mstore\n      0x20\n      add\n      0x00\n      keccak256\n        /* \"contracts/twittwr.sol\":817:842  tweets[msg.sender].length */\n      dup1\n      sload\n      swap1\n      pop\n        /* \"contracts/twittwr.sol\":794:974  Tweet({... */\n      dup2\n      mstore\n      0x20\n      add\n        /* \"contracts/twittwr.sol\":863:873  msg.sender */\n      caller\n        /* \"contracts/twittwr.sol\":794:974  Tweet({... */\n      0xffffffffffffffffffffffffffffffffffffffff\n      and\n      dup2\n      mstore\n      0x20\n      add\n        /* \"contracts/twittwr.sol\":895:902  _tweets */\n      dup4\n        /* \"contracts/twittwr.sol\":794:974  Tweet({... */\n      dup2\n      mstore\n      0x20\n      add\n        /* \"contracts/twittwr.sol\":927:942  block.timestamp */\n      timestamp\n        /* \"contracts/twittwr.sol\":794:974  Tweet({... */\n      dup2\n      mstore\n      0x20\n      add\n        /* \"contracts/twittwr.sol\":962:963  0 */\n      0x00\n        /* \"contracts/twittwr.sol\":794:974  Tweet({... */\n      dup2\n      mstore\n      pop\n        /* \"contracts/twittwr.sol\":770:974  Tweet memory newTweet = Tweet({... */\n      swap1\n      pop\n        /* \"contracts/twittwr.sol\":984:990  tweets */\n      0x01\n        /* \"contracts/twittwr.sol\":984:1002  tweets[msg.sender] */\n      0x00\n        /* \"contracts/twittwr.sol\":991:1001  msg.sender */\n      caller\n        /* \"contracts/twittwr.sol\":984:1002  tweets[msg.sender] */\n      0xffffffffffffffffffffffffffffffffffffffff\n      and\n      0xffffffffffffffffffffffffffffffffffffffff\n      and\n      dup2\n      mstore\n      0x20\n      add\n      swap1\n      dup2\n      mstore\n      0x20\n      add\n      0x00\n      keccak256\n        /* \"contracts/twittwr.sol\":1008:1016  newTweet */\n      dup2\n        /* \"contracts/twittwr.sol\":984:1017  tweets[msg.sender].push(newTweet) */\n      swap1\n      dup1\n      0x01\n      dup2\n      sload\n      add\n      dup1\n      dup3\n      sstore\n      dup1\n      swap2\n      pop\n      pop\n      0x01\n      swap1\n      sub\n      swap1\n      0x00\n      mstore\n      keccak256(0x00, 0x20)\n      swap1\n      0x05\n      mul\n      add\n      0x00\n      swap1\n      swap2\n      swap1\n      swap2\n      swap1\n      swap2\n      pop\n      0x00\n      dup3\n      add\n      mload\n      dup2\n      0x00\n      add\n      sstore\n      0x20\n      dup3\n      add\n      mload\n      dup2\n      0x01\n      add\n      exp(0x0100, 0x00)\n      dup2\n      sload\n      dup2\n      0xffffffffffffffffffffffffffffffffffffffff\n      mul\n      not\n      and\n      swap1\n      dup4\n      0xffffffffffffffffffffffffffffffffffffffff\n      and\n      mul\n      or\n      swap1\n      sstore\n      pop\n      0x40\n      dup3\n      add\n      mload\n      dup2\n      0x02\n      add\n      swap1\n      dup2\n      tag_107\n      swap2\n      swap1\n      tag_108\n      jump\t// in\n    tag_107:\n      pop\n      0x60\n      dup3\n      add\n      mload\n      dup2\n      0x03\n      add\n      sstore\n      0x80\n      dup3\n      add\n      mload\n      dup2\n      0x04\n      add\n      sstore\n      pop\n      pop\n        /* \"contracts/twittwr.sol\":673:1024  {... */\n      pop\n        /* \"contracts/twittwr.sol\":623:1024  function createTweet(string memory _tweets)public {... */\n      pop\n      jump\t// out\n        /* \"contracts/twittwr.sol\":325:346  address public  owner */\n    tag_40:\n      0x02\n      0x00\n      swap1\n      sload\n      swap1\n      0x0100\n      exp\n      swap1\n      div\n      0xffffffffffffffffffffffffffffffffffffffff\n      and\n      dup2\n      jump\t// out\n        /* \"contracts/twittwr.sol\":1588:1707  function getAllTweet(address _all_owner)public  view  returns(Tweet[] memory){... */\n    tag_46:\n        /* \"contracts/twittwr.sol\":1650:1664  Tweet[] memory */\n      0x60\n        /* \"contracts/twittwr.sol\":1682:1688  tweets */\n      0x01\n        /* \"contracts/twittwr.sol\":1682:1700  tweets[_all_owner] */\n      0x00\n        /* \"contracts/twittwr.sol\":1689:1699  _all_owner */\n      dup4\n        /* \"contracts/twittwr.sol\":1682:1700  tweets[_all_owner] */\n      0xffffffffffffffffffffffffffffffffffffffff\n      and\n      0xffffffffffffffffffffffffffffffffffffffff\n      and\n      dup2\n      mstore\n      0x20\n      add\n      swap1\n      dup2\n      mstore\n      0x20\n      add\n      0x00\n      keccak256\n        /* \"contracts/twittwr.sol\":1675:1700  return tweets[_all_owner] */\n      dup1\n      sload\n      dup1\n      0x20\n      mul\n      0x20\n      add\n      mload(0x40)\n      swap1\n      dup2\n      add\n      0x40\n      mstore\n      dup1\n      swap3\n      swap2\n      swap1\n      dup2\n      dup2\n      mstore\n      0x20\n      add\n      0x00\n      swap1\n    tag_110:\n      dup3\n      dup3\n      lt\n      iszero\n      tag_111\n      jumpi\n      dup4\n      dup3\n      swap1\n      0x00\n      mstore\n      keccak256(0x00, 0x20)\n      swap1\n      0x05\n      mul\n      add\n      mload(0x40)\n      dup1\n      0xa0\n      add\n      0x40\n      mstore\n      swap1\n      dup2\n      0x00\n      dup3\n      add\n      sload\n      dup2\n      mstore\n      0x20\n      add\n      0x01\n      dup3\n      add\n      0x00\n      swap1\n      sload\n      swap1\n      0x0100\n      exp\n      swap1\n      div\n      0xffffffffffffffffffffffffffffffffffffffff\n      and\n      0xffffffffffffffffffffffffffffffffffffffff\n      and\n      0xffffffffffffffffffffffffffffffffffffffff\n      and\n      dup2\n      mstore\n      0x20\n      add\n      0x02\n      dup3\n      add\n      dup1\n      sload\n      tag_113\n      swap1\n      tag_56\n      jump\t// in\n    tag_113:\n      dup1\n      0x1f\n      add\n      0x20\n      dup1\n      swap2\n      div\n      mul\n      0x20\n      add\n      mload(0x40)\n      swap1\n      dup2\n      add\n      0x40\n      mstore\n      dup1\n      swap3\n      swap2\n      swap1\n      dup2\n      dup2\n      mstore\n      0x20\n      add\n      dup3\n      dup1\n      sload\n      tag_114\n      swap1\n      tag_56\n      jump\t// in\n    tag_114:\n      dup1\n      iszero\n      tag_115\n      jumpi\n      dup1\n      0x1f\n      lt\n      tag_116\n      jumpi\n      0x0100\n      dup1\n      dup4\n      sload\n      div\n      mul\n      dup4\n      mstore\n      swap2\n      0x20\n      add\n      swap2\n      jump(tag_115)\n    tag_116:\n      dup3\n      add\n      swap2\n      swap1\n      0x00\n      mstore\n      keccak256(0x00, 0x20)\n      swap1\n    tag_117:\n      dup2\n      sload\n      dup2\n      mstore\n      swap1\n      0x01\n      add\n      swap1\n      0x20\n      add\n      dup1\n      dup4\n      gt\n      tag_117\n      jumpi\n      dup3\n      swap1\n      sub\n      0x1f\n      and\n      dup3\n      add\n      swap2\n    tag_115:\n      pop\n      pop\n      pop\n      pop\n      pop\n      dup2\n      mstore\n      0x20\n      add\n      0x03\n      dup3\n      add\n      sload\n      dup2\n      mstore\n      0x20\n      add\n      0x04\n      dup3\n      add\n      sload\n      dup2\n      mstore\n      pop\n      pop\n      dup2\n      mstore\n      0x20\n      add\n      swap1\n      0x01\n      add\n      swap1\n      jump(tag_110)\n    tag_111:\n      pop\n      pop\n      pop\n      pop\n      swap1\n      pop\n        /* \"contracts/twittwr.sol\":1588:1707  function getAllTweet(address _all_owner)public  view  returns(Tweet[] memory){... */\n      swap2\n      swap1\n      pop\n      jump\t// out\n        /* \"contracts/twittwr.sol\":512:618  function changeTweenLength(uint16 newLength)public onliyOwner{... */\n    tag_52:\n        /* \"contracts/twittwr.sol\":457:462  owner */\n      0x02\n      0x00\n      swap1\n      sload\n      swap1\n      0x0100\n      exp\n      swap1\n      div\n      0xffffffffffffffffffffffffffffffffffffffff\n      and\n        /* \"contracts/twittwr.sol\":444:462  msg.sender== owner */\n      0xffffffffffffffffffffffffffffffffffffffff\n      and\n        /* \"contracts/twittwr.sol\":444:454  msg.sender */\n      caller\n        /* \"contracts/twittwr.sol\":444:462  msg.sender== owner */\n      0xffffffffffffffffffffffffffffffffffffffff\n      and\n      eq\n        /* \"contracts/twittwr.sol\":436:489  require(msg.sender== owner,\"YOUR NOT THE OWNER....!\") */\n      tag_119\n      jumpi\n      mload(0x40)\n      0x08c379a000000000000000000000000000000000000000000000000000000000\n      dup2\n      mstore\n      0x04\n      add\n      tag_120\n      swap1\n      tag_121\n      jump\t// in\n    tag_120:\n      mload(0x40)\n      dup1\n      swap2\n      sub\n      swap1\n      revert\n    tag_119:\n        /* \"contracts/twittwr.sol\":602:611  newLength */\n      dup1\n        /* \"contracts/twittwr.sol\":583:599  MAX_TWEEN_LENGTH */\n      0x00\n      dup1\n        /* \"contracts/twittwr.sol\":583:611  MAX_TWEEN_LENGTH = newLength */\n      0x0100\n      exp\n      dup2\n      sload\n      dup2\n      0xffff\n      mul\n      not\n      and\n      swap1\n      dup4\n      0xffff\n      and\n      mul\n      or\n      swap1\n      sstore\n      pop\n        /* \"contracts/twittwr.sol\":512:618  function changeTweenLength(uint16 newLength)public onliyOwner{... */\n      pop\n      jump\t// out\n    tag_81:\n      mload(0x40)\n      dup1\n      0xa0\n      add\n      0x40\n      mstore\n      dup1\n      0x00\n      dup2\n      mstore\n      0x20\n      add\n      and(0xffffffffffffffffffffffffffffffffffffffff, 0x00)\n      dup2\n      mstore\n      0x20\n      add\n      0x60\n      dup2\n      mstore\n      0x20\n      add\n      0x00\n      dup2\n      mstore\n      0x20\n      add\n      0x00\n      dup2\n      mstore\n      pop\n      swap1\n      jump\t// out\n        /* \"#utility.yul\":7:82   */\n    tag_123:\n        /* \"#utility.yul\":40:46   */\n      0x00\n        /* \"#utility.yul\":73:75   */\n      0x40\n        /* \"#utility.yul\":67:76   */\n      mload\n        /* \"#utility.yul\":57:76   */\n      swap1\n      pop\n        /* \"#utility.yul\":7:82   */\n      swap1\n      jump\t// out\n        /* \"#utility.yul\":88:205   */\n    tag_124:\n        /* \"#utility.yul\":197:198   */\n      0x00\n        /* \"#utility.yul\":194:195   */\n      dup1\n        /* \"#utility.yul\":187:199   */\n      revert\n        /* \"#utility.yul\":211:328   */\n    tag_125:\n        /* \"#utility.yul\":320:321   */\n      0x00\n        /* \"#utility.yul\":317:318   */\n      dup1\n        /* \"#utility.yul\":310:322   */\n      revert\n        /* \"#utility.yul\":334:460   */\n    tag_126:\n        /* \"#utility.yul\":371:378   */\n      0x00\n        /* \"#utility.yul\":411:453   */\n      0xffffffffffffffffffffffffffffffffffffffff\n        /* \"#utility.yul\":404:409   */\n      dup3\n        /* \"#utility.yul\":400:454   */\n      and\n        /* \"#utility.yul\":389:454   */\n      swap1\n      pop\n        /* \"#utility.yul\":334:460   */\n      swap2\n      swap1\n      pop\n      jump\t// out\n        /* \"#utility.yul\":466:562   */\n    tag_127:\n        /* \"#utility.yul\":503:510   */\n      0x00\n        /* \"#utility.yul\":532:556   */\n      tag_196\n        /* \"#utility.yul\":550:555   */\n      dup3\n        /* \"#utility.yul\":532:556   */\n      tag_126\n      jump\t// in\n    tag_196:\n        /* \"#utility.yul\":521:556   */\n      swap1\n      pop\n        /* \"#utility.yul\":466:562   */\n      swap2\n      swap1\n      pop\n      jump\t// out\n        /* \"#utility.yul\":568:690   */\n    tag_128:\n        /* \"#utility.yul\":641:665   */\n      tag_198\n        /* \"#utility.yul\":659:664   */\n      dup2\n        /* \"#utility.yul\":641:665   */\n      tag_127\n      jump\t// in\n    tag_198:\n        /* \"#utility.yul\":634:639   */\n      dup2\n        /* \"#utility.yul\":631:666   */\n      eq\n        /* \"#utility.yul\":621:684   */\n      tag_199\n      jumpi\n        /* \"#utility.yul\":680:681   */\n      0x00\n        /* \"#utility.yul\":677:678   */\n      dup1\n        /* \"#utility.yul\":670:682   */\n      revert\n        /* \"#utility.yul\":621:684   */\n    tag_199:\n        /* \"#utility.yul\":568:690   */\n      pop\n      jump\t// out\n        /* \"#utility.yul\":696:835   */\n    tag_129:\n        /* \"#utility.yul\":742:747   */\n      0x00\n        /* \"#utility.yul\":780:786   */\n      dup2\n        /* \"#utility.yul\":767:787   */\n      calldataload\n        /* \"#utility.yul\":758:787   */\n      swap1\n      pop\n        /* \"#utility.yul\":796:829   */\n      tag_201\n        /* \"#utility.yul\":823:828   */\n      dup2\n        /* \"#utility.yul\":796:829   */\n      tag_128\n      jump\t// in\n    tag_201:\n        /* \"#utility.yul\":696:835   */\n      swap3\n      swap2\n      pop\n      pop\n      jump\t// out\n        /* \"#utility.yul\":841:918   */\n    tag_130:\n        /* \"#utility.yul\":878:885   */\n      0x00\n        /* \"#utility.yul\":907:912   */\n      dup2\n        /* \"#utility.yul\":896:912   */\n      swap1\n      pop\n        /* \"#utility.yul\":841:918   */\n      swap2\n      swap1\n      pop\n      jump\t// out\n        /* \"#utility.yul\":924:1046   */\n    tag_131:\n        /* \"#utility.yul\":997:1021   */\n      tag_204\n        /* \"#utility.yul\":1015:1020   */\n      dup2\n        /* \"#utility.yul\":997:1021   */\n      tag_130\n      jump\t// in\n    tag_204:\n        /* \"#utility.yul\":990:995   */\n      dup2\n        /* \"#utility.yul\":987:1022   */\n      eq\n        /* \"#utility.yul\":977:1040   */\n      tag_205\n      jumpi\n        /* \"#utility.yul\":1036:1037   */\n      0x00\n        /* \"#utility.yul\":1033:1034   */\n      dup1\n        /* \"#utility.yul\":1026:1038   */\n      revert\n        /* \"#utility.yul\":977:1040   */\n    tag_205:\n        /* \"#utility.yul\":924:1046   */\n      pop\n      jump\t// out\n        /* \"#utility.yul\":1052:1191   */\n    tag_132:\n        /* \"#utility.yul\":1098:1103   */\n      0x00\n        /* \"#utility.yul\":1136:1142   */\n      dup2\n        /* \"#utility.yul\":1123:1143   */\n      calldataload\n        /* \"#utility.yul\":1114:1143   */\n      swap1\n      pop\n        /* \"#utility.yul\":1152:1185   */\n      tag_207\n        /* \"#utility.yul\":1179:1184   */\n      dup2\n        /* \"#utility.yul\":1152:1185   */\n      tag_131\n      jump\t// in\n    tag_207:\n        /* \"#utility.yul\":1052:1191   */\n      swap3\n      swap2\n      pop\n      pop\n      jump\t// out\n        /* \"#utility.yul\":1197:1671   */\n    tag_15:\n        /* \"#utility.yul\":1265:1271   */\n      0x00\n        /* \"#utility.yul\":1273:1279   */\n      dup1\n        /* \"#utility.yul\":1322:1324   */\n      0x40\n        /* \"#utility.yul\":1310:1319   */\n      dup4\n        /* \"#utility.yul\":1301:1308   */\n      dup6\n        /* \"#utility.yul\":1297:1320   */\n      sub\n        /* \"#utility.yul\":1293:1325   */\n      slt\n        /* \"#utility.yul\":1290:1409   */\n      iszero\n      tag_209\n      jumpi\n        /* \"#utility.yul\":1328:1407   */\n      tag_210\n      tag_124\n      jump\t// in\n    tag_210:\n        /* \"#utility.yul\":1290:1409   */\n    tag_209:\n        /* \"#utility.yul\":1448:1449   */\n      0x00\n        /* \"#utility.yul\":1473:1526   */\n      tag_211\n        /* \"#utility.yul\":1518:1525   */\n      dup6\n        /* \"#utility.yul\":1509:1515   */\n      dup3\n        /* \"#utility.yul\":1498:1507   */\n      dup7\n        /* \"#utility.yul\":1494:1516   */\n      add\n        /* \"#utility.yul\":1473:1526   */\n      tag_129\n      jump\t// in\n    tag_211:\n        /* \"#utility.yul\":1463:1526   */\n      swap3\n      pop\n        /* \"#utility.yul\":1419:1536   */\n      pop\n        /* \"#utility.yul\":1575:1577   */\n      0x20\n        /* \"#utility.yul\":1601:1654   */\n      tag_212\n        /* \"#utility.yul\":1646:1653   */\n      dup6\n        /* \"#utility.yul\":1637:1643   */\n      dup3\n        /* \"#utility.yul\":1626:1635   */\n      dup7\n        /* \"#utility.yul\":1622:1644   */\n      add\n        /* \"#utility.yul\":1601:1654   */\n      tag_132\n      jump\t// in\n    tag_212:\n        /* \"#utility.yul\":1591:1654   */\n      swap2\n      pop\n        /* \"#utility.yul\":1546:1664   */\n      pop\n        /* \"#utility.yul\":1197:1671   */\n      swap3\n      pop\n      swap3\n      swap1\n      pop\n      jump\t// out\n        /* \"#utility.yul\":1677:1795   */\n    tag_133:\n        /* \"#utility.yul\":1764:1788   */\n      tag_214\n        /* \"#utility.yul\":1782:1787   */\n      dup2\n        /* \"#utility.yul\":1764:1788   */\n      tag_130\n      jump\t// in\n    tag_214:\n        /* \"#utility.yul\":1759:1762   */\n      dup3\n        /* \"#utility.yul\":1752:1789   */\n      mstore\n        /* \"#utility.yul\":1677:1795   */\n      pop\n      pop\n      jump\t// out\n        /* \"#utility.yul\":1801:1919   */\n    tag_134:\n        /* \"#utility.yul\":1888:1912   */\n      tag_216\n        /* \"#utility.yul\":1906:1911   */\n      dup2\n        /* \"#utility.yul\":1888:1912   */\n      tag_127\n      jump\t// in\n    tag_216:\n        /* \"#utility.yul\":1883:1886   */\n      dup3\n        /* \"#utility.yul\":1876:1913   */\n      mstore\n        /* \"#utility.yul\":1801:1919   */\n      pop\n      pop\n      jump\t// out\n        /* \"#utility.yul\":1925:2024   */\n    tag_135:\n        /* \"#utility.yul\":1977:1983   */\n      0x00\n        /* \"#utility.yul\":2011:2016   */\n      dup2\n        /* \"#utility.yul\":2005:2017   */\n      mload\n        /* \"#utility.yul\":1995:2017   */\n      swap1\n      pop\n        /* \"#utility.yul\":1925:2024   */\n      swap2\n      swap1\n      pop\n      jump\t// out\n        /* \"#utility.yul\":2030:2199   */\n    tag_136:\n        /* \"#utility.yul\":2114:2125   */\n      0x00\n        /* \"#utility.yul\":2148:2154   */\n      dup3\n        /* \"#utility.yul\":2143:2146   */\n      dup3\n        /* \"#utility.yul\":2136:2155   */\n      mstore\n        /* \"#utility.yul\":2188:2192   */\n      0x20\n        /* \"#utility.yul\":2183:2186   */\n      dup3\n        /* \"#utility.yul\":2179:2193   */\n      add\n        /* \"#utility.yul\":2164:2193   */\n      swap1\n      pop\n        /* \"#utility.yul\":2030:2199   */\n      swap3\n      swap2\n      pop\n      pop\n      jump\t// out\n        /* \"#utility.yul\":2205:2344   */\n    tag_137:\n        /* \"#utility.yul\":2294:2300   */\n      dup3\n        /* \"#utility.yul\":2289:2292   */\n      dup2\n        /* \"#utility.yul\":2284:2287   */\n      dup4\n        /* \"#utility.yul\":2278:2301   */\n      mcopy\n        /* \"#utility.yul\":2335:2336   */\n      0x00\n        /* \"#utility.yul\":2326:2332   */\n      dup4\n        /* \"#utility.yul\":2321:2324   */\n      dup4\n        /* \"#utility.yul\":2317:2333   */\n      add\n        /* \"#utility.yul\":2310:2337   */\n      mstore\n        /* \"#utility.yul\":2205:2344   */\n      pop\n      pop\n      pop\n      jump\t// out\n        /* \"#utility.yul\":2350:2452   */\n    tag_138:\n        /* \"#utility.yul\":2391:2397   */\n      0x00\n        /* \"#utility.yul\":2442:2444   */\n      0x1f\n        /* \"#utility.yul\":2438:2445   */\n      not\n        /* \"#utility.yul\":2433:2435   */\n      0x1f\n        /* \"#utility.yul\":2426:2431   */\n      dup4\n        /* \"#utility.yul\":2422:2436   */\n      add\n        /* \"#utility.yul\":2418:2446   */\n      and\n        /* \"#utility.yul\":2408:2446   */\n      swap1\n      pop\n        /* \"#utility.yul\":2350:2452   */\n      swap2\n      swap1\n      pop\n      jump\t// out\n        /* \"#utility.yul\":2458:2835   */\n    tag_139:\n        /* \"#utility.yul\":2546:2549   */\n      0x00\n        /* \"#utility.yul\":2574:2613   */\n      tag_222\n        /* \"#utility.yul\":2607:2612   */\n      dup3\n        /* \"#utility.yul\":2574:2613   */\n      tag_135\n      jump\t// in\n    tag_222:\n        /* \"#utility.yul\":2629:2700   */\n      tag_223\n        /* \"#utility.yul\":2693:2699   */\n      dup2\n        /* \"#utility.yul\":2688:2691   */\n      dup6\n        /* \"#utility.yul\":2629:2700   */\n      tag_136\n      jump\t// in\n    tag_223:\n        /* \"#utility.yul\":2622:2700   */\n      swap4\n      pop\n        /* \"#utility.yul\":2709:2774   */\n      tag_224\n        /* \"#utility.yul\":2767:2773   */\n      dup2\n        /* \"#utility.yul\":2762:2765   */\n      dup6\n        /* \"#utility.yul\":2755:2759   */\n      0x20\n        /* \"#utility.yul\":2748:2753   */\n      dup7\n        /* \"#utility.yul\":2744:2760   */\n      add\n        /* \"#utility.yul\":2709:2774   */\n      tag_137\n      jump\t// in\n    tag_224:\n        /* \"#utility.yul\":2799:2828   */\n      tag_225\n        /* \"#utility.yul\":2821:2827   */\n      dup2\n        /* \"#utility.yul\":2799:2828   */\n      tag_138\n      jump\t// in\n    tag_225:\n        /* \"#utility.yul\":2794:2797   */\n      dup5\n        /* \"#utility.yul\":2790:2829   */\n      add\n        /* \"#utility.yul\":2783:2829   */\n      swap2\n      pop\n        /* \"#utility.yul\":2550:2835   */\n      pop\n        /* \"#utility.yul\":2458:2835   */\n      swap3\n      swap2\n      pop\n      pop\n      jump\t// out\n        /* \"#utility.yul\":2841:3596   */\n    tag_18:\n        /* \"#utility.yul\":3066:3070   */\n      0x00\n        /* \"#utility.yul\":3104:3107   */\n      0xa0\n        /* \"#utility.yul\":3093:3102   */\n      dup3\n        /* \"#utility.yul\":3089:3108   */\n      add\n        /* \"#utility.yul\":3081:3108   */\n      swap1\n      pop\n        /* \"#utility.yul\":3118:3189   */\n      tag_227\n        /* \"#utility.yul\":3186:3187   */\n      0x00\n        /* \"#utility.yul\":3175:3184   */\n      dup4\n        /* \"#utility.yul\":3171:3188   */\n      add\n        /* \"#utility.yul\":3162:3168   */\n      dup9\n        /* \"#utility.yul\":3118:3189   */\n      tag_133\n      jump\t// in\n    tag_227:\n        /* \"#utility.yul\":3199:3271   */\n      tag_228\n        /* \"#utility.yul\":3267:3269   */\n      0x20\n        /* \"#utility.yul\":3256:3265   */\n      dup4\n        /* \"#utility.yul\":3252:3270   */\n      add\n        /* \"#utility.yul\":3243:3249   */\n      dup8\n        /* \"#utility.yul\":3199:3271   */\n      tag_134\n      jump\t// in\n    tag_228:\n        /* \"#utility.yul\":3318:3327   */\n      dup2\n        /* \"#utility.yul\":3312:3316   */\n      dup2\n        /* \"#utility.yul\":3308:3328   */\n      sub\n        /* \"#utility.yul\":3303:3305   */\n      0x40\n        /* \"#utility.yul\":3292:3301   */\n      dup4\n        /* \"#utility.yul\":3288:3306   */\n      add\n        /* \"#utility.yul\":3281:3329   */\n      mstore\n        /* \"#utility.yul\":3346:3424   */\n      tag_229\n        /* \"#utility.yul\":3419:3423   */\n      dup2\n        /* \"#utility.yul\":3410:3416   */\n      dup7\n        /* \"#utility.yul\":3346:3424   */\n      tag_139\n      jump\t// in\n    tag_229:\n        /* \"#utility.yul\":3338:3424   */\n      swap1\n      pop\n        /* \"#utility.yul\":3434:3506   */\n      tag_230\n        /* \"#utility.yul\":3502:3504   */\n      0x60\n        /* \"#utility.yul\":3491:3500   */\n      dup4\n        /* \"#utility.yul\":3487:3505   */\n      add\n        /* \"#utility.yul\":3478:3484   */\n      dup6\n        /* \"#utility.yul\":3434:3506   */\n      tag_133\n      jump\t// in\n    tag_230:\n        /* \"#utility.yul\":3516:3589   */\n      tag_231\n        /* \"#utility.yul\":3584:3587   */\n      0x80\n        /* \"#utility.yul\":3573:3582   */\n      dup4\n        /* \"#utility.yul\":3569:3588   */\n      add\n        /* \"#utility.yul\":3560:3566   */\n      dup5\n        /* \"#utility.yul\":3516:3589   */\n      tag_133\n      jump\t// in\n    tag_231:\n        /* \"#utility.yul\":2841:3596   */\n      swap7\n      swap6\n      pop\n      pop\n      pop\n      pop\n      pop\n      pop\n      jump\t// out\n        /* \"#utility.yul\":3602:3691   */\n    tag_140:\n        /* \"#utility.yul\":3638:3645   */\n      0x00\n        /* \"#utility.yul\":3678:3684   */\n      0xffff\n        /* \"#utility.yul\":3671:3676   */\n      dup3\n        /* \"#utility.yul\":3667:3685   */\n      and\n        /* \"#utility.yul\":3656:3685   */\n      swap1\n      pop\n        /* \"#utility.yul\":3602:3691   */\n      swap2\n      swap1\n      pop\n      jump\t// out\n        /* \"#utility.yul\":3697:3812   */\n    tag_141:\n        /* \"#utility.yul\":3782:3805   */\n      tag_234\n        /* \"#utility.yul\":3799:3804   */\n      dup2\n        /* \"#utility.yul\":3782:3805   */\n      tag_140\n      jump\t// in\n    tag_234:\n        /* \"#utility.yul\":3777:3780   */\n      dup3\n        /* \"#utility.yul\":3770:3806   */\n      mstore\n        /* \"#utility.yul\":3697:3812   */\n      pop\n      pop\n      jump\t// out\n        /* \"#utility.yul\":3818:4036   */\n    tag_25:\n        /* \"#utility.yul\":3909:3913   */\n      0x00\n        /* \"#utility.yul\":3947:3949   */\n      0x20\n        /* \"#utility.yul\":3936:3945   */\n      dup3\n        /* \"#utility.yul\":3932:3950   */\n      add\n        /* \"#utility.yul\":3924:3950   */\n      swap1\n      pop\n        /* \"#utility.yul\":3960:4029   */\n      tag_236\n        /* \"#utility.yul\":4026:4027   */\n      0x00\n        /* \"#utility.yul\":4015:4024   */\n      dup4\n        /* \"#utility.yul\":4011:4028   */\n      add\n        /* \"#utility.yul\":4002:4008   */\n      dup5\n        /* \"#utility.yul\":3960:4029   */\n      tag_141\n      jump\t// in\n    tag_236:\n        /* \"#utility.yul\":3818:4036   */\n      swap3\n      swap2\n      pop\n      pop\n      jump\t// out\n        /* \"#utility.yul\":4042:4516   */\n    tag_28:\n        /* \"#utility.yul\":4110:4116   */\n      0x00\n        /* \"#utility.yul\":4118:4124   */\n      dup1\n        /* \"#utility.yul\":4167:4169   */\n      0x40\n        /* \"#utility.yul\":4155:4164   */\n      dup4\n        /* \"#utility.yul\":4146:4153   */\n      dup6\n        /* \"#utility.yul\":4142:4165   */\n      sub\n        /* \"#utility.yul\":4138:4170   */\n      slt\n        /* \"#utility.yul\":4135:4254   */\n      iszero\n      tag_238\n      jumpi\n        /* \"#utility.yul\":4173:4252   */\n      tag_239\n      tag_124\n      jump\t// in\n    tag_239:\n        /* \"#utility.yul\":4135:4254   */\n    tag_238:\n        /* \"#utility.yul\":4293:4294   */\n      0x00\n        /* \"#utility.yul\":4318:4371   */\n      tag_240\n        /* \"#utility.yul\":4363:4370   */\n      dup6\n        /* \"#utility.yul\":4354:4360   */\n      dup3\n        /* \"#utility.yul\":4343:4352   */\n      dup7\n        /* \"#utility.yul\":4339:4361   */\n      add\n        /* \"#utility.yul\":4318:4371   */\n      tag_132\n      jump\t// in\n    tag_240:\n        /* \"#utility.yul\":4308:4371   */\n      swap3\n      pop\n        /* \"#utility.yul\":4264:4381   */\n      pop\n        /* \"#utility.yul\":4420:4422   */\n      0x20\n        /* \"#utility.yul\":4446:4499   */\n      tag_241\n        /* \"#utility.yul\":4491:4498   */\n      dup6\n        /* \"#utility.yul\":4482:4488   */\n      dup3\n        /* \"#utility.yul\":4471:4480   */\n      dup7\n        /* \"#utility.yul\":4467:4489   */\n      add\n        /* \"#utility.yul\":4446:4499   */\n      tag_129\n      jump\t// in\n    tag_241:\n        /* \"#utility.yul\":4436:4499   */\n      swap2\n      pop\n        /* \"#utility.yul\":4391:4509   */\n      pop\n        /* \"#utility.yul\":4042:4516   */\n      swap3\n      pop\n      swap3\n      swap1\n      pop\n      jump\t// out\n        /* \"#utility.yul\":4522:4630   */\n    tag_142:\n        /* \"#utility.yul\":4599:4623   */\n      tag_243\n        /* \"#utility.yul\":4617:4622   */\n      dup2\n        /* \"#utility.yul\":4599:4623   */\n      tag_130\n      jump\t// in\n    tag_243:\n        /* \"#utility.yul\":4594:4597   */\n      dup3\n        /* \"#utility.yul\":4587:4624   */\n      mstore\n        /* \"#utility.yul\":4522:4630   */\n      pop\n      pop\n      jump\t// out\n        /* \"#utility.yul\":4636:4744   */\n    tag_143:\n        /* \"#utility.yul\":4713:4737   */\n      tag_245\n        /* \"#utility.yul\":4731:4736   */\n      dup2\n        /* \"#utility.yul\":4713:4737   */\n      tag_127\n      jump\t// in\n    tag_245:\n        /* \"#utility.yul\":4708:4711   */\n      dup3\n        /* \"#utility.yul\":4701:4738   */\n      mstore\n        /* \"#utility.yul\":4636:4744   */\n      pop\n      pop\n      jump\t// out\n        /* \"#utility.yul\":4750:4909   */\n    tag_144:\n        /* \"#utility.yul\":4824:4835   */\n      0x00\n        /* \"#utility.yul\":4858:4864   */\n      dup3\n        /* \"#utility.yul\":4853:4856   */\n      dup3\n        /* \"#utility.yul\":4846:4865   */\n      mstore\n        /* \"#utility.yul\":4898:4902   */\n      0x20\n        /* \"#utility.yul\":4893:4896   */\n      dup3\n        /* \"#utility.yul\":4889:4903   */\n      add\n        /* \"#utility.yul\":4874:4903   */\n      swap1\n      pop\n        /* \"#utility.yul\":4750:4909   */\n      swap3\n      swap2\n      pop\n      pop\n      jump\t// out\n        /* \"#utility.yul\":4915:5272   */\n    tag_145:\n        /* \"#utility.yul\":4993:4996   */\n      0x00\n        /* \"#utility.yul\":5021:5060   */\n      tag_248\n        /* \"#utility.yul\":5054:5059   */\n      dup3\n        /* \"#utility.yul\":5021:5060   */\n      tag_135\n      jump\t// in\n    tag_248:\n        /* \"#utility.yul\":5076:5137   */\n      tag_249\n        /* \"#utility.yul\":5130:5136   */\n      dup2\n        /* \"#utility.yul\":5125:5128   */\n      dup6\n        /* \"#utility.yul\":5076:5137   */\n      tag_144\n      jump\t// in\n    tag_249:\n        /* \"#utility.yul\":5069:5137   */\n      swap4\n      pop\n        /* \"#utility.yul\":5146:5211   */\n      tag_250\n        /* \"#utility.yul\":5204:5210   */\n      dup2\n        /* \"#utility.yul\":5199:5202   */\n      dup6\n        /* \"#utility.yul\":5192:5196   */\n      0x20\n        /* \"#utility.yul\":5185:5190   */\n      dup7\n        /* \"#utility.yul\":5181:5197   */\n      add\n        /* \"#utility.yul\":5146:5211   */\n      tag_137\n      jump\t// in\n    tag_250:\n        /* \"#utility.yul\":5236:5265   */\n      tag_251\n        /* \"#utility.yul\":5258:5264   */\n      dup2\n        /* \"#utility.yul\":5236:5265   */\n      tag_138\n      jump\t// in\n    tag_251:\n        /* \"#utility.yul\":5231:5234   */\n      dup5\n        /* \"#utility.yul\":5227:5266   */\n      add\n        /* \"#utility.yul\":5220:5266   */\n      swap2\n      pop\n        /* \"#utility.yul\":4997:5272   */\n      pop\n        /* \"#utility.yul\":4915:5272   */\n      swap3\n      swap2\n      pop\n      pop\n      jump\t// out\n        /* \"#utility.yul\":5330:6460   */\n    tag_146:\n        /* \"#utility.yul\":5441:5444   */\n      0x00\n        /* \"#utility.yul\":5477:5481   */\n      0xa0\n        /* \"#utility.yul\":5472:5475   */\n      dup4\n        /* \"#utility.yul\":5468:5482   */\n      add\n        /* \"#utility.yul\":5562:5566   */\n      0x00\n        /* \"#utility.yul\":5555:5560   */\n      dup4\n        /* \"#utility.yul\":5551:5567   */\n      add\n        /* \"#utility.yul\":5545:5568   */\n      mload\n        /* \"#utility.yul\":5581:5644   */\n      tag_253\n        /* \"#utility.yul\":5638:5642   */\n      0x00\n        /* \"#utility.yul\":5633:5636   */\n      dup7\n        /* \"#utility.yul\":5629:5643   */\n      add\n        /* \"#utility.yul\":5615:5627   */\n      dup3\n        /* \"#utility.yul\":5581:5644   */\n      tag_142\n      jump\t// in\n    tag_253:\n        /* \"#utility.yul\":5492:5654   */\n      pop\n        /* \"#utility.yul\":5738:5742   */\n      0x20\n        /* \"#utility.yul\":5731:5736   */\n      dup4\n        /* \"#utility.yul\":5727:5743   */\n      add\n        /* \"#utility.yul\":5721:5744   */\n      mload\n        /* \"#utility.yul\":5757:5820   */\n      tag_254\n        /* \"#utility.yul\":5814:5818   */\n      0x20\n        /* \"#utility.yul\":5809:5812   */\n      dup7\n        /* \"#utility.yul\":5805:5819   */\n      add\n        /* \"#utility.yul\":5791:5803   */\n      dup3\n        /* \"#utility.yul\":5757:5820   */\n      tag_143\n      jump\t// in\n    tag_254:\n        /* \"#utility.yul\":5664:5830   */\n      pop\n        /* \"#utility.yul\":5915:5919   */\n      0x40\n        /* \"#utility.yul\":5908:5913   */\n      dup4\n        /* \"#utility.yul\":5904:5920   */\n      add\n        /* \"#utility.yul\":5898:5921   */\n      mload\n        /* \"#utility.yul\":5968:5971   */\n      dup5\n        /* \"#utility.yul\":5962:5966   */\n      dup3\n        /* \"#utility.yul\":5958:5972   */\n      sub\n        /* \"#utility.yul\":5951:5955   */\n      0x40\n        /* \"#utility.yul\":5946:5949   */\n      dup7\n        /* \"#utility.yul\":5942:5956   */\n      add\n        /* \"#utility.yul\":5935:5973   */\n      mstore\n        /* \"#utility.yul\":5994:6067   */\n      tag_255\n        /* \"#utility.yul\":6062:6066   */\n      dup3\n        /* \"#utility.yul\":6048:6060   */\n      dup3\n        /* \"#utility.yul\":5994:6067   */\n      tag_145\n      jump\t// in\n    tag_255:\n        /* \"#utility.yul\":5986:6067   */\n      swap2\n      pop\n        /* \"#utility.yul\":5840:6078   */\n      pop\n        /* \"#utility.yul\":6166:6170   */\n      0x60\n        /* \"#utility.yul\":6159:6164   */\n      dup4\n        /* \"#utility.yul\":6155:6171   */\n      add\n        /* \"#utility.yul\":6149:6172   */\n      mload\n        /* \"#utility.yul\":6185:6248   */\n      tag_256\n        /* \"#utility.yul\":6242:6246   */\n      0x60\n        /* \"#utility.yul\":6237:6240   */\n      dup7\n        /* \"#utility.yul\":6233:6247   */\n      add\n        /* \"#utility.yul\":6219:6231   */\n      dup3\n        /* \"#utility.yul\":6185:6248   */\n      tag_142\n      jump\t// in\n    tag_256:\n        /* \"#utility.yul\":6088:6258   */\n      pop\n        /* \"#utility.yul\":6341:6345   */\n      0x80\n        /* \"#utility.yul\":6334:6339   */\n      dup4\n        /* \"#utility.yul\":6330:6346   */\n      add\n        /* \"#utility.yul\":6324:6347   */\n      mload\n        /* \"#utility.yul\":6360:6423   */\n      tag_257\n        /* \"#utility.yul\":6417:6421   */\n      0x80\n        /* \"#utility.yul\":6412:6415   */\n      dup7\n        /* \"#utility.yul\":6408:6422   */\n      add\n        /* \"#utility.yul\":6394:6406   */\n      dup3\n        /* \"#utility.yul\":6360:6423   */\n      tag_142\n      jump\t// in\n    tag_257:\n        /* \"#utility.yul\":6268:6433   */\n      pop\n        /* \"#utility.yul\":6450:6454   */\n      dup1\n        /* \"#utility.yul\":6443:6454   */\n      swap2\n      pop\n        /* \"#utility.yul\":5446:6460   */\n      pop\n        /* \"#utility.yul\":5330:6460   */\n      swap3\n      swap2\n      pop\n      pop\n      jump\t// out\n        /* \"#utility.yul\":6466:6823   */\n    tag_31:\n        /* \"#utility.yul\":6601:6605   */\n      0x00\n        /* \"#utility.yul\":6639:6641   */\n      0x20\n        /* \"#utility.yul\":6628:6637   */\n      dup3\n        /* \"#utility.yul\":6624:6642   */\n      add\n        /* \"#utility.yul\":6616:6642   */\n      swap1\n      pop\n        /* \"#utility.yul\":6688:6697   */\n      dup2\n        /* \"#utility.yul\":6682:6686   */\n      dup2\n        /* \"#utility.yul\":6678:6698   */\n      sub\n        /* \"#utility.yul\":6674:6675   */\n      0x00\n        /* \"#utility.yul\":6663:6672   */\n      dup4\n        /* \"#utility.yul\":6659:6676   */\n      add\n        /* \"#utility.yul\":6652:6699   */\n      mstore\n        /* \"#utility.yul\":6716:6816   */\n      tag_259\n        /* \"#utility.yul\":6811:6815   */\n      dup2\n        /* \"#utility.yul\":6802:6808   */\n      dup5\n        /* \"#utility.yul\":6716:6816   */\n      tag_146\n      jump\t// in\n    tag_259:\n        /* \"#utility.yul\":6708:6816   */\n      swap1\n      pop\n        /* \"#utility.yul\":6466:6823   */\n      swap3\n      swap2\n      pop\n      pop\n      jump\t// out\n        /* \"#utility.yul\":6829:6946   */\n    tag_147:\n        /* \"#utility.yul\":6938:6939   */\n      0x00\n        /* \"#utility.yul\":6935:6936   */\n      dup1\n        /* \"#utility.yul\":6928:6940   */\n      revert\n        /* \"#utility.yul\":6952:7069   */\n    tag_148:\n        /* \"#utility.yul\":7061:7062   */\n      0x00\n        /* \"#utility.yul\":7058:7059   */\n      dup1\n        /* \"#utility.yul\":7051:7063   */\n      revert\n        /* \"#utility.yul\":7075:7255   */\n    tag_149:\n        /* \"#utility.yul\":7123:7200   */\n      0x4e487b7100000000000000000000000000000000000000000000000000000000\n        /* \"#utility.yul\":7120:7121   */\n      0x00\n        /* \"#utility.yul\":7113:7201   */\n      mstore\n        /* \"#utility.yul\":7220:7224   */\n      0x41\n        /* \"#utility.yul\":7217:7218   */\n      0x04\n        /* \"#utility.yul\":7210:7225   */\n      mstore\n        /* \"#utility.yul\":7244:7248   */\n      0x24\n        /* \"#utility.yul\":7241:7242   */\n      0x00\n        /* \"#utility.yul\":7234:7249   */\n      revert\n        /* \"#utility.yul\":7261:7542   */\n    tag_150:\n        /* \"#utility.yul\":7344:7371   */\n      tag_264\n        /* \"#utility.yul\":7366:7370   */\n      dup3\n        /* \"#utility.yul\":7344:7371   */\n      tag_138\n      jump\t// in\n    tag_264:\n        /* \"#utility.yul\":7336:7342   */\n      dup2\n        /* \"#utility.yul\":7332:7372   */\n      add\n        /* \"#utility.yul\":7474:7480   */\n      dup2\n        /* \"#utility.yul\":7462:7472   */\n      dup2\n        /* \"#utility.yul\":7459:7481   */\n      lt\n        /* \"#utility.yul\":7438:7456   */\n      0xffffffffffffffff\n        /* \"#utility.yul\":7426:7436   */\n      dup3\n        /* \"#utility.yul\":7423:7457   */\n      gt\n        /* \"#utility.yul\":7420:7482   */\n      or\n        /* \"#utility.yul\":7417:7505   */\n      iszero\n      tag_265\n      jumpi\n        /* \"#utility.yul\":7485:7503   */\n      tag_266\n      tag_149\n      jump\t// in\n    tag_266:\n        /* \"#utility.yul\":7417:7505   */\n    tag_265:\n        /* \"#utility.yul\":7525:7535   */\n      dup1\n        /* \"#utility.yul\":7521:7523   */\n      0x40\n        /* \"#utility.yul\":7514:7536   */\n      mstore\n        /* \"#utility.yul\":7304:7542   */\n      pop\n        /* \"#utility.yul\":7261:7542   */\n      pop\n      pop\n      jump\t// out\n        /* \"#utility.yul\":7548:7677   */\n    tag_151:\n        /* \"#utility.yul\":7582:7588   */\n      0x00\n        /* \"#utility.yul\":7609:7629   */\n      tag_268\n      tag_123\n      jump\t// in\n    tag_268:\n        /* \"#utility.yul\":7599:7629   */\n      swap1\n      pop\n        /* \"#utility.yul\":7638:7671   */\n      tag_269\n        /* \"#utility.yul\":7666:7670   */\n      dup3\n        /* \"#utility.yul\":7658:7664   */\n      dup3\n        /* \"#utility.yul\":7638:7671   */\n      tag_150\n      jump\t// in\n    tag_269:\n        /* \"#utility.yul\":7548:7677   */\n      swap2\n      swap1\n      pop\n      jump\t// out\n        /* \"#utility.yul\":7683:7991   */\n    tag_152:\n        /* \"#utility.yul\":7745:7749   */\n      0x00\n        /* \"#utility.yul\":7835:7853   */\n      0xffffffffffffffff\n        /* \"#utility.yul\":7827:7833   */\n      dup3\n        /* \"#utility.yul\":7824:7854   */\n      gt\n        /* \"#utility.yul\":7821:7877   */\n      iszero\n      tag_271\n      jumpi\n        /* \"#utility.yul\":7857:7875   */\n      tag_272\n      tag_149\n      jump\t// in\n    tag_272:\n        /* \"#utility.yul\":7821:7877   */\n    tag_271:\n        /* \"#utility.yul\":7895:7924   */\n      tag_273\n        /* \"#utility.yul\":7917:7923   */\n      dup3\n        /* \"#utility.yul\":7895:7924   */\n      tag_138\n      jump\t// in\n    tag_273:\n        /* \"#utility.yul\":7887:7924   */\n      swap1\n      pop\n        /* \"#utility.yul\":7979:7983   */\n      0x20\n        /* \"#utility.yul\":7973:7977   */\n      dup2\n        /* \"#utility.yul\":7969:7984   */\n      add\n        /* \"#utility.yul\":7961:7984   */\n      swap1\n      pop\n        /* \"#utility.yul\":7683:7991   */\n      swap2\n      swap1\n      pop\n      jump\t// out\n        /* \"#utility.yul\":7997:8145   */\n    tag_153:\n        /* \"#utility.yul\":8095:8101   */\n      dup3\n        /* \"#utility.yul\":8090:8093   */\n      dup2\n        /* \"#utility.yul\":8085:8088   */\n      dup4\n        /* \"#utility.yul\":8072:8102   */\n      calldatacopy\n        /* \"#utility.yul\":8136:8137   */\n      0x00\n        /* \"#utility.yul\":8127:8133   */\n      dup4\n        /* \"#utility.yul\":8122:8125   */\n      dup4\n        /* \"#utility.yul\":8118:8134   */\n      add\n        /* \"#utility.yul\":8111:8138   */\n      mstore\n        /* \"#utility.yul\":7997:8145   */\n      pop\n      pop\n      pop\n      jump\t// out\n        /* \"#utility.yul\":8151:8576   */\n    tag_154:\n        /* \"#utility.yul\":8229:8234   */\n      0x00\n        /* \"#utility.yul\":8254:8320   */\n      tag_276\n        /* \"#utility.yul\":8270:8319   */\n      tag_277\n        /* \"#utility.yul\":8312:8318   */\n      dup5\n        /* \"#utility.yul\":8270:8319   */\n      tag_152\n      jump\t// in\n    tag_277:\n        /* \"#utility.yul\":8254:8320   */\n      tag_151\n      jump\t// in\n    tag_276:\n        /* \"#utility.yul\":8245:8320   */\n      swap1\n      pop\n        /* \"#utility.yul\":8343:8349   */\n      dup3\n        /* \"#utility.yul\":8336:8341   */\n      dup2\n        /* \"#utility.yul\":8329:8350   */\n      mstore\n        /* \"#utility.yul\":8381:8385   */\n      0x20\n        /* \"#utility.yul\":8374:8379   */\n      dup2\n        /* \"#utility.yul\":8370:8386   */\n      add\n        /* \"#utility.yul\":8419:8422   */\n      dup5\n        /* \"#utility.yul\":8410:8416   */\n      dup5\n        /* \"#utility.yul\":8405:8408   */\n      dup5\n        /* \"#utility.yul\":8401:8417   */\n      add\n        /* \"#utility.yul\":8398:8423   */\n      gt\n        /* \"#utility.yul\":8395:8507   */\n      iszero\n      tag_278\n      jumpi\n        /* \"#utility.yul\":8426:8505   */\n      tag_279\n      tag_148\n      jump\t// in\n    tag_279:\n        /* \"#utility.yul\":8395:8507   */\n    tag_278:\n        /* \"#utility.yul\":8516:8570   */\n      tag_280\n        /* \"#utility.yul\":8563:8569   */\n      dup5\n        /* \"#utility.yul\":8558:8561   */\n      dup3\n        /* \"#utility.yul\":8553:8556   */\n      dup6\n        /* \"#utility.yul\":8516:8570   */\n      tag_153\n      jump\t// in\n    tag_280:\n        /* \"#utility.yul\":8235:8576   */\n      pop\n        /* \"#utility.yul\":8151:8576   */\n      swap4\n      swap3\n      pop\n      pop\n      pop\n      jump\t// out\n        /* \"#utility.yul\":8596:8936   */\n    tag_155:\n        /* \"#utility.yul\":8652:8657   */\n      0x00\n        /* \"#utility.yul\":8701:8704   */\n      dup3\n        /* \"#utility.yul\":8694:8698   */\n      0x1f\n        /* \"#utility.yul\":8686:8692   */\n      dup4\n        /* \"#utility.yul\":8682:8699   */\n      add\n        /* \"#utility.yul\":8678:8705   */\n      slt\n        /* \"#utility.yul\":8668:8790   */\n      tag_282\n      jumpi\n        /* \"#utility.yul\":8709:8788   */\n      tag_283\n      tag_147\n      jump\t// in\n    tag_283:\n        /* \"#utility.yul\":8668:8790   */\n    tag_282:\n        /* \"#utility.yul\":8826:8832   */\n      dup2\n        /* \"#utility.yul\":8813:8833   */\n      calldataload\n        /* \"#utility.yul\":8851:8930   */\n      tag_284\n        /* \"#utility.yul\":8926:8929   */\n      dup5\n        /* \"#utility.yul\":8918:8924   */\n      dup3\n        /* \"#utility.yul\":8911:8915   */\n      0x20\n        /* \"#utility.yul\":8903:8909   */\n      dup7\n        /* \"#utility.yul\":8899:8916   */\n      add\n        /* \"#utility.yul\":8851:8930   */\n      tag_154\n      jump\t// in\n    tag_284:\n        /* \"#utility.yul\":8842:8930   */\n      swap2\n      pop\n        /* \"#utility.yul\":8658:8936   */\n      pop\n        /* \"#utility.yul\":8596:8936   */\n      swap3\n      swap2\n      pop\n      pop\n      jump\t// out\n        /* \"#utility.yul\":8942:9451   */\n    tag_37:\n        /* \"#utility.yul\":9011:9017   */\n      0x00\n        /* \"#utility.yul\":9060:9062   */\n      0x20\n        /* \"#utility.yul\":9048:9057   */\n      dup3\n        /* \"#utility.yul\":9039:9046   */\n      dup5\n        /* \"#utility.yul\":9035:9058   */\n      sub\n        /* \"#utility.yul\":9031:9063   */\n      slt\n        /* \"#utility.yul\":9028:9147   */\n      iszero\n      tag_286\n      jumpi\n        /* \"#utility.yul\":9066:9145   */\n      tag_287\n      tag_124\n      jump\t// in\n    tag_287:\n        /* \"#utility.yul\":9028:9147   */\n    tag_286:\n        /* \"#utility.yul\":9214:9215   */\n      0x00\n        /* \"#utility.yul\":9203:9212   */\n      dup3\n        /* \"#utility.yul\":9199:9216   */\n      add\n        /* \"#utility.yul\":9186:9217   */\n      calldataload\n        /* \"#utility.yul\":9244:9262   */\n      0xffffffffffffffff\n        /* \"#utility.yul\":9236:9242   */\n      dup2\n        /* \"#utility.yul\":9233:9263   */\n      gt\n        /* \"#utility.yul\":9230:9347   */\n      iszero\n      tag_288\n      jumpi\n        /* \"#utility.yul\":9266:9345   */\n      tag_289\n      tag_125\n      jump\t// in\n    tag_289:\n        /* \"#utility.yul\":9230:9347   */\n    tag_288:\n        /* \"#utility.yul\":9371:9434   */\n      tag_290\n        /* \"#utility.yul\":9426:9433   */\n      dup5\n        /* \"#utility.yul\":9417:9423   */\n      dup3\n        /* \"#utility.yul\":9406:9415   */\n      dup6\n        /* \"#utility.yul\":9402:9424   */\n      add\n        /* \"#utility.yul\":9371:9434   */\n      tag_155\n      jump\t// in\n    tag_290:\n        /* \"#utility.yul\":9361:9434   */\n      swap2\n      pop\n        /* \"#utility.yul\":9157:9444   */\n      pop\n        /* \"#utility.yul\":8942:9451   */\n      swap3\n      swap2\n      pop\n      pop\n      jump\t// out\n        /* \"#utility.yul\":9457:9679   */\n    tag_42:\n        /* \"#utility.yul\":9550:9554   */\n      0x00\n        /* \"#utility.yul\":9588:9590   */\n      0x20\n        /* \"#utility.yul\":9577:9586   */\n      dup3\n        /* \"#utility.yul\":9573:9591   */\n      add\n        /* \"#utility.yul\":9565:9591   */\n      swap1\n      pop\n        /* \"#utility.yul\":9601:9672   */\n      tag_292\n        /* \"#utility.yul\":9669:9670   */\n      0x00\n        /* \"#utility.yul\":9658:9667   */\n      dup4\n        /* \"#utility.yul\":9654:9671   */\n      add\n        /* \"#utility.yul\":9645:9651   */\n      dup5\n        /* \"#utility.yul\":9601:9672   */\n      tag_134\n      jump\t// in\n    tag_292:\n        /* \"#utility.yul\":9457:9679   */\n      swap3\n      swap2\n      pop\n      pop\n      jump\t// out\n        /* \"#utility.yul\":9685:10014   */\n    tag_45:\n        /* \"#utility.yul\":9744:9750   */\n      0x00\n        /* \"#utility.yul\":9793:9795   */\n      0x20\n        /* \"#utility.yul\":9781:9790   */\n      dup3\n        /* \"#utility.yul\":9772:9779   */\n      dup5\n        /* \"#utility.yul\":9768:9791   */\n      sub\n        /* \"#utility.yul\":9764:9796   */\n      slt\n        /* \"#utility.yul\":9761:9880   */\n      iszero\n      tag_294\n      jumpi\n        /* \"#utility.yul\":9799:9878   */\n      tag_295\n      tag_124\n      jump\t// in\n    tag_295:\n        /* \"#utility.yul\":9761:9880   */\n    tag_294:\n        /* \"#utility.yul\":9919:9920   */\n      0x00\n        /* \"#utility.yul\":9944:9997   */\n      tag_296\n        /* \"#utility.yul\":9989:9996   */\n      dup5\n        /* \"#utility.yul\":9980:9986   */\n      dup3\n        /* \"#utility.yul\":9969:9978   */\n      dup6\n        /* \"#utility.yul\":9965:9987   */\n      add\n        /* \"#utility.yul\":9944:9997   */\n      tag_129\n      jump\t// in\n    tag_296:\n        /* \"#utility.yul\":9934:9997   */\n      swap2\n      pop\n        /* \"#utility.yul\":9890:10007   */\n      pop\n        /* \"#utility.yul\":9685:10014   */\n      swap3\n      swap2\n      pop\n      pop\n      jump\t// out\n        /* \"#utility.yul\":10020:10155   */\n    tag_156:\n        /* \"#utility.yul\":10108:10114   */\n      0x00\n        /* \"#utility.yul\":10142:10147   */\n      dup2\n        /* \"#utility.yul\":10136:10148   */\n      mload\n        /* \"#utility.yul\":10126:10148   */\n      swap1\n      pop\n        /* \"#utility.yul\":10020:10155   */\n      swap2\n      swap1\n      pop\n      jump\t// out\n        /* \"#utility.yul\":10161:10366   */\n    tag_157:\n        /* \"#utility.yul\":10281:10292   */\n      0x00\n        /* \"#utility.yul\":10315:10321   */\n      dup3\n        /* \"#utility.yul\":10310:10313   */\n      dup3\n        /* \"#utility.yul\":10303:10322   */\n      mstore\n        /* \"#utility.yul\":10355:10359   */\n      0x20\n        /* \"#utility.yul\":10350:10353   */\n      dup3\n        /* \"#utility.yul\":10346:10360   */\n      add\n        /* \"#utility.yul\":10331:10360   */\n      swap1\n      pop\n        /* \"#utility.yul\":10161:10366   */\n      swap3\n      swap2\n      pop\n      pop\n      jump\t// out\n        /* \"#utility.yul\":10372:10525   */\n    tag_158:\n        /* \"#utility.yul\":10460:10464   */\n      0x00\n        /* \"#utility.yul\":10483:10486   */\n      dup2\n        /* \"#utility.yul\":10475:10486   */\n      swap1\n      pop\n        /* \"#utility.yul\":10513:10517   */\n      0x20\n        /* \"#utility.yul\":10508:10511   */\n      dup3\n        /* \"#utility.yul\":10504:10518   */\n      add\n        /* \"#utility.yul\":10496:10518   */\n      swap1\n      pop\n        /* \"#utility.yul\":10372:10525   */\n      swap2\n      swap1\n      pop\n      jump\t// out\n        /* \"#utility.yul\":10583:11703   */\n    tag_159:\n        /* \"#utility.yul\":10684:10687   */\n      0x00\n        /* \"#utility.yul\":10720:10724   */\n      0xa0\n        /* \"#utility.yul\":10715:10718   */\n      dup4\n        /* \"#utility.yul\":10711:10725   */\n      add\n        /* \"#utility.yul\":10805:10809   */\n      0x00\n        /* \"#utility.yul\":10798:10803   */\n      dup4\n        /* \"#utility.yul\":10794:10810   */\n      add\n        /* \"#utility.yul\":10788:10811   */\n      mload\n        /* \"#utility.yul\":10824:10887   */\n      tag_301\n        /* \"#utility.yul\":10881:10885   */\n      0x00\n        /* \"#utility.yul\":10876:10879   */\n      dup7\n        /* \"#utility.yul\":10872:10886   */\n      add\n        /* \"#utility.yul\":10858:10870   */\n      dup3\n        /* \"#utility.yul\":10824:10887   */\n      tag_142\n      jump\t// in\n    tag_301:\n        /* \"#utility.yul\":10735:10897   */\n      pop\n        /* \"#utility.yul\":10981:10985   */\n      0x20\n        /* \"#utility.yul\":10974:10979   */\n      dup4\n        /* \"#utility.yul\":10970:10986   */\n      add\n        /* \"#utility.yul\":10964:10987   */\n      mload\n        /* \"#utility.yul\":11000:11063   */\n      tag_302\n        /* \"#utility.yul\":11057:11061   */\n      0x20\n        /* \"#utility.yul\":11052:11055   */\n      dup7\n        /* \"#utility.yul\":11048:11062   */\n      add\n        /* \"#utility.yul\":11034:11046   */\n      dup3\n        /* \"#utility.yul\":11000:11063   */\n      tag_143\n      jump\t// in\n    tag_302:\n        /* \"#utility.yul\":10907:11073   */\n      pop\n        /* \"#utility.yul\":11158:11162   */\n      0x40\n        /* \"#utility.yul\":11151:11156   */\n      dup4\n        /* \"#utility.yul\":11147:11163   */\n      add\n        /* \"#utility.yul\":11141:11164   */\n      mload\n        /* \"#utility.yul\":11211:11214   */\n      dup5\n        /* \"#utility.yul\":11205:11209   */\n      dup3\n        /* \"#utility.yul\":11201:11215   */\n      sub\n        /* \"#utility.yul\":11194:11198   */\n      0x40\n        /* \"#utility.yul\":11189:11192   */\n      dup7\n        /* \"#utility.yul\":11185:11199   */\n      add\n        /* \"#utility.yul\":11178:11216   */\n      mstore\n        /* \"#utility.yul\":11237:11310   */\n      tag_303\n        /* \"#utility.yul\":11305:11309   */\n      dup3\n        /* \"#utility.yul\":11291:11303   */\n      dup3\n        /* \"#utility.yul\":11237:11310   */\n      tag_145\n      jump\t// in\n    tag_303:\n        /* \"#utility.yul\":11229:11310   */\n      swap2\n      pop\n        /* \"#utility.yul\":11083:11321   */\n      pop\n        /* \"#utility.yul\":11409:11413   */\n      0x60\n        /* \"#utility.yul\":11402:11407   */\n      dup4\n        /* \"#utility.yul\":11398:11414   */\n      add\n        /* \"#utility.yul\":11392:11415   */\n      mload\n        /* \"#utility.yul\":11428:11491   */\n      tag_304\n        /* \"#utility.yul\":11485:11489   */\n      0x60\n        /* \"#utility.yul\":11480:11483   */\n      dup7\n        /* \"#utility.yul\":11476:11490   */\n      add\n        /* \"#utility.yul\":11462:11474   */\n      dup3\n        /* \"#utility.yul\":11428:11491   */\n      tag_142\n      jump\t// in\n    tag_304:\n        /* \"#utility.yul\":11331:11501   */\n      pop\n        /* \"#utility.yul\":11584:11588   */\n      0x80\n        /* \"#utility.yul\":11577:11582   */\n      dup4\n        /* \"#utility.yul\":11573:11589   */\n      add\n        /* \"#utility.yul\":11567:11590   */\n      mload\n        /* \"#utility.yul\":11603:11666   */\n      tag_305\n        /* \"#utility.yul\":11660:11664   */\n      0x80\n        /* \"#utility.yul\":11655:11658   */\n      dup7\n        /* \"#utility.yul\":11651:11665   */\n      add\n        /* \"#utility.yul\":11637:11649   */\n      dup3\n        /* \"#utility.yul\":11603:11666   */\n      tag_142\n      jump\t// in\n    tag_305:\n        /* \"#utility.yul\":11511:11676   */\n      pop\n        /* \"#utility.yul\":11693:11697   */\n      dup1\n        /* \"#utility.yul\":11686:11697   */\n      swap2\n      pop\n        /* \"#utility.yul\":10689:11703   */\n      pop\n        /* \"#utility.yul\":10583:11703   */\n      swap3\n      swap2\n      pop\n      pop\n      jump\t// out\n        /* \"#utility.yul\":11709:11949   */\n    tag_160:\n        /* \"#utility.yul\":11820:11830   */\n      0x00\n        /* \"#utility.yul\":11855:11943   */\n      tag_307\n        /* \"#utility.yul\":11939:11942   */\n      dup4\n        /* \"#utility.yul\":11931:11937   */\n      dup4\n        /* \"#utility.yul\":11855:11943   */\n      tag_159\n      jump\t// in\n    tag_307:\n        /* \"#utility.yul\":11841:11943   */\n      swap1\n      pop\n        /* \"#utility.yul\":11709:11949   */\n      swap3\n      swap2\n      pop\n      pop\n      jump\t// out\n        /* \"#utility.yul\":11955:12089   */\n    tag_161:\n        /* \"#utility.yul\":12046:12050   */\n      0x00\n        /* \"#utility.yul\":12078:12082   */\n      0x20\n        /* \"#utility.yul\":12073:12076   */\n      dup3\n        /* \"#utility.yul\":12069:12083   */\n      add\n        /* \"#utility.yul\":12061:12083   */\n      swap1\n      pop\n        /* \"#utility.yul\":11955:12089   */\n      swap2\n      swap1\n      pop\n      jump\t// out\n        /* \"#utility.yul\":12151:13230   */\n    tag_162:\n        /* \"#utility.yul\":12312:12315   */\n      0x00\n        /* \"#utility.yul\":12341:12416   */\n      tag_310\n        /* \"#utility.yul\":12410:12415   */\n      dup3\n        /* \"#utility.yul\":12341:12416   */\n      tag_156\n      jump\t// in\n    tag_310:\n        /* \"#utility.yul\":12432:12539   */\n      tag_311\n        /* \"#utility.yul\":12532:12538   */\n      dup2\n        /* \"#utility.yul\":12527:12530   */\n      dup6\n        /* \"#utility.yul\":12432:12539   */\n      tag_157\n      jump\t// in\n    tag_311:\n        /* \"#utility.yul\":12425:12539   */\n      swap4\n      pop\n        /* \"#utility.yul\":12565:12568   */\n      dup4\n        /* \"#utility.yul\":12610:12614   */\n      0x20\n        /* \"#utility.yul\":12602:12608   */\n      dup3\n        /* \"#utility.yul\":12598:12615   */\n      mul\n        /* \"#utility.yul\":12593:12596   */\n      dup6\n        /* \"#utility.yul\":12589:12616   */\n      add\n        /* \"#utility.yul\":12640:12717   */\n      tag_312\n        /* \"#utility.yul\":12711:12716   */\n      dup6\n        /* \"#utility.yul\":12640:12717   */\n      tag_158\n      jump\t// in\n    tag_312:\n        /* \"#utility.yul\":12740:12747   */\n      dup1\n        /* \"#utility.yul\":12771:12772   */\n      0x00\n        /* \"#utility.yul\":12756:13185   */\n    tag_313:\n        /* \"#utility.yul\":12781:12787   */\n      dup6\n        /* \"#utility.yul\":12778:12779   */\n      dup2\n        /* \"#utility.yul\":12775:12788   */\n      lt\n        /* \"#utility.yul\":12756:13185   */\n      iszero\n      tag_315\n      jumpi\n        /* \"#utility.yul\":12852:12861   */\n      dup5\n        /* \"#utility.yul\":12846:12850   */\n      dup5\n        /* \"#utility.yul\":12842:12862   */\n      sub\n        /* \"#utility.yul\":12837:12840   */\n      dup10\n        /* \"#utility.yul\":12830:12863   */\n      mstore\n        /* \"#utility.yul\":12903:12909   */\n      dup2\n        /* \"#utility.yul\":12897:12910   */\n      mload\n        /* \"#utility.yul\":12931:13037   */\n      tag_316\n        /* \"#utility.yul\":13032:13036   */\n      dup6\n        /* \"#utility.yul\":13017:13030   */\n      dup3\n        /* \"#utility.yul\":12931:13037   */\n      tag_160\n      jump\t// in\n    tag_316:\n        /* \"#utility.yul\":12923:13037   */\n      swap5\n      pop\n        /* \"#utility.yul\":13060:13141   */\n      tag_317\n        /* \"#utility.yul\":13134:13140   */\n      dup4\n        /* \"#utility.yul\":13060:13141   */\n      tag_161\n      jump\t// in\n    tag_317:\n        /* \"#utility.yul\":13050:13141   */\n      swap3\n      pop\n        /* \"#utility.yul\":13170:13174   */\n      0x20\n        /* \"#utility.yul\":13165:13168   */\n      dup11\n        /* \"#utility.yul\":13161:13175   */\n      add\n        /* \"#utility.yul\":13154:13175   */\n      swap10\n      pop\n        /* \"#utility.yul\":12816:13185   */\n      pop\n        /* \"#utility.yul\":12803:12804   */\n      0x01\n        /* \"#utility.yul\":12800:12801   */\n      dup2\n        /* \"#utility.yul\":12796:12805   */\n      add\n        /* \"#utility.yul\":12791:12805   */\n      swap1\n      pop\n        /* \"#utility.yul\":12756:13185   */\n      jump(tag_313)\n    tag_315:\n        /* \"#utility.yul\":12760:12774   */\n      pop\n        /* \"#utility.yul\":13201:13205   */\n      dup3\n        /* \"#utility.yul\":13194:13205   */\n      swap8\n      pop\n        /* \"#utility.yul\":13221:13224   */\n      dup8\n        /* \"#utility.yul\":13214:13224   */\n      swap6\n      pop\n        /* \"#utility.yul\":12317:13230   */\n      pop\n      pop\n      pop\n      pop\n      pop\n        /* \"#utility.yul\":12151:13230   */\n      swap3\n      swap2\n      pop\n      pop\n      jump\t// out\n        /* \"#utility.yul\":13236:13693   */\n    tag_48:\n        /* \"#utility.yul\":13421:13425   */\n      0x00\n        /* \"#utility.yul\":13459:13461   */\n      0x20\n        /* \"#utility.yul\":13448:13457   */\n      dup3\n        /* \"#utility.yul\":13444:13462   */\n      add\n        /* \"#utility.yul\":13436:13462   */\n      swap1\n      pop\n        /* \"#utility.yul\":13508:13517   */\n      dup2\n        /* \"#utility.yul\":13502:13506   */\n      dup2\n        /* \"#utility.yul\":13498:13518   */\n      sub\n        /* \"#utility.yul\":13494:13495   */\n      0x00\n        /* \"#utility.yul\":13483:13492   */\n      dup4\n        /* \"#utility.yul\":13479:13496   */\n      add\n        /* \"#utility.yul\":13472:13519   */\n      mstore\n        /* \"#utility.yul\":13536:13686   */\n      tag_319\n        /* \"#utility.yul\":13681:13685   */\n      dup2\n        /* \"#utility.yul\":13672:13678   */\n      dup5\n        /* \"#utility.yul\":13536:13686   */\n      tag_162\n      jump\t// in\n    tag_319:\n        /* \"#utility.yul\":13528:13686   */\n      swap1\n      pop\n        /* \"#utility.yul\":13236:13693   */\n      swap3\n      swap2\n      pop\n      pop\n      jump\t// out\n        /* \"#utility.yul\":13699:13819   */\n    tag_163:\n        /* \"#utility.yul\":13771:13794   */\n      tag_321\n        /* \"#utility.yul\":13788:13793   */\n      dup2\n        /* \"#utility.yul\":13771:13794   */\n      tag_140\n      jump\t// in\n    tag_321:\n        /* \"#utility.yul\":13764:13769   */\n      dup2\n        /* \"#utility.yul\":13761:13795   */\n      eq\n        /* \"#utility.yul\":13751:13813   */\n      tag_322\n      jumpi\n        /* \"#utility.yul\":13809:13810   */\n      0x00\n        /* \"#utility.yul\":13806:13807   */\n      dup1\n        /* \"#utility.yul\":13799:13811   */\n      revert\n        /* \"#utility.yul\":13751:13813   */\n    tag_322:\n        /* \"#utility.yul\":13699:13819   */\n      pop\n      jump\t// out\n        /* \"#utility.yul\":13825:13962   */\n    tag_164:\n        /* \"#utility.yul\":13870:13875   */\n      0x00\n        /* \"#utility.yul\":13908:13914   */\n      dup2\n        /* \"#utility.yul\":13895:13915   */\n      calldataload\n        /* \"#utility.yul\":13886:13915   */\n      swap1\n      pop\n        /* \"#utility.yul\":13924:13956   */\n      tag_324\n        /* \"#utility.yul\":13950:13955   */\n      dup2\n        /* \"#utility.yul\":13924:13956   */\n      tag_163\n      jump\t// in\n    tag_324:\n        /* \"#utility.yul\":13825:13962   */\n      swap3\n      swap2\n      pop\n      pop\n      jump\t// out\n        /* \"#utility.yul\":13968:14295   */\n    tag_51:\n        /* \"#utility.yul\":14026:14032   */\n      0x00\n        /* \"#utility.yul\":14075:14077   */\n      0x20\n        /* \"#utility.yul\":14063:14072   */\n      dup3\n        /* \"#utility.yul\":14054:14061   */\n      dup5\n        /* \"#utility.yul\":14050:14073   */\n      sub\n        /* \"#utility.yul\":14046:14078   */\n      slt\n        /* \"#utility.yul\":14043:14162   */\n      iszero\n      tag_326\n      jumpi\n        /* \"#utility.yul\":14081:14160   */\n      tag_327\n      tag_124\n      jump\t// in\n    tag_327:\n        /* \"#utility.yul\":14043:14162   */\n    tag_326:\n        /* \"#utility.yul\":14201:14202   */\n      0x00\n        /* \"#utility.yul\":14226:14278   */\n      tag_328\n        /* \"#utility.yul\":14270:14277   */\n      dup5\n        /* \"#utility.yul\":14261:14267   */\n      dup3\n        /* \"#utility.yul\":14250:14259   */\n      dup6\n        /* \"#utility.yul\":14246:14268   */\n      add\n        /* \"#utility.yul\":14226:14278   */\n      tag_164\n      jump\t// in\n    tag_328:\n        /* \"#utility.yul\":14216:14278   */\n      swap2\n      pop\n        /* \"#utility.yul\":14172:14288   */\n      pop\n        /* \"#utility.yul\":13968:14295   */\n      swap3\n      swap2\n      pop\n      pop\n      jump\t// out\n        /* \"#utility.yul\":14301:14481   */\n    tag_165:\n        /* \"#utility.yul\":14349:14426   */\n      0x4e487b7100000000000000000000000000000000000000000000000000000000\n        /* \"#utility.yul\":14346:14347   */\n      0x00\n        /* \"#utility.yul\":14339:14427   */\n      mstore\n        /* \"#utility.yul\":14446:14450   */\n      0x22\n        /* \"#utility.yul\":14443:14444   */\n      0x04\n        /* \"#utility.yul\":14436:14451   */\n      mstore\n        /* \"#utility.yul\":14470:14474   */\n      0x24\n        /* \"#utility.yul\":14467:14468   */\n      0x00\n        /* \"#utility.yul\":14460:14475   */\n      revert\n        /* \"#utility.yul\":14487:14807   */\n    tag_56:\n        /* \"#utility.yul\":14531:14537   */\n      0x00\n        /* \"#utility.yul\":14568:14569   */\n      0x02\n        /* \"#utility.yul\":14562:14566   */\n      dup3\n        /* \"#utility.yul\":14558:14570   */\n      div\n        /* \"#utility.yul\":14548:14570   */\n      swap1\n      pop\n        /* \"#utility.yul\":14615:14616   */\n      0x01\n        /* \"#utility.yul\":14609:14613   */\n      dup3\n        /* \"#utility.yul\":14605:14617   */\n      and\n        /* \"#utility.yul\":14636:14654   */\n      dup1\n        /* \"#utility.yul\":14626:14707   */\n      tag_331\n      jumpi\n        /* \"#utility.yul\":14692:14696   */\n      0x7f\n        /* \"#utility.yul\":14684:14690   */\n      dup3\n        /* \"#utility.yul\":14680:14697   */\n      and\n        /* \"#utility.yul\":14670:14697   */\n      swap2\n      pop\n        /* \"#utility.yul\":14626:14707   */\n    tag_331:\n        /* \"#utility.yul\":14754:14756   */\n      0x20\n        /* \"#utility.yul\":14746:14752   */\n      dup3\n        /* \"#utility.yul\":14743:14757   */\n      lt\n        /* \"#utility.yul\":14723:14741   */\n      dup2\n        /* \"#utility.yul\":14720:14758   */\n      sub\n        /* \"#utility.yul\":14717:14801   */\n      tag_332\n      jumpi\n        /* \"#utility.yul\":14773:14791   */\n      tag_333\n      tag_165\n      jump\t// in\n    tag_333:\n        /* \"#utility.yul\":14717:14801   */\n    tag_332:\n        /* \"#utility.yul\":14538:14807   */\n      pop\n        /* \"#utility.yul\":14487:14807   */\n      swap2\n      swap1\n      pop\n      jump\t// out\n        /* \"#utility.yul\":14813:14993   */\n    tag_64:\n        /* \"#utility.yul\":14861:14938   */\n      0x4e487b7100000000000000000000000000000000000000000000000000000000\n        /* \"#utility.yul\":14858:14859   */\n      0x00\n        /* \"#utility.yul\":14851:14939   */\n      mstore\n        /* \"#utility.yul\":14958:14962   */\n      0x32\n        /* \"#utility.yul\":14955:14956   */\n      0x04\n        /* \"#utility.yul\":14948:14963   */\n      mstore\n        /* \"#utility.yul\":14982:14986   */\n      0x24\n        /* \"#utility.yul\":14979:14980   */\n      0x00\n        /* \"#utility.yul\":14972:14987   */\n      revert\n        /* \"#utility.yul\":14999:15174   */\n    tag_166:\n        /* \"#utility.yul\":15139:15166   */\n      0x747765657420646f7365206e6f74206578697374732e2e2e2100000000000000\n        /* \"#utility.yul\":15135:15136   */\n      0x00\n        /* \"#utility.yul\":15127:15133   */\n      dup3\n        /* \"#utility.yul\":15123:15137   */\n      add\n        /* \"#utility.yul\":15116:15167   */\n      mstore\n        /* \"#utility.yul\":14999:15174   */\n      pop\n      jump\t// out\n        /* \"#utility.yul\":15180:15546   */\n    tag_167:\n        /* \"#utility.yul\":15322:15325   */\n      0x00\n        /* \"#utility.yul\":15343:15410   */\n      tag_337\n        /* \"#utility.yul\":15407:15409   */\n      0x19\n        /* \"#utility.yul\":15402:15405   */\n      dup4\n        /* \"#utility.yul\":15343:15410   */\n      tag_136\n      jump\t// in\n    tag_337:\n        /* \"#utility.yul\":15336:15410   */\n      swap2\n      pop\n        /* \"#utility.yul\":15419:15512   */\n      tag_338\n        /* \"#utility.yul\":15508:15511   */\n      dup3\n        /* \"#utility.yul\":15419:15512   */\n      tag_166\n      jump\t// in\n    tag_338:\n        /* \"#utility.yul\":15537:15539   */\n      0x20\n        /* \"#utility.yul\":15532:15535   */\n      dup3\n        /* \"#utility.yul\":15528:15540   */\n      add\n        /* \"#utility.yul\":15521:15540   */\n      swap1\n      pop\n        /* \"#utility.yul\":15180:15546   */\n      swap2\n      swap1\n      pop\n      jump\t// out\n        /* \"#utility.yul\":15552:15971   */\n    tag_68:\n        /* \"#utility.yul\":15718:15722   */\n      0x00\n        /* \"#utility.yul\":15756:15758   */\n      0x20\n        /* \"#utility.yul\":15745:15754   */\n      dup3\n        /* \"#utility.yul\":15741:15759   */\n      add\n        /* \"#utility.yul\":15733:15759   */\n      swap1\n      pop\n        /* \"#utility.yul\":15805:15814   */\n      dup2\n        /* \"#utility.yul\":15799:15803   */\n      dup2\n        /* \"#utility.yul\":15795:15815   */\n      sub\n        /* \"#utility.yul\":15791:15792   */\n      0x00\n        /* \"#utility.yul\":15780:15789   */\n      dup4\n        /* \"#utility.yul\":15776:15793   */\n      add\n        /* \"#utility.yul\":15769:15816   */\n      mstore\n        /* \"#utility.yul\":15833:15964   */\n      tag_340\n        /* \"#utility.yul\":15959:15963   */\n      dup2\n        /* \"#utility.yul\":15833:15964   */\n      tag_167\n      jump\t// in\n    tag_340:\n        /* \"#utility.yul\":15825:15964   */\n      swap1\n      pop\n        /* \"#utility.yul\":15552:15971   */\n      swap2\n      swap1\n      pop\n      jump\t// out\n        /* \"#utility.yul\":15977:16149   */\n    tag_168:\n        /* \"#utility.yul\":16117:16141   */\n      0x7477656574206c696b65206973207a65726f2e2e2e2100000000000000000000\n        /* \"#utility.yul\":16113:16114   */\n      0x00\n        /* \"#utility.yul\":16105:16111   */\n      dup3\n        /* \"#utility.yul\":16101:16115   */\n      add\n        /* \"#utility.yul\":16094:16142   */\n      mstore\n        /* \"#utility.yul\":15977:16149   */\n      pop\n      jump\t// out\n        /* \"#utility.yul\":16155:16521   */\n    tag_169:\n        /* \"#utility.yul\":16297:16300   */\n      0x00\n        /* \"#utility.yul\":16318:16385   */\n      tag_343\n        /* \"#utility.yul\":16382:16384   */\n      0x16\n        /* \"#utility.yul\":16377:16380   */\n      dup4\n        /* \"#utility.yul\":16318:16385   */\n      tag_136\n      jump\t// in\n    tag_343:\n        /* \"#utility.yul\":16311:16385   */\n      swap2\n      pop\n        /* \"#utility.yul\":16394:16487   */\n      tag_344\n        /* \"#utility.yul\":16483:16486   */\n      dup3\n        /* \"#utility.yul\":16394:16487   */\n      tag_168\n      jump\t// in\n    tag_344:\n        /* \"#utility.yul\":16512:16514   */\n      0x20\n        /* \"#utility.yul\":16507:16510   */\n      dup3\n        /* \"#utility.yul\":16503:16515   */\n      add\n        /* \"#utility.yul\":16496:16515   */\n      swap1\n      pop\n        /* \"#utility.yul\":16155:16521   */\n      swap2\n      swap1\n      pop\n      jump\t// out\n        /* \"#utility.yul\":16527:16946   */\n    tag_74:\n        /* \"#utility.yul\":16693:16697   */\n      0x00\n        /* \"#utility.yul\":16731:16733   */\n      0x20\n        /* \"#utility.yul\":16720:16729   */\n      dup3\n        /* \"#utility.yul\":16716:16734   */\n      add\n        /* \"#utility.yul\":16708:16734   */\n      swap1\n      pop\n        /* \"#utility.yul\":16780:16789   */\n      dup2\n        /* \"#utility.yul\":16774:16778   */\n      dup2\n        /* \"#utility.yul\":16770:16790   */\n      sub\n        /* \"#utility.yul\":16766:16767   */\n      0x00\n        /* \"#utility.yul\":16755:16764   */\n      dup4\n        /* \"#utility.yul\":16751:16768   */\n      add\n        /* \"#utility.yul\":16744:16791   */\n      mstore\n        /* \"#utility.yul\":16808:16939   */\n      tag_346\n        /* \"#utility.yul\":16934:16938   */\n      dup2\n        /* \"#utility.yul\":16808:16939   */\n      tag_169\n      jump\t// in\n    tag_346:\n        /* \"#utility.yul\":16800:16939   */\n      swap1\n      pop\n        /* \"#utility.yul\":16527:16946   */\n      swap2\n      swap1\n      pop\n      jump\t// out\n        /* \"#utility.yul\":16952:17132   */\n    tag_170:\n        /* \"#utility.yul\":17000:17077   */\n      0x4e487b7100000000000000000000000000000000000000000000000000000000\n        /* \"#utility.yul\":16997:16998   */\n      0x00\n        /* \"#utility.yul\":16990:17078   */\n      mstore\n        /* \"#utility.yul\":17097:17101   */\n      0x11\n        /* \"#utility.yul\":17094:17095   */\n      0x04\n        /* \"#utility.yul\":17087:17102   */\n      mstore\n        /* \"#utility.yul\":17121:17125   */\n      0x24\n        /* \"#utility.yul\":17118:17119   */\n      0x00\n        /* \"#utility.yul\":17111:17126   */\n      revert\n        /* \"#utility.yul\":17138:17309   */\n    tag_79:\n        /* \"#utility.yul\":17177:17180   */\n      0x00\n        /* \"#utility.yul\":17200:17224   */\n      tag_349\n        /* \"#utility.yul\":17218:17223   */\n      dup3\n        /* \"#utility.yul\":17200:17224   */\n      tag_130\n      jump\t// in\n    tag_349:\n        /* \"#utility.yul\":17191:17224   */\n      swap2\n      pop\n        /* \"#utility.yul\":17246:17250   */\n      0x00\n        /* \"#utility.yul\":17239:17244   */\n      dup3\n        /* \"#utility.yul\":17236:17251   */\n      sub\n        /* \"#utility.yul\":17233:17274   */\n      tag_350\n      jumpi\n        /* \"#utility.yul\":17254:17272   */\n      tag_351\n      tag_170\n      jump\t// in\n    tag_351:\n        /* \"#utility.yul\":17233:17274   */\n    tag_350:\n        /* \"#utility.yul\":17301:17302   */\n      0x01\n        /* \"#utility.yul\":17294:17299   */\n      dup3\n        /* \"#utility.yul\":17290:17303   */\n      sub\n        /* \"#utility.yul\":17283:17303   */\n      swap1\n      pop\n        /* \"#utility.yul\":17138:17309   */\n      swap2\n      swap1\n      pop\n      jump\t// out\n        /* \"#utility.yul\":17315:17548   */\n    tag_101:\n        /* \"#utility.yul\":17354:17357   */\n      0x00\n        /* \"#utility.yul\":17377:17401   */\n      tag_353\n        /* \"#utility.yul\":17395:17400   */\n      dup3\n        /* \"#utility.yul\":17377:17401   */\n      tag_130\n      jump\t// in\n    tag_353:\n        /* \"#utility.yul\":17368:17401   */\n      swap2\n      pop\n        /* \"#utility.yul\":17423:17489   */\n      0xffffffffffffffffffffffffffffffffffffffffffffffffffffffffffffffff\n        /* \"#utility.yul\":17416:17421   */\n      dup3\n        /* \"#utility.yul\":17413:17490   */\n      sub\n        /* \"#utility.yul\":17410:17513   */\n      tag_354\n      jumpi\n        /* \"#utility.yul\":17493:17511   */\n      tag_355\n      tag_170\n      jump\t// in\n    tag_355:\n        /* \"#utility.yul\":17410:17513   */\n    tag_354:\n        /* \"#utility.yul\":17540:17541   */\n      0x01\n        /* \"#utility.yul\":17533:17538   */\n      dup3\n        /* \"#utility.yul\":17529:17542   */\n      add\n        /* \"#utility.yul\":17522:17542   */\n      swap1\n      pop\n        /* \"#utility.yul\":17315:17548   */\n      swap2\n      swap1\n      pop\n      jump\t// out\n        /* \"#utility.yul\":17554:17727   */\n    tag_171:\n        /* \"#utility.yul\":17694:17719   */\n      0x747765657420697320746f206c65616e6774682e2e2e21000000000000000000\n        /* \"#utility.yul\":17690:17691   */\n      0x00\n        /* \"#utility.yul\":17682:17688   */\n      dup3\n        /* \"#utility.yul\":17678:17692   */\n      add\n        /* \"#utility.yul\":17671:17720   */\n      mstore\n        /* \"#utility.yul\":17554:17727   */\n      pop\n      jump\t// out\n        /* \"#utility.yul\":17733:18099   */\n    tag_172:\n        /* \"#utility.yul\":17875:17878   */\n      0x00\n        /* \"#utility.yul\":17896:17963   */\n      tag_358\n        /* \"#utility.yul\":17960:17962   */\n      0x17\n        /* \"#utility.yul\":17955:17958   */\n      dup4\n        /* \"#utility.yul\":17896:17963   */\n      tag_136\n      jump\t// in\n    tag_358:\n        /* \"#utility.yul\":17889:17963   */\n      swap2\n      pop\n        /* \"#utility.yul\":17972:18065   */\n      tag_359\n        /* \"#utility.yul\":18061:18064   */\n      dup3\n        /* \"#utility.yul\":17972:18065   */\n      tag_171\n      jump\t// in\n    tag_359:\n        /* \"#utility.yul\":18090:18092   */\n      0x20\n        /* \"#utility.yul\":18085:18088   */\n      dup3\n        /* \"#utility.yul\":18081:18093   */\n      add\n        /* \"#utility.yul\":18074:18093   */\n      swap1\n      pop\n        /* \"#utility.yul\":17733:18099   */\n      swap2\n      swap1\n      pop\n      jump\t// out\n        /* \"#utility.yul\":18105:18524   */\n    tag_105:\n        /* \"#utility.yul\":18271:18275   */\n      0x00\n        /* \"#utility.yul\":18309:18311   */\n      0x20\n        /* \"#utility.yul\":18298:18307   */\n      dup3\n        /* \"#utility.yul\":18294:18312   */\n      add\n        /* \"#utility.yul\":18286:18312   */\n      swap1\n      pop\n        /* \"#utility.yul\":18358:18367   */\n      dup2\n        /* \"#utility.yul\":18352:18356   */\n      dup2\n        /* \"#utility.yul\":18348:18368   */\n      sub\n        /* \"#utility.yul\":18344:18345   */\n      0x00\n        /* \"#utility.yul\":18333:18342   */\n      dup4\n        /* \"#utility.yul\":18329:18346   */\n      add\n        /* \"#utility.yul\":18322:18369   */\n      mstore\n        /* \"#utility.yul\":18386:18517   */\n      tag_361\n        /* \"#utility.yul\":18512:18516   */\n      dup2\n        /* \"#utility.yul\":18386:18517   */\n      tag_172\n      jump\t// in\n    tag_361:\n        /* \"#utility.yul\":18378:18517   */\n      swap1\n      pop\n        /* \"#utility.yul\":18105:18524   */\n      swap2\n      swap1\n      pop\n      jump\t// out\n        /* \"#utility.yul\":18530:18671   */\n    tag_173:\n        /* \"#utility.yul\":18579:18583   */\n      0x00\n        /* \"#utility.yul\":18602:18605   */\n      dup2\n        /* \"#utility.yul\":18594:18605   */\n      swap1\n      pop\n        /* \"#utility.yul\":18625:18628   */\n      dup2\n        /* \"#utility.yul\":18622:18623   */\n      0x00\n        /* \"#utility.yul\":18615:18629   */\n      mstore\n        /* \"#utility.yul\":18659:18663   */\n      0x20\n        /* \"#utility.yul\":18656:18657   */\n      0x00\n        /* \"#utility.yul\":18646:18664   */\n      keccak256\n        /* \"#utility.yul\":18638:18664   */\n      swap1\n      pop\n        /* \"#utility.yul\":18530:18671   */\n      swap2\n      swap1\n      pop\n      jump\t// out\n        /* \"#utility.yul\":18677:18770   */\n    tag_174:\n        /* \"#utility.yul\":18714:18720   */\n      0x00\n        /* \"#utility.yul\":18761:18763   */\n      0x20\n        /* \"#utility.yul\":18756:18758   */\n      0x1f\n        /* \"#utility.yul\":18749:18754   */\n      dup4\n        /* \"#utility.yul\":18745:18759   */\n      add\n        /* \"#utility.yul\":18741:18764   */\n      div\n        /* \"#utility.yul\":18731:18764   */\n      swap1\n      pop\n        /* \"#utility.yul\":18677:18770   */\n      swap2\n      swap1\n      pop\n      jump\t// out\n        /* \"#utility.yul\":18776:18883   */\n    tag_175:\n        /* \"#utility.yul\":18820:18828   */\n      0x00\n        /* \"#utility.yul\":18870:18875   */\n      dup3\n        /* \"#utility.yul\":18864:18868   */\n      dup3\n        /* \"#utility.yul\":18860:18876   */\n      shl\n        /* \"#utility.yul\":18839:18876   */\n      swap1\n      pop\n        /* \"#utility.yul\":18776:18883   */\n      swap3\n      swap2\n      pop\n      pop\n      jump\t// out\n        /* \"#utility.yul\":18889:19282   */\n    tag_176:\n        /* \"#utility.yul\":18958:18964   */\n      0x00\n        /* \"#utility.yul\":19008:19009   */\n      0x08\n        /* \"#utility.yul\":18996:19006   */\n      dup4\n        /* \"#utility.yul\":18992:19010   */\n      mul\n        /* \"#utility.yul\":19031:19128   */\n      tag_366\n        /* \"#utility.yul\":19061:19127   */\n      0xffffffffffffffffffffffffffffffffffffffffffffffffffffffffffffffff\n        /* \"#utility.yul\":19050:19059   */\n      dup3\n        /* \"#utility.yul\":19031:19128   */\n      tag_175\n      jump\t// in\n    tag_366:\n        /* \"#utility.yul\":19149:19188   */\n      tag_367\n        /* \"#utility.yul\":19179:19187   */\n      dup7\n        /* \"#utility.yul\":19168:19177   */\n      dup4\n        /* \"#utility.yul\":19149:19188   */\n      tag_175\n      jump\t// in\n    tag_367:\n        /* \"#utility.yul\":19137:19188   */\n      swap6\n      pop\n        /* \"#utility.yul\":19221:19225   */\n      dup1\n        /* \"#utility.yul\":19217:19226   */\n      not\n        /* \"#utility.yul\":19210:19215   */\n      dup5\n        /* \"#utility.yul\":19206:19227   */\n      and\n        /* \"#utility.yul\":19197:19227   */\n      swap4\n      pop\n        /* \"#utility.yul\":19270:19274   */\n      dup1\n        /* \"#utility.yul\":19260:19268   */\n      dup7\n        /* \"#utility.yul\":19256:19275   */\n      and\n        /* \"#utility.yul\":19249:19254   */\n      dup5\n        /* \"#utility.yul\":19246:19276   */\n      or\n        /* \"#utility.yul\":19236:19276   */\n      swap3\n      pop\n        /* \"#utility.yul\":18965:19282   */\n      pop\n      pop\n        /* \"#utility.yul\":18889:19282   */\n      swap4\n      swap3\n      pop\n      pop\n      pop\n      jump\t// out\n        /* \"#utility.yul\":19288:19348   */\n    tag_177:\n        /* \"#utility.yul\":19316:19319   */\n      0x00\n        /* \"#utility.yul\":19337:19342   */\n      dup2\n        /* \"#utility.yul\":19330:19342   */\n      swap1\n      pop\n        /* \"#utility.yul\":19288:19348   */\n      swap2\n      swap1\n      pop\n      jump\t// out\n        /* \"#utility.yul\":19354:19496   */\n    tag_178:\n        /* \"#utility.yul\":19404:19413   */\n      0x00\n        /* \"#utility.yul\":19437:19490   */\n      tag_370\n        /* \"#utility.yul\":19455:19489   */\n      tag_371\n        /* \"#utility.yul\":19464:19488   */\n      tag_372\n        /* \"#utility.yul\":19482:19487   */\n      dup5\n        /* \"#utility.yul\":19464:19488   */\n      tag_130\n      jump\t// in\n    tag_372:\n        /* \"#utility.yul\":19455:19489   */\n      tag_177\n      jump\t// in\n    tag_371:\n        /* \"#utility.yul\":19437:19490   */\n      tag_130\n      jump\t// in\n    tag_370:\n        /* \"#utility.yul\":19424:19490   */\n      swap1\n      pop\n        /* \"#utility.yul\":19354:19496   */\n      swap2\n      swap1\n      pop\n      jump\t// out\n        /* \"#utility.yul\":19502:19577   */\n    tag_179:\n        /* \"#utility.yul\":19545:19548   */\n      0x00\n        /* \"#utility.yul\":19566:19571   */\n      dup2\n        /* \"#utility.yul\":19559:19571   */\n      swap1\n      pop\n        /* \"#utility.yul\":19502:19577   */\n      swap2\n      swap1\n      pop\n      jump\t// out\n        /* \"#utility.yul\":19583:19852   */\n    tag_180:\n        /* \"#utility.yul\":19693:19732   */\n      tag_375\n        /* \"#utility.yul\":19724:19731   */\n      dup4\n        /* \"#utility.yul\":19693:19732   */\n      tag_178\n      jump\t// in\n    tag_375:\n        /* \"#utility.yul\":19754:19845   */\n      tag_376\n        /* \"#utility.yul\":19803:19844   */\n      tag_377\n        /* \"#utility.yul\":19827:19843   */\n      dup3\n        /* \"#utility.yul\":19803:19844   */\n      tag_179\n      jump\t// in\n    tag_377:\n        /* \"#utility.yul\":19795:19801   */\n      dup5\n        /* \"#utility.yul\":19788:19792   */\n      dup5\n        /* \"#utility.yul\":19782:19793   */\n      sload\n        /* \"#utility.yul\":19754:19845   */\n      tag_176\n      jump\t// in\n    tag_376:\n        /* \"#utility.yul\":19748:19752   */\n      dup3\n        /* \"#utility.yul\":19741:19846   */\n      sstore\n        /* \"#utility.yul\":19659:19852   */\n      pop\n        /* \"#utility.yul\":19583:19852   */\n      pop\n      pop\n      pop\n      jump\t// out\n        /* \"#utility.yul\":19858:19931   */\n    tag_181:\n        /* \"#utility.yul\":19903:19906   */\n      0x00\n        /* \"#utility.yul\":19858:19931   */\n      swap1\n      jump\t// out\n        /* \"#utility.yul\":19937:20126   */\n    tag_182:\n        /* \"#utility.yul\":20014:20046   */\n      tag_380\n      tag_181\n      jump\t// in\n    tag_380:\n        /* \"#utility.yul\":20055:20120   */\n      tag_381\n        /* \"#utility.yul\":20113:20119   */\n      dup2\n        /* \"#utility.yul\":20105:20111   */\n      dup5\n        /* \"#utility.yul\":20099:20103   */\n      dup5\n        /* \"#utility.yul\":20055:20120   */\n      tag_180\n      jump\t// in\n    tag_381:\n        /* \"#utility.yul\":19990:20126   */\n      pop\n        /* \"#utility.yul\":19937:20126   */\n      pop\n      pop\n      jump\t// out\n        /* \"#utility.yul\":20132:20318   */\n    tag_183:\n        /* \"#utility.yul\":20192:20312   */\n    tag_383:\n        /* \"#utility.yul\":20209:20212   */\n      dup2\n        /* \"#utility.yul\":20202:20207   */\n      dup2\n        /* \"#utility.yul\":20199:20213   */\n      lt\n        /* \"#utility.yul\":20192:20312   */\n      iszero\n      tag_385\n      jumpi\n        /* \"#utility.yul\":20263:20302   */\n      tag_386\n        /* \"#utility.yul\":20300:20301   */\n      0x00\n        /* \"#utility.yul\":20293:20298   */\n      dup3\n        /* \"#utility.yul\":20263:20302   */\n      tag_182\n      jump\t// in\n    tag_386:\n        /* \"#utility.yul\":20236:20237   */\n      0x01\n        /* \"#utility.yul\":20229:20234   */\n      dup2\n        /* \"#utility.yul\":20225:20238   */\n      add\n        /* \"#utility.yul\":20216:20238   */\n      swap1\n      pop\n        /* \"#utility.yul\":20192:20312   */\n      jump(tag_383)\n    tag_385:\n        /* \"#utility.yul\":20132:20318   */\n      pop\n      pop\n      jump\t// out\n        /* \"#utility.yul\":20324:20867   */\n    tag_184:\n        /* \"#utility.yul\":20425:20427   */\n      0x1f\n        /* \"#utility.yul\":20420:20423   */\n      dup3\n        /* \"#utility.yul\":20417:20428   */\n      gt\n        /* \"#utility.yul\":20414:20860   */\n      iszero\n      tag_388\n      jumpi\n        /* \"#utility.yul\":20459:20497   */\n      tag_389\n        /* \"#utility.yul\":20491:20496   */\n      dup2\n        /* \"#utility.yul\":20459:20497   */\n      tag_173\n      jump\t// in\n    tag_389:\n        /* \"#utility.yul\":20543:20572   */\n      tag_390\n        /* \"#utility.yul\":20561:20571   */\n      dup5\n        /* \"#utility.yul\":20543:20572   */\n      tag_174\n      jump\t// in\n    tag_390:\n        /* \"#utility.yul\":20533:20541   */\n      dup2\n        /* \"#utility.yul\":20529:20573   */\n      add\n        /* \"#utility.yul\":20726:20728   */\n      0x20\n        /* \"#utility.yul\":20714:20724   */\n      dup6\n        /* \"#utility.yul\":20711:20729   */\n      lt\n        /* \"#utility.yul\":20708:20757   */\n      iszero\n      tag_391\n      jumpi\n        /* \"#utility.yul\":20747:20755   */\n      dup2\n        /* \"#utility.yul\":20732:20755   */\n      swap1\n      pop\n        /* \"#utility.yul\":20708:20757   */\n    tag_391:\n        /* \"#utility.yul\":20770:20850   */\n      tag_392\n        /* \"#utility.yul\":20826:20848   */\n      tag_393\n        /* \"#utility.yul\":20844:20847   */\n      dup6\n        /* \"#utility.yul\":20826:20848   */\n      tag_174\n      jump\t// in\n    tag_393:\n        /* \"#utility.yul\":20816:20824   */\n      dup4\n        /* \"#utility.yul\":20812:20849   */\n      add\n        /* \"#utility.yul\":20799:20810   */\n      dup3\n        /* \"#utility.yul\":20770:20850   */\n      tag_183\n      jump\t// in\n    tag_392:\n        /* \"#utility.yul\":20429:20860   */\n      pop\n      pop\n        /* \"#utility.yul\":20414:20860   */\n    tag_388:\n        /* \"#utility.yul\":20324:20867   */\n      pop\n      pop\n      pop\n      jump\t// out\n        /* \"#utility.yul\":20873:20990   */\n    tag_185:\n        /* \"#utility.yul\":20927:20935   */\n      0x00\n        /* \"#utility.yul\":20977:20982   */\n      dup3\n        /* \"#utility.yul\":20971:20975   */\n      dup3\n        /* \"#utility.yul\":20967:20983   */\n      shr\n        /* \"#utility.yul\":20946:20983   */\n      swap1\n      pop\n        /* \"#utility.yul\":20873:20990   */\n      swap3\n      swap2\n      pop\n      pop\n      jump\t// out\n        /* \"#utility.yul\":20996:21165   */\n    tag_186:\n        /* \"#utility.yul\":21040:21046   */\n      0x00\n        /* \"#utility.yul\":21073:21124   */\n      tag_396\n        /* \"#utility.yul\":21121:21122   */\n      0x00\n        /* \"#utility.yul\":21117:21123   */\n      not\n        /* \"#utility.yul\":21109:21114   */\n      dup5\n        /* \"#utility.yul\":21106:21107   */\n      0x08\n        /* \"#utility.yul\":21102:21115   */\n      mul\n        /* \"#utility.yul\":21073:21124   */\n      tag_185\n      jump\t// in\n    tag_396:\n        /* \"#utility.yul\":21069:21125   */\n      not\n        /* \"#utility.yul\":21154:21158   */\n      dup1\n        /* \"#utility.yul\":21148:21152   */\n      dup4\n        /* \"#utility.yul\":21144:21159   */\n      and\n        /* \"#utility.yul\":21134:21159   */\n      swap2\n      pop\n        /* \"#utility.yul\":21047:21165   */\n      pop\n        /* \"#utility.yul\":20996:21165   */\n      swap3\n      swap2\n      pop\n      pop\n      jump\t// out\n        /* \"#utility.yul\":21170:21465   */\n    tag_187:\n        /* \"#utility.yul\":21246:21250   */\n      0x00\n        /* \"#utility.yul\":21392:21421   */\n      tag_398\n        /* \"#utility.yul\":21417:21420   */\n      dup4\n        /* \"#utility.yul\":21411:21415   */\n      dup4\n        /* \"#utility.yul\":21392:21421   */\n      tag_186\n      jump\t// in\n    tag_398:\n        /* \"#utility.yul\":21384:21421   */\n      swap2\n      pop\n        /* \"#utility.yul\":21454:21457   */\n      dup3\n        /* \"#utility.yul\":21451:21452   */\n      0x02\n        /* \"#utility.yul\":21447:21458   */\n      mul\n        /* \"#utility.yul\":21441:21445   */\n      dup3\n        /* \"#utility.yul\":21438:21459   */\n      or\n        /* \"#utility.yul\":21430:21459   */\n      swap1\n      pop\n        /* \"#utility.yul\":21170:21465   */\n      swap3\n      swap2\n      pop\n      pop\n      jump\t// out\n        /* \"#utility.yul\":21470:22865   */\n    tag_108:\n        /* \"#utility.yul\":21587:21624   */\n      tag_400\n        /* \"#utility.yul\":21620:21623   */\n      dup3\n        /* \"#utility.yul\":21587:21624   */\n      tag_135\n      jump\t// in\n    tag_400:\n        /* \"#utility.yul\":21689:21707   */\n      0xffffffffffffffff\n        /* \"#utility.yul\":21681:21687   */\n      dup2\n        /* \"#utility.yul\":21678:21708   */\n      gt\n        /* \"#utility.yul\":21675:21731   */\n      iszero\n      tag_401\n      jumpi\n        /* \"#utility.yul\":21711:21729   */\n      tag_402\n      tag_149\n      jump\t// in\n    tag_402:\n        /* \"#utility.yul\":21675:21731   */\n    tag_401:\n        /* \"#utility.yul\":21755:21793   */\n      tag_403\n        /* \"#utility.yul\":21787:21791   */\n      dup3\n        /* \"#utility.yul\":21781:21792   */\n      sload\n        /* \"#utility.yul\":21755:21793   */\n      tag_56\n      jump\t// in\n    tag_403:\n        /* \"#utility.yul\":21840:21907   */\n      tag_404\n        /* \"#utility.yul\":21900:21906   */\n      dup3\n        /* \"#utility.yul\":21892:21898   */\n      dup3\n        /* \"#utility.yul\":21886:21890   */\n      dup6\n        /* \"#utility.yul\":21840:21907   */\n      tag_184\n      jump\t// in\n    tag_404:\n        /* \"#utility.yul\":21934:21935   */\n      0x00\n        /* \"#utility.yul\":21958:21962   */\n      0x20\n        /* \"#utility.yul\":21945:21962   */\n      swap1\n      pop\n        /* \"#utility.yul\":21990:21992   */\n      0x1f\n        /* \"#utility.yul\":21982:21988   */\n      dup4\n        /* \"#utility.yul\":21979:21993   */\n      gt\n        /* \"#utility.yul\":22007:22008   */\n      0x01\n        /* \"#utility.yul\":22002:22620   */\n      dup2\n      eq\n      tag_406\n      jumpi\n        /* \"#utility.yul\":22664:22665   */\n      0x00\n        /* \"#utility.yul\":22681:22687   */\n      dup5\n        /* \"#utility.yul\":22678:22755   */\n      iszero\n      tag_407\n      jumpi\n        /* \"#utility.yul\":22730:22739   */\n      dup3\n        /* \"#utility.yul\":22725:22728   */\n      dup8\n        /* \"#utility.yul\":22721:22740   */\n      add\n        /* \"#utility.yul\":22715:22741   */\n      mload\n        /* \"#utility.yul\":22706:22741   */\n      swap1\n      pop\n        /* \"#utility.yul\":22678:22755   */\n    tag_407:\n        /* \"#utility.yul\":22781:22848   */\n      tag_408\n        /* \"#utility.yul\":22841:22847   */\n      dup6\n        /* \"#utility.yul\":22834:22839   */\n      dup3\n        /* \"#utility.yul\":22781:22848   */\n      tag_187\n      jump\t// in\n    tag_408:\n        /* \"#utility.yul\":22775:22779   */\n      dup7\n        /* \"#utility.yul\":22768:22849   */\n      sstore\n        /* \"#utility.yul\":22637:22859   */\n      pop\n        /* \"#utility.yul\":21972:22859   */\n      jump(tag_405)\n        /* \"#utility.yul\":22002:22620   */\n    tag_406:\n        /* \"#utility.yul\":22054:22058   */\n      0x1f\n        /* \"#utility.yul\":22050:22059   */\n      not\n        /* \"#utility.yul\":22042:22048   */\n      dup5\n        /* \"#utility.yul\":22038:22060   */\n      and\n        /* \"#utility.yul\":22088:22125   */\n      tag_409\n        /* \"#utility.yul\":22120:22124   */\n      dup7\n        /* \"#utility.yul\":22088:22125   */\n      tag_173\n      jump\t// in\n    tag_409:\n        /* \"#utility.yul\":22147:22148   */\n      0x00\n        /* \"#utility.yul\":22161:22369   */\n    tag_410:\n        /* \"#utility.yul\":22175:22182   */\n      dup3\n        /* \"#utility.yul\":22172:22173   */\n      dup2\n        /* \"#utility.yul\":22169:22183   */\n      lt\n        /* \"#utility.yul\":22161:22369   */\n      iszero\n      tag_412\n      jumpi\n        /* \"#utility.yul\":22254:22263   */\n      dup5\n        /* \"#utility.yul\":22249:22252   */\n      dup10\n        /* \"#utility.yul\":22245:22264   */\n      add\n        /* \"#utility.yul\":22239:22265   */\n      mload\n        /* \"#utility.yul\":22231:22237   */\n      dup3\n        /* \"#utility.yul\":22224:22266   */\n      sstore\n        /* \"#utility.yul\":22305:22306   */\n      0x01\n        /* \"#utility.yul\":22297:22303   */\n      dup3\n        /* \"#utility.yul\":22293:22307   */\n      add\n        /* \"#utility.yul\":22283:22307   */\n      swap2\n      pop\n        /* \"#utility.yul\":22352:22354   */\n      0x20\n        /* \"#utility.yul\":22341:22350   */\n      dup6\n        /* \"#utility.yul\":22337:22355   */\n      add\n        /* \"#utility.yul\":22324:22355   */\n      swap5\n      pop\n        /* \"#utility.yul\":22198:22202   */\n      0x20\n        /* \"#utility.yul\":22195:22196   */\n      dup2\n        /* \"#utility.yul\":22191:22203   */\n      add\n        /* \"#utility.yul\":22186:22203   */\n      swap1\n      pop\n        /* \"#utility.yul\":22161:22369   */\n      jump(tag_410)\n    tag_412:\n        /* \"#utility.yul\":22397:22403   */\n      dup7\n        /* \"#utility.yul\":22388:22395   */\n      dup4\n        /* \"#utility.yul\":22385:22404   */\n      lt\n        /* \"#utility.yul\":22382:22561   */\n      iszero\n      tag_413\n      jumpi\n        /* \"#utility.yul\":22455:22464   */\n      dup5\n        /* \"#utility.yul\":22450:22453   */\n      dup10\n        /* \"#utility.yul\":22446:22465   */\n      add\n        /* \"#utility.yul\":22440:22466   */\n      mload\n        /* \"#utility.yul\":22498:22546   */\n      tag_414\n        /* \"#utility.yul\":22540:22544   */\n      0x1f\n        /* \"#utility.yul\":22532:22538   */\n      dup10\n        /* \"#utility.yul\":22528:22545   */\n      and\n        /* \"#utility.yul\":22517:22526   */\n      dup3\n        /* \"#utility.yul\":22498:22546   */\n      tag_186\n      jump\t// in\n    tag_414:\n        /* \"#utility.yul\":22490:22496   */\n      dup4\n        /* \"#utility.yul\":22483:22547   */\n      sstore\n        /* \"#utility.yul\":22405:22561   */\n      pop\n        /* \"#utility.yul\":22382:22561   */\n    tag_413:\n        /* \"#utility.yul\":22607:22608   */\n      0x01\n        /* \"#utility.yul\":22603:22604   */\n      0x02\n        /* \"#utility.yul\":22595:22601   */\n      dup9\n        /* \"#utility.yul\":22591:22605   */\n      mul\n        /* \"#utility.yul\":22587:22609   */\n      add\n        /* \"#utility.yul\":22581:22585   */\n      dup9\n        /* \"#utility.yul\":22574:22610   */\n      sstore\n        /* \"#utility.yul\":22009:22620   */\n      pop\n      pop\n      pop\n        /* \"#utility.yul\":21972:22859   */\n    tag_405:\n      pop\n        /* \"#utility.yul\":21562:22865   */\n      pop\n      pop\n      pop\n        /* \"#utility.yul\":21470:22865   */\n      pop\n      pop\n      jump\t// out\n        /* \"#utility.yul\":22871:23044   */\n    tag_188:\n        /* \"#utility.yul\":23011:23036   */\n      0x594f5552204e4f5420544845204f574e45522e2e2e2e21000000000000000000\n        /* \"#utility.yul\":23007:23008   */\n      0x00\n        /* \"#utility.yul\":22999:23005   */\n      dup3\n        /* \"#utility.yul\":22995:23009   */\n      add\n        /* \"#utility.yul\":22988:23037   */\n      mstore\n        /* \"#utility.yul\":22871:23044   */\n      pop\n      jump\t// out\n        /* \"#utility.yul\":23050:23416   */\n    tag_189:\n        /* \"#utility.yul\":23192:23195   */\n      0x00\n        /* \"#utility.yul\":23213:23280   */\n      tag_417\n        /* \"#utility.yul\":23277:23279   */\n      0x17\n        /* \"#utility.yul\":23272:23275   */\n      dup4\n        /* \"#utility.yul\":23213:23280   */\n      tag_136\n      jump\t// in\n    tag_417:\n        /* \"#utility.yul\":23206:23280   */\n      swap2\n      pop\n        /* \"#utility.yul\":23289:23382   */\n      tag_418\n        /* \"#utility.yul\":23378:23381   */\n      dup3\n        /* \"#utility.yul\":23289:23382   */\n      tag_188\n      jump\t// in\n    tag_418:\n        /* \"#utility.yul\":23407:23409   */\n      0x20\n        /* \"#utility.yul\":23402:23405   */\n      dup3\n        /* \"#utility.yul\":23398:23410   */\n      add\n        /* \"#utility.yul\":23391:23410   */\n      swap1\n      pop\n        /* \"#utility.yul\":23050:23416   */\n      swap2\n      swap1\n      pop\n      jump\t// out\n        /* \"#utility.yul\":23422:23841   */\n    tag_121:\n        /* \"#utility.yul\":23588:23592   */\n      0x00\n        /* \"#utility.yul\":23626:23628   */\n      0x20\n        /* \"#utility.yul\":23615:23624   */\n      dup3\n        /* \"#utility.yul\":23611:23629   */\n      add\n        /* \"#utility.yul\":23603:23629   */\n      swap1\n      pop\n        /* \"#utility.yul\":23675:23684   */\n      dup2\n        /* \"#utility.yul\":23669:23673   */\n      dup2\n        /* \"#utility.yul\":23665:23685   */\n      sub\n        /* \"#utility.yul\":23661:23662   */\n      0x00\n        /* \"#utility.yul\":23650:23659   */\n      dup4\n        /* \"#utility.yul\":23646:23663   */\n      add\n        /* \"#utility.yul\":23639:23686   */\n      mstore\n        /* \"#utility.yul\":23703:23834   */\n      tag_420\n        /* \"#utility.yul\":23829:23833   */\n      dup2\n        /* \"#utility.yul\":23703:23834   */\n      tag_189\n      jump\t// in\n    tag_420:\n        /* \"#utility.yul\":23695:23834   */\n      swap1\n      pop\n        /* \"#utility.yul\":23422:23841   */\n      swap2\n      swap1\n      pop\n      jump\t// out\n\n    auxdata: 0xa26469706673582212202667786cd7b6d48ba6cc6eda6fe59fe292c7b3812025f82c729ce5fb7982deeb64736f6c634300081a0033\n}\n",
				"bytecode": {
					"linkReferences": {},
					"object": "608060405260645f806101000a81548161ffff021916908361ffff160217905550348015602a575f80fd5b503360025f6101000a81548173ffffffffffffffffffffffffffffffffffffffff021916908373ffffffffffffffffffffffffffffffffffffffff16021790555061176f806100785f395ff3fe608060405234801561000f575f80fd5b5060043610610091575f3560e01c8063633782161161006457806363378216146101335780637c9cd2bc1461014f5780638da5cb5b1461016b578063b64988b814610189578063bf8ba78b146101b957610091565b806305a1b4a9146100955780633d9b569f146100c9578063425812ce146100e55780634e46b4e514610103575b5f80fd5b6100af60048036038101906100aa9190610c1e565b6101d5565b6040516100c0959493929190610cea565b60405180910390f35b6100e360048036038101906100de9190610c1e565b6102c6565b005b6100ed61047c565b6040516100fa9190610d5e565b60405180910390f35b61011d60048036038101906101189190610d77565b61048d565b60405161012a9190610e8e565b60405180910390f35b61014d60048036038101906101489190610c1e565b610605565b005b61016960048036038101906101649190610fda565b61071b565b005b6101736108d2565b6040516101809190611021565b60405180910390f35b6101a3600480360381019061019e919061103a565b6108f7565b6040516101b09190611193565b60405180910390f35b6101d360048036038101906101ce91906111dd565b610a92565b005b6001602052815f5260405f2081815481106101ee575f80fd5b905f5260205f2090600502015f9150915050805f015490806001015f9054906101000a900473ffffffffffffffffffffffffffffffffffffffff169080600201805461023990611235565b80601f016020809104026020016040519081016040528092919081815260200182805461026590611235565b80156102b05780601f10610287576101008083540402835291602001916102b0565b820191905f5260205f20905b81548152906001019060200180831161029357829003601f168201915b5050505050908060030154908060040154905085565b8060015f8473ffffffffffffffffffffffffffffffffffffffff1673ffffffffffffffffffffffffffffffffffffffff1681526020019081526020015f20828154811061031657610315611265565b5b905f5260205f2090600502015f015414610365576040517f08c379a000000000000000000000000000000000000000000000000000000000815260040161035c906112dc565b60405180910390fd5b5f60015f8473ffffffffffffffffffffffffffffffffffffffff1673ffffffffffffffffffffffffffffffffffffffff1681526020019081526020015f2082815481106103b5576103b4611265565b5b905f5260205f2090600502016004015411610405576040517f08c379a00000000000000000000000000000000000000000000000000000000081526004016103fc90611344565b60405180910390fd5b60015f8373ffffffffffffffffffffffffffffffffffffffff1673ffffffffffffffffffffffffffffffffffffffff1681526020019081526020015f20818154811061045457610453611265565b5b905f5260205f2090600502016004015f8154809291906104739061138f565b91905055505050565b5f8054906101000a900461ffff1681565b610495610b3f565b60015f8373ffffffffffffffffffffffffffffffffffffffff1673ffffffffffffffffffffffffffffffffffffffff1681526020019081526020015f2083815481106104e4576104e3611265565b5b905f5260205f2090600502016040518060a00160405290815f8201548152602001600182015f9054906101000a900473ffffffffffffffffffffffffffffffffffffffff1673ffffffffffffffffffffffffffffffffffffffff1673ffffffffffffffffffffffffffffffffffffffff16815260200160028201805461056990611235565b80601f016020809104026020016040519081016040528092919081815260200182805461059590611235565b80156105e05780601f106105b7576101008083540402835291602001916105e0565b820191905f5260205f20905b8154815290600101906020018083116105c357829003601f168201915b5050505050815260200160038201548152602001600482015481525050905092915050565b8060015f8473ffffffffffffffffffffffffffffffffffffffff1673ffffffffffffffffffffffffffffffffffffffff1681526020019081526020015f20828154811061065557610654611265565b5b905f5260205f2090600502015f0154146106a4576040517f08c379a000000000000000000000000000000000000000000000000000000000815260040161069b906112dc565b60405180910390fd5b60015f8373ffffffffffffffffffffffffffffffffffffffff1673ffffffffffffffffffffffffffffffffffffffff1681526020019081526020015f2081815481106106f3576106f2611265565b5b905f5260205f2090600502016004015f815480929190610712906113b6565b91905055505050565b5f8054906101000a900461ffff1661ffff1681511115610770576040517f08c379a000000000000000000000000000000000000000000000000000000000815260040161076790611447565b60405180910390fd5b5f6040518060a0016040528060015f3373ffffffffffffffffffffffffffffffffffffffff1673ffffffffffffffffffffffffffffffffffffffff1681526020019081526020015f208054905081526020013373ffffffffffffffffffffffffffffffffffffffff1681526020018381526020014281526020015f815250905060015f3373ffffffffffffffffffffffffffffffffffffffff1673ffffffffffffffffffffffffffffffffffffffff1681526020019081526020015f2081908060018154018082558091505060019003905f5260205f2090600502015f909190919091505f820151815f01556020820151816001015f6101000a81548173ffffffffffffffffffffffffffffffffffffffff021916908373ffffffffffffffffffffffffffffffffffffffff16021790555060408201518160020190816108b79190611602565b50606082015181600301556080820151816004015550505050565b60025f9054906101000a900473ffffffffffffffffffffffffffffffffffffffff1681565b606060015f8373ffffffffffffffffffffffffffffffffffffffff1673ffffffffffffffffffffffffffffffffffffffff1681526020019081526020015f20805480602002602001604051908101604052809291908181526020015f905b82821015610a87578382905f5260205f2090600502016040518060a00160405290815f8201548152602001600182015f9054906101000a900473ffffffffffffffffffffffffffffffffffffffff1673ffffffffffffffffffffffffffffffffffffffff1673ffffffffffffffffffffffffffffffffffffffff1681526020016002820180546109e490611235565b80601f0160208091040260200160405190810160405280929190818152602001828054610a1090611235565b8015610a5b5780601f10610a3257610100808354040283529160200191610a5b565b820191905f5260205f20905b815481529060010190602001808311610a3e57829003601f168201915b505050505081526020016003820154815260200160048201548152505081526020019060010190610955565b505050509050919050565b60025f9054906101000a900473ffffffffffffffffffffffffffffffffffffffff1673ffffffffffffffffffffffffffffffffffffffff163373ffffffffffffffffffffffffffffffffffffffff1614610b21576040517f08c379a0000000000000000000000000000000000000000000000000000000008152600401610b189061171b565b60405180910390fd5b805f806101000a81548161ffff021916908361ffff16021790555050565b6040518060a001604052805f81526020015f73ffffffffffffffffffffffffffffffffffffffff168152602001606081526020015f81526020015f81525090565b5f604051905090565b5f80fd5b5f80fd5b5f73ffffffffffffffffffffffffffffffffffffffff82169050919050565b5f610bba82610b91565b9050919050565b610bca81610bb0565b8114610bd4575f80fd5b50565b5f81359050610be581610bc1565b92915050565b5f819050919050565b610bfd81610beb565b8114610c07575f80fd5b50565b5f81359050610c1881610bf4565b92915050565b5f8060408385031215610c3457610c33610b89565b5b5f610c4185828601610bd7565b9250506020610c5285828601610c0a565b9150509250929050565b610c6581610beb565b82525050565b610c7481610bb0565b82525050565b5f81519050919050565b5f82825260208201905092915050565b8281835e5f83830152505050565b5f601f19601f8301169050919050565b5f610cbc82610c7a565b610cc68185610c84565b9350610cd6818560208601610c94565b610cdf81610ca2565b840191505092915050565b5f60a082019050610cfd5f830188610c5c565b610d0a6020830187610c6b565b8181036040830152610d1c8186610cb2565b9050610d2b6060830185610c5c565b610d386080830184610c5c565b9695505050505050565b5f61ffff82169050919050565b610d5881610d42565b82525050565b5f602082019050610d715f830184610d4f565b92915050565b5f8060408385031215610d8d57610d8c610b89565b5b5f610d9a85828601610c0a565b9250506020610dab85828601610bd7565b9150509250929050565b610dbe81610beb565b82525050565b610dcd81610bb0565b82525050565b5f82825260208201905092915050565b5f610ded82610c7a565b610df78185610dd3565b9350610e07818560208601610c94565b610e1081610ca2565b840191505092915050565b5f60a083015f830151610e305f860182610db5565b506020830151610e436020860182610dc4565b5060408301518482036040860152610e5b8282610de3565b9150506060830151610e706060860182610db5565b506080830151610e836080860182610db5565b508091505092915050565b5f6020820190508181035f830152610ea68184610e1b565b905092915050565b5f80fd5b5f80fd5b7f4e487b71000000000000000000000000000000000000000000000000000000005f52604160045260245ffd5b610eec82610ca2565b810181811067ffffffffffffffff82111715610f0b57610f0a610eb6565b5b80604052505050565b5f610f1d610b80565b9050610f298282610ee3565b919050565b5f67ffffffffffffffff821115610f4857610f47610eb6565b5b610f5182610ca2565b9050602081019050919050565b828183375f83830152505050565b5f610f7e610f7984610f2e565b610f14565b905082815260208101848484011115610f9a57610f99610eb2565b5b610fa5848285610f5e565b509392505050565b5f82601f830112610fc157610fc0610eae565b5b8135610fd1848260208601610f6c565b91505092915050565b5f60208284031215610fef57610fee610b89565b5b5f82013567ffffffffffffffff81111561100c5761100b610b8d565b5b61101884828501610fad565b91505092915050565b5f6020820190506110345f830184610c6b565b92915050565b5f6020828403121561104f5761104e610b89565b5b5f61105c84828501610bd7565b91505092915050565b5f81519050919050565b5f82825260208201905092915050565b5f819050602082019050919050565b5f60a083015f8301516110a35f860182610db5565b5060208301516110b66020860182610dc4565b50604083015184820360408601526110ce8282610de3565b91505060608301516110e36060860182610db5565b5060808301516110f66080860182610db5565b508091505092915050565b5f61110c838361108e565b905092915050565b5f602082019050919050565b5f61112a82611065565b611134818561106f565b9350836020820285016111468561107f565b805f5b8581101561118157848403895281516111628582611101565b945061116d83611114565b925060208a01995050600181019050611149565b50829750879550505050505092915050565b5f6020820190508181035f8301526111ab8184611120565b905092915050565b6111bc81610d42565b81146111c6575f80fd5b50565b5f813590506111d7816111b3565b92915050565b5f602082840312156111f2576111f1610b89565b5b5f6111ff848285016111c9565b91505092915050565b7f4e487b71000000000000000000000000000000000000000000000000000000005f52602260045260245ffd5b5f600282049050600182168061124c57607f821691505b60208210810361125f5761125e611208565b5b50919050565b7f4e487b71000000000000000000000000000000000000000000000000000000005f52603260045260245ffd5b7f747765657420646f7365206e6f74206578697374732e2e2e21000000000000005f82015250565b5f6112c6601983610c84565b91506112d182611292565b602082019050919050565b5f6020820190508181035f8301526112f3816112ba565b9050919050565b7f7477656574206c696b65206973207a65726f2e2e2e21000000000000000000005f82015250565b5f61132e601683610c84565b9150611339826112fa565b602082019050919050565b5f6020820190508181035f83015261135b81611322565b9050919050565b7f4e487b71000000000000000000000000000000000000000000000000000000005f52601160045260245ffd5b5f61139982610beb565b91505f82036113ab576113aa611362565b5b600182039050919050565b5f6113c082610beb565b91507fffffffffffffffffffffffffffffffffffffffffffffffffffffffffffffffff82036113f2576113f1611362565b5b600182019050919050565b7f747765657420697320746f206c65616e6774682e2e2e210000000000000000005f82015250565b5f611431601783610c84565b915061143c826113fd565b602082019050919050565b5f6020820190508181035f83015261145e81611425565b9050919050565b5f819050815f5260205f209050919050565b5f6020601f8301049050919050565b5f82821b905092915050565b5f600883026114c17fffffffffffffffffffffffffffffffffffffffffffffffffffffffffffffffff82611486565b6114cb8683611486565b95508019841693508086168417925050509392505050565b5f819050919050565b5f6115066115016114fc84610beb565b6114e3565b610beb565b9050919050565b5f819050919050565b61151f836114ec565b61153361152b8261150d565b848454611492565b825550505050565b5f90565b61154761153b565b611552818484611516565b505050565b5b818110156115755761156a5f8261153f565b600181019050611558565b5050565b601f8211156115ba5761158b81611465565b61159484611477565b810160208510156115a3578190505b6115b76115af85611477565b830182611557565b50505b505050565b5f82821c905092915050565b5f6115da5f19846008026115bf565b1980831691505092915050565b5f6115f283836115cb565b9150826002028217905092915050565b61160b82610c7a565b67ffffffffffffffff81111561162457611623610eb6565b5b61162e8254611235565b611639828285611579565b5f60209050601f83116001811461166a575f8415611658578287015190505b61166285826115e7565b8655506116c9565b601f19841661167886611465565b5f5b8281101561169f5784890151825560018201915060208501945060208101905061167a565b868310156116bc57848901516116b8601f8916826115cb565b8355505b6001600288020188555050505b505050505050565b7f594f5552204e4f5420544845204f574e45522e2e2e2e210000000000000000005f82015250565b5f611705601783610c84565b9150611710826116d1565b602082019050919050565b5f6020820190508181035f830152611732816116f9565b905091905056fea26469706673582212202667786cd7b6d48ba6cc6eda6fe59fe292c7b3812025f82c729ce5fb7982deeb64736f6c634300081a0033",
					"opcodes": "PUSH1 0x80 PUSH1 0x40 MSTORE PUSH1 0x64 PUSH0 DUP1 PUSH2 0x100 EXP DUP2 SLOAD DUP2 PUSH2 0xFFFF MUL NOT AND SWAP1 DUP4 PUSH2 0xFFFF AND MUL OR SWAP1 SSTORE POP CALLVALUE DUP1 ISZERO PUSH1 0x2A JUMPI PUSH0 DUP1 REVERT JUMPDEST POP CALLER PUSH1 0x2 PUSH0 PUSH2 0x100 EXP DUP2 SLOAD DUP2 PUSH20 0xFFFFFFFFFFFFFFFFFFFFFFFFFFFFFFFFFFFFFFFF MUL NOT AND SWAP1 DUP4 PUSH20 0xFFFFFFFFFFFFFFFFFFFFFFFFFFFFFFFFFFFFFFFF AND MUL OR SWAP1 SSTORE POP PUSH2 0x176F DUP1 PUSH2 0x78 PUSH0 CODECOPY PUSH0 RETURN INVALID PUSH1 0x80 PUSH1 0x40 MSTORE CALLVALUE DUP1 ISZERO PUSH2 0xF JUMPI PUSH0 DUP1 REVERT JUMPDEST POP PUSH1 0x4 CALLDATASIZE LT PUSH2 0x91 JUMPI PUSH0 CALLDATALOAD PUSH1 0xE0 SHR DUP1 PUSH4 0x63378216 GT PUSH2 0x64 JUMPI DUP1 PUSH4 0x63378216 EQ PUSH2 0x133 JUMPI DUP1 PUSH4 0x7C9CD2BC EQ PUSH2 0x14F JUMPI DUP1 PUSH4 0x8DA5CB5B EQ PUSH2 0x16B JUMPI DUP1 PUSH4 0xB64988B8 EQ PUSH2 0x189 JUMPI DUP1 PUSH4 0xBF8BA78B EQ PUSH2 0x1B9 JUMPI PUSH2 0x91 JUMP JUMPDEST DUP1 PUSH4 0x5A1B4A9 EQ PUSH2 0x95 JUMPI DUP1 PUSH4 0x3D9B569F EQ PUSH2 0xC9 JUMPI DUP1 PUSH4 0x425812CE EQ PUSH2 0xE5 JUMPI DUP1 PUSH4 0x4E46B4E5 EQ PUSH2 0x103 JUMPI JUMPDEST PUSH0 DUP1 REVERT JUMPDEST PUSH2 0xAF PUSH1 0x4 DUP1 CALLDATASIZE SUB DUP2 ADD SWAP1 PUSH2 0xAA SWAP2 SWAP1 PUSH2 0xC1E JUMP JUMPDEST PUSH2 0x1D5 JUMP JUMPDEST PUSH1 0x40 MLOAD PUSH2 0xC0 SWAP6 SWAP5 SWAP4 SWAP3 SWAP2 SWAP1 PUSH2 0xCEA JUMP JUMPDEST PUSH1 0x40 MLOAD DUP1 SWAP2 SUB SWAP1 RETURN JUMPDEST PUSH2 0xE3 PUSH1 0x4 DUP1 CALLDATASIZE SUB DUP2 ADD SWAP1 PUSH2 0xDE SWAP2 SWAP1 PUSH2 0xC1E JUMP JUMPDEST PUSH2 0x2C6 JUMP JUMPDEST STOP JUMPDEST PUSH2 0xED PUSH2 0x47C JUMP JUMPDEST PUSH1 0x40 MLOAD PUSH2 0xFA SWAP2 SWAP1 PUSH2 0xD5E JUMP JUMPDEST PUSH1 0x40 MLOAD DUP1 SWAP2 SUB SWAP1 RETURN JUMPDEST PUSH2 0x11D PUSH1 0x4 DUP1 CALLDATASIZE SUB DUP2 ADD SWAP1 PUSH2 0x118 SWAP2 SWAP1 PUSH2 0xD77 JUMP JUMPDEST PUSH2 0x48D JUMP JUMPDEST PUSH1 0x40 MLOAD PUSH2 0x12A SWAP2 SWAP1 PUSH2 0xE8E JUMP JUMPDEST PUSH1 0x40 MLOAD DUP1 SWAP2 SUB SWAP1 RETURN JUMPDEST PUSH2 0x14D PUSH1 0x4 DUP1 CALLDATASIZE SUB DUP2 ADD SWAP1 PUSH2 0x148 SWAP2 SWAP1 PUSH2 0xC1E JUMP JUMPDEST PUSH2 0x605 JUMP JUMPDEST STOP JUMPDEST PUSH2 0x169 PUSH1 0x4 DUP1 CALLDATASIZE SUB DUP2 ADD SWAP1 PUSH2 0x164 SWAP2 SWAP1 PUSH2 0xFDA JUMP JUMPDEST PUSH2 0x71B JUMP JUMPDEST STOP JUMPDEST PUSH2 0x173 PUSH2 0x8D2 JUMP JUMPDEST PUSH1 0x40 MLOAD PUSH2 0x180 SWAP2 SWAP1 PUSH2 0x1021 JUMP JUMPDEST PUSH1 0x40 MLOAD DUP1 SWAP2 SUB SWAP1 RETURN JUMPDEST PUSH2 0x1A3 PUSH1 0x4 DUP1 CALLDATASIZE SUB DUP2 ADD SWAP1 PUSH2 0x19E SWAP2 SWAP1 PUSH2 0x103A JUMP JUMPDEST PUSH2 0x8F7 JUMP JUMPDEST PUSH1 0x40 MLOAD PUSH2 0x1B0 SWAP2 SWAP1 PUSH2 0x1193 JUMP JUMPDEST PUSH1 0x40 MLOAD DUP1 SWAP2 SUB SWAP1 RETURN JUMPDEST PUSH2 0x1D3 PUSH1 0x4 DUP1 CALLDATASIZE SUB DUP2 ADD SWAP1 PUSH2 0x1CE SWAP2 SWAP1 PUSH2 0x11DD JUMP JUMPDEST PUSH2 0xA92 JUMP JUMPDEST STOP JUMPDEST PUSH1 0x1 PUSH1 0x20 MSTORE DUP2 PUSH0 MSTORE PUSH1 0x40 PUSH0 KECCAK256 DUP2 DUP2 SLOAD DUP2 LT PUSH2 0x1EE JUMPI PUSH0 DUP1 REVERT JUMPDEST SWAP1 PUSH0 MSTORE PUSH1 0x20 PUSH0 KECCAK256 SWAP1 PUSH1 0x5 MUL ADD PUSH0 SWAP2 POP SWAP2 POP POP DUP1 PUSH0 ADD SLOAD SWAP1 DUP1 PUSH1 0x1 ADD PUSH0 SWAP1 SLOAD SWAP1 PUSH2 0x100 EXP SWAP1 DIV PUSH20 0xFFFFFFFFFFFFFFFFFFFFFFFFFFFFFFFFFFFFFFFF AND SWAP1 DUP1 PUSH1 0x2 ADD DUP1 SLOAD PUSH2 0x239 SWAP1 PUSH2 0x1235 JUMP JUMPDEST DUP1 PUSH1 0x1F ADD PUSH1 0x20 DUP1 SWAP2 DIV MUL PUSH1 0x20 ADD PUSH1 0x40 MLOAD SWAP1 DUP2 ADD PUSH1 0x40 MSTORE DUP1 SWAP3 SWAP2 SWAP1 DUP2 DUP2 MSTORE PUSH1 0x20 ADD DUP3 DUP1 SLOAD PUSH2 0x265 SWAP1 PUSH2 0x1235 JUMP JUMPDEST DUP1 ISZERO PUSH2 0x2B0 JUMPI DUP1 PUSH1 0x1F LT PUSH2 0x287 JUMPI PUSH2 0x100 DUP1 DUP4 SLOAD DIV MUL DUP4 MSTORE SWAP2 PUSH1 0x20 ADD SWAP2 PUSH2 0x2B0 JUMP JUMPDEST DUP3 ADD SWAP2 SWAP1 PUSH0 MSTORE PUSH1 0x20 PUSH0 KECCAK256 SWAP1 JUMPDEST DUP2 SLOAD DUP2 MSTORE SWAP1 PUSH1 0x1 ADD SWAP1 PUSH1 0x20 ADD DUP1 DUP4 GT PUSH2 0x293 JUMPI DUP3 SWAP1 SUB PUSH1 0x1F AND DUP3 ADD SWAP2 JUMPDEST POP POP POP POP POP SWAP1 DUP1 PUSH1 0x3 ADD SLOAD SWAP1 DUP1 PUSH1 0x4 ADD SLOAD SWAP1 POP DUP6 JUMP JUMPDEST DUP1 PUSH1 0x1 PUSH0 DUP5 PUSH20 0xFFFFFFFFFFFFFFFFFFFFFFFFFFFFFFFFFFFFFFFF AND PUSH20 0xFFFFFFFFFFFFFFFFFFFFFFFFFFFFFFFFFFFFFFFF AND DUP2 MSTORE PUSH1 0x20 ADD SWAP1 DUP2 MSTORE PUSH1 0x20 ADD PUSH0 KECCAK256 DUP3 DUP2 SLOAD DUP2 LT PUSH2 0x316 JUMPI PUSH2 0x315 PUSH2 0x1265 JUMP JUMPDEST JUMPDEST SWAP1 PUSH0 MSTORE PUSH1 0x20 PUSH0 KECCAK256 SWAP1 PUSH1 0x5 MUL ADD PUSH0 ADD SLOAD EQ PUSH2 0x365 JUMPI PUSH1 0x40 MLOAD PUSH32 0x8C379A000000000000000000000000000000000000000000000000000000000 DUP2 MSTORE PUSH1 0x4 ADD PUSH2 0x35C SWAP1 PUSH2 0x12DC JUMP JUMPDEST PUSH1 0x40 MLOAD DUP1 SWAP2 SUB SWAP1 REVERT JUMPDEST PUSH0 PUSH1 0x1 PUSH0 DUP5 PUSH20 0xFFFFFFFFFFFFFFFFFFFFFFFFFFFFFFFFFFFFFFFF AND PUSH20 0xFFFFFFFFFFFFFFFFFFFFFFFFFFFFFFFFFFFFFFFF AND DUP2 MSTORE PUSH1 0x20 ADD SWAP1 DUP2 MSTORE PUSH1 0x20 ADD PUSH0 KECCAK256 DUP3 DUP2 SLOAD DUP2 LT PUSH2 0x3B5 JUMPI PUSH2 0x3B4 PUSH2 0x1265 JUMP JUMPDEST JUMPDEST SWAP1 PUSH0 MSTORE PUSH1 0x20 PUSH0 KECCAK256 SWAP1 PUSH1 0x5 MUL ADD PUSH1 0x4 ADD SLOAD GT PUSH2 0x405 JUMPI PUSH1 0x40 MLOAD PUSH32 0x8C379A000000000000000000000000000000000000000000000000000000000 DUP2 MSTORE PUSH1 0x4 ADD PUSH2 0x3FC SWAP1 PUSH2 0x1344 JUMP JUMPDEST PUSH1 0x40 MLOAD DUP1 SWAP2 SUB SWAP1 REVERT JUMPDEST PUSH1 0x1 PUSH0 DUP4 PUSH20 0xFFFFFFFFFFFFFFFFFFFFFFFFFFFFFFFFFFFFFFFF AND PUSH20 0xFFFFFFFFFFFFFFFFFFFFFFFFFFFFFFFFFFFFFFFF AND DUP2 MSTORE PUSH1 0x20 ADD SWAP1 DUP2 MSTORE PUSH1 0x20 ADD PUSH0 KECCAK256 DUP2 DUP2 SLOAD DUP2 LT PUSH2 0x454 JUMPI PUSH2 0x453 PUSH2 0x1265 JUMP JUMPDEST JUMPDEST SWAP1 PUSH0 MSTORE PUSH1 0x20 PUSH0 KECCAK256 SWAP1 PUSH1 0x5 MUL ADD PUSH1 0x4 ADD PUSH0 DUP2 SLOAD DUP1 SWAP3 SWAP2 SWAP1 PUSH2 0x473 SWAP1 PUSH2 0x138F JUMP JUMPDEST SWAP2 SWAP1 POP SSTORE POP POP POP JUMP JUMPDEST PUSH0 DUP1 SLOAD SWAP1 PUSH2 0x100 EXP SWAP1 DIV PUSH2 0xFFFF AND DUP2 JUMP JUMPDEST PUSH2 0x495 PUSH2 0xB3F JUMP JUMPDEST PUSH1 0x1 PUSH0 DUP4 PUSH20 0xFFFFFFFFFFFFFFFFFFFFFFFFFFFFFFFFFFFFFFFF AND PUSH20 0xFFFFFFFFFFFFFFFFFFFFFFFFFFFFFFFFFFFFFFFF AND DUP2 MSTORE PUSH1 0x20 ADD SWAP1 DUP2 MSTORE PUSH1 0x20 ADD PUSH0 KECCAK256 DUP4 DUP2 SLOAD DUP2 LT PUSH2 0x4E4 JUMPI PUSH2 0x4E3 PUSH2 0x1265 JUMP JUMPDEST JUMPDEST SWAP1 PUSH0 MSTORE PUSH1 0x20 PUSH0 KECCAK256 SWAP1 PUSH1 0x5 MUL ADD PUSH1 0x40 MLOAD DUP1 PUSH1 0xA0 ADD PUSH1 0x40 MSTORE SWAP1 DUP2 PUSH0 DUP3 ADD SLOAD DUP2 MSTORE PUSH1 0x20 ADD PUSH1 0x1 DUP3 ADD PUSH0 SWAP1 SLOAD SWAP1 PUSH2 0x100 EXP SWAP1 DIV PUSH20 0xFFFFFFFFFFFFFFFFFFFFFFFFFFFFFFFFFFFFFFFF AND PUSH20 0xFFFFFFFFFFFFFFFFFFFFFFFFFFFFFFFFFFFFFFFF AND PUSH20 0xFFFFFFFFFFFFFFFFFFFFFFFFFFFFFFFFFFFFFFFF AND DUP2 MSTORE PUSH1 0x20 ADD PUSH1 0x2 DUP3 ADD DUP1 SLOAD PUSH2 0x569 SWAP1 PUSH2 0x1235 JUMP JUMPDEST DUP1 PUSH1 0x1F ADD PUSH1 0x20 DUP1 SWAP2 DIV MUL PUSH1 0x20 ADD PUSH1 0x40 MLOAD SWAP1 DUP2 ADD PUSH1 0x40 MSTORE DUP1 SWAP3 SWAP2 SWAP1 DUP2 DUP2 MSTORE PUSH1 0x20 ADD DUP3 DUP1 SLOAD PUSH2 0x595 SWAP1 PUSH2 0x1235 JUMP JUMPDEST DUP1 ISZERO PUSH2 0x5E0 JUMPI DUP1 PUSH1 0x1F LT PUSH2 0x5B7 JUMPI PUSH2 0x100 DUP1 DUP4 SLOAD DIV MUL DUP4 MSTORE SWAP2 PUSH1 0x20 ADD SWAP2 PUSH2 0x5E0 JUMP JUMPDEST DUP3 ADD SWAP2 SWAP1 PUSH0 MSTORE PUSH1 0x20 PUSH0 KECCAK256 SWAP1 JUMPDEST DUP2 SLOAD DUP2 MSTORE SWAP1 PUSH1 0x1 ADD SWAP1 PUSH1 0x20 ADD DUP1 DUP4 GT PUSH2 0x5C3 JUMPI DUP3 SWAP1 SUB PUSH1 0x1F AND DUP3 ADD SWAP2 JUMPDEST POP POP POP POP POP DUP2 MSTORE PUSH1 0x20 ADD PUSH1 0x3 DUP3 ADD SLOAD DUP2 MSTORE PUSH1 0x20 ADD PUSH1 0x4 DUP3 ADD SLOAD DUP2 MSTORE POP POP SWAP1 POP SWAP3 SWAP2 POP POP JUMP JUMPDEST DUP1 PUSH1 0x1 PUSH0 DUP5 PUSH20 0xFFFFFFFFFFFFFFFFFFFFFFFFFFFFFFFFFFFFFFFF AND PUSH20 0xFFFFFFFFFFFFFFFFFFFFFFFFFFFFFFFFFFFFFFFF AND DUP2 MSTORE PUSH1 0x20 ADD SWAP1 DUP2 MSTORE PUSH1 0x20 ADD PUSH0 KECCAK256 DUP3 DUP2 SLOAD DUP2 LT PUSH2 0x655 JUMPI PUSH2 0x654 PUSH2 0x1265 JUMP JUMPDEST JUMPDEST SWAP1 PUSH0 MSTORE PUSH1 0x20 PUSH0 KECCAK256 SWAP1 PUSH1 0x5 MUL ADD PUSH0 ADD SLOAD EQ PUSH2 0x6A4 JUMPI PUSH1 0x40 MLOAD PUSH32 0x8C379A000000000000000000000000000000000000000000000000000000000 DUP2 MSTORE PUSH1 0x4 ADD PUSH2 0x69B SWAP1 PUSH2 0x12DC JUMP JUMPDEST PUSH1 0x40 MLOAD DUP1 SWAP2 SUB SWAP1 REVERT JUMPDEST PUSH1 0x1 PUSH0 DUP4 PUSH20 0xFFFFFFFFFFFFFFFFFFFFFFFFFFFFFFFFFFFFFFFF AND PUSH20 0xFFFFFFFFFFFFFFFFFFFFFFFFFFFFFFFFFFFFFFFF AND DUP2 MSTORE PUSH1 0x20 ADD SWAP1 DUP2 MSTORE PUSH1 0x20 ADD PUSH0 KECCAK256 DUP2 DUP2 SLOAD DUP2 LT PUSH2 0x6F3 JUMPI PUSH2 0x6F2 PUSH2 0x1265 JUMP JUMPDEST JUMPDEST SWAP1 PUSH0 MSTORE PUSH1 0x20 PUSH0 KECCAK256 SWAP1 PUSH1 0x5 MUL ADD PUSH1 0x4 ADD PUSH0 DUP2 SLOAD DUP1 SWAP3 SWAP2 SWAP1 PUSH2 0x712 SWAP1 PUSH2 0x13B6 JUMP JUMPDEST SWAP2 SWAP1 POP SSTORE POP POP POP JUMP JUMPDEST PUSH0 DUP1 SLOAD SWAP1 PUSH2 0x100 EXP SWAP1 DIV PUSH2 0xFFFF AND PUSH2 0xFFFF AND DUP2 MLOAD GT ISZERO PUSH2 0x770 JUMPI PUSH1 0x40 MLOAD PUSH32 0x8C379A000000000000000000000000000000000000000000000000000000000 DUP2 MSTORE PUSH1 0x4 ADD PUSH2 0x767 SWAP1 PUSH2 0x1447 JUMP JUMPDEST PUSH1 0x40 MLOAD DUP1 SWAP2 SUB SWAP1 REVERT JUMPDEST PUSH0 PUSH1 0x40 MLOAD DUP1 PUSH1 0xA0 ADD PUSH1 0x40 MSTORE DUP1 PUSH1 0x1 PUSH0 CALLER PUSH20 0xFFFFFFFFFFFFFFFFFFFFFFFFFFFFFFFFFFFFFFFF AND PUSH20 0xFFFFFFFFFFFFFFFFFFFFFFFFFFFFFFFFFFFFFFFF AND DUP2 MSTORE PUSH1 0x20 ADD SWAP1 DUP2 MSTORE PUSH1 0x20 ADD PUSH0 KECCAK256 DUP1 SLOAD SWAP1 POP DUP2 MSTORE PUSH1 0x20 ADD CALLER PUSH20 0xFFFFFFFFFFFFFFFFFFFFFFFFFFFFFFFFFFFFFFFF AND DUP2 MSTORE PUSH1 0x20 ADD DUP4 DUP2 MSTORE PUSH1 0x20 ADD TIMESTAMP DUP2 MSTORE PUSH1 0x20 ADD PUSH0 DUP2 MSTORE POP SWAP1 POP PUSH1 0x1 PUSH0 CALLER PUSH20 0xFFFFFFFFFFFFFFFFFFFFFFFFFFFFFFFFFFFFFFFF AND PUSH20 0xFFFFFFFFFFFFFFFFFFFFFFFFFFFFFFFFFFFFFFFF AND DUP2 MSTORE PUSH1 0x20 ADD SWAP1 DUP2 MSTORE PUSH1 0x20 ADD PUSH0 KECCAK256 DUP2 SWAP1 DUP1 PUSH1 0x1 DUP2 SLOAD ADD DUP1 DUP3 SSTORE DUP1 SWAP2 POP POP PUSH1 0x1 SWAP1 SUB SWAP1 PUSH0 MSTORE PUSH1 0x20 PUSH0 KECCAK256 SWAP1 PUSH1 0x5 MUL ADD PUSH0 SWAP1 SWAP2 SWAP1 SWAP2 SWAP1 SWAP2 POP PUSH0 DUP3 ADD MLOAD DUP2 PUSH0 ADD SSTORE PUSH1 0x20 DUP3 ADD MLOAD DUP2 PUSH1 0x1 ADD PUSH0 PUSH2 0x100 EXP DUP2 SLOAD DUP2 PUSH20 0xFFFFFFFFFFFFFFFFFFFFFFFFFFFFFFFFFFFFFFFF MUL NOT AND SWAP1 DUP4 PUSH20 0xFFFFFFFFFFFFFFFFFFFFFFFFFFFFFFFFFFFFFFFF AND MUL OR SWAP1 SSTORE POP PUSH1 0x40 DUP3 ADD MLOAD DUP2 PUSH1 0x2 ADD SWAP1 DUP2 PUSH2 0x8B7 SWAP2 SWAP1 PUSH2 0x1602 JUMP JUMPDEST POP PUSH1 0x60 DUP3 ADD MLOAD DUP2 PUSH1 0x3 ADD SSTORE PUSH1 0x80 DUP3 ADD MLOAD DUP2 PUSH1 0x4 ADD SSTORE POP POP POP POP JUMP JUMPDEST PUSH1 0x2 PUSH0 SWAP1 SLOAD SWAP1 PUSH2 0x100 EXP SWAP1 DIV PUSH20 0xFFFFFFFFFFFFFFFFFFFFFFFFFFFFFFFFFFFFFFFF AND DUP2 JUMP JUMPDEST PUSH1 0x60 PUSH1 0x1 PUSH0 DUP4 PUSH20 0xFFFFFFFFFFFFFFFFFFFFFFFFFFFFFFFFFFFFFFFF AND PUSH20 0xFFFFFFFFFFFFFFFFFFFFFFFFFFFFFFFFFFFFFFFF AND DUP2 MSTORE PUSH1 0x20 ADD SWAP1 DUP2 MSTORE PUSH1 0x20 ADD PUSH0 KECCAK256 DUP1 SLOAD DUP1 PUSH1 0x20 MUL PUSH1 0x20 ADD PUSH1 0x40 MLOAD SWAP1 DUP2 ADD PUSH1 0x40 MSTORE DUP1 SWAP3 SWAP2 SWAP1 DUP2 DUP2 MSTORE PUSH1 0x20 ADD PUSH0 SWAP1 JUMPDEST DUP3 DUP3 LT ISZERO PUSH2 0xA87 JUMPI DUP4 DUP3 SWAP1 PUSH0 MSTORE PUSH1 0x20 PUSH0 KECCAK256 SWAP1 PUSH1 0x5 MUL ADD PUSH1 0x40 MLOAD DUP1 PUSH1 0xA0 ADD PUSH1 0x40 MSTORE SWAP1 DUP2 PUSH0 DUP3 ADD SLOAD DUP2 MSTORE PUSH1 0x20 ADD PUSH1 0x1 DUP3 ADD PUSH0 SWAP1 SLOAD SWAP1 PUSH2 0x100 EXP SWAP1 DIV PUSH20 0xFFFFFFFFFFFFFFFFFFFFFFFFFFFFFFFFFFFFFFFF AND PUSH20 0xFFFFFFFFFFFFFFFFFFFFFFFFFFFFFFFFFFFFFFFF AND PUSH20 0xFFFFFFFFFFFFFFFFFFFFFFFFFFFFFFFFFFFFFFFF AND DUP2 MSTORE PUSH1 0x20 ADD PUSH1 0x2 DUP3 ADD DUP1 SLOAD PUSH2 0x9E4 SWAP1 PUSH2 0x1235 JUMP JUMPDEST DUP1 PUSH1 0x1F ADD PUSH1 0x20 DUP1 SWAP2 DIV MUL PUSH1 0x20 ADD PUSH1 0x40 MLOAD SWAP1 DUP2 ADD PUSH1 0x40 MSTORE DUP1 SWAP3 SWAP2 SWAP1 DUP2 DUP2 MSTORE PUSH1 0x20 ADD DUP3 DUP1 SLOAD PUSH2 0xA10 SWAP1 PUSH2 0x1235 JUMP JUMPDEST DUP1 ISZERO PUSH2 0xA5B JUMPI DUP1 PUSH1 0x1F LT PUSH2 0xA32 JUMPI PUSH2 0x100 DUP1 DUP4 SLOAD DIV MUL DUP4 MSTORE SWAP2 PUSH1 0x20 ADD SWAP2 PUSH2 0xA5B JUMP JUMPDEST DUP3 ADD SWAP2 SWAP1 PUSH0 MSTORE PUSH1 0x20 PUSH0 KECCAK256 SWAP1 JUMPDEST DUP2 SLOAD DUP2 MSTORE SWAP1 PUSH1 0x1 ADD SWAP1 PUSH1 0x20 ADD DUP1 DUP4 GT PUSH2 0xA3E JUMPI DUP3 SWAP1 SUB PUSH1 0x1F AND DUP3 ADD SWAP2 JUMPDEST POP POP POP POP POP DUP2 MSTORE PUSH1 0x20 ADD PUSH1 0x3 DUP3 ADD SLOAD DUP2 MSTORE PUSH1 0x20 ADD PUSH1 0x4 DUP3 ADD SLOAD DUP2 MSTORE POP POP DUP2 MSTORE PUSH1 0x20 ADD SWAP1 PUSH1 0x1 ADD SWAP1 PUSH2 0x955 JUMP JUMPDEST POP POP POP POP SWAP1 POP SWAP2 SWAP1 POP JUMP JUMPDEST PUSH1 0x2 PUSH0 SWAP1 SLOAD SWAP1 PUSH2 0x100 EXP SWAP1 DIV PUSH20 0xFFFFFFFFFFFFFFFFFFFFFFFFFFFFFFFFFFFFFFFF AND PUSH20 0xFFFFFFFFFFFFFFFFFFFFFFFFFFFFFFFFFFFFFFFF AND CALLER PUSH20 0xFFFFFFFFFFFFFFFFFFFFFFFFFFFFFFFFFFFFFFFF AND EQ PUSH2 0xB21 JUMPI PUSH1 0x40 MLOAD PUSH32 0x8C379A000000000000000000000000000000000000000000000000000000000 DUP2 MSTORE PUSH1 0x4 ADD PUSH2 0xB18 SWAP1 PUSH2 0x171B JUMP JUMPDEST PUSH1 0x40 MLOAD DUP1 SWAP2 SUB SWAP1 REVERT JUMPDEST DUP1 PUSH0 DUP1 PUSH2 0x100 EXP DUP2 SLOAD DUP2 PUSH2 0xFFFF MUL NOT AND SWAP1 DUP4 PUSH2 0xFFFF AND MUL OR SWAP1 SSTORE POP POP JUMP JUMPDEST PUSH1 0x40 MLOAD DUP1 PUSH1 0xA0 ADD PUSH1 0x40 MSTORE DUP1 PUSH0 DUP2 MSTORE PUSH1 0x20 ADD PUSH0 PUSH20 0xFFFFFFFFFFFFFFFFFFFFFFFFFFFFFFFFFFFFFFFF AND DUP2 MSTORE PUSH1 0x20 ADD PUSH1 0x60 DUP2 MSTORE PUSH1 0x20 ADD PUSH0 DUP2 MSTORE PUSH1 0x20 ADD PUSH0 DUP2 MSTORE POP SWAP1 JUMP JUMPDEST PUSH0 PUSH1 0x40 MLOAD SWAP1 POP SWAP1 JUMP JUMPDEST PUSH0 DUP1 REVERT JUMPDEST PUSH0 DUP1 REVERT JUMPDEST PUSH0 PUSH20 0xFFFFFFFFFFFFFFFFFFFFFFFFFFFFFFFFFFFFFFFF DUP3 AND SWAP1 POP SWAP2 SWAP1 POP JUMP JUMPDEST PUSH0 PUSH2 0xBBA DUP3 PUSH2 0xB91 JUMP JUMPDEST SWAP1 POP SWAP2 SWAP1 POP JUMP JUMPDEST PUSH2 0xBCA DUP2 PUSH2 0xBB0 JUMP JUMPDEST DUP2 EQ PUSH2 0xBD4 JUMPI PUSH0 DUP1 REVERT JUMPDEST POP JUMP JUMPDEST PUSH0 DUP2 CALLDATALOAD SWAP1 POP PUSH2 0xBE5 DUP2 PUSH2 0xBC1 JUMP JUMPDEST SWAP3 SWAP2 POP POP JUMP JUMPDEST PUSH0 DUP2 SWAP1 POP SWAP2 SWAP1 POP JUMP JUMPDEST PUSH2 0xBFD DUP2 PUSH2 0xBEB JUMP JUMPDEST DUP2 EQ PUSH2 0xC07 JUMPI PUSH0 DUP1 REVERT JUMPDEST POP JUMP JUMPDEST PUSH0 DUP2 CALLDATALOAD SWAP1 POP PUSH2 0xC18 DUP2 PUSH2 0xBF4 JUMP JUMPDEST SWAP3 SWAP2 POP POP JUMP JUMPDEST PUSH0 DUP1 PUSH1 0x40 DUP4 DUP6 SUB SLT ISZERO PUSH2 0xC34 JUMPI PUSH2 0xC33 PUSH2 0xB89 JUMP JUMPDEST JUMPDEST PUSH0 PUSH2 0xC41 DUP6 DUP3 DUP7 ADD PUSH2 0xBD7 JUMP JUMPDEST SWAP3 POP POP PUSH1 0x20 PUSH2 0xC52 DUP6 DUP3 DUP7 ADD PUSH2 0xC0A JUMP JUMPDEST SWAP2 POP POP SWAP3 POP SWAP3 SWAP1 POP JUMP JUMPDEST PUSH2 0xC65 DUP2 PUSH2 0xBEB JUMP JUMPDEST DUP3 MSTORE POP POP JUMP JUMPDEST PUSH2 0xC74 DUP2 PUSH2 0xBB0 JUMP JUMPDEST DUP3 MSTORE POP POP JUMP JUMPDEST PUSH0 DUP2 MLOAD SWAP1 POP SWAP2 SWAP1 POP JUMP JUMPDEST PUSH0 DUP3 DUP3 MSTORE PUSH1 0x20 DUP3 ADD SWAP1 POP SWAP3 SWAP2 POP POP JUMP JUMPDEST DUP3 DUP2 DUP4 MCOPY PUSH0 DUP4 DUP4 ADD MSTORE POP POP POP JUMP JUMPDEST PUSH0 PUSH1 0x1F NOT PUSH1 0x1F DUP4 ADD AND SWAP1 POP SWAP2 SWAP1 POP JUMP JUMPDEST PUSH0 PUSH2 0xCBC DUP3 PUSH2 0xC7A JUMP JUMPDEST PUSH2 0xCC6 DUP2 DUP6 PUSH2 0xC84 JUMP JUMPDEST SWAP4 POP PUSH2 0xCD6 DUP2 DUP6 PUSH1 0x20 DUP7 ADD PUSH2 0xC94 JUMP JUMPDEST PUSH2 0xCDF DUP2 PUSH2 0xCA2 JUMP JUMPDEST DUP5 ADD SWAP2 POP POP SWAP3 SWAP2 POP POP JUMP JUMPDEST PUSH0 PUSH1 0xA0 DUP3 ADD SWAP1 POP PUSH2 0xCFD PUSH0 DUP4 ADD DUP9 PUSH2 0xC5C JUMP JUMPDEST PUSH2 0xD0A PUSH1 0x20 DUP4 ADD DUP8 PUSH2 0xC6B JUMP JUMPDEST DUP2 DUP2 SUB PUSH1 0x40 DUP4 ADD MSTORE PUSH2 0xD1C DUP2 DUP7 PUSH2 0xCB2 JUMP JUMPDEST SWAP1 POP PUSH2 0xD2B PUSH1 0x60 DUP4 ADD DUP6 PUSH2 0xC5C JUMP JUMPDEST PUSH2 0xD38 PUSH1 0x80 DUP4 ADD DUP5 PUSH2 0xC5C JUMP JUMPDEST SWAP7 SWAP6 POP POP POP POP POP POP JUMP JUMPDEST PUSH0 PUSH2 0xFFFF DUP3 AND SWAP1 POP SWAP2 SWAP1 POP JUMP JUMPDEST PUSH2 0xD58 DUP2 PUSH2 0xD42 JUMP JUMPDEST DUP3 MSTORE POP POP JUMP JUMPDEST PUSH0 PUSH1 0x20 DUP3 ADD SWAP1 POP PUSH2 0xD71 PUSH0 DUP4 ADD DUP5 PUSH2 0xD4F JUMP JUMPDEST SWAP3 SWAP2 POP POP JUMP JUMPDEST PUSH0 DUP1 PUSH1 0x40 DUP4 DUP6 SUB SLT ISZERO PUSH2 0xD8D JUMPI PUSH2 0xD8C PUSH2 0xB89 JUMP JUMPDEST JUMPDEST PUSH0 PUSH2 0xD9A DUP6 DUP3 DUP7 ADD PUSH2 0xC0A JUMP JUMPDEST SWAP3 POP POP PUSH1 0x20 PUSH2 0xDAB DUP6 DUP3 DUP7 ADD PUSH2 0xBD7 JUMP JUMPDEST SWAP2 POP POP SWAP3 POP SWAP3 SWAP1 POP JUMP JUMPDEST PUSH2 0xDBE DUP2 PUSH2 0xBEB JUMP JUMPDEST DUP3 MSTORE POP POP JUMP JUMPDEST PUSH2 0xDCD DUP2 PUSH2 0xBB0 JUMP JUMPDEST DUP3 MSTORE POP POP JUMP JUMPDEST PUSH0 DUP3 DUP3 MSTORE PUSH1 0x20 DUP3 ADD SWAP1 POP SWAP3 SWAP2 POP POP JUMP JUMPDEST PUSH0 PUSH2 0xDED DUP3 PUSH2 0xC7A JUMP JUMPDEST PUSH2 0xDF7 DUP2 DUP6 PUSH2 0xDD3 JUMP JUMPDEST SWAP4 POP PUSH2 0xE07 DUP2 DUP6 PUSH1 0x20 DUP7 ADD PUSH2 0xC94 JUMP JUMPDEST PUSH2 0xE10 DUP2 PUSH2 0xCA2 JUMP JUMPDEST DUP5 ADD SWAP2 POP POP SWAP3 SWAP2 POP POP JUMP JUMPDEST PUSH0 PUSH1 0xA0 DUP4 ADD PUSH0 DUP4 ADD MLOAD PUSH2 0xE30 PUSH0 DUP7 ADD DUP3 PUSH2 0xDB5 JUMP JUMPDEST POP PUSH1 0x20 DUP4 ADD MLOAD PUSH2 0xE43 PUSH1 0x20 DUP7 ADD DUP3 PUSH2 0xDC4 JUMP JUMPDEST POP PUSH1 0x40 DUP4 ADD MLOAD DUP5 DUP3 SUB PUSH1 0x40 DUP7 ADD MSTORE PUSH2 0xE5B DUP3 DUP3 PUSH2 0xDE3 JUMP JUMPDEST SWAP2 POP POP PUSH1 0x60 DUP4 ADD MLOAD PUSH2 0xE70 PUSH1 0x60 DUP7 ADD DUP3 PUSH2 0xDB5 JUMP JUMPDEST POP PUSH1 0x80 DUP4 ADD MLOAD PUSH2 0xE83 PUSH1 0x80 DUP7 ADD DUP3 PUSH2 0xDB5 JUMP JUMPDEST POP DUP1 SWAP2 POP POP SWAP3 SWAP2 POP POP JUMP JUMPDEST PUSH0 PUSH1 0x20 DUP3 ADD SWAP1 POP DUP2 DUP2 SUB PUSH0 DUP4 ADD MSTORE PUSH2 0xEA6 DUP2 DUP5 PUSH2 0xE1B JUMP JUMPDEST SWAP1 POP SWAP3 SWAP2 POP POP JUMP JUMPDEST PUSH0 DUP1 REVERT JUMPDEST PUSH0 DUP1 REVERT JUMPDEST PUSH32 0x4E487B7100000000000000000000000000000000000000000000000000000000 PUSH0 MSTORE PUSH1 0x41 PUSH1 0x4 MSTORE PUSH1 0x24 PUSH0 REVERT JUMPDEST PUSH2 0xEEC DUP3 PUSH2 0xCA2 JUMP JUMPDEST DUP2 ADD DUP2 DUP2 LT PUSH8 0xFFFFFFFFFFFFFFFF DUP3 GT OR ISZERO PUSH2 0xF0B JUMPI PUSH2 0xF0A PUSH2 0xEB6 JUMP JUMPDEST JUMPDEST DUP1 PUSH1 0x40 MSTORE POP POP POP JUMP JUMPDEST PUSH0 PUSH2 0xF1D PUSH2 0xB80 JUMP JUMPDEST SWAP1 POP PUSH2 0xF29 DUP3 DUP3 PUSH2 0xEE3 JUMP JUMPDEST SWAP2 SWAP1 POP JUMP JUMPDEST PUSH0 PUSH8 0xFFFFFFFFFFFFFFFF DUP3 GT ISZERO PUSH2 0xF48 JUMPI PUSH2 0xF47 PUSH2 0xEB6 JUMP JUMPDEST JUMPDEST PUSH2 0xF51 DUP3 PUSH2 0xCA2 JUMP JUMPDEST SWAP1 POP PUSH1 0x20 DUP2 ADD SWAP1 POP SWAP2 SWAP1 POP JUMP JUMPDEST DUP3 DUP2 DUP4 CALLDATACOPY PUSH0 DUP4 DUP4 ADD MSTORE POP POP POP JUMP JUMPDEST PUSH0 PUSH2 0xF7E PUSH2 0xF79 DUP5 PUSH2 0xF2E JUMP JUMPDEST PUSH2 0xF14 JUMP JUMPDEST SWAP1 POP DUP3 DUP2 MSTORE PUSH1 0x20 DUP2 ADD DUP5 DUP5 DUP5 ADD GT ISZERO PUSH2 0xF9A JUMPI PUSH2 0xF99 PUSH2 0xEB2 JUMP JUMPDEST JUMPDEST PUSH2 0xFA5 DUP5 DUP3 DUP6 PUSH2 0xF5E JUMP JUMPDEST POP SWAP4 SWAP3 POP POP POP JUMP JUMPDEST PUSH0 DUP3 PUSH1 0x1F DUP4 ADD SLT PUSH2 0xFC1 JUMPI PUSH2 0xFC0 PUSH2 0xEAE JUMP JUMPDEST JUMPDEST DUP2 CALLDATALOAD PUSH2 0xFD1 DUP5 DUP3 PUSH1 0x20 DUP7 ADD PUSH2 0xF6C JUMP JUMPDEST SWAP2 POP POP SWAP3 SWAP2 POP POP JUMP JUMPDEST PUSH0 PUSH1 0x20 DUP3 DUP5 SUB SLT ISZERO PUSH2 0xFEF JUMPI PUSH2 0xFEE PUSH2 0xB89 JUMP JUMPDEST JUMPDEST PUSH0 DUP3 ADD CALLDATALOAD PUSH8 0xFFFFFFFFFFFFFFFF DUP2 GT ISZERO PUSH2 0x100C JUMPI PUSH2 0x100B PUSH2 0xB8D JUMP JUMPDEST JUMPDEST PUSH2 0x1018 DUP5 DUP3 DUP6 ADD PUSH2 0xFAD JUMP JUMPDEST SWAP2 POP POP SWAP3 SWAP2 POP POP JUMP JUMPDEST PUSH0 PUSH1 0x20 DUP3 ADD SWAP1 POP PUSH2 0x1034 PUSH0 DUP4 ADD DUP5 PUSH2 0xC6B JUMP JUMPDEST SWAP3 SWAP2 POP POP JUMP JUMPDEST PUSH0 PUSH1 0x20 DUP3 DUP5 SUB SLT ISZERO PUSH2 0x104F JUMPI PUSH2 0x104E PUSH2 0xB89 JUMP JUMPDEST JUMPDEST PUSH0 PUSH2 0x105C DUP5 DUP3 DUP6 ADD PUSH2 0xBD7 JUMP JUMPDEST SWAP2 POP POP SWAP3 SWAP2 POP POP JUMP JUMPDEST PUSH0 DUP2 MLOAD SWAP1 POP SWAP2 SWAP1 POP JUMP JUMPDEST PUSH0 DUP3 DUP3 MSTORE PUSH1 0x20 DUP3 ADD SWAP1 POP SWAP3 SWAP2 POP POP JUMP JUMPDEST PUSH0 DUP2 SWAP1 POP PUSH1 0x20 DUP3 ADD SWAP1 POP SWAP2 SWAP1 POP JUMP JUMPDEST PUSH0 PUSH1 0xA0 DUP4 ADD PUSH0 DUP4 ADD MLOAD PUSH2 0x10A3 PUSH0 DUP7 ADD DUP3 PUSH2 0xDB5 JUMP JUMPDEST POP PUSH1 0x20 DUP4 ADD MLOAD PUSH2 0x10B6 PUSH1 0x20 DUP7 ADD DUP3 PUSH2 0xDC4 JUMP JUMPDEST POP PUSH1 0x40 DUP4 ADD MLOAD DUP5 DUP3 SUB PUSH1 0x40 DUP7 ADD MSTORE PUSH2 0x10CE DUP3 DUP3 PUSH2 0xDE3 JUMP JUMPDEST SWAP2 POP POP PUSH1 0x60 DUP4 ADD MLOAD PUSH2 0x10E3 PUSH1 0x60 DUP7 ADD DUP3 PUSH2 0xDB5 JUMP JUMPDEST POP PUSH1 0x80 DUP4 ADD MLOAD PUSH2 0x10F6 PUSH1 0x80 DUP7 ADD DUP3 PUSH2 0xDB5 JUMP JUMPDEST POP DUP1 SWAP2 POP POP SWAP3 SWAP2 POP POP JUMP JUMPDEST PUSH0 PUSH2 0x110C DUP4 DUP4 PUSH2 0x108E JUMP JUMPDEST SWAP1 POP SWAP3 SWAP2 POP POP JUMP JUMPDEST PUSH0 PUSH1 0x20 DUP3 ADD SWAP1 POP SWAP2 SWAP1 POP JUMP JUMPDEST PUSH0 PUSH2 0x112A DUP3 PUSH2 0x1065 JUMP JUMPDEST PUSH2 0x1134 DUP2 DUP6 PUSH2 0x106F JUMP JUMPDEST SWAP4 POP DUP4 PUSH1 0x20 DUP3 MUL DUP6 ADD PUSH2 0x1146 DUP6 PUSH2 0x107F JUMP JUMPDEST DUP1 PUSH0 JUMPDEST DUP6 DUP2 LT ISZERO PUSH2 0x1181 JUMPI DUP5 DUP5 SUB DUP10 MSTORE DUP2 MLOAD PUSH2 0x1162 DUP6 DUP3 PUSH2 0x1101 JUMP JUMPDEST SWAP5 POP PUSH2 0x116D DUP4 PUSH2 0x1114 JUMP JUMPDEST SWAP3 POP PUSH1 0x20 DUP11 ADD SWAP10 POP POP PUSH1 0x1 DUP2 ADD SWAP1 POP PUSH2 0x1149 JUMP JUMPDEST POP DUP3 SWAP8 POP DUP8 SWAP6 POP POP POP POP POP POP SWAP3 SWAP2 POP POP JUMP JUMPDEST PUSH0 PUSH1 0x20 DUP3 ADD SWAP1 POP DUP2 DUP2 SUB PUSH0 DUP4 ADD MSTORE PUSH2 0x11AB DUP2 DUP5 PUSH2 0x1120 JUMP JUMPDEST SWAP1 POP SWAP3 SWAP2 POP POP JUMP JUMPDEST PUSH2 0x11BC DUP2 PUSH2 0xD42 JUMP JUMPDEST DUP2 EQ PUSH2 0x11C6 JUMPI PUSH0 DUP1 REVERT JUMPDEST POP JUMP JUMPDEST PUSH0 DUP2 CALLDATALOAD SWAP1 POP PUSH2 0x11D7 DUP2 PUSH2 0x11B3 JUMP JUMPDEST SWAP3 SWAP2 POP POP JUMP JUMPDEST PUSH0 PUSH1 0x20 DUP3 DUP5 SUB SLT ISZERO PUSH2 0x11F2 JUMPI PUSH2 0x11F1 PUSH2 0xB89 JUMP JUMPDEST JUMPDEST PUSH0 PUSH2 0x11FF DUP5 DUP3 DUP6 ADD PUSH2 0x11C9 JUMP JUMPDEST SWAP2 POP POP SWAP3 SWAP2 POP POP JUMP JUMPDEST PUSH32 0x4E487B7100000000000000000000000000000000000000000000000000000000 PUSH0 MSTORE PUSH1 0x22 PUSH1 0x4 MSTORE PUSH1 0x24 PUSH0 REVERT JUMPDEST PUSH0 PUSH1 0x2 DUP3 DIV SWAP1 POP PUSH1 0x1 DUP3 AND DUP1 PUSH2 0x124C JUMPI PUSH1 0x7F DUP3 AND SWAP2 POP JUMPDEST PUSH1 0x20 DUP3 LT DUP2 SUB PUSH2 0x125F JUMPI PUSH2 0x125E PUSH2 0x1208 JUMP JUMPDEST JUMPDEST POP SWAP2 SWAP1 POP JUMP JUMPDEST PUSH32 0x4E487B7100000000000000000000000000000000000000000000000000000000 PUSH0 MSTORE PUSH1 0x32 PUSH1 0x4 MSTORE PUSH1 0x24 PUSH0 REVERT JUMPDEST PUSH32 0x747765657420646F7365206E6F74206578697374732E2E2E2100000000000000 PUSH0 DUP3 ADD MSTORE POP JUMP JUMPDEST PUSH0 PUSH2 0x12C6 PUSH1 0x19 DUP4 PUSH2 0xC84 JUMP JUMPDEST SWAP2 POP PUSH2 0x12D1 DUP3 PUSH2 0x1292 JUMP JUMPDEST PUSH1 0x20 DUP3 ADD SWAP1 POP SWAP2 SWAP1 POP JUMP JUMPDEST PUSH0 PUSH1 0x20 DUP3 ADD SWAP1 POP DUP2 DUP2 SUB PUSH0 DUP4 ADD MSTORE PUSH2 0x12F3 DUP2 PUSH2 0x12BA JUMP JUMPDEST SWAP1 POP SWAP2 SWAP1 POP JUMP JUMPDEST PUSH32 0x7477656574206C696B65206973207A65726F2E2E2E2100000000000000000000 PUSH0 DUP3 ADD MSTORE POP JUMP JUMPDEST PUSH0 PUSH2 0x132E PUSH1 0x16 DUP4 PUSH2 0xC84 JUMP JUMPDEST SWAP2 POP PUSH2 0x1339 DUP3 PUSH2 0x12FA JUMP JUMPDEST PUSH1 0x20 DUP3 ADD SWAP1 POP SWAP2 SWAP1 POP JUMP JUMPDEST PUSH0 PUSH1 0x20 DUP3 ADD SWAP1 POP DUP2 DUP2 SUB PUSH0 DUP4 ADD MSTORE PUSH2 0x135B DUP2 PUSH2 0x1322 JUMP JUMPDEST SWAP1 POP SWAP2 SWAP1 POP JUMP JUMPDEST PUSH32 0x4E487B7100000000000000000000000000000000000000000000000000000000 PUSH0 MSTORE PUSH1 0x11 PUSH1 0x4 MSTORE PUSH1 0x24 PUSH0 REVERT JUMPDEST PUSH0 PUSH2 0x1399 DUP3 PUSH2 0xBEB JUMP JUMPDEST SWAP2 POP PUSH0 DUP3 SUB PUSH2 0x13AB JUMPI PUSH2 0x13AA PUSH2 0x1362 JUMP JUMPDEST JUMPDEST PUSH1 0x1 DUP3 SUB SWAP1 POP SWAP2 SWAP1 POP JUMP JUMPDEST PUSH0 PUSH2 0x13C0 DUP3 PUSH2 0xBEB JUMP JUMPDEST SWAP2 POP PUSH32 0xFFFFFFFFFFFFFFFFFFFFFFFFFFFFFFFFFFFFFFFFFFFFFFFFFFFFFFFFFFFFFFFF DUP3 SUB PUSH2 0x13F2 JUMPI PUSH2 0x13F1 PUSH2 0x1362 JUMP JUMPDEST JUMPDEST PUSH1 0x1 DUP3 ADD SWAP1 POP SWAP2 SWAP1 POP JUMP JUMPDEST PUSH32 0x747765657420697320746F206C65616E6774682E2E2E21000000000000000000 PUSH0 DUP3 ADD MSTORE POP JUMP JUMPDEST PUSH0 PUSH2 0x1431 PUSH1 0x17 DUP4 PUSH2 0xC84 JUMP JUMPDEST SWAP2 POP PUSH2 0x143C DUP3 PUSH2 0x13FD JUMP JUMPDEST PUSH1 0x20 DUP3 ADD SWAP1 POP SWAP2 SWAP1 POP JUMP JUMPDEST PUSH0 PUSH1 0x20 DUP3 ADD SWAP1 POP DUP2 DUP2 SUB PUSH0 DUP4 ADD MSTORE PUSH2 0x145E DUP2 PUSH2 0x1425 JUMP JUMPDEST SWAP1 POP SWAP2 SWAP1 POP JUMP JUMPDEST PUSH0 DUP2 SWAP1 POP DUP2 PUSH0 MSTORE PUSH1 0x20 PUSH0 KECCAK256 SWAP1 POP SWAP2 SWAP1 POP JUMP JUMPDEST PUSH0 PUSH1 0x20 PUSH1 0x1F DUP4 ADD DIV SWAP1 POP SWAP2 SWAP1 POP JUMP JUMPDEST PUSH0 DUP3 DUP3 SHL SWAP1 POP SWAP3 SWAP2 POP POP JUMP JUMPDEST PUSH0 PUSH1 0x8 DUP4 MUL PUSH2 0x14C1 PUSH32 0xFFFFFFFFFFFFFFFFFFFFFFFFFFFFFFFFFFFFFFFFFFFFFFFFFFFFFFFFFFFFFFFF DUP3 PUSH2 0x1486 JUMP JUMPDEST PUSH2 0x14CB DUP7 DUP4 PUSH2 0x1486 JUMP JUMPDEST SWAP6 POP DUP1 NOT DUP5 AND SWAP4 POP DUP1 DUP7 AND DUP5 OR SWAP3 POP POP POP SWAP4 SWAP3 POP POP POP JUMP JUMPDEST PUSH0 DUP2 SWAP1 POP SWAP2 SWAP1 POP JUMP JUMPDEST PUSH0 PUSH2 0x1506 PUSH2 0x1501 PUSH2 0x14FC DUP5 PUSH2 0xBEB JUMP JUMPDEST PUSH2 0x14E3 JUMP JUMPDEST PUSH2 0xBEB JUMP JUMPDEST SWAP1 POP SWAP2 SWAP1 POP JUMP JUMPDEST PUSH0 DUP2 SWAP1 POP SWAP2 SWAP1 POP JUMP JUMPDEST PUSH2 0x151F DUP4 PUSH2 0x14EC JUMP JUMPDEST PUSH2 0x1533 PUSH2 0x152B DUP3 PUSH2 0x150D JUMP JUMPDEST DUP5 DUP5 SLOAD PUSH2 0x1492 JUMP JUMPDEST DUP3 SSTORE POP POP POP POP JUMP JUMPDEST PUSH0 SWAP1 JUMP JUMPDEST PUSH2 0x1547 PUSH2 0x153B JUMP JUMPDEST PUSH2 0x1552 DUP2 DUP5 DUP5 PUSH2 0x1516 JUMP JUMPDEST POP POP POP JUMP JUMPDEST JUMPDEST DUP2 DUP2 LT ISZERO PUSH2 0x1575 JUMPI PUSH2 0x156A PUSH0 DUP3 PUSH2 0x153F JUMP JUMPDEST PUSH1 0x1 DUP2 ADD SWAP1 POP PUSH2 0x1558 JUMP JUMPDEST POP POP JUMP JUMPDEST PUSH1 0x1F DUP3 GT ISZERO PUSH2 0x15BA JUMPI PUSH2 0x158B DUP2 PUSH2 0x1465 JUMP JUMPDEST PUSH2 0x1594 DUP5 PUSH2 0x1477 JUMP JUMPDEST DUP2 ADD PUSH1 0x20 DUP6 LT ISZERO PUSH2 0x15A3 JUMPI DUP2 SWAP1 POP JUMPDEST PUSH2 0x15B7 PUSH2 0x15AF DUP6 PUSH2 0x1477 JUMP JUMPDEST DUP4 ADD DUP3 PUSH2 0x1557 JUMP JUMPDEST POP POP JUMPDEST POP POP POP JUMP JUMPDEST PUSH0 DUP3 DUP3 SHR SWAP1 POP SWAP3 SWAP2 POP POP JUMP JUMPDEST PUSH0 PUSH2 0x15DA PUSH0 NOT DUP5 PUSH1 0x8 MUL PUSH2 0x15BF JUMP JUMPDEST NOT DUP1 DUP4 AND SWAP2 POP POP SWAP3 SWAP2 POP POP JUMP JUMPDEST PUSH0 PUSH2 0x15F2 DUP4 DUP4 PUSH2 0x15CB JUMP JUMPDEST SWAP2 POP DUP3 PUSH1 0x2 MUL DUP3 OR SWAP1 POP SWAP3 SWAP2 POP POP JUMP JUMPDEST PUSH2 0x160B DUP3 PUSH2 0xC7A JUMP JUMPDEST PUSH8 0xFFFFFFFFFFFFFFFF DUP2 GT ISZERO PUSH2 0x1624 JUMPI PUSH2 0x1623 PUSH2 0xEB6 JUMP JUMPDEST JUMPDEST PUSH2 0x162E DUP3 SLOAD PUSH2 0x1235 JUMP JUMPDEST PUSH2 0x1639 DUP3 DUP3 DUP6 PUSH2 0x1579 JUMP JUMPDEST PUSH0 PUSH1 0x20 SWAP1 POP PUSH1 0x1F DUP4 GT PUSH1 0x1 DUP2 EQ PUSH2 0x166A JUMPI PUSH0 DUP5 ISZERO PUSH2 0x1658 JUMPI DUP3 DUP8 ADD MLOAD SWAP1 POP JUMPDEST PUSH2 0x1662 DUP6 DUP3 PUSH2 0x15E7 JUMP JUMPDEST DUP7 SSTORE POP PUSH2 0x16C9 JUMP JUMPDEST PUSH1 0x1F NOT DUP5 AND PUSH2 0x1678 DUP7 PUSH2 0x1465 JUMP JUMPDEST PUSH0 JUMPDEST DUP3 DUP2 LT ISZERO PUSH2 0x169F JUMPI DUP5 DUP10 ADD MLOAD DUP3 SSTORE PUSH1 0x1 DUP3 ADD SWAP2 POP PUSH1 0x20 DUP6 ADD SWAP5 POP PUSH1 0x20 DUP2 ADD SWAP1 POP PUSH2 0x167A JUMP JUMPDEST DUP7 DUP4 LT ISZERO PUSH2 0x16BC JUMPI DUP5 DUP10 ADD MLOAD PUSH2 0x16B8 PUSH1 0x1F DUP10 AND DUP3 PUSH2 0x15CB JUMP JUMPDEST DUP4 SSTORE POP JUMPDEST PUSH1 0x1 PUSH1 0x2 DUP9 MUL ADD DUP9 SSTORE POP POP POP JUMPDEST POP POP POP POP POP POP JUMP JUMPDEST PUSH32 0x594F5552204E4F5420544845204F574E45522E2E2E2E21000000000000000000 PUSH0 DUP3 ADD MSTORE POP JUMP JUMPDEST PUSH0 PUSH2 0x1705 PUSH1 0x17 DUP4 PUSH2 0xC84 JUMP JUMPDEST SWAP2 POP PUSH2 0x1710 DUP3 PUSH2 0x16D1 JUMP JUMPDEST PUSH1 0x20 DUP3 ADD SWAP1 POP SWAP2 SWAP1 POP JUMP JUMPDEST PUSH0 PUSH1 0x20 DUP3 ADD SWAP1 POP DUP2 DUP2 SUB PUSH0 DUP4 ADD MSTORE PUSH2 0x1732 DUP2 PUSH2 0x16F9 JUMP JUMPDEST SWAP1 POP SWAP2 SWAP1 POP JUMP INVALID LOG2 PUSH5 0x6970667358 0x22 SLT KECCAK256 0x26 PUSH8 0x786CD7B6D48BA6CC PUSH15 0xDA6FE59FE292C7B3812025F82C729C 0xE5 0xFB PUSH26 0x82DEEB64736F6C634300081A0033000000000000000000000000 "
				},
				"gasEstimates": {
					"creation": {
						"codeDepositCost": "1199800",
						"executionCost": "49777",
						"totalCost": "1249577"
					},
					"external": {
						"MAX_TWEEN_LENGTH()": "2508",
						"changeTweenLength(uint16)": "26930",
						"createTweet(string)": "infinite",
						"getAllTweet(address)": "infinite",
						"getTweet(uint256,address)": "infinite",
						"likeTweet(address,uint256)": "infinite",
						"owner()": "2552",
						"tweets(address,uint256)": "infinite",
						"unlikeTweet(address,uint256)": "infinite"
					}
				},
				"methodIdentifiers": {
					"MAX_TWEEN_LENGTH()": "425812ce",
					"changeTweenLength(uint16)": "bf8ba78b",
					"createTweet(string)": "7c9cd2bc",
					"getAllTweet(address)": "b64988b8",
					"getTweet(uint256,address)": "4e46b4e5",
					"likeTweet(address,uint256)": "63378216",
					"owner()": "8da5cb5b",
					"tweets(address,uint256)": "05a1b4a9",
					"unlikeTweet(address,uint256)": "3d9b569f"
				}
			},
			"storageLayout": {
				"storage": [
					{
						"astId": 4,
						"contract": "contracts/twittwr.sol:Twitter",
						"label": "MAX_TWEEN_LENGTH",
						"offset": 0,
						"slot": "0",
						"type": "t_uint16"
					},
					{
						"astId": 21,
						"contract": "contracts/twittwr.sol:Twitter",
						"label": "tweets",
						"offset": 0,
						"slot": "1",
						"type": "t_mapping(t_address,t_array(t_struct(Tweet)15_storage)dyn_storage)"
					},
					{
						"astId": 23,
						"contract": "contracts/twittwr.sol:Twitter",
						"label": "owner",
						"offset": 0,
						"slot": "2",
						"type": "t_address"
					}
				],
				"types": {
					"t_address": {
						"encoding": "inplace",
						"label": "address",
						"numberOfBytes": "20"
					},
					"t_array(t_struct(Tweet)15_storage)dyn_storage": {
						"base": "t_struct(Tweet)15_storage",
						"encoding": "dynamic_array",
						"label": "struct Twitter.Tweet[]",
						"numberOfBytes": "32"
					},
					"t_mapping(t_address,t_array(t_struct(Tweet)15_storage)dyn_storage)": {
						"encoding": "mapping",
						"key": "t_address",
						"label": "mapping(address => struct Twitter.Tweet[])",
						"numberOfBytes": "32",
						"value": "t_array(t_struct(Tweet)15_storage)dyn_storage"
					},
					"t_string_storage": {
						"encoding": "bytes",
						"label": "string",
						"numberOfBytes": "32"
					},
					"t_struct(Tweet)15_storage": {
						"encoding": "inplace",
						"label": "struct Twitter.Tweet",
						"members": [
							{
								"astId": 6,
								"contract": "contracts/twittwr.sol:Twitter",
								"label": "id",
								"offset": 0,
								"slot": "0",
								"type": "t_uint256"
							},
							{
								"astId": 8,
								"contract": "contracts/twittwr.sol:Twitter",
								"label": "aithor",
								"offset": 0,
								"slot": "1",
								"type": "t_address"
							},
							{
								"astId": 10,
								"contract": "contracts/twittwr.sol:Twitter",
								"label": "content",
								"offset": 0,
								"slot": "2",
								"type": "t_string_storage"
							},
							{
								"astId": 12,
								"contract": "contracts/twittwr.sol:Twitter",
								"label": "timesstamp",
								"offset": 0,
								"slot": "3",
								"type": "t_uint256"
							},
							{
								"astId": 14,
								"contract": "contracts/twittwr.sol:Twitter",
								"label": "likes",
								"offset": 0,
								"slot": "4",
								"type": "t_uint256"
							}
						],
						"numberOfBytes": "160"
					},
					"t_uint16": {
						"encoding": "inplace",
						"label": "uint16",
						"numberOfBytes": "2"
					},
					"t_uint256": {
						"encoding": "inplace",
						"label": "uint256",
						"numberOfBytes": "32"
					}
				}
			},
			"userdoc": {
				"kind": "user",
				"methods": {},
				"version": 1
			}
		}
	}
}