{
	"contracts/Todo.sol": {
		"Todo": {
			"abi": [
				{
					"inputs": [],
					"stateMutability": "nonpayable",
					"type": "constructor"
				},
				{
					"inputs": [
						{
							"internalType": "string",
							"name": "_taskName",
							"type": "string"
						},
						{
							"internalType": "string",
							"name": "_data",
							"type": "string"
						}
					],
					"name": "createTask",
					"outputs": [],
					"stateMutability": "nonpayable",
					"type": "function"
				},
				{
					"inputs": [
						{
							"internalType": "uint256",
							"name": "_id",
							"type": "uint256"
						}
					],
					"name": "deleteTask",
					"outputs": [],
					"stateMutability": "nonpayable",
					"type": "function"
				},
				{
					"inputs": [],
					"name": "getAllTasks",
					"outputs": [
						{
							"components": [
								{
									"internalType": "uint256",
									"name": "id",
									"type": "uint256"
								},
								{
									"internalType": "string",
									"name": "name",
									"type": "string"
								},
								{
									"internalType": "string",
									"name": "data",
									"type": "string"
								},
								{
									"internalType": "bool",
									"name": "exists",
									"type": "bool"
								}
							],
							"internalType": "struct Todo.Task[]",
							"name": "",
							"type": "tuple[]"
						}
					],
					"stateMutability": "view",
					"type": "function"
				},
				{
					"inputs": [],
					"name": "owner",
					"outputs": [
						{
							"internalType": "address",
							"name": "",
							"type": "address"
						}
					],
					"stateMutability": "view",
					"type": "function"
				},
				{
					"inputs": [
						{
							"internalType": "uint256",
							"name": "_id",
							"type": "uint256"
						},
						{
							"internalType": "string",
							"name": "_newTask",
							"type": "string"
						},
						{
							"internalType": "string",
							"name": "_data",
							"type": "string"
						}
					],
					"name": "updateTask",
					"outputs": [],
					"stateMutability": "nonpayable",
					"type": "function"
				},
				{
					"inputs": [
						{
							"internalType": "uint256",
							"name": "_id",
							"type": "uint256"
						}
					],
					"name": "viewTask",
					"outputs": [
						{
							"components": [
								{
									"internalType": "uint256",
									"name": "id",
									"type": "uint256"
								},
								{
									"internalType": "string",
									"name": "name",
									"type": "string"
								},
								{
									"internalType": "string",
									"name": "data",
									"type": "string"
								},
								{
									"internalType": "bool",
									"name": "exists",
									"type": "bool"
								}
							],
							"internalType": "struct Todo.Task",
							"name": "",
							"type": "tuple"
						}
					],
					"stateMutability": "view",
					"type": "function"
				}
			],
			"devdoc": {
				"kind": "dev",
				"methods": {},
				"version": 1
			},
			"evm": {
				"assembly": "    /* \"contracts/Todo.sol\":70:1854  contract Todo {... */\n  mstore(0x40, 0x80)\n    /* \"contracts/Todo.sol\":275:276  1 */\n  0x01\n    /* \"contracts/Todo.sol\":253:276  uint private taskId = 1 */\n  dup1\n  sstore\n    /* \"contracts/Todo.sol\":610:689  constructor() {... */\n  callvalue\n  dup1\n  iszero\n  tag_1\n  jumpi\n  0x00\n  dup1\n  revert\ntag_1:\n  pop\n    /* \"contracts/Todo.sol\":638:648  msg.sender */\n  caller\n    /* \"contracts/Todo.sol\":630:635  owner */\n  0x00\n  dup1\n    /* \"contracts/Todo.sol\":630:648  owner = msg.sender */\n  0x0100\n  exp\n  dup2\n  sload\n  dup2\n  0xffffffffffffffffffffffffffffffffffffffff\n  mul\n  not\n  and\n  swap1\n  dup4\n  0xffffffffffffffffffffffffffffffffffffffff\n  and\n  mul\n  or\n  swap1\n  sstore\n  pop\n    /* \"contracts/Todo.sol\":70:1854  contract Todo {... */\n  dataSize(sub_0)\n  dup1\n  dataOffset(sub_0)\n  0x00\n  codecopy\n  0x00\n  return\nstop\n\nsub_0: assembly {\n        /* \"contracts/Todo.sol\":70:1854  contract Todo {... */\n      mstore(0x40, 0x80)\n      callvalue\n      dup1\n      iszero\n      tag_1\n      jumpi\n      0x00\n      dup1\n      revert\n    tag_1:\n      pop\n      jumpi(tag_2, lt(calldatasize, 0x04))\n      shr(0xe0, calldataload(0x00))\n      dup1\n      0x292a4585\n      eq\n      tag_3\n      jumpi\n      dup1\n      0x3b3d7e56\n      eq\n      tag_4\n      jumpi\n      dup1\n      0x560f3192\n      eq\n      tag_5\n      jumpi\n      dup1\n      0x779900b4\n      eq\n      tag_6\n      jumpi\n      dup1\n      0x8da5cb5b\n      eq\n      tag_7\n      jumpi\n      dup1\n      0xc72ef41f\n      eq\n      tag_8\n      jumpi\n    tag_2:\n      0x00\n      dup1\n      revert\n        /* \"contracts/Todo.sol\":696:860  function createTask(string calldata _taskName, string calldata _data) public {... */\n    tag_3:\n      tag_9\n      0x04\n      dup1\n      calldatasize\n      sub\n      dup2\n      add\n      swap1\n      tag_10\n      swap2\n      swap1\n      tag_11\n      jump\t// in\n    tag_10:\n      tag_12\n      jump\t// in\n    tag_9:\n      stop\n        /* \"contracts/Todo.sol\":1645:1754  function viewTask(uint _id) public view checkId(_id) returns (Task memory) {... */\n    tag_4:\n      tag_13\n      0x04\n      dup1\n      calldatasize\n      sub\n      dup2\n      add\n      swap1\n      tag_14\n      swap2\n      swap1\n      tag_15\n      jump\t// in\n    tag_14:\n      tag_16\n      jump\t// in\n    tag_13:\n      mload(0x40)\n      tag_17\n      swap2\n      swap1\n      tag_18\n      jump\t// in\n    tag_17:\n      mload(0x40)\n      dup1\n      swap2\n      sub\n      swap1\n      return\n        /* \"contracts/Todo.sol\":1760:1852  function deleteTask(uint _id) public checkId(_id) {... */\n    tag_5:\n      tag_19\n      0x04\n      dup1\n      calldatasize\n      sub\n      dup2\n      add\n      swap1\n      tag_20\n      swap2\n      swap1\n      tag_15\n      jump\t// in\n    tag_20:\n      tag_21\n      jump\t// in\n    tag_19:\n      stop\n        /* \"contracts/Todo.sol\":1067:1639  function getAllTasks() public view returns (Task[] memory) {... */\n    tag_6:\n      tag_22\n      tag_23\n      jump\t// in\n    tag_22:\n      mload(0x40)\n      tag_24\n      swap2\n      swap1\n      tag_25\n      jump\t// in\n    tag_24:\n      mload(0x40)\n      dup1\n      swap2\n      sub\n      swap1\n      return\n        /* \"contracts/Todo.sol\":227:247  address public owner */\n    tag_7:\n      tag_26\n      tag_27\n      jump\t// in\n    tag_26:\n      mload(0x40)\n      tag_28\n      swap2\n      swap1\n      tag_29\n      jump\t// in\n    tag_28:\n      mload(0x40)\n      dup1\n      swap2\n      sub\n      swap1\n      return\n        /* \"contracts/Todo.sol\":866:1061  function updateTask(uint _id, string calldata _newTask, string calldata _data)... */\n    tag_8:\n      tag_30\n      0x04\n      dup1\n      calldatasize\n      sub\n      dup2\n      add\n      swap1\n      tag_31\n      swap2\n      swap1\n      tag_32\n      jump\t// in\n    tag_31:\n      tag_33\n      jump\t// in\n    tag_30:\n      stop\n        /* \"contracts/Todo.sol\":696:860  function createTask(string calldata _taskName, string calldata _data) public {... */\n    tag_12:\n        /* \"contracts/Todo.sol\":799:835  Task(taskId, _taskName, _data, true) */\n      mload(0x40)\n      dup1\n      0x80\n      add\n      0x40\n      mstore\n      dup1\n        /* \"contracts/Todo.sol\":804:810  taskId */\n      sload(0x01)\n        /* \"contracts/Todo.sol\":799:835  Task(taskId, _taskName, _data, true) */\n      dup2\n      mstore\n      0x20\n      add\n        /* \"contracts/Todo.sol\":812:821  _taskName */\n      dup6\n      dup6\n        /* \"contracts/Todo.sol\":799:835  Task(taskId, _taskName, _data, true) */\n      dup1\n      dup1\n      0x1f\n      add\n      0x20\n      dup1\n      swap2\n      div\n      mul\n      0x20\n      add\n      mload(0x40)\n      swap1\n      dup2\n      add\n      0x40\n      mstore\n      dup1\n      swap4\n      swap3\n      swap2\n      swap1\n      dup2\n      dup2\n      mstore\n      0x20\n      add\n      dup4\n      dup4\n      dup1\n      dup3\n      dup5\n      calldatacopy\n      0x00\n      dup2\n      dup5\n      add\n      mstore\n      not(0x1f)\n      0x1f\n      dup3\n      add\n      and\n      swap1\n      pop\n      dup1\n      dup4\n      add\n      swap3\n      pop\n      pop\n      pop\n      pop\n      pop\n      pop\n      pop\n      dup2\n      mstore\n      0x20\n      add\n        /* \"contracts/Todo.sol\":823:828  _data */\n      dup4\n      dup4\n        /* \"contracts/Todo.sol\":799:835  Task(taskId, _taskName, _data, true) */\n      dup1\n      dup1\n      0x1f\n      add\n      0x20\n      dup1\n      swap2\n      div\n      mul\n      0x20\n      add\n      mload(0x40)\n      swap1\n      dup2\n      add\n      0x40\n      mstore\n      dup1\n      swap4\n      swap3\n      swap2\n      swap1\n      dup2\n      dup2\n      mstore\n      0x20\n      add\n      dup4\n      dup4\n      dup1\n      dup3\n      dup5\n      calldatacopy\n      0x00\n      dup2\n      dup5\n      add\n      mstore\n      not(0x1f)\n      0x1f\n      dup3\n      add\n      and\n      swap1\n      pop\n      dup1\n      dup4\n      add\n      swap3\n      pop\n      pop\n      pop\n      pop\n      pop\n      pop\n      pop\n      dup2\n      mstore\n      0x20\n      add\n        /* \"contracts/Todo.sol\":830:834  true */\n      0x01\n        /* \"contracts/Todo.sol\":799:835  Task(taskId, _taskName, _data, true) */\n      iszero\n      iszero\n      dup2\n      mstore\n      pop\n        /* \"contracts/Todo.sol\":783:788  tasks */\n      0x02\n        /* \"contracts/Todo.sol\":783:796  tasks[taskId] */\n      0x00\n        /* \"contracts/Todo.sol\":789:795  taskId */\n      sload(0x01)\n        /* \"contracts/Todo.sol\":783:796  tasks[taskId] */\n      dup2\n      mstore\n      0x20\n      add\n      swap1\n      dup2\n      mstore\n      0x20\n      add\n      0x00\n      keccak256\n        /* \"contracts/Todo.sol\":783:835  tasks[taskId] = Task(taskId, _taskName, _data, true) */\n      0x00\n      dup3\n      add\n      mload\n      dup2\n      0x00\n      add\n      sstore\n      0x20\n      dup3\n      add\n      mload\n      dup2\n      0x01\n      add\n      swap1\n      dup2\n      tag_35\n      swap2\n      swap1\n      tag_36\n      jump\t// in\n    tag_35:\n      pop\n      0x40\n      dup3\n      add\n      mload\n      dup2\n      0x02\n      add\n      swap1\n      dup2\n      tag_37\n      swap2\n      swap1\n      tag_36\n      jump\t// in\n    tag_37:\n      pop\n      0x60\n      dup3\n      add\n      mload\n      dup2\n      0x03\n      add\n      exp(0x0100, 0x00)\n      dup2\n      sload\n      dup2\n      0xff\n      mul\n      not\n      and\n      swap1\n      dup4\n      iszero\n      iszero\n      mul\n      or\n      swap1\n      sstore\n      pop\n      swap1\n      pop\n      pop\n        /* \"contracts/Todo.sol\":845:851  taskId */\n      0x01\n      0x00\n        /* \"contracts/Todo.sol\":845:853  taskId++ */\n      dup2\n      sload\n      dup1\n      swap3\n      swap2\n      swap1\n      tag_38\n      swap1\n      tag_39\n      jump\t// in\n    tag_38:\n      swap2\n      swap1\n      pop\n      sstore\n      pop\n        /* \"contracts/Todo.sol\":696:860  function createTask(string calldata _taskName, string calldata _data) public {... */\n      pop\n      pop\n      pop\n      pop\n      jump\t// out\n        /* \"contracts/Todo.sol\":1645:1754  function viewTask(uint _id) public view checkId(_id) returns (Task memory) {... */\n    tag_16:\n        /* \"contracts/Todo.sol\":1707:1718  Task memory */\n      tag_40\n      tag_41\n      jump\t// in\n    tag_40:\n        /* \"contracts/Todo.sol\":1693:1696  _id */\n      dup2\n        /* \"contracts/Todo.sol\":374:375  0 */\n      0x00\n        /* \"contracts/Todo.sol\":368:370  id */\n      dup2\n        /* \"contracts/Todo.sol\":368:375  id != 0 */\n      eq\n      iszero\n        /* \"contracts/Todo.sol\":368:390  id != 0 && id < taskId */\n      dup1\n      iszero\n      tag_43\n      jumpi\n      pop\n        /* \"contracts/Todo.sol\":384:390  taskId */\n      sload(0x01)\n        /* \"contracts/Todo.sol\":379:381  id */\n      dup2\n        /* \"contracts/Todo.sol\":379:390  id < taskId */\n      lt\n        /* \"contracts/Todo.sol\":368:390  id != 0 && id < taskId */\n    tag_43:\n        /* \"contracts/Todo.sol\":360:405  require(id != 0 && id < taskId, \"Invalid ID\") */\n      tag_44\n      jumpi\n      mload(0x40)\n      0x08c379a000000000000000000000000000000000000000000000000000000000\n      dup2\n      mstore\n      0x04\n      add\n      tag_45\n      swap1\n      tag_46\n      jump\t// in\n    tag_45:\n      mload(0x40)\n      dup1\n      swap2\n      sub\n      swap1\n      revert\n    tag_44:\n        /* \"contracts/Todo.sol\":423:428  tasks */\n      0x02\n        /* \"contracts/Todo.sol\":423:432  tasks[id] */\n      0x00\n        /* \"contracts/Todo.sol\":429:431  id */\n      dup3\n        /* \"contracts/Todo.sol\":423:432  tasks[id] */\n      dup2\n      mstore\n      0x20\n      add\n      swap1\n      dup2\n      mstore\n      0x20\n      add\n      0x00\n      keccak256\n        /* \"contracts/Todo.sol\":423:439  tasks[id].exists */\n      0x03\n      add\n      0x00\n      swap1\n      sload\n      swap1\n      0x0100\n      exp\n      swap1\n      div\n      0xff\n      and\n        /* \"contracts/Todo.sol\":415:463  require(tasks[id].exists, \"Task does not exist\") */\n      tag_47\n      jumpi\n      mload(0x40)\n      0x08c379a000000000000000000000000000000000000000000000000000000000\n      dup2\n      mstore\n      0x04\n      add\n      tag_48\n      swap1\n      tag_49\n      jump\t// in\n    tag_48:\n      mload(0x40)\n      dup1\n      swap2\n      sub\n      swap1\n      revert\n    tag_47:\n        /* \"contracts/Todo.sol\":1737:1742  tasks */\n      0x02\n        /* \"contracts/Todo.sol\":1737:1747  tasks[_id] */\n      0x00\n        /* \"contracts/Todo.sol\":1743:1746  _id */\n      dup5\n        /* \"contracts/Todo.sol\":1737:1747  tasks[_id] */\n      dup2\n      mstore\n      0x20\n      add\n      swap1\n      dup2\n      mstore\n      0x20\n      add\n      0x00\n      keccak256\n        /* \"contracts/Todo.sol\":1730:1747  return tasks[_id] */\n      mload(0x40)\n      dup1\n      0x80\n      add\n      0x40\n      mstore\n      swap1\n      dup2\n      0x00\n      dup3\n      add\n      sload\n      dup2\n      mstore\n      0x20\n      add\n      0x01\n      dup3\n      add\n      dup1\n      sload\n      tag_51\n      swap1\n      tag_52\n      jump\t// in\n    tag_51:\n      dup1\n      0x1f\n      add\n      0x20\n      dup1\n      swap2\n      div\n      mul\n      0x20\n      add\n      mload(0x40)\n      swap1\n      dup2\n      add\n      0x40\n      mstore\n      dup1\n      swap3\n      swap2\n      swap1\n      dup2\n      dup2\n      mstore\n      0x20\n      add\n      dup3\n      dup1\n      sload\n      tag_53\n      swap1\n      tag_52\n      jump\t// in\n    tag_53:\n      dup1\n      iszero\n      tag_54\n      jumpi\n      dup1\n      0x1f\n      lt\n      tag_55\n      jumpi\n      0x0100\n      dup1\n      dup4\n      sload\n      div\n      mul\n      dup4\n      mstore\n      swap2\n      0x20\n      add\n      swap2\n      jump(tag_54)\n    tag_55:\n      dup3\n      add\n      swap2\n      swap1\n      0x00\n      mstore\n      keccak256(0x00, 0x20)\n      swap1\n    tag_56:\n      dup2\n      sload\n      dup2\n      mstore\n      swap1\n      0x01\n      add\n      swap1\n      0x20\n      add\n      dup1\n      dup4\n      gt\n      tag_56\n      jumpi\n      dup3\n      swap1\n      sub\n      0x1f\n      and\n      dup3\n      add\n      swap2\n    tag_54:\n      pop\n      pop\n      pop\n      pop\n      pop\n      dup2\n      mstore\n      0x20\n      add\n      0x02\n      dup3\n      add\n      dup1\n      sload\n      tag_57\n      swap1\n      tag_52\n      jump\t// in\n    tag_57:\n      dup1\n      0x1f\n      add\n      0x20\n      dup1\n      swap2\n      div\n      mul\n      0x20\n      add\n      mload(0x40)\n      swap1\n      dup2\n      add\n      0x40\n      mstore\n      dup1\n      swap3\n      swap2\n      swap1\n      dup2\n      dup2\n      mstore\n      0x20\n      add\n      dup3\n      dup1\n      sload\n      tag_58\n      swap1\n      tag_52\n      jump\t// in\n    tag_58:\n      dup1\n      iszero\n      tag_59\n      jumpi\n      dup1\n      0x1f\n      lt\n      tag_60\n      jumpi\n      0x0100\n      dup1\n      dup4\n      sload\n      div\n      mul\n      dup4\n      mstore\n      swap2\n      0x20\n      add\n      swap2\n      jump(tag_59)\n    tag_60:\n      dup3\n      add\n      swap2\n      swap1\n      0x00\n      mstore\n      keccak256(0x00, 0x20)\n      swap1\n    tag_61:\n      dup2\n      sload\n      dup2\n      mstore\n      swap1\n      0x01\n      add\n      swap1\n      0x20\n      add\n      dup1\n      dup4\n      gt\n      tag_61\n      jumpi\n      dup3\n      swap1\n      sub\n      0x1f\n      and\n      dup3\n      add\n      swap2\n    tag_59:\n      pop\n      pop\n      pop\n      pop\n      pop\n      dup2\n      mstore\n      0x20\n      add\n      0x03\n      dup3\n      add\n      0x00\n      swap1\n      sload\n      swap1\n      0x0100\n      exp\n      swap1\n      div\n      0xff\n      and\n      iszero\n      iszero\n      iszero\n      iszero\n      dup2\n      mstore\n      pop\n      pop\n      swap2\n      pop\n        /* \"contracts/Todo.sol\":1645:1754  function viewTask(uint _id) public view checkId(_id) returns (Task memory) {... */\n      pop\n      swap2\n      swap1\n      pop\n      jump\t// out\n        /* \"contracts/Todo.sol\":1760:1852  function deleteTask(uint _id) public checkId(_id) {... */\n    tag_21:\n        /* \"contracts/Todo.sol\":1805:1808  _id */\n      dup1\n        /* \"contracts/Todo.sol\":374:375  0 */\n      0x00\n        /* \"contracts/Todo.sol\":368:370  id */\n      dup2\n        /* \"contracts/Todo.sol\":368:375  id != 0 */\n      eq\n      iszero\n        /* \"contracts/Todo.sol\":368:390  id != 0 && id < taskId */\n      dup1\n      iszero\n      tag_63\n      jumpi\n      pop\n        /* \"contracts/Todo.sol\":384:390  taskId */\n      sload(0x01)\n        /* \"contracts/Todo.sol\":379:381  id */\n      dup2\n        /* \"contracts/Todo.sol\":379:390  id < taskId */\n      lt\n        /* \"contracts/Todo.sol\":368:390  id != 0 && id < taskId */\n    tag_63:\n        /* \"contracts/Todo.sol\":360:405  require(id != 0 && id < taskId, \"Invalid ID\") */\n      tag_64\n      jumpi\n      mload(0x40)\n      0x08c379a000000000000000000000000000000000000000000000000000000000\n      dup2\n      mstore\n      0x04\n      add\n      tag_65\n      swap1\n      tag_46\n      jump\t// in\n    tag_65:\n      mload(0x40)\n      dup1\n      swap2\n      sub\n      swap1\n      revert\n    tag_64:\n        /* \"contracts/Todo.sol\":423:428  tasks */\n      0x02\n        /* \"contracts/Todo.sol\":423:432  tasks[id] */\n      0x00\n        /* \"contracts/Todo.sol\":429:431  id */\n      dup3\n        /* \"contracts/Todo.sol\":423:432  tasks[id] */\n      dup2\n      mstore\n      0x20\n      add\n      swap1\n      dup2\n      mstore\n      0x20\n      add\n      0x00\n      keccak256\n        /* \"contracts/Todo.sol\":423:439  tasks[id].exists */\n      0x03\n      add\n      0x00\n      swap1\n      sload\n      swap1\n      0x0100\n      exp\n      swap1\n      div\n      0xff\n      and\n        /* \"contracts/Todo.sol\":415:463  require(tasks[id].exists, \"Task does not exist\") */\n      tag_66\n      jumpi\n      mload(0x40)\n      0x08c379a000000000000000000000000000000000000000000000000000000000\n      dup2\n      mstore\n      0x04\n      add\n      tag_67\n      swap1\n      tag_49\n      jump\t// in\n    tag_67:\n      mload(0x40)\n      dup1\n      swap2\n      sub\n      swap1\n      revert\n    tag_66:\n        /* \"contracts/Todo.sol\":1840:1845  false */\n      0x00\n        /* \"contracts/Todo.sol\":1820:1825  tasks */\n      0x02\n        /* \"contracts/Todo.sol\":1820:1830  tasks[_id] */\n      0x00\n        /* \"contracts/Todo.sol\":1826:1829  _id */\n      dup5\n        /* \"contracts/Todo.sol\":1820:1830  tasks[_id] */\n      dup2\n      mstore\n      0x20\n      add\n      swap1\n      dup2\n      mstore\n      0x20\n      add\n      0x00\n      keccak256\n        /* \"contracts/Todo.sol\":1820:1837  tasks[_id].exists */\n      0x03\n      add\n      0x00\n        /* \"contracts/Todo.sol\":1820:1845  tasks[_id].exists = false */\n      0x0100\n      exp\n      dup2\n      sload\n      dup2\n      0xff\n      mul\n      not\n      and\n      swap1\n      dup4\n      iszero\n      iszero\n      mul\n      or\n      swap1\n      sstore\n      pop\n        /* \"contracts/Todo.sol\":1760:1852  function deleteTask(uint _id) public checkId(_id) {... */\n      pop\n      pop\n      jump\t// out\n        /* \"contracts/Todo.sol\":1067:1639  function getAllTasks() public view returns (Task[] memory) {... */\n    tag_23:\n        /* \"contracts/Todo.sol\":1111:1124  Task[] memory */\n      0x60\n        /* \"contracts/Todo.sol\":1136:1146  uint count */\n      0x00\n        /* \"contracts/Todo.sol\":1198:1204  uint i */\n      dup1\n        /* \"contracts/Todo.sol\":1207:1208  1 */\n      0x01\n        /* \"contracts/Todo.sol\":1198:1208  uint i = 1 */\n      swap1\n      pop\n        /* \"contracts/Todo.sol\":1193:1312  for (uint i = 1; i < taskId; i++) {... */\n    tag_70:\n        /* \"contracts/Todo.sol\":1214:1220  taskId */\n      sload(0x01)\n        /* \"contracts/Todo.sol\":1210:1211  i */\n      dup2\n        /* \"contracts/Todo.sol\":1210:1220  i < taskId */\n      lt\n        /* \"contracts/Todo.sol\":1193:1312  for (uint i = 1; i < taskId; i++) {... */\n      iszero\n      tag_71\n      jumpi\n        /* \"contracts/Todo.sol\":1245:1250  tasks */\n      0x02\n        /* \"contracts/Todo.sol\":1245:1253  tasks[i] */\n      0x00\n        /* \"contracts/Todo.sol\":1251:1252  i */\n      dup3\n        /* \"contracts/Todo.sol\":1245:1253  tasks[i] */\n      dup2\n      mstore\n      0x20\n      add\n      swap1\n      dup2\n      mstore\n      0x20\n      add\n      0x00\n      keccak256\n        /* \"contracts/Todo.sol\":1245:1260  tasks[i].exists */\n      0x03\n      add\n      0x00\n      swap1\n      sload\n      swap1\n      0x0100\n      exp\n      swap1\n      div\n      0xff\n      and\n        /* \"contracts/Todo.sol\":1241:1302  if (tasks[i].exists) {... */\n      iszero\n      tag_73\n      jumpi\n        /* \"contracts/Todo.sol\":1280:1287  count++ */\n      dup2\n      dup1\n      tag_74\n      swap1\n      tag_39\n      jump\t// in\n    tag_74:\n      swap3\n      pop\n      pop\n        /* \"contracts/Todo.sol\":1241:1302  if (tasks[i].exists) {... */\n    tag_73:\n        /* \"contracts/Todo.sol\":1222:1225  i++ */\n      dup1\n      dup1\n      0x01\n      add\n      swap2\n      pop\n      pop\n        /* \"contracts/Todo.sol\":1193:1312  for (uint i = 1; i < taskId; i++) {... */\n      jump(tag_70)\n    tag_71:\n      pop\n        /* \"contracts/Todo.sol\":1367:1389  Task[] memory taskList */\n      0x00\n        /* \"contracts/Todo.sol\":1403:1408  count */\n      dup2\n        /* \"contracts/Todo.sol\":1392:1409  new Task[](count) */\n      0xffffffffffffffff\n      dup2\n      gt\n      iszero\n      tag_75\n      jumpi\n      tag_76\n      tag_77\n      jump\t// in\n    tag_76:\n    tag_75:\n      mload(0x40)\n      swap1\n      dup1\n      dup3\n      mstore\n      dup1\n      0x20\n      mul\n      0x20\n      add\n      dup3\n      add\n      0x40\n      mstore\n      dup1\n      iszero\n      tag_78\n      jumpi\n      dup2\n      0x20\n      add\n    tag_79:\n      tag_80\n      tag_41\n      jump\t// in\n    tag_80:\n      dup2\n      mstore\n      0x20\n      add\n      swap1\n      0x01\n      swap1\n      sub\n      swap1\n      dup2\n      tag_79\n      jumpi\n      swap1\n      pop\n    tag_78:\n      pop\n        /* \"contracts/Todo.sol\":1367:1409  Task[] memory taskList = new Task[](count) */\n      swap1\n      pop\n        /* \"contracts/Todo.sol\":1419:1429  uint index */\n      0x00\n        /* \"contracts/Todo.sol\":1449:1455  uint i */\n      dup1\n        /* \"contracts/Todo.sol\":1458:1459  1 */\n      0x01\n        /* \"contracts/Todo.sol\":1449:1459  uint i = 1 */\n      swap1\n      pop\n        /* \"contracts/Todo.sol\":1444:1607  for (uint i = 1; i < taskId; i++) {... */\n    tag_81:\n        /* \"contracts/Todo.sol\":1465:1471  taskId */\n      sload(0x01)\n        /* \"contracts/Todo.sol\":1461:1462  i */\n      dup2\n        /* \"contracts/Todo.sol\":1461:1471  i < taskId */\n      lt\n        /* \"contracts/Todo.sol\":1444:1607  for (uint i = 1; i < taskId; i++) {... */\n      iszero\n      tag_82\n      jumpi\n        /* \"contracts/Todo.sol\":1496:1501  tasks */\n      0x02\n        /* \"contracts/Todo.sol\":1496:1504  tasks[i] */\n      0x00\n        /* \"contracts/Todo.sol\":1502:1503  i */\n      dup3\n        /* \"contracts/Todo.sol\":1496:1504  tasks[i] */\n      dup2\n      mstore\n      0x20\n      add\n      swap1\n      dup2\n      mstore\n      0x20\n      add\n      0x00\n      keccak256\n        /* \"contracts/Todo.sol\":1496:1511  tasks[i].exists */\n      0x03\n      add\n      0x00\n      swap1\n      sload\n      swap1\n      0x0100\n      exp\n      swap1\n      div\n      0xff\n      and\n        /* \"contracts/Todo.sol\":1492:1597  if (tasks[i].exists) {... */\n      iszero\n      tag_84\n      jumpi\n        /* \"contracts/Todo.sol\":1549:1554  tasks */\n      0x02\n        /* \"contracts/Todo.sol\":1549:1557  tasks[i] */\n      0x00\n        /* \"contracts/Todo.sol\":1555:1556  i */\n      dup3\n        /* \"contracts/Todo.sol\":1549:1557  tasks[i] */\n      dup2\n      mstore\n      0x20\n      add\n      swap1\n      dup2\n      mstore\n      0x20\n      add\n      0x00\n      keccak256\n        /* \"contracts/Todo.sol\":1531:1557  taskList[index] = tasks[i] */\n      mload(0x40)\n      dup1\n      0x80\n      add\n      0x40\n      mstore\n      swap1\n      dup2\n      0x00\n      dup3\n      add\n      sload\n      dup2\n      mstore\n      0x20\n      add\n      0x01\n      dup3\n      add\n      dup1\n      sload\n      tag_85\n      swap1\n      tag_52\n      jump\t// in\n    tag_85:\n      dup1\n      0x1f\n      add\n      0x20\n      dup1\n      swap2\n      div\n      mul\n      0x20\n      add\n      mload(0x40)\n      swap1\n      dup2\n      add\n      0x40\n      mstore\n      dup1\n      swap3\n      swap2\n      swap1\n      dup2\n      dup2\n      mstore\n      0x20\n      add\n      dup3\n      dup1\n      sload\n      tag_86\n      swap1\n      tag_52\n      jump\t// in\n    tag_86:\n      dup1\n      iszero\n      tag_87\n      jumpi\n      dup1\n      0x1f\n      lt\n      tag_88\n      jumpi\n      0x0100\n      dup1\n      dup4\n      sload\n      div\n      mul\n      dup4\n      mstore\n      swap2\n      0x20\n      add\n      swap2\n      jump(tag_87)\n    tag_88:\n      dup3\n      add\n      swap2\n      swap1\n      0x00\n      mstore\n      keccak256(0x00, 0x20)\n      swap1\n    tag_89:\n      dup2\n      sload\n      dup2\n      mstore\n      swap1\n      0x01\n      add\n      swap1\n      0x20\n      add\n      dup1\n      dup4\n      gt\n      tag_89\n      jumpi\n      dup3\n      swap1\n      sub\n      0x1f\n      and\n      dup3\n      add\n      swap2\n    tag_87:\n      pop\n      pop\n      pop\n      pop\n      pop\n      dup2\n      mstore\n      0x20\n      add\n      0x02\n      dup3\n      add\n      dup1\n      sload\n      tag_90\n      swap1\n      tag_52\n      jump\t// in\n    tag_90:\n      dup1\n      0x1f\n      add\n      0x20\n      dup1\n      swap2\n      div\n      mul\n      0x20\n      add\n      mload(0x40)\n      swap1\n      dup2\n      add\n      0x40\n      mstore\n      dup1\n      swap3\n      swap2\n      swap1\n      dup2\n      dup2\n      mstore\n      0x20\n      add\n      dup3\n      dup1\n      sload\n      tag_91\n      swap1\n      tag_52\n      jump\t// in\n    tag_91:\n      dup1\n      iszero\n      tag_92\n      jumpi\n      dup1\n      0x1f\n      lt\n      tag_93\n      jumpi\n      0x0100\n      dup1\n      dup4\n      sload\n      div\n      mul\n      dup4\n      mstore\n      swap2\n      0x20\n      add\n      swap2\n      jump(tag_92)\n    tag_93:\n      dup3\n      add\n      swap2\n      swap1\n      0x00\n      mstore\n      keccak256(0x00, 0x20)\n      swap1\n    tag_94:\n      dup2\n      sload\n      dup2\n      mstore\n      swap1\n      0x01\n      add\n      swap1\n      0x20\n      add\n      dup1\n      dup4\n      gt\n      tag_94\n      jumpi\n      dup3\n      swap1\n      sub\n      0x1f\n      and\n      dup3\n      add\n      swap2\n    tag_92:\n      pop\n      pop\n      pop\n      pop\n      pop\n      dup2\n      mstore\n      0x20\n      add\n      0x03\n      dup3\n      add\n      0x00\n      swap1\n      sload\n      swap1\n      0x0100\n      exp\n      swap1\n      div\n      0xff\n      and\n      iszero\n      iszero\n      iszero\n      iszero\n      dup2\n      mstore\n      pop\n      pop\n        /* \"contracts/Todo.sol\":1531:1539  taskList */\n      dup4\n        /* \"contracts/Todo.sol\":1540:1545  index */\n      dup4\n        /* \"contracts/Todo.sol\":1531:1546  taskList[index] */\n      dup2\n      mload\n      dup2\n      lt\n      tag_95\n      jumpi\n      tag_96\n      tag_97\n      jump\t// in\n    tag_96:\n    tag_95:\n      0x20\n      mul\n      0x20\n      add\n      add\n        /* \"contracts/Todo.sol\":1531:1557  taskList[index] = tasks[i] */\n      dup2\n      swap1\n      mstore\n      pop\n        /* \"contracts/Todo.sol\":1575:1582  index++ */\n      dup2\n      dup1\n      tag_98\n      swap1\n      tag_39\n      jump\t// in\n    tag_98:\n      swap3\n      pop\n      pop\n        /* \"contracts/Todo.sol\":1492:1597  if (tasks[i].exists) {... */\n    tag_84:\n        /* \"contracts/Todo.sol\":1473:1476  i++ */\n      dup1\n      dup1\n      0x01\n      add\n      swap2\n      pop\n      pop\n        /* \"contracts/Todo.sol\":1444:1607  for (uint i = 1; i < taskId; i++) {... */\n      jump(tag_81)\n    tag_82:\n      pop\n        /* \"contracts/Todo.sol\":1624:1632  taskList */\n      dup2\n        /* \"contracts/Todo.sol\":1617:1632  return taskList */\n      swap4\n      pop\n      pop\n      pop\n      pop\n        /* \"contracts/Todo.sol\":1067:1639  function getAllTasks() public view returns (Task[] memory) {... */\n      swap1\n      jump\t// out\n        /* \"contracts/Todo.sol\":227:247  address public owner */\n    tag_27:\n      0x00\n      dup1\n      sload\n      swap1\n      0x0100\n      exp\n      swap1\n      div\n      0xffffffffffffffffffffffffffffffffffffffff\n      and\n      dup2\n      jump\t// out\n        /* \"contracts/Todo.sol\":866:1061  function updateTask(uint _id, string calldata _newTask, string calldata _data)... */\n    tag_33:\n        /* \"contracts/Todo.sol\":976:979  _id */\n      dup5\n        /* \"contracts/Todo.sol\":374:375  0 */\n      0x00\n        /* \"contracts/Todo.sol\":368:370  id */\n      dup2\n        /* \"contracts/Todo.sol\":368:375  id != 0 */\n      eq\n      iszero\n        /* \"contracts/Todo.sol\":368:390  id != 0 && id < taskId */\n      dup1\n      iszero\n      tag_100\n      jumpi\n      pop\n        /* \"contracts/Todo.sol\":384:390  taskId */\n      sload(0x01)\n        /* \"contracts/Todo.sol\":379:381  id */\n      dup2\n        /* \"contracts/Todo.sol\":379:390  id < taskId */\n      lt\n        /* \"contracts/Todo.sol\":368:390  id != 0 && id < taskId */\n    tag_100:\n        /* \"contracts/Todo.sol\":360:405  require(id != 0 && id < taskId, \"Invalid ID\") */\n      tag_101\n      jumpi\n      mload(0x40)\n      0x08c379a000000000000000000000000000000000000000000000000000000000\n      dup2\n      mstore\n      0x04\n      add\n      tag_102\n      swap1\n      tag_46\n      jump\t// in\n    tag_102:\n      mload(0x40)\n      dup1\n      swap2\n      sub\n      swap1\n      revert\n    tag_101:\n        /* \"contracts/Todo.sol\":423:428  tasks */\n      0x02\n        /* \"contracts/Todo.sol\":423:432  tasks[id] */\n      0x00\n        /* \"contracts/Todo.sol\":429:431  id */\n      dup3\n        /* \"contracts/Todo.sol\":423:432  tasks[id] */\n      dup2\n      mstore\n      0x20\n      add\n      swap1\n      dup2\n      mstore\n      0x20\n      add\n      0x00\n      keccak256\n        /* \"contracts/Todo.sol\":423:439  tasks[id].exists */\n      0x03\n      add\n      0x00\n      swap1\n      sload\n      swap1\n      0x0100\n      exp\n      swap1\n      div\n      0xff\n      and\n        /* \"contracts/Todo.sol\":415:463  require(tasks[id].exists, \"Task does not exist\") */\n      tag_103\n      jumpi\n      mload(0x40)\n      0x08c379a000000000000000000000000000000000000000000000000000000000\n      dup2\n      mstore\n      0x04\n      add\n      tag_104\n      swap1\n      tag_49\n      jump\t// in\n    tag_104:\n      mload(0x40)\n      dup1\n      swap2\n      sub\n      swap1\n      revert\n    tag_103:\n        /* \"contracts/Todo.sol\":1013:1021  _newTask */\n      dup5\n      dup5\n        /* \"contracts/Todo.sol\":995:1000  tasks */\n      0x02\n        /* \"contracts/Todo.sol\":995:1005  tasks[_id] */\n      0x00\n        /* \"contracts/Todo.sol\":1001:1004  _id */\n      dup10\n        /* \"contracts/Todo.sol\":995:1005  tasks[_id] */\n      dup2\n      mstore\n      0x20\n      add\n      swap1\n      dup2\n      mstore\n      0x20\n      add\n      0x00\n      keccak256\n        /* \"contracts/Todo.sol\":995:1010  tasks[_id].name */\n      0x01\n      add\n        /* \"contracts/Todo.sol\":995:1021  tasks[_id].name = _newTask */\n      swap2\n      dup3\n      tag_106\n      swap3\n      swap2\n      swap1\n      tag_107\n      jump\t// in\n    tag_106:\n      pop\n        /* \"contracts/Todo.sol\":1049:1054  _data */\n      dup3\n      dup3\n        /* \"contracts/Todo.sol\":1031:1036  tasks */\n      0x02\n        /* \"contracts/Todo.sol\":1031:1041  tasks[_id] */\n      0x00\n        /* \"contracts/Todo.sol\":1037:1040  _id */\n      dup10\n        /* \"contracts/Todo.sol\":1031:1041  tasks[_id] */\n      dup2\n      mstore\n      0x20\n      add\n      swap1\n      dup2\n      mstore\n      0x20\n      add\n      0x00\n      keccak256\n        /* \"contracts/Todo.sol\":1031:1046  tasks[_id].data */\n      0x02\n      add\n        /* \"contracts/Todo.sol\":1031:1054  tasks[_id].data = _data */\n      swap2\n      dup3\n      tag_108\n      swap3\n      swap2\n      swap1\n      tag_107\n      jump\t// in\n    tag_108:\n      pop\n        /* \"contracts/Todo.sol\":866:1061  function updateTask(uint _id, string calldata _newTask, string calldata _data)... */\n      pop\n      pop\n      pop\n      pop\n      pop\n      pop\n      jump\t// out\n    tag_41:\n      mload(0x40)\n      dup1\n      0x80\n      add\n      0x40\n      mstore\n      dup1\n      0x00\n      dup2\n      mstore\n      0x20\n      add\n      0x60\n      dup2\n      mstore\n      0x20\n      add\n      0x60\n      dup2\n      mstore\n      0x20\n      add\n      iszero(iszero(0x00))\n      dup2\n      mstore\n      pop\n      swap1\n      jump\t// out\n        /* \"#utility.yul\":88:205   */\n    tag_110:\n        /* \"#utility.yul\":197:198   */\n      0x00\n        /* \"#utility.yul\":194:195   */\n      dup1\n        /* \"#utility.yul\":187:199   */\n      revert\n        /* \"#utility.yul\":211:328   */\n    tag_111:\n        /* \"#utility.yul\":320:321   */\n      0x00\n        /* \"#utility.yul\":317:318   */\n      dup1\n        /* \"#utility.yul\":310:322   */\n      revert\n        /* \"#utility.yul\":334:451   */\n    tag_112:\n        /* \"#utility.yul\":443:444   */\n      0x00\n        /* \"#utility.yul\":440:441   */\n      dup1\n        /* \"#utility.yul\":433:445   */\n      revert\n        /* \"#utility.yul\":457:574   */\n    tag_113:\n        /* \"#utility.yul\":566:567   */\n      0x00\n        /* \"#utility.yul\":563:564   */\n      dup1\n        /* \"#utility.yul\":556:568   */\n      revert\n        /* \"#utility.yul\":580:697   */\n    tag_114:\n        /* \"#utility.yul\":689:690   */\n      0x00\n        /* \"#utility.yul\":686:687   */\n      dup1\n        /* \"#utility.yul\":679:691   */\n      revert\n        /* \"#utility.yul\":717:1270   */\n    tag_115:\n        /* \"#utility.yul\":775:783   */\n      0x00\n        /* \"#utility.yul\":785:791   */\n      dup1\n        /* \"#utility.yul\":835:838   */\n      dup4\n        /* \"#utility.yul\":828:832   */\n      0x1f\n        /* \"#utility.yul\":820:826   */\n      dup5\n        /* \"#utility.yul\":816:833   */\n      add\n        /* \"#utility.yul\":812:839   */\n      slt\n        /* \"#utility.yul\":802:924   */\n      tag_169\n      jumpi\n        /* \"#utility.yul\":843:922   */\n      tag_170\n      tag_112\n      jump\t// in\n    tag_170:\n        /* \"#utility.yul\":802:924   */\n    tag_169:\n        /* \"#utility.yul\":956:962   */\n      dup3\n        /* \"#utility.yul\":943:963   */\n      calldataload\n        /* \"#utility.yul\":933:963   */\n      swap1\n      pop\n        /* \"#utility.yul\":986:1004   */\n      0xffffffffffffffff\n        /* \"#utility.yul\":978:984   */\n      dup2\n        /* \"#utility.yul\":975:1005   */\n      gt\n        /* \"#utility.yul\":972:1089   */\n      iszero\n      tag_171\n      jumpi\n        /* \"#utility.yul\":1008:1087   */\n      tag_172\n      tag_113\n      jump\t// in\n    tag_172:\n        /* \"#utility.yul\":972:1089   */\n    tag_171:\n        /* \"#utility.yul\":1122:1126   */\n      0x20\n        /* \"#utility.yul\":1114:1120   */\n      dup4\n        /* \"#utility.yul\":1110:1127   */\n      add\n        /* \"#utility.yul\":1098:1127   */\n      swap2\n      pop\n        /* \"#utility.yul\":1176:1179   */\n      dup4\n        /* \"#utility.yul\":1168:1172   */\n      0x01\n        /* \"#utility.yul\":1160:1166   */\n      dup3\n        /* \"#utility.yul\":1156:1173   */\n      mul\n        /* \"#utility.yul\":1146:1154   */\n      dup4\n        /* \"#utility.yul\":1142:1174   */\n      add\n        /* \"#utility.yul\":1139:1180   */\n      gt\n        /* \"#utility.yul\":1136:1264   */\n      iszero\n      tag_173\n      jumpi\n        /* \"#utility.yul\":1183:1262   */\n      tag_174\n      tag_114\n      jump\t// in\n    tag_174:\n        /* \"#utility.yul\":1136:1264   */\n    tag_173:\n        /* \"#utility.yul\":717:1270   */\n      swap3\n      pop\n      swap3\n      swap1\n      pop\n      jump\t// out\n        /* \"#utility.yul\":1276:2150   */\n    tag_11:\n        /* \"#utility.yul\":1368:1374   */\n      0x00\n        /* \"#utility.yul\":1376:1382   */\n      dup1\n        /* \"#utility.yul\":1384:1390   */\n      0x00\n        /* \"#utility.yul\":1392:1398   */\n      dup1\n        /* \"#utility.yul\":1441:1443   */\n      0x40\n        /* \"#utility.yul\":1429:1438   */\n      dup6\n        /* \"#utility.yul\":1420:1427   */\n      dup8\n        /* \"#utility.yul\":1416:1439   */\n      sub\n        /* \"#utility.yul\":1412:1444   */\n      slt\n        /* \"#utility.yul\":1409:1528   */\n      iszero\n      tag_176\n      jumpi\n        /* \"#utility.yul\":1447:1526   */\n      tag_177\n      tag_110\n      jump\t// in\n    tag_177:\n        /* \"#utility.yul\":1409:1528   */\n    tag_176:\n        /* \"#utility.yul\":1595:1596   */\n      0x00\n        /* \"#utility.yul\":1584:1593   */\n      dup6\n        /* \"#utility.yul\":1580:1597   */\n      add\n        /* \"#utility.yul\":1567:1598   */\n      calldataload\n        /* \"#utility.yul\":1625:1643   */\n      0xffffffffffffffff\n        /* \"#utility.yul\":1617:1623   */\n      dup2\n        /* \"#utility.yul\":1614:1644   */\n      gt\n        /* \"#utility.yul\":1611:1728   */\n      iszero\n      tag_178\n      jumpi\n        /* \"#utility.yul\":1647:1726   */\n      tag_179\n      tag_111\n      jump\t// in\n    tag_179:\n        /* \"#utility.yul\":1611:1728   */\n    tag_178:\n        /* \"#utility.yul\":1760:1825   */\n      tag_180\n        /* \"#utility.yul\":1817:1824   */\n      dup8\n        /* \"#utility.yul\":1808:1814   */\n      dup3\n        /* \"#utility.yul\":1797:1806   */\n      dup9\n        /* \"#utility.yul\":1793:1815   */\n      add\n        /* \"#utility.yul\":1760:1825   */\n      tag_115\n      jump\t// in\n    tag_180:\n        /* \"#utility.yul\":1742:1825   */\n      swap5\n      pop\n      swap5\n      pop\n        /* \"#utility.yul\":1538:1835   */\n      pop\n        /* \"#utility.yul\":1902:1904   */\n      0x20\n        /* \"#utility.yul\":1891:1900   */\n      dup6\n        /* \"#utility.yul\":1887:1905   */\n      add\n        /* \"#utility.yul\":1874:1906   */\n      calldataload\n        /* \"#utility.yul\":1933:1951   */\n      0xffffffffffffffff\n        /* \"#utility.yul\":1925:1931   */\n      dup2\n        /* \"#utility.yul\":1922:1952   */\n      gt\n        /* \"#utility.yul\":1919:2036   */\n      iszero\n      tag_181\n      jumpi\n        /* \"#utility.yul\":1955:2034   */\n      tag_182\n      tag_111\n      jump\t// in\n    tag_182:\n        /* \"#utility.yul\":1919:2036   */\n    tag_181:\n        /* \"#utility.yul\":2068:2133   */\n      tag_183\n        /* \"#utility.yul\":2125:2132   */\n      dup8\n        /* \"#utility.yul\":2116:2122   */\n      dup3\n        /* \"#utility.yul\":2105:2114   */\n      dup9\n        /* \"#utility.yul\":2101:2123   */\n      add\n        /* \"#utility.yul\":2068:2133   */\n      tag_115\n      jump\t// in\n    tag_183:\n        /* \"#utility.yul\":2050:2133   */\n      swap3\n      pop\n      swap3\n      pop\n        /* \"#utility.yul\":1845:2143   */\n      pop\n        /* \"#utility.yul\":1276:2150   */\n      swap3\n      swap6\n      swap2\n      swap5\n      pop\n      swap3\n      pop\n      jump\t// out\n        /* \"#utility.yul\":2156:2233   */\n    tag_116:\n        /* \"#utility.yul\":2193:2200   */\n      0x00\n        /* \"#utility.yul\":2222:2227   */\n      dup2\n        /* \"#utility.yul\":2211:2227   */\n      swap1\n      pop\n        /* \"#utility.yul\":2156:2233   */\n      swap2\n      swap1\n      pop\n      jump\t// out\n        /* \"#utility.yul\":2239:2361   */\n    tag_117:\n        /* \"#utility.yul\":2312:2336   */\n      tag_186\n        /* \"#utility.yul\":2330:2335   */\n      dup2\n        /* \"#utility.yul\":2312:2336   */\n      tag_116\n      jump\t// in\n    tag_186:\n        /* \"#utility.yul\":2305:2310   */\n      dup2\n        /* \"#utility.yul\":2302:2337   */\n      eq\n        /* \"#utility.yul\":2292:2355   */\n      tag_187\n      jumpi\n        /* \"#utility.yul\":2351:2352   */\n      0x00\n        /* \"#utility.yul\":2348:2349   */\n      dup1\n        /* \"#utility.yul\":2341:2353   */\n      revert\n        /* \"#utility.yul\":2292:2355   */\n    tag_187:\n        /* \"#utility.yul\":2239:2361   */\n      pop\n      jump\t// out\n        /* \"#utility.yul\":2367:2506   */\n    tag_118:\n        /* \"#utility.yul\":2413:2418   */\n      0x00\n        /* \"#utility.yul\":2451:2457   */\n      dup2\n        /* \"#utility.yul\":2438:2458   */\n      calldataload\n        /* \"#utility.yul\":2429:2458   */\n      swap1\n      pop\n        /* \"#utility.yul\":2467:2500   */\n      tag_189\n        /* \"#utility.yul\":2494:2499   */\n      dup2\n        /* \"#utility.yul\":2467:2500   */\n      tag_117\n      jump\t// in\n    tag_189:\n        /* \"#utility.yul\":2367:2506   */\n      swap3\n      swap2\n      pop\n      pop\n      jump\t// out\n        /* \"#utility.yul\":2512:2841   */\n    tag_15:\n        /* \"#utility.yul\":2571:2577   */\n      0x00\n        /* \"#utility.yul\":2620:2622   */\n      0x20\n        /* \"#utility.yul\":2608:2617   */\n      dup3\n        /* \"#utility.yul\":2599:2606   */\n      dup5\n        /* \"#utility.yul\":2595:2618   */\n      sub\n        /* \"#utility.yul\":2591:2623   */\n      slt\n        /* \"#utility.yul\":2588:2707   */\n      iszero\n      tag_191\n      jumpi\n        /* \"#utility.yul\":2626:2705   */\n      tag_192\n      tag_110\n      jump\t// in\n    tag_192:\n        /* \"#utility.yul\":2588:2707   */\n    tag_191:\n        /* \"#utility.yul\":2746:2747   */\n      0x00\n        /* \"#utility.yul\":2771:2824   */\n      tag_193\n        /* \"#utility.yul\":2816:2823   */\n      dup5\n        /* \"#utility.yul\":2807:2813   */\n      dup3\n        /* \"#utility.yul\":2796:2805   */\n      dup6\n        /* \"#utility.yul\":2792:2814   */\n      add\n        /* \"#utility.yul\":2771:2824   */\n      tag_118\n      jump\t// in\n    tag_193:\n        /* \"#utility.yul\":2761:2824   */\n      swap2\n      pop\n        /* \"#utility.yul\":2717:2834   */\n      pop\n        /* \"#utility.yul\":2512:2841   */\n      swap3\n      swap2\n      pop\n      pop\n      jump\t// out\n        /* \"#utility.yul\":2847:2955   */\n    tag_119:\n        /* \"#utility.yul\":2924:2948   */\n      tag_195\n        /* \"#utility.yul\":2942:2947   */\n      dup2\n        /* \"#utility.yul\":2924:2948   */\n      tag_116\n      jump\t// in\n    tag_195:\n        /* \"#utility.yul\":2919:2922   */\n      dup3\n        /* \"#utility.yul\":2912:2949   */\n      mstore\n        /* \"#utility.yul\":2847:2955   */\n      pop\n      pop\n      jump\t// out\n        /* \"#utility.yul\":2961:3060   */\n    tag_120:\n        /* \"#utility.yul\":3013:3019   */\n      0x00\n        /* \"#utility.yul\":3047:3052   */\n      dup2\n        /* \"#utility.yul\":3041:3053   */\n      mload\n        /* \"#utility.yul\":3031:3053   */\n      swap1\n      pop\n        /* \"#utility.yul\":2961:3060   */\n      swap2\n      swap1\n      pop\n      jump\t// out\n        /* \"#utility.yul\":3066:3225   */\n    tag_121:\n        /* \"#utility.yul\":3140:3151   */\n      0x00\n        /* \"#utility.yul\":3174:3180   */\n      dup3\n        /* \"#utility.yul\":3169:3172   */\n      dup3\n        /* \"#utility.yul\":3162:3181   */\n      mstore\n        /* \"#utility.yul\":3214:3218   */\n      0x20\n        /* \"#utility.yul\":3209:3212   */\n      dup3\n        /* \"#utility.yul\":3205:3219   */\n      add\n        /* \"#utility.yul\":3190:3219   */\n      swap1\n      pop\n        /* \"#utility.yul\":3066:3225   */\n      swap3\n      swap2\n      pop\n      pop\n      jump\t// out\n        /* \"#utility.yul\":3231:3370   */\n    tag_122:\n        /* \"#utility.yul\":3320:3326   */\n      dup3\n        /* \"#utility.yul\":3315:3318   */\n      dup2\n        /* \"#utility.yul\":3310:3313   */\n      dup4\n        /* \"#utility.yul\":3304:3327   */\n      mcopy\n        /* \"#utility.yul\":3361:3362   */\n      0x00\n        /* \"#utility.yul\":3352:3358   */\n      dup4\n        /* \"#utility.yul\":3347:3350   */\n      dup4\n        /* \"#utility.yul\":3343:3359   */\n      add\n        /* \"#utility.yul\":3336:3363   */\n      mstore\n        /* \"#utility.yul\":3231:3370   */\n      pop\n      pop\n      pop\n      jump\t// out\n        /* \"#utility.yul\":3376:3478   */\n    tag_123:\n        /* \"#utility.yul\":3417:3423   */\n      0x00\n        /* \"#utility.yul\":3468:3470   */\n      0x1f\n        /* \"#utility.yul\":3464:3471   */\n      not\n        /* \"#utility.yul\":3459:3461   */\n      0x1f\n        /* \"#utility.yul\":3452:3457   */\n      dup4\n        /* \"#utility.yul\":3448:3462   */\n      add\n        /* \"#utility.yul\":3444:3472   */\n      and\n        /* \"#utility.yul\":3434:3472   */\n      swap1\n      pop\n        /* \"#utility.yul\":3376:3478   */\n      swap2\n      swap1\n      pop\n      jump\t// out\n        /* \"#utility.yul\":3484:3841   */\n    tag_124:\n        /* \"#utility.yul\":3562:3565   */\n      0x00\n        /* \"#utility.yul\":3590:3629   */\n      tag_201\n        /* \"#utility.yul\":3623:3628   */\n      dup3\n        /* \"#utility.yul\":3590:3629   */\n      tag_120\n      jump\t// in\n    tag_201:\n        /* \"#utility.yul\":3645:3706   */\n      tag_202\n        /* \"#utility.yul\":3699:3705   */\n      dup2\n        /* \"#utility.yul\":3694:3697   */\n      dup6\n        /* \"#utility.yul\":3645:3706   */\n      tag_121\n      jump\t// in\n    tag_202:\n        /* \"#utility.yul\":3638:3706   */\n      swap4\n      pop\n        /* \"#utility.yul\":3715:3780   */\n      tag_203\n        /* \"#utility.yul\":3773:3779   */\n      dup2\n        /* \"#utility.yul\":3768:3771   */\n      dup6\n        /* \"#utility.yul\":3761:3765   */\n      0x20\n        /* \"#utility.yul\":3754:3759   */\n      dup7\n        /* \"#utility.yul\":3750:3766   */\n      add\n        /* \"#utility.yul\":3715:3780   */\n      tag_122\n      jump\t// in\n    tag_203:\n        /* \"#utility.yul\":3805:3834   */\n      tag_204\n        /* \"#utility.yul\":3827:3833   */\n      dup2\n        /* \"#utility.yul\":3805:3834   */\n      tag_123\n      jump\t// in\n    tag_204:\n        /* \"#utility.yul\":3800:3803   */\n      dup5\n        /* \"#utility.yul\":3796:3835   */\n      add\n        /* \"#utility.yul\":3789:3835   */\n      swap2\n      pop\n        /* \"#utility.yul\":3566:3841   */\n      pop\n        /* \"#utility.yul\":3484:3841   */\n      swap3\n      swap2\n      pop\n      pop\n      jump\t// out\n        /* \"#utility.yul\":3847:3937   */\n    tag_125:\n        /* \"#utility.yul\":3881:3888   */\n      0x00\n        /* \"#utility.yul\":3924:3929   */\n      dup2\n        /* \"#utility.yul\":3917:3930   */\n      iszero\n        /* \"#utility.yul\":3910:3931   */\n      iszero\n        /* \"#utility.yul\":3899:3931   */\n      swap1\n      pop\n        /* \"#utility.yul\":3847:3937   */\n      swap2\n      swap1\n      pop\n      jump\t// out\n        /* \"#utility.yul\":3943:4042   */\n    tag_126:\n        /* \"#utility.yul\":4014:4035   */\n      tag_207\n        /* \"#utility.yul\":4029:4034   */\n      dup2\n        /* \"#utility.yul\":4014:4035   */\n      tag_125\n      jump\t// in\n    tag_207:\n        /* \"#utility.yul\":4009:4012   */\n      dup3\n        /* \"#utility.yul\":4002:4036   */\n      mstore\n        /* \"#utility.yul\":3943:4042   */\n      pop\n      pop\n      jump\t// out\n        /* \"#utility.yul\":4092:5101   */\n    tag_127:\n        /* \"#utility.yul\":4201:4204   */\n      0x00\n        /* \"#utility.yul\":4237:4241   */\n      0x80\n        /* \"#utility.yul\":4232:4235   */\n      dup4\n        /* \"#utility.yul\":4228:4242   */\n      add\n        /* \"#utility.yul\":4322:4326   */\n      0x00\n        /* \"#utility.yul\":4315:4320   */\n      dup4\n        /* \"#utility.yul\":4311:4327   */\n      add\n        /* \"#utility.yul\":4305:4328   */\n      mload\n        /* \"#utility.yul\":4341:4404   */\n      tag_209\n        /* \"#utility.yul\":4398:4402   */\n      0x00\n        /* \"#utility.yul\":4393:4396   */\n      dup7\n        /* \"#utility.yul\":4389:4403   */\n      add\n        /* \"#utility.yul\":4375:4387   */\n      dup3\n        /* \"#utility.yul\":4341:4404   */\n      tag_119\n      jump\t// in\n    tag_209:\n        /* \"#utility.yul\":4252:4414   */\n      pop\n        /* \"#utility.yul\":4496:4500   */\n      0x20\n        /* \"#utility.yul\":4489:4494   */\n      dup4\n        /* \"#utility.yul\":4485:4501   */\n      add\n        /* \"#utility.yul\":4479:4502   */\n      mload\n        /* \"#utility.yul\":4549:4552   */\n      dup5\n        /* \"#utility.yul\":4543:4547   */\n      dup3\n        /* \"#utility.yul\":4539:4553   */\n      sub\n        /* \"#utility.yul\":4532:4536   */\n      0x20\n        /* \"#utility.yul\":4527:4530   */\n      dup7\n        /* \"#utility.yul\":4523:4537   */\n      add\n        /* \"#utility.yul\":4516:4554   */\n      mstore\n        /* \"#utility.yul\":4575:4648   */\n      tag_210\n        /* \"#utility.yul\":4643:4647   */\n      dup3\n        /* \"#utility.yul\":4629:4641   */\n      dup3\n        /* \"#utility.yul\":4575:4648   */\n      tag_124\n      jump\t// in\n    tag_210:\n        /* \"#utility.yul\":4567:4648   */\n      swap2\n      pop\n        /* \"#utility.yul\":4424:4659   */\n      pop\n        /* \"#utility.yul\":4741:4745   */\n      0x40\n        /* \"#utility.yul\":4734:4739   */\n      dup4\n        /* \"#utility.yul\":4730:4746   */\n      add\n        /* \"#utility.yul\":4724:4747   */\n      mload\n        /* \"#utility.yul\":4794:4797   */\n      dup5\n        /* \"#utility.yul\":4788:4792   */\n      dup3\n        /* \"#utility.yul\":4784:4798   */\n      sub\n        /* \"#utility.yul\":4777:4781   */\n      0x40\n        /* \"#utility.yul\":4772:4775   */\n      dup7\n        /* \"#utility.yul\":4768:4782   */\n      add\n        /* \"#utility.yul\":4761:4799   */\n      mstore\n        /* \"#utility.yul\":4820:4893   */\n      tag_211\n        /* \"#utility.yul\":4888:4892   */\n      dup3\n        /* \"#utility.yul\":4874:4886   */\n      dup3\n        /* \"#utility.yul\":4820:4893   */\n      tag_124\n      jump\t// in\n    tag_211:\n        /* \"#utility.yul\":4812:4893   */\n      swap2\n      pop\n        /* \"#utility.yul\":4669:4904   */\n      pop\n        /* \"#utility.yul\":4988:4992   */\n      0x60\n        /* \"#utility.yul\":4981:4986   */\n      dup4\n        /* \"#utility.yul\":4977:4993   */\n      add\n        /* \"#utility.yul\":4971:4994   */\n      mload\n        /* \"#utility.yul\":5007:5064   */\n      tag_212\n        /* \"#utility.yul\":5058:5062   */\n      0x60\n        /* \"#utility.yul\":5053:5056   */\n      dup7\n        /* \"#utility.yul\":5049:5063   */\n      add\n        /* \"#utility.yul\":5035:5047   */\n      dup3\n        /* \"#utility.yul\":5007:5064   */\n      tag_126\n      jump\t// in\n    tag_212:\n        /* \"#utility.yul\":4914:5074   */\n      pop\n        /* \"#utility.yul\":5091:5095   */\n      dup1\n        /* \"#utility.yul\":5084:5095   */\n      swap2\n      pop\n        /* \"#utility.yul\":4206:5101   */\n      pop\n        /* \"#utility.yul\":4092:5101   */\n      swap3\n      swap2\n      pop\n      pop\n      jump\t// out\n        /* \"#utility.yul\":5107:5460   */\n    tag_18:\n        /* \"#utility.yul\":5240:5244   */\n      0x00\n        /* \"#utility.yul\":5278:5280   */\n      0x20\n        /* \"#utility.yul\":5267:5276   */\n      dup3\n        /* \"#utility.yul\":5263:5281   */\n      add\n        /* \"#utility.yul\":5255:5281   */\n      swap1\n      pop\n        /* \"#utility.yul\":5327:5336   */\n      dup2\n        /* \"#utility.yul\":5321:5325   */\n      dup2\n        /* \"#utility.yul\":5317:5337   */\n      sub\n        /* \"#utility.yul\":5313:5314   */\n      0x00\n        /* \"#utility.yul\":5302:5311   */\n      dup4\n        /* \"#utility.yul\":5298:5315   */\n      add\n        /* \"#utility.yul\":5291:5338   */\n      mstore\n        /* \"#utility.yul\":5355:5453   */\n      tag_214\n        /* \"#utility.yul\":5448:5452   */\n      dup2\n        /* \"#utility.yul\":5439:5445   */\n      dup5\n        /* \"#utility.yul\":5355:5453   */\n      tag_127\n      jump\t// in\n    tag_214:\n        /* \"#utility.yul\":5347:5453   */\n      swap1\n      pop\n        /* \"#utility.yul\":5107:5460   */\n      swap3\n      swap2\n      pop\n      pop\n      jump\t// out\n        /* \"#utility.yul\":5466:5600   */\n    tag_128:\n        /* \"#utility.yul\":5553:5559   */\n      0x00\n        /* \"#utility.yul\":5587:5592   */\n      dup2\n        /* \"#utility.yul\":5581:5593   */\n      mload\n        /* \"#utility.yul\":5571:5593   */\n      swap1\n      pop\n        /* \"#utility.yul\":5466:5600   */\n      swap2\n      swap1\n      pop\n      jump\t// out\n        /* \"#utility.yul\":5606:5810   */\n    tag_129:\n        /* \"#utility.yul\":5725:5736   */\n      0x00\n        /* \"#utility.yul\":5759:5765   */\n      dup3\n        /* \"#utility.yul\":5754:5757   */\n      dup3\n        /* \"#utility.yul\":5747:5766   */\n      mstore\n        /* \"#utility.yul\":5799:5803   */\n      0x20\n        /* \"#utility.yul\":5794:5797   */\n      dup3\n        /* \"#utility.yul\":5790:5804   */\n      add\n        /* \"#utility.yul\":5775:5804   */\n      swap1\n      pop\n        /* \"#utility.yul\":5606:5810   */\n      swap3\n      swap2\n      pop\n      pop\n      jump\t// out\n        /* \"#utility.yul\":5816:5968   */\n    tag_130:\n        /* \"#utility.yul\":5903:5907   */\n      0x00\n        /* \"#utility.yul\":5926:5929   */\n      dup2\n        /* \"#utility.yul\":5918:5929   */\n      swap1\n      pop\n        /* \"#utility.yul\":5956:5960   */\n      0x20\n        /* \"#utility.yul\":5951:5954   */\n      dup3\n        /* \"#utility.yul\":5947:5961   */\n      add\n        /* \"#utility.yul\":5939:5961   */\n      swap1\n      pop\n        /* \"#utility.yul\":5816:5968   */\n      swap2\n      swap1\n      pop\n      jump\t// out\n        /* \"#utility.yul\":6018:7017   */\n    tag_131:\n        /* \"#utility.yul\":6117:6120   */\n      0x00\n        /* \"#utility.yul\":6153:6157   */\n      0x80\n        /* \"#utility.yul\":6148:6151   */\n      dup4\n        /* \"#utility.yul\":6144:6158   */\n      add\n        /* \"#utility.yul\":6238:6242   */\n      0x00\n        /* \"#utility.yul\":6231:6236   */\n      dup4\n        /* \"#utility.yul\":6227:6243   */\n      add\n        /* \"#utility.yul\":6221:6244   */\n      mload\n        /* \"#utility.yul\":6257:6320   */\n      tag_219\n        /* \"#utility.yul\":6314:6318   */\n      0x00\n        /* \"#utility.yul\":6309:6312   */\n      dup7\n        /* \"#utility.yul\":6305:6319   */\n      add\n        /* \"#utility.yul\":6291:6303   */\n      dup3\n        /* \"#utility.yul\":6257:6320   */\n      tag_119\n      jump\t// in\n    tag_219:\n        /* \"#utility.yul\":6168:6330   */\n      pop\n        /* \"#utility.yul\":6412:6416   */\n      0x20\n        /* \"#utility.yul\":6405:6410   */\n      dup4\n        /* \"#utility.yul\":6401:6417   */\n      add\n        /* \"#utility.yul\":6395:6418   */\n      mload\n        /* \"#utility.yul\":6465:6468   */\n      dup5\n        /* \"#utility.yul\":6459:6463   */\n      dup3\n        /* \"#utility.yul\":6455:6469   */\n      sub\n        /* \"#utility.yul\":6448:6452   */\n      0x20\n        /* \"#utility.yul\":6443:6446   */\n      dup7\n        /* \"#utility.yul\":6439:6453   */\n      add\n        /* \"#utility.yul\":6432:6470   */\n      mstore\n        /* \"#utility.yul\":6491:6564   */\n      tag_220\n        /* \"#utility.yul\":6559:6563   */\n      dup3\n        /* \"#utility.yul\":6545:6557   */\n      dup3\n        /* \"#utility.yul\":6491:6564   */\n      tag_124\n      jump\t// in\n    tag_220:\n        /* \"#utility.yul\":6483:6564   */\n      swap2\n      pop\n        /* \"#utility.yul\":6340:6575   */\n      pop\n        /* \"#utility.yul\":6657:6661   */\n      0x40\n        /* \"#utility.yul\":6650:6655   */\n      dup4\n        /* \"#utility.yul\":6646:6662   */\n      add\n        /* \"#utility.yul\":6640:6663   */\n      mload\n        /* \"#utility.yul\":6710:6713   */\n      dup5\n        /* \"#utility.yul\":6704:6708   */\n      dup3\n        /* \"#utility.yul\":6700:6714   */\n      sub\n        /* \"#utility.yul\":6693:6697   */\n      0x40\n        /* \"#utility.yul\":6688:6691   */\n      dup7\n        /* \"#utility.yul\":6684:6698   */\n      add\n        /* \"#utility.yul\":6677:6715   */\n      mstore\n        /* \"#utility.yul\":6736:6809   */\n      tag_221\n        /* \"#utility.yul\":6804:6808   */\n      dup3\n        /* \"#utility.yul\":6790:6802   */\n      dup3\n        /* \"#utility.yul\":6736:6809   */\n      tag_124\n      jump\t// in\n    tag_221:\n        /* \"#utility.yul\":6728:6809   */\n      swap2\n      pop\n        /* \"#utility.yul\":6585:6820   */\n      pop\n        /* \"#utility.yul\":6904:6908   */\n      0x60\n        /* \"#utility.yul\":6897:6902   */\n      dup4\n        /* \"#utility.yul\":6893:6909   */\n      add\n        /* \"#utility.yul\":6887:6910   */\n      mload\n        /* \"#utility.yul\":6923:6980   */\n      tag_222\n        /* \"#utility.yul\":6974:6978   */\n      0x60\n        /* \"#utility.yul\":6969:6972   */\n      dup7\n        /* \"#utility.yul\":6965:6979   */\n      add\n        /* \"#utility.yul\":6951:6963   */\n      dup3\n        /* \"#utility.yul\":6923:6980   */\n      tag_126\n      jump\t// in\n    tag_222:\n        /* \"#utility.yul\":6830:6990   */\n      pop\n        /* \"#utility.yul\":7007:7011   */\n      dup1\n        /* \"#utility.yul\":7000:7011   */\n      swap2\n      pop\n        /* \"#utility.yul\":6122:7017   */\n      pop\n        /* \"#utility.yul\":6018:7017   */\n      swap3\n      swap2\n      pop\n      pop\n      jump\t// out\n        /* \"#utility.yul\":7023:7259   */\n    tag_132:\n        /* \"#utility.yul\":7132:7142   */\n      0x00\n        /* \"#utility.yul\":7167:7253   */\n      tag_224\n        /* \"#utility.yul\":7249:7252   */\n      dup4\n        /* \"#utility.yul\":7241:7247   */\n      dup4\n        /* \"#utility.yul\":7167:7253   */\n      tag_131\n      jump\t// in\n    tag_224:\n        /* \"#utility.yul\":7153:7253   */\n      swap1\n      pop\n        /* \"#utility.yul\":7023:7259   */\n      swap3\n      swap2\n      pop\n      pop\n      jump\t// out\n        /* \"#utility.yul\":7265:7398   */\n    tag_133:\n        /* \"#utility.yul\":7355:7359   */\n      0x00\n        /* \"#utility.yul\":7387:7391   */\n      0x20\n        /* \"#utility.yul\":7382:7385   */\n      dup3\n        /* \"#utility.yul\":7378:7392   */\n      add\n        /* \"#utility.yul\":7370:7392   */\n      swap1\n      pop\n        /* \"#utility.yul\":7265:7398   */\n      swap2\n      swap1\n      pop\n      jump\t// out\n        /* \"#utility.yul\":7452:8523   */\n    tag_134:\n        /* \"#utility.yul\":7611:7614   */\n      0x00\n        /* \"#utility.yul\":7640:7714   */\n      tag_227\n        /* \"#utility.yul\":7708:7713   */\n      dup3\n        /* \"#utility.yul\":7640:7714   */\n      tag_128\n      jump\t// in\n    tag_227:\n        /* \"#utility.yul\":7730:7836   */\n      tag_228\n        /* \"#utility.yul\":7829:7835   */\n      dup2\n        /* \"#utility.yul\":7824:7827   */\n      dup6\n        /* \"#utility.yul\":7730:7836   */\n      tag_129\n      jump\t// in\n    tag_228:\n        /* \"#utility.yul\":7723:7836   */\n      swap4\n      pop\n        /* \"#utility.yul\":7862:7865   */\n      dup4\n        /* \"#utility.yul\":7907:7911   */\n      0x20\n        /* \"#utility.yul\":7899:7905   */\n      dup3\n        /* \"#utility.yul\":7895:7912   */\n      mul\n        /* \"#utility.yul\":7890:7893   */\n      dup6\n        /* \"#utility.yul\":7886:7913   */\n      add\n        /* \"#utility.yul\":7937:8013   */\n      tag_229\n        /* \"#utility.yul\":8007:8012   */\n      dup6\n        /* \"#utility.yul\":7937:8013   */\n      tag_130\n      jump\t// in\n    tag_229:\n        /* \"#utility.yul\":8036:8043   */\n      dup1\n        /* \"#utility.yul\":8067:8068   */\n      0x00\n        /* \"#utility.yul\":8052:8478   */\n    tag_230:\n        /* \"#utility.yul\":8077:8083   */\n      dup6\n        /* \"#utility.yul\":8074:8075   */\n      dup2\n        /* \"#utility.yul\":8071:8084   */\n      lt\n        /* \"#utility.yul\":8052:8478   */\n      iszero\n      tag_232\n      jumpi\n        /* \"#utility.yul\":8148:8157   */\n      dup5\n        /* \"#utility.yul\":8142:8146   */\n      dup5\n        /* \"#utility.yul\":8138:8158   */\n      sub\n        /* \"#utility.yul\":8133:8136   */\n      dup10\n        /* \"#utility.yul\":8126:8159   */\n      mstore\n        /* \"#utility.yul\":8199:8205   */\n      dup2\n        /* \"#utility.yul\":8193:8206   */\n      mload\n        /* \"#utility.yul\":8227:8331   */\n      tag_233\n        /* \"#utility.yul\":8326:8330   */\n      dup6\n        /* \"#utility.yul\":8311:8324   */\n      dup3\n        /* \"#utility.yul\":8227:8331   */\n      tag_132\n      jump\t// in\n    tag_233:\n        /* \"#utility.yul\":8219:8331   */\n      swap5\n      pop\n        /* \"#utility.yul\":8354:8434   */\n      tag_234\n        /* \"#utility.yul\":8427:8433   */\n      dup4\n        /* \"#utility.yul\":8354:8434   */\n      tag_133\n      jump\t// in\n    tag_234:\n        /* \"#utility.yul\":8344:8434   */\n      swap3\n      pop\n        /* \"#utility.yul\":8463:8467   */\n      0x20\n        /* \"#utility.yul\":8458:8461   */\n      dup11\n        /* \"#utility.yul\":8454:8468   */\n      add\n        /* \"#utility.yul\":8447:8468   */\n      swap10\n      pop\n        /* \"#utility.yul\":8112:8478   */\n      pop\n        /* \"#utility.yul\":8099:8100   */\n      0x01\n        /* \"#utility.yul\":8096:8097   */\n      dup2\n        /* \"#utility.yul\":8092:8101   */\n      add\n        /* \"#utility.yul\":8087:8101   */\n      swap1\n      pop\n        /* \"#utility.yul\":8052:8478   */\n      jump(tag_230)\n    tag_232:\n        /* \"#utility.yul\":8056:8070   */\n      pop\n        /* \"#utility.yul\":8494:8498   */\n      dup3\n        /* \"#utility.yul\":8487:8498   */\n      swap8\n      pop\n        /* \"#utility.yul\":8514:8517   */\n      dup8\n        /* \"#utility.yul\":8507:8517   */\n      swap6\n      pop\n        /* \"#utility.yul\":7616:8523   */\n      pop\n      pop\n      pop\n      pop\n      pop\n        /* \"#utility.yul\":7452:8523   */\n      swap3\n      swap2\n      pop\n      pop\n      jump\t// out\n        /* \"#utility.yul\":8529:8982   */\n    tag_25:\n        /* \"#utility.yul\":8712:8716   */\n      0x00\n        /* \"#utility.yul\":8750:8752   */\n      0x20\n        /* \"#utility.yul\":8739:8748   */\n      dup3\n        /* \"#utility.yul\":8735:8753   */\n      add\n        /* \"#utility.yul\":8727:8753   */\n      swap1\n      pop\n        /* \"#utility.yul\":8799:8808   */\n      dup2\n        /* \"#utility.yul\":8793:8797   */\n      dup2\n        /* \"#utility.yul\":8789:8809   */\n      sub\n        /* \"#utility.yul\":8785:8786   */\n      0x00\n        /* \"#utility.yul\":8774:8783   */\n      dup4\n        /* \"#utility.yul\":8770:8787   */\n      add\n        /* \"#utility.yul\":8763:8810   */\n      mstore\n        /* \"#utility.yul\":8827:8975   */\n      tag_236\n        /* \"#utility.yul\":8970:8974   */\n      dup2\n        /* \"#utility.yul\":8961:8967   */\n      dup5\n        /* \"#utility.yul\":8827:8975   */\n      tag_134\n      jump\t// in\n    tag_236:\n        /* \"#utility.yul\":8819:8975   */\n      swap1\n      pop\n        /* \"#utility.yul\":8529:8982   */\n      swap3\n      swap2\n      pop\n      pop\n      jump\t// out\n        /* \"#utility.yul\":8988:9114   */\n    tag_135:\n        /* \"#utility.yul\":9025:9032   */\n      0x00\n        /* \"#utility.yul\":9065:9107   */\n      0xffffffffffffffffffffffffffffffffffffffff\n        /* \"#utility.yul\":9058:9063   */\n      dup3\n        /* \"#utility.yul\":9054:9108   */\n      and\n        /* \"#utility.yul\":9043:9108   */\n      swap1\n      pop\n        /* \"#utility.yul\":8988:9114   */\n      swap2\n      swap1\n      pop\n      jump\t// out\n        /* \"#utility.yul\":9120:9216   */\n    tag_136:\n        /* \"#utility.yul\":9157:9164   */\n      0x00\n        /* \"#utility.yul\":9186:9210   */\n      tag_239\n        /* \"#utility.yul\":9204:9209   */\n      dup3\n        /* \"#utility.yul\":9186:9210   */\n      tag_135\n      jump\t// in\n    tag_239:\n        /* \"#utility.yul\":9175:9210   */\n      swap1\n      pop\n        /* \"#utility.yul\":9120:9216   */\n      swap2\n      swap1\n      pop\n      jump\t// out\n        /* \"#utility.yul\":9222:9340   */\n    tag_137:\n        /* \"#utility.yul\":9309:9333   */\n      tag_241\n        /* \"#utility.yul\":9327:9332   */\n      dup2\n        /* \"#utility.yul\":9309:9333   */\n      tag_136\n      jump\t// in\n    tag_241:\n        /* \"#utility.yul\":9304:9307   */\n      dup3\n        /* \"#utility.yul\":9297:9334   */\n      mstore\n        /* \"#utility.yul\":9222:9340   */\n      pop\n      pop\n      jump\t// out\n        /* \"#utility.yul\":9346:9568   */\n    tag_29:\n        /* \"#utility.yul\":9439:9443   */\n      0x00\n        /* \"#utility.yul\":9477:9479   */\n      0x20\n        /* \"#utility.yul\":9466:9475   */\n      dup3\n        /* \"#utility.yul\":9462:9480   */\n      add\n        /* \"#utility.yul\":9454:9480   */\n      swap1\n      pop\n        /* \"#utility.yul\":9490:9561   */\n      tag_243\n        /* \"#utility.yul\":9558:9559   */\n      0x00\n        /* \"#utility.yul\":9547:9556   */\n      dup4\n        /* \"#utility.yul\":9543:9560   */\n      add\n        /* \"#utility.yul\":9534:9540   */\n      dup5\n        /* \"#utility.yul\":9490:9561   */\n      tag_137\n      jump\t// in\n    tag_243:\n        /* \"#utility.yul\":9346:9568   */\n      swap3\n      swap2\n      pop\n      pop\n      jump\t// out\n        /* \"#utility.yul\":9574:10593   */\n    tag_32:\n        /* \"#utility.yul\":9675:9681   */\n      0x00\n        /* \"#utility.yul\":9683:9689   */\n      dup1\n        /* \"#utility.yul\":9691:9697   */\n      0x00\n        /* \"#utility.yul\":9699:9705   */\n      dup1\n        /* \"#utility.yul\":9707:9713   */\n      0x00\n        /* \"#utility.yul\":9756:9758   */\n      0x60\n        /* \"#utility.yul\":9744:9753   */\n      dup7\n        /* \"#utility.yul\":9735:9742   */\n      dup9\n        /* \"#utility.yul\":9731:9754   */\n      sub\n        /* \"#utility.yul\":9727:9759   */\n      slt\n        /* \"#utility.yul\":9724:9843   */\n      iszero\n      tag_245\n      jumpi\n        /* \"#utility.yul\":9762:9841   */\n      tag_246\n      tag_110\n      jump\t// in\n    tag_246:\n        /* \"#utility.yul\":9724:9843   */\n    tag_245:\n        /* \"#utility.yul\":9882:9883   */\n      0x00\n        /* \"#utility.yul\":9907:9960   */\n      tag_247\n        /* \"#utility.yul\":9952:9959   */\n      dup9\n        /* \"#utility.yul\":9943:9949   */\n      dup3\n        /* \"#utility.yul\":9932:9941   */\n      dup10\n        /* \"#utility.yul\":9928:9950   */\n      add\n        /* \"#utility.yul\":9907:9960   */\n      tag_118\n      jump\t// in\n    tag_247:\n        /* \"#utility.yul\":9897:9960   */\n      swap6\n      pop\n        /* \"#utility.yul\":9853:9970   */\n      pop\n        /* \"#utility.yul\":10037:10039   */\n      0x20\n        /* \"#utility.yul\":10026:10035   */\n      dup7\n        /* \"#utility.yul\":10022:10040   */\n      add\n        /* \"#utility.yul\":10009:10041   */\n      calldataload\n        /* \"#utility.yul\":10068:10086   */\n      0xffffffffffffffff\n        /* \"#utility.yul\":10060:10066   */\n      dup2\n        /* \"#utility.yul\":10057:10087   */\n      gt\n        /* \"#utility.yul\":10054:10171   */\n      iszero\n      tag_248\n      jumpi\n        /* \"#utility.yul\":10090:10169   */\n      tag_249\n      tag_111\n      jump\t// in\n    tag_249:\n        /* \"#utility.yul\":10054:10171   */\n    tag_248:\n        /* \"#utility.yul\":10203:10268   */\n      tag_250\n        /* \"#utility.yul\":10260:10267   */\n      dup9\n        /* \"#utility.yul\":10251:10257   */\n      dup3\n        /* \"#utility.yul\":10240:10249   */\n      dup10\n        /* \"#utility.yul\":10236:10258   */\n      add\n        /* \"#utility.yul\":10203:10268   */\n      tag_115\n      jump\t// in\n    tag_250:\n        /* \"#utility.yul\":10185:10268   */\n      swap5\n      pop\n      swap5\n      pop\n        /* \"#utility.yul\":9980:10278   */\n      pop\n        /* \"#utility.yul\":10345:10347   */\n      0x40\n        /* \"#utility.yul\":10334:10343   */\n      dup7\n        /* \"#utility.yul\":10330:10348   */\n      add\n        /* \"#utility.yul\":10317:10349   */\n      calldataload\n        /* \"#utility.yul\":10376:10394   */\n      0xffffffffffffffff\n        /* \"#utility.yul\":10368:10374   */\n      dup2\n        /* \"#utility.yul\":10365:10395   */\n      gt\n        /* \"#utility.yul\":10362:10479   */\n      iszero\n      tag_251\n      jumpi\n        /* \"#utility.yul\":10398:10477   */\n      tag_252\n      tag_111\n      jump\t// in\n    tag_252:\n        /* \"#utility.yul\":10362:10479   */\n    tag_251:\n        /* \"#utility.yul\":10511:10576   */\n      tag_253\n        /* \"#utility.yul\":10568:10575   */\n      dup9\n        /* \"#utility.yul\":10559:10565   */\n      dup3\n        /* \"#utility.yul\":10548:10557   */\n      dup10\n        /* \"#utility.yul\":10544:10566   */\n      add\n        /* \"#utility.yul\":10511:10576   */\n      tag_115\n      jump\t// in\n    tag_253:\n        /* \"#utility.yul\":10493:10576   */\n      swap3\n      pop\n      swap3\n      pop\n        /* \"#utility.yul\":10288:10586   */\n      pop\n        /* \"#utility.yul\":9574:10593   */\n      swap3\n      swap6\n      pop\n      swap3\n      swap6\n      swap1\n      swap4\n      pop\n      jump\t// out\n        /* \"#utility.yul\":10599:10779   */\n    tag_77:\n        /* \"#utility.yul\":10647:10724   */\n      0x4e487b7100000000000000000000000000000000000000000000000000000000\n        /* \"#utility.yul\":10644:10645   */\n      0x00\n        /* \"#utility.yul\":10637:10725   */\n      mstore\n        /* \"#utility.yul\":10744:10748   */\n      0x41\n        /* \"#utility.yul\":10741:10742   */\n      0x04\n        /* \"#utility.yul\":10734:10749   */\n      mstore\n        /* \"#utility.yul\":10768:10772   */\n      0x24\n        /* \"#utility.yul\":10765:10766   */\n      0x00\n        /* \"#utility.yul\":10758:10773   */\n      revert\n        /* \"#utility.yul\":10785:10965   */\n    tag_138:\n        /* \"#utility.yul\":10833:10910   */\n      0x4e487b7100000000000000000000000000000000000000000000000000000000\n        /* \"#utility.yul\":10830:10831   */\n      0x00\n        /* \"#utility.yul\":10823:10911   */\n      mstore\n        /* \"#utility.yul\":10930:10934   */\n      0x22\n        /* \"#utility.yul\":10927:10928   */\n      0x04\n        /* \"#utility.yul\":10920:10935   */\n      mstore\n        /* \"#utility.yul\":10954:10958   */\n      0x24\n        /* \"#utility.yul\":10951:10952   */\n      0x00\n        /* \"#utility.yul\":10944:10959   */\n      revert\n        /* \"#utility.yul\":10971:11291   */\n    tag_52:\n        /* \"#utility.yul\":11015:11021   */\n      0x00\n        /* \"#utility.yul\":11052:11053   */\n      0x02\n        /* \"#utility.yul\":11046:11050   */\n      dup3\n        /* \"#utility.yul\":11042:11054   */\n      div\n        /* \"#utility.yul\":11032:11054   */\n      swap1\n      pop\n        /* \"#utility.yul\":11099:11100   */\n      0x01\n        /* \"#utility.yul\":11093:11097   */\n      dup3\n        /* \"#utility.yul\":11089:11101   */\n      and\n        /* \"#utility.yul\":11120:11138   */\n      dup1\n        /* \"#utility.yul\":11110:11191   */\n      tag_257\n      jumpi\n        /* \"#utility.yul\":11176:11180   */\n      0x7f\n        /* \"#utility.yul\":11168:11174   */\n      dup3\n        /* \"#utility.yul\":11164:11181   */\n      and\n        /* \"#utility.yul\":11154:11181   */\n      swap2\n      pop\n        /* \"#utility.yul\":11110:11191   */\n    tag_257:\n        /* \"#utility.yul\":11238:11240   */\n      0x20\n        /* \"#utility.yul\":11230:11236   */\n      dup3\n        /* \"#utility.yul\":11227:11241   */\n      lt\n        /* \"#utility.yul\":11207:11225   */\n      dup2\n        /* \"#utility.yul\":11204:11242   */\n      sub\n        /* \"#utility.yul\":11201:11285   */\n      tag_258\n      jumpi\n        /* \"#utility.yul\":11257:11275   */\n      tag_259\n      tag_138\n      jump\t// in\n    tag_259:\n        /* \"#utility.yul\":11201:11285   */\n    tag_258:\n        /* \"#utility.yul\":11022:11291   */\n      pop\n        /* \"#utility.yul\":10971:11291   */\n      swap2\n      swap1\n      pop\n      jump\t// out\n        /* \"#utility.yul\":11297:11438   */\n    tag_139:\n        /* \"#utility.yul\":11346:11350   */\n      0x00\n        /* \"#utility.yul\":11369:11372   */\n      dup2\n        /* \"#utility.yul\":11361:11372   */\n      swap1\n      pop\n        /* \"#utility.yul\":11392:11395   */\n      dup2\n        /* \"#utility.yul\":11389:11390   */\n      0x00\n        /* \"#utility.yul\":11382:11396   */\n      mstore\n        /* \"#utility.yul\":11426:11430   */\n      0x20\n        /* \"#utility.yul\":11423:11424   */\n      0x00\n        /* \"#utility.yul\":11413:11431   */\n      keccak256\n        /* \"#utility.yul\":11405:11431   */\n      swap1\n      pop\n        /* \"#utility.yul\":11297:11438   */\n      swap2\n      swap1\n      pop\n      jump\t// out\n        /* \"#utility.yul\":11444:11537   */\n    tag_140:\n        /* \"#utility.yul\":11481:11487   */\n      0x00\n        /* \"#utility.yul\":11528:11530   */\n      0x20\n        /* \"#utility.yul\":11523:11525   */\n      0x1f\n        /* \"#utility.yul\":11516:11521   */\n      dup4\n        /* \"#utility.yul\":11512:11526   */\n      add\n        /* \"#utility.yul\":11508:11531   */\n      div\n        /* \"#utility.yul\":11498:11531   */\n      swap1\n      pop\n        /* \"#utility.yul\":11444:11537   */\n      swap2\n      swap1\n      pop\n      jump\t// out\n        /* \"#utility.yul\":11543:11650   */\n    tag_141:\n        /* \"#utility.yul\":11587:11595   */\n      0x00\n        /* \"#utility.yul\":11637:11642   */\n      dup3\n        /* \"#utility.yul\":11631:11635   */\n      dup3\n        /* \"#utility.yul\":11627:11643   */\n      shl\n        /* \"#utility.yul\":11606:11643   */\n      swap1\n      pop\n        /* \"#utility.yul\":11543:11650   */\n      swap3\n      swap2\n      pop\n      pop\n      jump\t// out\n        /* \"#utility.yul\":11656:12049   */\n    tag_142:\n        /* \"#utility.yul\":11725:11731   */\n      0x00\n        /* \"#utility.yul\":11775:11776   */\n      0x08\n        /* \"#utility.yul\":11763:11773   */\n      dup4\n        /* \"#utility.yul\":11759:11777   */\n      mul\n        /* \"#utility.yul\":11798:11895   */\n      tag_264\n        /* \"#utility.yul\":11828:11894   */\n      0xffffffffffffffffffffffffffffffffffffffffffffffffffffffffffffffff\n        /* \"#utility.yul\":11817:11826   */\n      dup3\n        /* \"#utility.yul\":11798:11895   */\n      tag_141\n      jump\t// in\n    tag_264:\n        /* \"#utility.yul\":11916:11955   */\n      tag_265\n        /* \"#utility.yul\":11946:11954   */\n      dup7\n        /* \"#utility.yul\":11935:11944   */\n      dup4\n        /* \"#utility.yul\":11916:11955   */\n      tag_141\n      jump\t// in\n    tag_265:\n        /* \"#utility.yul\":11904:11955   */\n      swap6\n      pop\n        /* \"#utility.yul\":11988:11992   */\n      dup1\n        /* \"#utility.yul\":11984:11993   */\n      not\n        /* \"#utility.yul\":11977:11982   */\n      dup5\n        /* \"#utility.yul\":11973:11994   */\n      and\n        /* \"#utility.yul\":11964:11994   */\n      swap4\n      pop\n        /* \"#utility.yul\":12037:12041   */\n      dup1\n        /* \"#utility.yul\":12027:12035   */\n      dup7\n        /* \"#utility.yul\":12023:12042   */\n      and\n        /* \"#utility.yul\":12016:12021   */\n      dup5\n        /* \"#utility.yul\":12013:12043   */\n      or\n        /* \"#utility.yul\":12003:12043   */\n      swap3\n      pop\n        /* \"#utility.yul\":11732:12049   */\n      pop\n      pop\n        /* \"#utility.yul\":11656:12049   */\n      swap4\n      swap3\n      pop\n      pop\n      pop\n      jump\t// out\n        /* \"#utility.yul\":12055:12115   */\n    tag_143:\n        /* \"#utility.yul\":12083:12086   */\n      0x00\n        /* \"#utility.yul\":12104:12109   */\n      dup2\n        /* \"#utility.yul\":12097:12109   */\n      swap1\n      pop\n        /* \"#utility.yul\":12055:12115   */\n      swap2\n      swap1\n      pop\n      jump\t// out\n        /* \"#utility.yul\":12121:12263   */\n    tag_144:\n        /* \"#utility.yul\":12171:12180   */\n      0x00\n        /* \"#utility.yul\":12204:12257   */\n      tag_268\n        /* \"#utility.yul\":12222:12256   */\n      tag_269\n        /* \"#utility.yul\":12231:12255   */\n      tag_270\n        /* \"#utility.yul\":12249:12254   */\n      dup5\n        /* \"#utility.yul\":12231:12255   */\n      tag_116\n      jump\t// in\n    tag_270:\n        /* \"#utility.yul\":12222:12256   */\n      tag_143\n      jump\t// in\n    tag_269:\n        /* \"#utility.yul\":12204:12257   */\n      tag_116\n      jump\t// in\n    tag_268:\n        /* \"#utility.yul\":12191:12257   */\n      swap1\n      pop\n        /* \"#utility.yul\":12121:12263   */\n      swap2\n      swap1\n      pop\n      jump\t// out\n        /* \"#utility.yul\":12269:12344   */\n    tag_145:\n        /* \"#utility.yul\":12312:12315   */\n      0x00\n        /* \"#utility.yul\":12333:12338   */\n      dup2\n        /* \"#utility.yul\":12326:12338   */\n      swap1\n      pop\n        /* \"#utility.yul\":12269:12344   */\n      swap2\n      swap1\n      pop\n      jump\t// out\n        /* \"#utility.yul\":12350:12619   */\n    tag_146:\n        /* \"#utility.yul\":12460:12499   */\n      tag_273\n        /* \"#utility.yul\":12491:12498   */\n      dup4\n        /* \"#utility.yul\":12460:12499   */\n      tag_144\n      jump\t// in\n    tag_273:\n        /* \"#utility.yul\":12521:12612   */\n      tag_274\n        /* \"#utility.yul\":12570:12611   */\n      tag_275\n        /* \"#utility.yul\":12594:12610   */\n      dup3\n        /* \"#utility.yul\":12570:12611   */\n      tag_145\n      jump\t// in\n    tag_275:\n        /* \"#utility.yul\":12562:12568   */\n      dup5\n        /* \"#utility.yul\":12555:12559   */\n      dup5\n        /* \"#utility.yul\":12549:12560   */\n      sload\n        /* \"#utility.yul\":12521:12612   */\n      tag_142\n      jump\t// in\n    tag_274:\n        /* \"#utility.yul\":12515:12519   */\n      dup3\n        /* \"#utility.yul\":12508:12613   */\n      sstore\n        /* \"#utility.yul\":12426:12619   */\n      pop\n        /* \"#utility.yul\":12350:12619   */\n      pop\n      pop\n      pop\n      jump\t// out\n        /* \"#utility.yul\":12625:12698   */\n    tag_147:\n        /* \"#utility.yul\":12670:12673   */\n      0x00\n        /* \"#utility.yul\":12625:12698   */\n      swap1\n      jump\t// out\n        /* \"#utility.yul\":12704:12893   */\n    tag_148:\n        /* \"#utility.yul\":12781:12813   */\n      tag_278\n      tag_147\n      jump\t// in\n    tag_278:\n        /* \"#utility.yul\":12822:12887   */\n      tag_279\n        /* \"#utility.yul\":12880:12886   */\n      dup2\n        /* \"#utility.yul\":12872:12878   */\n      dup5\n        /* \"#utility.yul\":12866:12870   */\n      dup5\n        /* \"#utility.yul\":12822:12887   */\n      tag_146\n      jump\t// in\n    tag_279:\n        /* \"#utility.yul\":12757:12893   */\n      pop\n        /* \"#utility.yul\":12704:12893   */\n      pop\n      pop\n      jump\t// out\n        /* \"#utility.yul\":12899:13085   */\n    tag_149:\n        /* \"#utility.yul\":12959:13079   */\n    tag_281:\n        /* \"#utility.yul\":12976:12979   */\n      dup2\n        /* \"#utility.yul\":12969:12974   */\n      dup2\n        /* \"#utility.yul\":12966:12980   */\n      lt\n        /* \"#utility.yul\":12959:13079   */\n      iszero\n      tag_283\n      jumpi\n        /* \"#utility.yul\":13030:13069   */\n      tag_284\n        /* \"#utility.yul\":13067:13068   */\n      0x00\n        /* \"#utility.yul\":13060:13065   */\n      dup3\n        /* \"#utility.yul\":13030:13069   */\n      tag_148\n      jump\t// in\n    tag_284:\n        /* \"#utility.yul\":13003:13004   */\n      0x01\n        /* \"#utility.yul\":12996:13001   */\n      dup2\n        /* \"#utility.yul\":12992:13005   */\n      add\n        /* \"#utility.yul\":12983:13005   */\n      swap1\n      pop\n        /* \"#utility.yul\":12959:13079   */\n      jump(tag_281)\n    tag_283:\n        /* \"#utility.yul\":12899:13085   */\n      pop\n      pop\n      jump\t// out\n        /* \"#utility.yul\":13091:13634   */\n    tag_150:\n        /* \"#utility.yul\":13192:13194   */\n      0x1f\n        /* \"#utility.yul\":13187:13190   */\n      dup3\n        /* \"#utility.yul\":13184:13195   */\n      gt\n        /* \"#utility.yul\":13181:13627   */\n      iszero\n      tag_286\n      jumpi\n        /* \"#utility.yul\":13226:13264   */\n      tag_287\n        /* \"#utility.yul\":13258:13263   */\n      dup2\n        /* \"#utility.yul\":13226:13264   */\n      tag_139\n      jump\t// in\n    tag_287:\n        /* \"#utility.yul\":13310:13339   */\n      tag_288\n        /* \"#utility.yul\":13328:13338   */\n      dup5\n        /* \"#utility.yul\":13310:13339   */\n      tag_140\n      jump\t// in\n    tag_288:\n        /* \"#utility.yul\":13300:13308   */\n      dup2\n        /* \"#utility.yul\":13296:13340   */\n      add\n        /* \"#utility.yul\":13493:13495   */\n      0x20\n        /* \"#utility.yul\":13481:13491   */\n      dup6\n        /* \"#utility.yul\":13478:13496   */\n      lt\n        /* \"#utility.yul\":13475:13524   */\n      iszero\n      tag_289\n      jumpi\n        /* \"#utility.yul\":13514:13522   */\n      dup2\n        /* \"#utility.yul\":13499:13522   */\n      swap1\n      pop\n        /* \"#utility.yul\":13475:13524   */\n    tag_289:\n        /* \"#utility.yul\":13537:13617   */\n      tag_290\n        /* \"#utility.yul\":13593:13615   */\n      tag_291\n        /* \"#utility.yul\":13611:13614   */\n      dup6\n        /* \"#utility.yul\":13593:13615   */\n      tag_140\n      jump\t// in\n    tag_291:\n        /* \"#utility.yul\":13583:13591   */\n      dup4\n        /* \"#utility.yul\":13579:13616   */\n      add\n        /* \"#utility.yul\":13566:13577   */\n      dup3\n        /* \"#utility.yul\":13537:13617   */\n      tag_149\n      jump\t// in\n    tag_290:\n        /* \"#utility.yul\":13196:13627   */\n      pop\n      pop\n        /* \"#utility.yul\":13181:13627   */\n    tag_286:\n        /* \"#utility.yul\":13091:13634   */\n      pop\n      pop\n      pop\n      jump\t// out\n        /* \"#utility.yul\":13640:13757   */\n    tag_151:\n        /* \"#utility.yul\":13694:13702   */\n      0x00\n        /* \"#utility.yul\":13744:13749   */\n      dup3\n        /* \"#utility.yul\":13738:13742   */\n      dup3\n        /* \"#utility.yul\":13734:13750   */\n      shr\n        /* \"#utility.yul\":13713:13750   */\n      swap1\n      pop\n        /* \"#utility.yul\":13640:13757   */\n      swap3\n      swap2\n      pop\n      pop\n      jump\t// out\n        /* \"#utility.yul\":13763:13932   */\n    tag_152:\n        /* \"#utility.yul\":13807:13813   */\n      0x00\n        /* \"#utility.yul\":13840:13891   */\n      tag_294\n        /* \"#utility.yul\":13888:13889   */\n      0x00\n        /* \"#utility.yul\":13884:13890   */\n      not\n        /* \"#utility.yul\":13876:13881   */\n      dup5\n        /* \"#utility.yul\":13873:13874   */\n      0x08\n        /* \"#utility.yul\":13869:13882   */\n      mul\n        /* \"#utility.yul\":13840:13891   */\n      tag_151\n      jump\t// in\n    tag_294:\n        /* \"#utility.yul\":13836:13892   */\n      not\n        /* \"#utility.yul\":13921:13925   */\n      dup1\n        /* \"#utility.yul\":13915:13919   */\n      dup4\n        /* \"#utility.yul\":13911:13926   */\n      and\n        /* \"#utility.yul\":13901:13926   */\n      swap2\n      pop\n        /* \"#utility.yul\":13814:13932   */\n      pop\n        /* \"#utility.yul\":13763:13932   */\n      swap3\n      swap2\n      pop\n      pop\n      jump\t// out\n        /* \"#utility.yul\":13937:14232   */\n    tag_153:\n        /* \"#utility.yul\":14013:14017   */\n      0x00\n        /* \"#utility.yul\":14159:14188   */\n      tag_296\n        /* \"#utility.yul\":14184:14187   */\n      dup4\n        /* \"#utility.yul\":14178:14182   */\n      dup4\n        /* \"#utility.yul\":14159:14188   */\n      tag_152\n      jump\t// in\n    tag_296:\n        /* \"#utility.yul\":14151:14188   */\n      swap2\n      pop\n        /* \"#utility.yul\":14221:14224   */\n      dup3\n        /* \"#utility.yul\":14218:14219   */\n      0x02\n        /* \"#utility.yul\":14214:14225   */\n      mul\n        /* \"#utility.yul\":14208:14212   */\n      dup3\n        /* \"#utility.yul\":14205:14226   */\n      or\n        /* \"#utility.yul\":14197:14226   */\n      swap1\n      pop\n        /* \"#utility.yul\":13937:14232   */\n      swap3\n      swap2\n      pop\n      pop\n      jump\t// out\n        /* \"#utility.yul\":14237:15632   */\n    tag_36:\n        /* \"#utility.yul\":14354:14391   */\n      tag_298\n        /* \"#utility.yul\":14387:14390   */\n      dup3\n        /* \"#utility.yul\":14354:14391   */\n      tag_120\n      jump\t// in\n    tag_298:\n        /* \"#utility.yul\":14456:14474   */\n      0xffffffffffffffff\n        /* \"#utility.yul\":14448:14454   */\n      dup2\n        /* \"#utility.yul\":14445:14475   */\n      gt\n        /* \"#utility.yul\":14442:14498   */\n      iszero\n      tag_299\n      jumpi\n        /* \"#utility.yul\":14478:14496   */\n      tag_300\n      tag_77\n      jump\t// in\n    tag_300:\n        /* \"#utility.yul\":14442:14498   */\n    tag_299:\n        /* \"#utility.yul\":14522:14560   */\n      tag_301\n        /* \"#utility.yul\":14554:14558   */\n      dup3\n        /* \"#utility.yul\":14548:14559   */\n      sload\n        /* \"#utility.yul\":14522:14560   */\n      tag_52\n      jump\t// in\n    tag_301:\n        /* \"#utility.yul\":14607:14674   */\n      tag_302\n        /* \"#utility.yul\":14667:14673   */\n      dup3\n        /* \"#utility.yul\":14659:14665   */\n      dup3\n        /* \"#utility.yul\":14653:14657   */\n      dup6\n        /* \"#utility.yul\":14607:14674   */\n      tag_150\n      jump\t// in\n    tag_302:\n        /* \"#utility.yul\":14701:14702   */\n      0x00\n        /* \"#utility.yul\":14725:14729   */\n      0x20\n        /* \"#utility.yul\":14712:14729   */\n      swap1\n      pop\n        /* \"#utility.yul\":14757:14759   */\n      0x1f\n        /* \"#utility.yul\":14749:14755   */\n      dup4\n        /* \"#utility.yul\":14746:14760   */\n      gt\n        /* \"#utility.yul\":14774:14775   */\n      0x01\n        /* \"#utility.yul\":14769:15387   */\n      dup2\n      eq\n      tag_304\n      jumpi\n        /* \"#utility.yul\":15431:15432   */\n      0x00\n        /* \"#utility.yul\":15448:15454   */\n      dup5\n        /* \"#utility.yul\":15445:15522   */\n      iszero\n      tag_305\n      jumpi\n        /* \"#utility.yul\":15497:15506   */\n      dup3\n        /* \"#utility.yul\":15492:15495   */\n      dup8\n        /* \"#utility.yul\":15488:15507   */\n      add\n        /* \"#utility.yul\":15482:15508   */\n      mload\n        /* \"#utility.yul\":15473:15508   */\n      swap1\n      pop\n        /* \"#utility.yul\":15445:15522   */\n    tag_305:\n        /* \"#utility.yul\":15548:15615   */\n      tag_306\n        /* \"#utility.yul\":15608:15614   */\n      dup6\n        /* \"#utility.yul\":15601:15606   */\n      dup3\n        /* \"#utility.yul\":15548:15615   */\n      tag_153\n      jump\t// in\n    tag_306:\n        /* \"#utility.yul\":15542:15546   */\n      dup7\n        /* \"#utility.yul\":15535:15616   */\n      sstore\n        /* \"#utility.yul\":15404:15626   */\n      pop\n        /* \"#utility.yul\":14739:15626   */\n      jump(tag_303)\n        /* \"#utility.yul\":14769:15387   */\n    tag_304:\n        /* \"#utility.yul\":14821:14825   */\n      0x1f\n        /* \"#utility.yul\":14817:14826   */\n      not\n        /* \"#utility.yul\":14809:14815   */\n      dup5\n        /* \"#utility.yul\":14805:14827   */\n      and\n        /* \"#utility.yul\":14855:14892   */\n      tag_307\n        /* \"#utility.yul\":14887:14891   */\n      dup7\n        /* \"#utility.yul\":14855:14892   */\n      tag_139\n      jump\t// in\n    tag_307:\n        /* \"#utility.yul\":14914:14915   */\n      0x00\n        /* \"#utility.yul\":14928:15136   */\n    tag_308:\n        /* \"#utility.yul\":14942:14949   */\n      dup3\n        /* \"#utility.yul\":14939:14940   */\n      dup2\n        /* \"#utility.yul\":14936:14950   */\n      lt\n        /* \"#utility.yul\":14928:15136   */\n      iszero\n      tag_310\n      jumpi\n        /* \"#utility.yul\":15021:15030   */\n      dup5\n        /* \"#utility.yul\":15016:15019   */\n      dup10\n        /* \"#utility.yul\":15012:15031   */\n      add\n        /* \"#utility.yul\":15006:15032   */\n      mload\n        /* \"#utility.yul\":14998:15004   */\n      dup3\n        /* \"#utility.yul\":14991:15033   */\n      sstore\n        /* \"#utility.yul\":15072:15073   */\n      0x01\n        /* \"#utility.yul\":15064:15070   */\n      dup3\n        /* \"#utility.yul\":15060:15074   */\n      add\n        /* \"#utility.yul\":15050:15074   */\n      swap2\n      pop\n        /* \"#utility.yul\":15119:15121   */\n      0x20\n        /* \"#utility.yul\":15108:15117   */\n      dup6\n        /* \"#utility.yul\":15104:15122   */\n      add\n        /* \"#utility.yul\":15091:15122   */\n      swap5\n      pop\n        /* \"#utility.yul\":14965:14969   */\n      0x20\n        /* \"#utility.yul\":14962:14963   */\n      dup2\n        /* \"#utility.yul\":14958:14970   */\n      add\n        /* \"#utility.yul\":14953:14970   */\n      swap1\n      pop\n        /* \"#utility.yul\":14928:15136   */\n      jump(tag_308)\n    tag_310:\n        /* \"#utility.yul\":15164:15170   */\n      dup7\n        /* \"#utility.yul\":15155:15162   */\n      dup4\n        /* \"#utility.yul\":15152:15171   */\n      lt\n        /* \"#utility.yul\":15149:15328   */\n      iszero\n      tag_311\n      jumpi\n        /* \"#utility.yul\":15222:15231   */\n      dup5\n        /* \"#utility.yul\":15217:15220   */\n      dup10\n        /* \"#utility.yul\":15213:15232   */\n      add\n        /* \"#utility.yul\":15207:15233   */\n      mload\n        /* \"#utility.yul\":15265:15313   */\n      tag_312\n        /* \"#utility.yul\":15307:15311   */\n      0x1f\n        /* \"#utility.yul\":15299:15305   */\n      dup10\n        /* \"#utility.yul\":15295:15312   */\n      and\n        /* \"#utility.yul\":15284:15293   */\n      dup3\n        /* \"#utility.yul\":15265:15313   */\n      tag_152\n      jump\t// in\n    tag_312:\n        /* \"#utility.yul\":15257:15263   */\n      dup4\n        /* \"#utility.yul\":15250:15314   */\n      sstore\n        /* \"#utility.yul\":15172:15328   */\n      pop\n        /* \"#utility.yul\":15149:15328   */\n    tag_311:\n        /* \"#utility.yul\":15374:15375   */\n      0x01\n        /* \"#utility.yul\":15370:15371   */\n      0x02\n        /* \"#utility.yul\":15362:15368   */\n      dup9\n        /* \"#utility.yul\":15358:15372   */\n      mul\n        /* \"#utility.yul\":15354:15376   */\n      add\n        /* \"#utility.yul\":15348:15352   */\n      dup9\n        /* \"#utility.yul\":15341:15377   */\n      sstore\n        /* \"#utility.yul\":14776:15387   */\n      pop\n      pop\n      pop\n        /* \"#utility.yul\":14739:15626   */\n    tag_303:\n      pop\n        /* \"#utility.yul\":14329:15632   */\n      pop\n      pop\n      pop\n        /* \"#utility.yul\":14237:15632   */\n      pop\n      pop\n      jump\t// out\n        /* \"#utility.yul\":15638:15818   */\n    tag_154:\n        /* \"#utility.yul\":15686:15763   */\n      0x4e487b7100000000000000000000000000000000000000000000000000000000\n        /* \"#utility.yul\":15683:15684   */\n      0x00\n        /* \"#utility.yul\":15676:15764   */\n      mstore\n        /* \"#utility.yul\":15783:15787   */\n      0x11\n        /* \"#utility.yul\":15780:15781   */\n      0x04\n        /* \"#utility.yul\":15773:15788   */\n      mstore\n        /* \"#utility.yul\":15807:15811   */\n      0x24\n        /* \"#utility.yul\":15804:15805   */\n      0x00\n        /* \"#utility.yul\":15797:15812   */\n      revert\n        /* \"#utility.yul\":15824:16057   */\n    tag_39:\n        /* \"#utility.yul\":15863:15866   */\n      0x00\n        /* \"#utility.yul\":15886:15910   */\n      tag_315\n        /* \"#utility.yul\":15904:15909   */\n      dup3\n        /* \"#utility.yul\":15886:15910   */\n      tag_116\n      jump\t// in\n    tag_315:\n        /* \"#utility.yul\":15877:15910   */\n      swap2\n      pop\n        /* \"#utility.yul\":15932:15998   */\n      0xffffffffffffffffffffffffffffffffffffffffffffffffffffffffffffffff\n        /* \"#utility.yul\":15925:15930   */\n      dup3\n        /* \"#utility.yul\":15922:15999   */\n      sub\n        /* \"#utility.yul\":15919:16022   */\n      tag_316\n      jumpi\n        /* \"#utility.yul\":16002:16020   */\n      tag_317\n      tag_154\n      jump\t// in\n    tag_317:\n        /* \"#utility.yul\":15919:16022   */\n    tag_316:\n        /* \"#utility.yul\":16049:16050   */\n      0x01\n        /* \"#utility.yul\":16042:16047   */\n      dup3\n        /* \"#utility.yul\":16038:16051   */\n      add\n        /* \"#utility.yul\":16031:16051   */\n      swap1\n      pop\n        /* \"#utility.yul\":15824:16057   */\n      swap2\n      swap1\n      pop\n      jump\t// out\n        /* \"#utility.yul\":16063:16232   */\n    tag_155:\n        /* \"#utility.yul\":16147:16158   */\n      0x00\n        /* \"#utility.yul\":16181:16187   */\n      dup3\n        /* \"#utility.yul\":16176:16179   */\n      dup3\n        /* \"#utility.yul\":16169:16188   */\n      mstore\n        /* \"#utility.yul\":16221:16225   */\n      0x20\n        /* \"#utility.yul\":16216:16219   */\n      dup3\n        /* \"#utility.yul\":16212:16226   */\n      add\n        /* \"#utility.yul\":16197:16226   */\n      swap1\n      pop\n        /* \"#utility.yul\":16063:16232   */\n      swap3\n      swap2\n      pop\n      pop\n      jump\t// out\n        /* \"#utility.yul\":16238:16398   */\n    tag_156:\n        /* \"#utility.yul\":16378:16390   */\n      0x496e76616c696420494400000000000000000000000000000000000000000000\n        /* \"#utility.yul\":16374:16375   */\n      0x00\n        /* \"#utility.yul\":16366:16372   */\n      dup3\n        /* \"#utility.yul\":16362:16376   */\n      add\n        /* \"#utility.yul\":16355:16391   */\n      mstore\n        /* \"#utility.yul\":16238:16398   */\n      pop\n      jump\t// out\n        /* \"#utility.yul\":16404:16770   */\n    tag_157:\n        /* \"#utility.yul\":16546:16549   */\n      0x00\n        /* \"#utility.yul\":16567:16634   */\n      tag_321\n        /* \"#utility.yul\":16631:16633   */\n      0x0a\n        /* \"#utility.yul\":16626:16629   */\n      dup4\n        /* \"#utility.yul\":16567:16634   */\n      tag_155\n      jump\t// in\n    tag_321:\n        /* \"#utility.yul\":16560:16634   */\n      swap2\n      pop\n        /* \"#utility.yul\":16643:16736   */\n      tag_322\n        /* \"#utility.yul\":16732:16735   */\n      dup3\n        /* \"#utility.yul\":16643:16736   */\n      tag_156\n      jump\t// in\n    tag_322:\n        /* \"#utility.yul\":16761:16763   */\n      0x20\n        /* \"#utility.yul\":16756:16759   */\n      dup3\n        /* \"#utility.yul\":16752:16764   */\n      add\n        /* \"#utility.yul\":16745:16764   */\n      swap1\n      pop\n        /* \"#utility.yul\":16404:16770   */\n      swap2\n      swap1\n      pop\n      jump\t// out\n        /* \"#utility.yul\":16776:17195   */\n    tag_46:\n        /* \"#utility.yul\":16942:16946   */\n      0x00\n        /* \"#utility.yul\":16980:16982   */\n      0x20\n        /* \"#utility.yul\":16969:16978   */\n      dup3\n        /* \"#utility.yul\":16965:16983   */\n      add\n        /* \"#utility.yul\":16957:16983   */\n      swap1\n      pop\n        /* \"#utility.yul\":17029:17038   */\n      dup2\n        /* \"#utility.yul\":17023:17027   */\n      dup2\n        /* \"#utility.yul\":17019:17039   */\n      sub\n        /* \"#utility.yul\":17015:17016   */\n      0x00\n        /* \"#utility.yul\":17004:17013   */\n      dup4\n        /* \"#utility.yul\":17000:17017   */\n      add\n        /* \"#utility.yul\":16993:17040   */\n      mstore\n        /* \"#utility.yul\":17057:17188   */\n      tag_324\n        /* \"#utility.yul\":17183:17187   */\n      dup2\n        /* \"#utility.yul\":17057:17188   */\n      tag_157\n      jump\t// in\n    tag_324:\n        /* \"#utility.yul\":17049:17188   */\n      swap1\n      pop\n        /* \"#utility.yul\":16776:17195   */\n      swap2\n      swap1\n      pop\n      jump\t// out\n        /* \"#utility.yul\":17201:17370   */\n    tag_158:\n        /* \"#utility.yul\":17341:17362   */\n      0x5461736b20646f6573206e6f7420657869737400000000000000000000000000\n        /* \"#utility.yul\":17337:17338   */\n      0x00\n        /* \"#utility.yul\":17329:17335   */\n      dup3\n        /* \"#utility.yul\":17325:17339   */\n      add\n        /* \"#utility.yul\":17318:17363   */\n      mstore\n        /* \"#utility.yul\":17201:17370   */\n      pop\n      jump\t// out\n        /* \"#utility.yul\":17376:17742   */\n    tag_159:\n        /* \"#utility.yul\":17518:17521   */\n      0x00\n        /* \"#utility.yul\":17539:17606   */\n      tag_327\n        /* \"#utility.yul\":17603:17605   */\n      0x13\n        /* \"#utility.yul\":17598:17601   */\n      dup4\n        /* \"#utility.yul\":17539:17606   */\n      tag_155\n      jump\t// in\n    tag_327:\n        /* \"#utility.yul\":17532:17606   */\n      swap2\n      pop\n        /* \"#utility.yul\":17615:17708   */\n      tag_328\n        /* \"#utility.yul\":17704:17707   */\n      dup3\n        /* \"#utility.yul\":17615:17708   */\n      tag_158\n      jump\t// in\n    tag_328:\n        /* \"#utility.yul\":17733:17735   */\n      0x20\n        /* \"#utility.yul\":17728:17731   */\n      dup3\n        /* \"#utility.yul\":17724:17736   */\n      add\n        /* \"#utility.yul\":17717:17736   */\n      swap1\n      pop\n        /* \"#utility.yul\":17376:17742   */\n      swap2\n      swap1\n      pop\n      jump\t// out\n        /* \"#utility.yul\":17748:18167   */\n    tag_49:\n        /* \"#utility.yul\":17914:17918   */\n      0x00\n        /* \"#utility.yul\":17952:17954   */\n      0x20\n        /* \"#utility.yul\":17941:17950   */\n      dup3\n        /* \"#utility.yul\":17937:17955   */\n      add\n        /* \"#utility.yul\":17929:17955   */\n      swap1\n      pop\n        /* \"#utility.yul\":18001:18010   */\n      dup2\n        /* \"#utility.yul\":17995:17999   */\n      dup2\n        /* \"#utility.yul\":17991:18011   */\n      sub\n        /* \"#utility.yul\":17987:17988   */\n      0x00\n        /* \"#utility.yul\":17976:17985   */\n      dup4\n        /* \"#utility.yul\":17972:17989   */\n      add\n        /* \"#utility.yul\":17965:18012   */\n      mstore\n        /* \"#utility.yul\":18029:18160   */\n      tag_330\n        /* \"#utility.yul\":18155:18159   */\n      dup2\n        /* \"#utility.yul\":18029:18160   */\n      tag_159\n      jump\t// in\n    tag_330:\n        /* \"#utility.yul\":18021:18160   */\n      swap1\n      pop\n        /* \"#utility.yul\":17748:18167   */\n      swap2\n      swap1\n      pop\n      jump\t// out\n        /* \"#utility.yul\":18173:18353   */\n    tag_97:\n        /* \"#utility.yul\":18221:18298   */\n      0x4e487b7100000000000000000000000000000000000000000000000000000000\n        /* \"#utility.yul\":18218:18219   */\n      0x00\n        /* \"#utility.yul\":18211:18299   */\n      mstore\n        /* \"#utility.yul\":18318:18322   */\n      0x32\n        /* \"#utility.yul\":18315:18316   */\n      0x04\n        /* \"#utility.yul\":18308:18323   */\n      mstore\n        /* \"#utility.yul\":18342:18346   */\n      0x24\n        /* \"#utility.yul\":18339:18340   */\n      0x00\n        /* \"#utility.yul\":18332:18347   */\n      revert\n        /* \"#utility.yul\":18359:18456   */\n    tag_160:\n        /* \"#utility.yul\":18418:18424   */\n      0x00\n        /* \"#utility.yul\":18446:18449   */\n      dup3\n        /* \"#utility.yul\":18436:18449   */\n      swap1\n      pop\n        /* \"#utility.yul\":18359:18456   */\n      swap3\n      swap2\n      pop\n      pop\n      jump\t// out\n        /* \"#utility.yul\":18462:19865   */\n    tag_107:\n        /* \"#utility.yul\":18586:18630   */\n      tag_334\n        /* \"#utility.yul\":18626:18629   */\n      dup4\n        /* \"#utility.yul\":18621:18624   */\n      dup4\n        /* \"#utility.yul\":18586:18630   */\n      tag_160\n      jump\t// in\n    tag_334:\n        /* \"#utility.yul\":18695:18713   */\n      0xffffffffffffffff\n        /* \"#utility.yul\":18687:18693   */\n      dup2\n        /* \"#utility.yul\":18684:18714   */\n      gt\n        /* \"#utility.yul\":18681:18737   */\n      iszero\n      tag_335\n      jumpi\n        /* \"#utility.yul\":18717:18735   */\n      tag_336\n      tag_77\n      jump\t// in\n    tag_336:\n        /* \"#utility.yul\":18681:18737   */\n    tag_335:\n        /* \"#utility.yul\":18761:18799   */\n      tag_337\n        /* \"#utility.yul\":18793:18797   */\n      dup3\n        /* \"#utility.yul\":18787:18798   */\n      sload\n        /* \"#utility.yul\":18761:18799   */\n      tag_52\n      jump\t// in\n    tag_337:\n        /* \"#utility.yul\":18846:18913   */\n      tag_338\n        /* \"#utility.yul\":18906:18912   */\n      dup3\n        /* \"#utility.yul\":18898:18904   */\n      dup3\n        /* \"#utility.yul\":18892:18896   */\n      dup6\n        /* \"#utility.yul\":18846:18913   */\n      tag_150\n      jump\t// in\n    tag_338:\n        /* \"#utility.yul\":18940:18941   */\n      0x00\n        /* \"#utility.yul\":18969:18971   */\n      0x1f\n        /* \"#utility.yul\":18961:18967   */\n      dup4\n        /* \"#utility.yul\":18958:18972   */\n      gt\n        /* \"#utility.yul\":18986:18987   */\n      0x01\n        /* \"#utility.yul\":18981:19613   */\n      dup2\n      eq\n      tag_340\n      jumpi\n        /* \"#utility.yul\":19657:19658   */\n      0x00\n        /* \"#utility.yul\":19674:19680   */\n      dup5\n        /* \"#utility.yul\":19671:19755   */\n      iszero\n      tag_341\n      jumpi\n        /* \"#utility.yul\":19730:19739   */\n      dup3\n        /* \"#utility.yul\":19725:19728   */\n      dup8\n        /* \"#utility.yul\":19721:19740   */\n      add\n        /* \"#utility.yul\":19708:19741   */\n      calldataload\n        /* \"#utility.yul\":19699:19741   */\n      swap1\n      pop\n        /* \"#utility.yul\":19671:19755   */\n    tag_341:\n        /* \"#utility.yul\":19781:19848   */\n      tag_342\n        /* \"#utility.yul\":19841:19847   */\n      dup6\n        /* \"#utility.yul\":19834:19839   */\n      dup3\n        /* \"#utility.yul\":19781:19848   */\n      tag_153\n      jump\t// in\n    tag_342:\n        /* \"#utility.yul\":19775:19779   */\n      dup7\n        /* \"#utility.yul\":19768:19849   */\n      sstore\n        /* \"#utility.yul\":19630:19859   */\n      pop\n        /* \"#utility.yul\":18951:19859   */\n      jump(tag_339)\n        /* \"#utility.yul\":18981:19613   */\n    tag_340:\n        /* \"#utility.yul\":19033:19037   */\n      0x1f\n        /* \"#utility.yul\":19029:19038   */\n      not\n        /* \"#utility.yul\":19021:19027   */\n      dup5\n        /* \"#utility.yul\":19017:19039   */\n      and\n        /* \"#utility.yul\":19067:19104   */\n      tag_343\n        /* \"#utility.yul\":19099:19103   */\n      dup7\n        /* \"#utility.yul\":19067:19104   */\n      tag_139\n      jump\t// in\n    tag_343:\n        /* \"#utility.yul\":19126:19127   */\n      0x00\n        /* \"#utility.yul\":19140:19355   */\n    tag_344:\n        /* \"#utility.yul\":19154:19161   */\n      dup3\n        /* \"#utility.yul\":19151:19152   */\n      dup2\n        /* \"#utility.yul\":19148:19162   */\n      lt\n        /* \"#utility.yul\":19140:19355   */\n      iszero\n      tag_346\n      jumpi\n        /* \"#utility.yul\":19240:19249   */\n      dup5\n        /* \"#utility.yul\":19235:19238   */\n      dup10\n        /* \"#utility.yul\":19231:19250   */\n      add\n        /* \"#utility.yul\":19218:19251   */\n      calldataload\n        /* \"#utility.yul\":19210:19216   */\n      dup3\n        /* \"#utility.yul\":19203:19252   */\n      sstore\n        /* \"#utility.yul\":19291:19292   */\n      0x01\n        /* \"#utility.yul\":19283:19289   */\n      dup3\n        /* \"#utility.yul\":19279:19293   */\n      add\n        /* \"#utility.yul\":19269:19293   */\n      swap2\n      pop\n        /* \"#utility.yul\":19338:19340   */\n      0x20\n        /* \"#utility.yul\":19327:19336   */\n      dup6\n        /* \"#utility.yul\":19323:19341   */\n      add\n        /* \"#utility.yul\":19310:19341   */\n      swap5\n      pop\n        /* \"#utility.yul\":19177:19181   */\n      0x20\n        /* \"#utility.yul\":19174:19175   */\n      dup2\n        /* \"#utility.yul\":19170:19182   */\n      add\n        /* \"#utility.yul\":19165:19182   */\n      swap1\n      pop\n        /* \"#utility.yul\":19140:19355   */\n      jump(tag_344)\n    tag_346:\n        /* \"#utility.yul\":19383:19389   */\n      dup7\n        /* \"#utility.yul\":19374:19381   */\n      dup4\n        /* \"#utility.yul\":19371:19390   */\n      lt\n        /* \"#utility.yul\":19368:19554   */\n      iszero\n      tag_347\n      jumpi\n        /* \"#utility.yul\":19448:19457   */\n      dup5\n        /* \"#utility.yul\":19443:19446   */\n      dup10\n        /* \"#utility.yul\":19439:19458   */\n      add\n        /* \"#utility.yul\":19426:19459   */\n      calldataload\n        /* \"#utility.yul\":19491:19539   */\n      tag_348\n        /* \"#utility.yul\":19533:19537   */\n      0x1f\n        /* \"#utility.yul\":19525:19531   */\n      dup10\n        /* \"#utility.yul\":19521:19538   */\n      and\n        /* \"#utility.yul\":19510:19519   */\n      dup3\n        /* \"#utility.yul\":19491:19539   */\n      tag_152\n      jump\t// in\n    tag_348:\n        /* \"#utility.yul\":19483:19489   */\n      dup4\n        /* \"#utility.yul\":19476:19540   */\n      sstore\n        /* \"#utility.yul\":19391:19554   */\n      pop\n        /* \"#utility.yul\":19368:19554   */\n    tag_347:\n        /* \"#utility.yul\":19600:19601   */\n      0x01\n        /* \"#utility.yul\":19596:19597   */\n      0x02\n        /* \"#utility.yul\":19588:19594   */\n      dup9\n        /* \"#utility.yul\":19584:19598   */\n      mul\n        /* \"#utility.yul\":19580:19602   */\n      add\n        /* \"#utility.yul\":19574:19578   */\n      dup9\n        /* \"#utility.yul\":19567:19603   */\n      sstore\n        /* \"#utility.yul\":18988:19613   */\n      pop\n      pop\n      pop\n        /* \"#utility.yul\":18951:19859   */\n    tag_339:\n      pop\n        /* \"#utility.yul\":18561:19865   */\n      pop\n      pop\n      pop\n        /* \"#utility.yul\":18462:19865   */\n      pop\n      pop\n      pop\n      jump\t// out\n\n    auxdata: 0xa2646970667358221220257b170ba78e813c40693bf5258f4a7848d7a0812b07453b5f6ef53ef8b18c8964736f6c634300081a0033\n}\n",
				"bytecode": {
					"linkReferences": {},
					"object": "6080604052600180553480156012575f80fd5b50335f806101000a81548173ffffffffffffffffffffffffffffffffffffffff021916908373ffffffffffffffffffffffffffffffffffffffff16021790555061133d8061005f5f395ff3fe608060405234801561000f575f80fd5b5060043610610060575f3560e01c8063292a4585146100645780633b3d7e5614610080578063560f3192146100b0578063779900b4146100cc5780638da5cb5b146100ea578063c72ef41f14610108575b5f80fd5b61007e60048036038101906100799190610992565b610124565b005b61009a60048036038101906100959190610a43565b610256565b6040516100a79190610b6e565b60405180910390f35b6100ca60048036038101906100c59190610a43565b610476565b005b6100d4610556565b6040516100e19190610cb0565b60405180910390f35b6100f26107dd565b6040516100ff9190610d0f565b60405180910390f35b610122600480360381019061011d9190610d28565b610800565b005b6040518060800160405280600154815260200185858080601f0160208091040260200160405190810160405280939291908181526020018383808284375f81840152601f19601f82011690508083019250505050505050815260200183838080601f0160208091040260200160405190810160405280939291908181526020018383808284375f81840152601f19601f8201169050808301925050505050505081526020016001151581525060025f60015481526020019081526020015f205f820151815f015560208201518160010190816102009190610fe0565b5060408201518160020190816102169190610fe0565b506060820151816003015f6101000a81548160ff02191690831515021790555090505060015f81548092919061024b906110dc565b919050555050505050565b61025e610901565b815f8114158015610270575060015481105b6102af576040517f08c379a00000000000000000000000000000000000000000000000000000000081526004016102a69061117d565b60405180910390fd5b60025f8281526020019081526020015f206003015f9054906101000a900460ff1661030f576040517f08c379a0000000000000000000000000000000000000000000000000000000008152600401610306906111e5565b60405180910390fd5b60025f8481526020019081526020015f206040518060800160405290815f820154815260200160018201805461034490610e13565b80601f016020809104026020016040519081016040528092919081815260200182805461037090610e13565b80156103bb5780601f10610392576101008083540402835291602001916103bb565b820191905f5260205f20905b81548152906001019060200180831161039e57829003601f168201915b505050505081526020016002820180546103d490610e13565b80601f016020809104026020016040519081016040528092919081815260200182805461040090610e13565b801561044b5780601f106104225761010080835404028352916020019161044b565b820191905f5260205f20905b81548152906001019060200180831161042e57829003601f168201915b50505050508152602001600382015f9054906101000a900460ff161515151581525050915050919050565b805f8114158015610488575060015481105b6104c7576040517f08c379a00000000000000000000000000000000000000000000000000000000081526004016104be9061117d565b60405180910390fd5b60025f8281526020019081526020015f206003015f9054906101000a900460ff16610527576040517f08c379a000000000000000000000000000000000000000000000000000000000815260040161051e906111e5565b60405180910390fd5b5f60025f8481526020019081526020015f206003015f6101000a81548160ff0219169083151502179055505050565b60605f80600190505b6001548110156105ab5760025f8281526020019081526020015f206003015f9054906101000a900460ff161561059e57818061059a906110dc565b9250505b808060010191505061055f565b505f8167ffffffffffffffff8111156105c7576105c6610db9565b5b60405190808252806020026020018201604052801561060057816020015b6105ed610901565b8152602001906001900390816105e55790505b5090505f80600190505b6001548110156107d35760025f8281526020019081526020015f206003015f9054906101000a900460ff16156107c65760025f8281526020019081526020015f206040518060800160405290815f820154815260200160018201805461066f90610e13565b80601f016020809104026020016040519081016040528092919081815260200182805461069b90610e13565b80156106e65780601f106106bd576101008083540402835291602001916106e6565b820191905f5260205f20905b8154815290600101906020018083116106c957829003601f168201915b505050505081526020016002820180546106ff90610e13565b80601f016020809104026020016040519081016040528092919081815260200182805461072b90610e13565b80156107765780601f1061074d57610100808354040283529160200191610776565b820191905f5260205f20905b81548152906001019060200180831161075957829003601f168201915b50505050508152602001600382015f9054906101000a900460ff1615151515815250508383815181106107ac576107ab611203565b5b602002602001018190525081806107c2906110dc565b9250505b808060010191505061060a565b5081935050505090565b5f8054906101000a900473ffffffffffffffffffffffffffffffffffffffff1681565b845f8114158015610812575060015481105b610851576040517f08c379a00000000000000000000000000000000000000000000000000000000081526004016108489061117d565b60405180910390fd5b60025f8281526020019081526020015f206003015f9054906101000a900460ff166108b1576040517f08c379a00000000000000000000000000000000000000000000000000000000081526004016108a8906111e5565b60405180910390fd5b848460025f8981526020019081526020015f2060010191826108d492919061123a565b50828260025f8981526020019081526020015f2060020191826108f892919061123a565b50505050505050565b60405180608001604052805f815260200160608152602001606081526020015f151581525090565b5f80fd5b5f80fd5b5f80fd5b5f80fd5b5f80fd5b5f8083601f84011261095257610951610931565b5b8235905067ffffffffffffffff81111561096f5761096e610935565b5b60208301915083600182028301111561098b5761098a610939565b5b9250929050565b5f805f80604085870312156109aa576109a9610929565b5b5f85013567ffffffffffffffff8111156109c7576109c661092d565b5b6109d38782880161093d565b9450945050602085013567ffffffffffffffff8111156109f6576109f561092d565b5b610a028782880161093d565b925092505092959194509250565b5f819050919050565b610a2281610a10565b8114610a2c575f80fd5b50565b5f81359050610a3d81610a19565b92915050565b5f60208284031215610a5857610a57610929565b5b5f610a6584828501610a2f565b91505092915050565b610a7781610a10565b82525050565b5f81519050919050565b5f82825260208201905092915050565b8281835e5f83830152505050565b5f601f19601f8301169050919050565b5f610abf82610a7d565b610ac98185610a87565b9350610ad9818560208601610a97565b610ae281610aa5565b840191505092915050565b5f8115159050919050565b610b0181610aed565b82525050565b5f608083015f830151610b1c5f860182610a6e565b5060208301518482036020860152610b348282610ab5565b91505060408301518482036040860152610b4e8282610ab5565b9150506060830151610b636060860182610af8565b508091505092915050565b5f6020820190508181035f830152610b868184610b07565b905092915050565b5f81519050919050565b5f82825260208201905092915050565b5f819050602082019050919050565b5f608083015f830151610bcc5f860182610a6e565b5060208301518482036020860152610be48282610ab5565b91505060408301518482036040860152610bfe8282610ab5565b9150506060830151610c136060860182610af8565b508091505092915050565b5f610c298383610bb7565b905092915050565b5f602082019050919050565b5f610c4782610b8e565b610c518185610b98565b935083602082028501610c6385610ba8565b805f5b85811015610c9e5784840389528151610c7f8582610c1e565b9450610c8a83610c31565b925060208a01995050600181019050610c66565b50829750879550505050505092915050565b5f6020820190508181035f830152610cc88184610c3d565b905092915050565b5f73ffffffffffffffffffffffffffffffffffffffff82169050919050565b5f610cf982610cd0565b9050919050565b610d0981610cef565b82525050565b5f602082019050610d225f830184610d00565b92915050565b5f805f805f60608688031215610d4157610d40610929565b5b5f610d4e88828901610a2f565b955050602086013567ffffffffffffffff811115610d6f57610d6e61092d565b5b610d7b8882890161093d565b9450945050604086013567ffffffffffffffff811115610d9e57610d9d61092d565b5b610daa8882890161093d565b92509250509295509295909350565b7f4e487b71000000000000000000000000000000000000000000000000000000005f52604160045260245ffd5b7f4e487b71000000000000000000000000000000000000000000000000000000005f52602260045260245ffd5b5f6002820490506001821680610e2a57607f821691505b602082108103610e3d57610e3c610de6565b5b50919050565b5f819050815f5260205f209050919050565b5f6020601f8301049050919050565b5f82821b905092915050565b5f60088302610e9f7fffffffffffffffffffffffffffffffffffffffffffffffffffffffffffffffff82610e64565b610ea98683610e64565b95508019841693508086168417925050509392505050565b5f819050919050565b5f610ee4610edf610eda84610a10565b610ec1565b610a10565b9050919050565b5f819050919050565b610efd83610eca565b610f11610f0982610eeb565b848454610e70565b825550505050565b5f90565b610f25610f19565b610f30818484610ef4565b505050565b5b81811015610f5357610f485f82610f1d565b600181019050610f36565b5050565b601f821115610f9857610f6981610e43565b610f7284610e55565b81016020851015610f81578190505b610f95610f8d85610e55565b830182610f35565b50505b505050565b5f82821c905092915050565b5f610fb85f1984600802610f9d565b1980831691505092915050565b5f610fd08383610fa9565b9150826002028217905092915050565b610fe982610a7d565b67ffffffffffffffff81111561100257611001610db9565b5b61100c8254610e13565b611017828285610f57565b5f60209050601f831160018114611048575f8415611036578287015190505b6110408582610fc5565b8655506110a7565b601f19841661105686610e43565b5f5b8281101561107d57848901518255600182019150602085019450602081019050611058565b8683101561109a5784890151611096601f891682610fa9565b8355505b6001600288020188555050505b505050505050565b7f4e487b71000000000000000000000000000000000000000000000000000000005f52601160045260245ffd5b5f6110e682610a10565b91507fffffffffffffffffffffffffffffffffffffffffffffffffffffffffffffffff8203611118576111176110af565b5b600182019050919050565b5f82825260208201905092915050565b7f496e76616c6964204944000000000000000000000000000000000000000000005f82015250565b5f611167600a83611123565b915061117282611133565b602082019050919050565b5f6020820190508181035f8301526111948161115b565b9050919050565b7f5461736b20646f6573206e6f74206578697374000000000000000000000000005f82015250565b5f6111cf601383611123565b91506111da8261119b565b602082019050919050565b5f6020820190508181035f8301526111fc816111c3565b9050919050565b7f4e487b71000000000000000000000000000000000000000000000000000000005f52603260045260245ffd5b5f82905092915050565b6112448383611230565b67ffffffffffffffff81111561125d5761125c610db9565b5b6112678254610e13565b611272828285610f57565b5f601f83116001811461129f575f841561128d578287013590505b6112978582610fc5565b8655506112fe565b601f1984166112ad86610e43565b5f5b828110156112d4578489013582556001820191506020850194506020810190506112af565b868310156112f157848901356112ed601f891682610fa9565b8355505b6001600288020188555050505b5050505050505056fea2646970667358221220257b170ba78e813c40693bf5258f4a7848d7a0812b07453b5f6ef53ef8b18c8964736f6c634300081a0033",
					"opcodes": "PUSH1 0x80 PUSH1 0x40 MSTORE PUSH1 0x1 DUP1 SSTORE CALLVALUE DUP1 ISZERO PUSH1 0x12 JUMPI PUSH0 DUP1 REVERT JUMPDEST POP CALLER PUSH0 DUP1 PUSH2 0x100 EXP DUP2 SLOAD DUP2 PUSH20 0xFFFFFFFFFFFFFFFFFFFFFFFFFFFFFFFFFFFFFFFF MUL NOT AND SWAP1 DUP4 PUSH20 0xFFFFFFFFFFFFFFFFFFFFFFFFFFFFFFFFFFFFFFFF AND MUL OR SWAP1 SSTORE POP PUSH2 0x133D DUP1 PUSH2 0x5F PUSH0 CODECOPY PUSH0 RETURN INVALID PUSH1 0x80 PUSH1 0x40 MSTORE CALLVALUE DUP1 ISZERO PUSH2 0xF JUMPI PUSH0 DUP1 REVERT JUMPDEST POP PUSH1 0x4 CALLDATASIZE LT PUSH2 0x60 JUMPI PUSH0 CALLDATALOAD PUSH1 0xE0 SHR DUP1 PUSH4 0x292A4585 EQ PUSH2 0x64 JUMPI DUP1 PUSH4 0x3B3D7E56 EQ PUSH2 0x80 JUMPI DUP1 PUSH4 0x560F3192 EQ PUSH2 0xB0 JUMPI DUP1 PUSH4 0x779900B4 EQ PUSH2 0xCC JUMPI DUP1 PUSH4 0x8DA5CB5B EQ PUSH2 0xEA JUMPI DUP1 PUSH4 0xC72EF41F EQ PUSH2 0x108 JUMPI JUMPDEST PUSH0 DUP1 REVERT JUMPDEST PUSH2 0x7E PUSH1 0x4 DUP1 CALLDATASIZE SUB DUP2 ADD SWAP1 PUSH2 0x79 SWAP2 SWAP1 PUSH2 0x992 JUMP JUMPDEST PUSH2 0x124 JUMP JUMPDEST STOP JUMPDEST PUSH2 0x9A PUSH1 0x4 DUP1 CALLDATASIZE SUB DUP2 ADD SWAP1 PUSH2 0x95 SWAP2 SWAP1 PUSH2 0xA43 JUMP JUMPDEST PUSH2 0x256 JUMP JUMPDEST PUSH1 0x40 MLOAD PUSH2 0xA7 SWAP2 SWAP1 PUSH2 0xB6E JUMP JUMPDEST PUSH1 0x40 MLOAD DUP1 SWAP2 SUB SWAP1 RETURN JUMPDEST PUSH2 0xCA PUSH1 0x4 DUP1 CALLDATASIZE SUB DUP2 ADD SWAP1 PUSH2 0xC5 SWAP2 SWAP1 PUSH2 0xA43 JUMP JUMPDEST PUSH2 0x476 JUMP JUMPDEST STOP JUMPDEST PUSH2 0xD4 PUSH2 0x556 JUMP JUMPDEST PUSH1 0x40 MLOAD PUSH2 0xE1 SWAP2 SWAP1 PUSH2 0xCB0 JUMP JUMPDEST PUSH1 0x40 MLOAD DUP1 SWAP2 SUB SWAP1 RETURN JUMPDEST PUSH2 0xF2 PUSH2 0x7DD JUMP JUMPDEST PUSH1 0x40 MLOAD PUSH2 0xFF SWAP2 SWAP1 PUSH2 0xD0F JUMP JUMPDEST PUSH1 0x40 MLOAD DUP1 SWAP2 SUB SWAP1 RETURN JUMPDEST PUSH2 0x122 PUSH1 0x4 DUP1 CALLDATASIZE SUB DUP2 ADD SWAP1 PUSH2 0x11D SWAP2 SWAP1 PUSH2 0xD28 JUMP JUMPDEST PUSH2 0x800 JUMP JUMPDEST STOP JUMPDEST PUSH1 0x40 MLOAD DUP1 PUSH1 0x80 ADD PUSH1 0x40 MSTORE DUP1 PUSH1 0x1 SLOAD DUP2 MSTORE PUSH1 0x20 ADD DUP6 DUP6 DUP1 DUP1 PUSH1 0x1F ADD PUSH1 0x20 DUP1 SWAP2 DIV MUL PUSH1 0x20 ADD PUSH1 0x40 MLOAD SWAP1 DUP2 ADD PUSH1 0x40 MSTORE DUP1 SWAP4 SWAP3 SWAP2 SWAP1 DUP2 DUP2 MSTORE PUSH1 0x20 ADD DUP4 DUP4 DUP1 DUP3 DUP5 CALLDATACOPY PUSH0 DUP2 DUP5 ADD MSTORE PUSH1 0x1F NOT PUSH1 0x1F DUP3 ADD AND SWAP1 POP DUP1 DUP4 ADD SWAP3 POP POP POP POP POP POP POP DUP2 MSTORE PUSH1 0x20 ADD DUP4 DUP4 DUP1 DUP1 PUSH1 0x1F ADD PUSH1 0x20 DUP1 SWAP2 DIV MUL PUSH1 0x20 ADD PUSH1 0x40 MLOAD SWAP1 DUP2 ADD PUSH1 0x40 MSTORE DUP1 SWAP4 SWAP3 SWAP2 SWAP1 DUP2 DUP2 MSTORE PUSH1 0x20 ADD DUP4 DUP4 DUP1 DUP3 DUP5 CALLDATACOPY PUSH0 DUP2 DUP5 ADD MSTORE PUSH1 0x1F NOT PUSH1 0x1F DUP3 ADD AND SWAP1 POP DUP1 DUP4 ADD SWAP3 POP POP POP POP POP POP POP DUP2 MSTORE PUSH1 0x20 ADD PUSH1 0x1 ISZERO ISZERO DUP2 MSTORE POP PUSH1 0x2 PUSH0 PUSH1 0x1 SLOAD DUP2 MSTORE PUSH1 0x20 ADD SWAP1 DUP2 MSTORE PUSH1 0x20 ADD PUSH0 KECCAK256 PUSH0 DUP3 ADD MLOAD DUP2 PUSH0 ADD SSTORE PUSH1 0x20 DUP3 ADD MLOAD DUP2 PUSH1 0x1 ADD SWAP1 DUP2 PUSH2 0x200 SWAP2 SWAP1 PUSH2 0xFE0 JUMP JUMPDEST POP PUSH1 0x40 DUP3 ADD MLOAD DUP2 PUSH1 0x2 ADD SWAP1 DUP2 PUSH2 0x216 SWAP2 SWAP1 PUSH2 0xFE0 JUMP JUMPDEST POP PUSH1 0x60 DUP3 ADD MLOAD DUP2 PUSH1 0x3 ADD PUSH0 PUSH2 0x100 EXP DUP2 SLOAD DUP2 PUSH1 0xFF MUL NOT AND SWAP1 DUP4 ISZERO ISZERO MUL OR SWAP1 SSTORE POP SWAP1 POP POP PUSH1 0x1 PUSH0 DUP2 SLOAD DUP1 SWAP3 SWAP2 SWAP1 PUSH2 0x24B SWAP1 PUSH2 0x10DC JUMP JUMPDEST SWAP2 SWAP1 POP SSTORE POP POP POP POP POP JUMP JUMPDEST PUSH2 0x25E PUSH2 0x901 JUMP JUMPDEST DUP2 PUSH0 DUP2 EQ ISZERO DUP1 ISZERO PUSH2 0x270 JUMPI POP PUSH1 0x1 SLOAD DUP2 LT JUMPDEST PUSH2 0x2AF JUMPI PUSH1 0x40 MLOAD PUSH32 0x8C379A000000000000000000000000000000000000000000000000000000000 DUP2 MSTORE PUSH1 0x4 ADD PUSH2 0x2A6 SWAP1 PUSH2 0x117D JUMP JUMPDEST PUSH1 0x40 MLOAD DUP1 SWAP2 SUB SWAP1 REVERT JUMPDEST PUSH1 0x2 PUSH0 DUP3 DUP2 MSTORE PUSH1 0x20 ADD SWAP1 DUP2 MSTORE PUSH1 0x20 ADD PUSH0 KECCAK256 PUSH1 0x3 ADD PUSH0 SWAP1 SLOAD SWAP1 PUSH2 0x100 EXP SWAP1 DIV PUSH1 0xFF AND PUSH2 0x30F JUMPI PUSH1 0x40 MLOAD PUSH32 0x8C379A000000000000000000000000000000000000000000000000000000000 DUP2 MSTORE PUSH1 0x4 ADD PUSH2 0x306 SWAP1 PUSH2 0x11E5 JUMP JUMPDEST PUSH1 0x40 MLOAD DUP1 SWAP2 SUB SWAP1 REVERT JUMPDEST PUSH1 0x2 PUSH0 DUP5 DUP2 MSTORE PUSH1 0x20 ADD SWAP1 DUP2 MSTORE PUSH1 0x20 ADD PUSH0 KECCAK256 PUSH1 0x40 MLOAD DUP1 PUSH1 0x80 ADD PUSH1 0x40 MSTORE SWAP1 DUP2 PUSH0 DUP3 ADD SLOAD DUP2 MSTORE PUSH1 0x20 ADD PUSH1 0x1 DUP3 ADD DUP1 SLOAD PUSH2 0x344 SWAP1 PUSH2 0xE13 JUMP JUMPDEST DUP1 PUSH1 0x1F ADD PUSH1 0x20 DUP1 SWAP2 DIV MUL PUSH1 0x20 ADD PUSH1 0x40 MLOAD SWAP1 DUP2 ADD PUSH1 0x40 MSTORE DUP1 SWAP3 SWAP2 SWAP1 DUP2 DUP2 MSTORE PUSH1 0x20 ADD DUP3 DUP1 SLOAD PUSH2 0x370 SWAP1 PUSH2 0xE13 JUMP JUMPDEST DUP1 ISZERO PUSH2 0x3BB JUMPI DUP1 PUSH1 0x1F LT PUSH2 0x392 JUMPI PUSH2 0x100 DUP1 DUP4 SLOAD DIV MUL DUP4 MSTORE SWAP2 PUSH1 0x20 ADD SWAP2 PUSH2 0x3BB JUMP JUMPDEST DUP3 ADD SWAP2 SWAP1 PUSH0 MSTORE PUSH1 0x20 PUSH0 KECCAK256 SWAP1 JUMPDEST DUP2 SLOAD DUP2 MSTORE SWAP1 PUSH1 0x1 ADD SWAP1 PUSH1 0x20 ADD DUP1 DUP4 GT PUSH2 0x39E JUMPI DUP3 SWAP1 SUB PUSH1 0x1F AND DUP3 ADD SWAP2 JUMPDEST POP POP POP POP POP DUP2 MSTORE PUSH1 0x20 ADD PUSH1 0x2 DUP3 ADD DUP1 SLOAD PUSH2 0x3D4 SWAP1 PUSH2 0xE13 JUMP JUMPDEST DUP1 PUSH1 0x1F ADD PUSH1 0x20 DUP1 SWAP2 DIV MUL PUSH1 0x20 ADD PUSH1 0x40 MLOAD SWAP1 DUP2 ADD PUSH1 0x40 MSTORE DUP1 SWAP3 SWAP2 SWAP1 DUP2 DUP2 MSTORE PUSH1 0x20 ADD DUP3 DUP1 SLOAD PUSH2 0x400 SWAP1 PUSH2 0xE13 JUMP JUMPDEST DUP1 ISZERO PUSH2 0x44B JUMPI DUP1 PUSH1 0x1F LT PUSH2 0x422 JUMPI PUSH2 0x100 DUP1 DUP4 SLOAD DIV MUL DUP4 MSTORE SWAP2 PUSH1 0x20 ADD SWAP2 PUSH2 0x44B JUMP JUMPDEST DUP3 ADD SWAP2 SWAP1 PUSH0 MSTORE PUSH1 0x20 PUSH0 KECCAK256 SWAP1 JUMPDEST DUP2 SLOAD DUP2 MSTORE SWAP1 PUSH1 0x1 ADD SWAP1 PUSH1 0x20 ADD DUP1 DUP4 GT PUSH2 0x42E JUMPI DUP3 SWAP1 SUB PUSH1 0x1F AND DUP3 ADD SWAP2 JUMPDEST POP POP POP POP POP DUP2 MSTORE PUSH1 0x20 ADD PUSH1 0x3 DUP3 ADD PUSH0 SWAP1 SLOAD SWAP1 PUSH2 0x100 EXP SWAP1 DIV PUSH1 0xFF AND ISZERO ISZERO ISZERO ISZERO DUP2 MSTORE POP POP SWAP2 POP POP SWAP2 SWAP1 POP JUMP JUMPDEST DUP1 PUSH0 DUP2 EQ ISZERO DUP1 ISZERO PUSH2 0x488 JUMPI POP PUSH1 0x1 SLOAD DUP2 LT JUMPDEST PUSH2 0x4C7 JUMPI PUSH1 0x40 MLOAD PUSH32 0x8C379A000000000000000000000000000000000000000000000000000000000 DUP2 MSTORE PUSH1 0x4 ADD PUSH2 0x4BE SWAP1 PUSH2 0x117D JUMP JUMPDEST PUSH1 0x40 MLOAD DUP1 SWAP2 SUB SWAP1 REVERT JUMPDEST PUSH1 0x2 PUSH0 DUP3 DUP2 MSTORE PUSH1 0x20 ADD SWAP1 DUP2 MSTORE PUSH1 0x20 ADD PUSH0 KECCAK256 PUSH1 0x3 ADD PUSH0 SWAP1 SLOAD SWAP1 PUSH2 0x100 EXP SWAP1 DIV PUSH1 0xFF AND PUSH2 0x527 JUMPI PUSH1 0x40 MLOAD PUSH32 0x8C379A000000000000000000000000000000000000000000000000000000000 DUP2 MSTORE PUSH1 0x4 ADD PUSH2 0x51E SWAP1 PUSH2 0x11E5 JUMP JUMPDEST PUSH1 0x40 MLOAD DUP1 SWAP2 SUB SWAP1 REVERT JUMPDEST PUSH0 PUSH1 0x2 PUSH0 DUP5 DUP2 MSTORE PUSH1 0x20 ADD SWAP1 DUP2 MSTORE PUSH1 0x20 ADD PUSH0 KECCAK256 PUSH1 0x3 ADD PUSH0 PUSH2 0x100 EXP DUP2 SLOAD DUP2 PUSH1 0xFF MUL NOT AND SWAP1 DUP4 ISZERO ISZERO MUL OR SWAP1 SSTORE POP POP POP JUMP JUMPDEST PUSH1 0x60 PUSH0 DUP1 PUSH1 0x1 SWAP1 POP JUMPDEST PUSH1 0x1 SLOAD DUP2 LT ISZERO PUSH2 0x5AB JUMPI PUSH1 0x2 PUSH0 DUP3 DUP2 MSTORE PUSH1 0x20 ADD SWAP1 DUP2 MSTORE PUSH1 0x20 ADD PUSH0 KECCAK256 PUSH1 0x3 ADD PUSH0 SWAP1 SLOAD SWAP1 PUSH2 0x100 EXP SWAP1 DIV PUSH1 0xFF AND ISZERO PUSH2 0x59E JUMPI DUP2 DUP1 PUSH2 0x59A SWAP1 PUSH2 0x10DC JUMP JUMPDEST SWAP3 POP POP JUMPDEST DUP1 DUP1 PUSH1 0x1 ADD SWAP2 POP POP PUSH2 0x55F JUMP JUMPDEST POP PUSH0 DUP2 PUSH8 0xFFFFFFFFFFFFFFFF DUP2 GT ISZERO PUSH2 0x5C7 JUMPI PUSH2 0x5C6 PUSH2 0xDB9 JUMP JUMPDEST JUMPDEST PUSH1 0x40 MLOAD SWAP1 DUP1 DUP3 MSTORE DUP1 PUSH1 0x20 MUL PUSH1 0x20 ADD DUP3 ADD PUSH1 0x40 MSTORE DUP1 ISZERO PUSH2 0x600 JUMPI DUP2 PUSH1 0x20 ADD JUMPDEST PUSH2 0x5ED PUSH2 0x901 JUMP JUMPDEST DUP2 MSTORE PUSH1 0x20 ADD SWAP1 PUSH1 0x1 SWAP1 SUB SWAP1 DUP2 PUSH2 0x5E5 JUMPI SWAP1 POP JUMPDEST POP SWAP1 POP PUSH0 DUP1 PUSH1 0x1 SWAP1 POP JUMPDEST PUSH1 0x1 SLOAD DUP2 LT ISZERO PUSH2 0x7D3 JUMPI PUSH1 0x2 PUSH0 DUP3 DUP2 MSTORE PUSH1 0x20 ADD SWAP1 DUP2 MSTORE PUSH1 0x20 ADD PUSH0 KECCAK256 PUSH1 0x3 ADD PUSH0 SWAP1 SLOAD SWAP1 PUSH2 0x100 EXP SWAP1 DIV PUSH1 0xFF AND ISZERO PUSH2 0x7C6 JUMPI PUSH1 0x2 PUSH0 DUP3 DUP2 MSTORE PUSH1 0x20 ADD SWAP1 DUP2 MSTORE PUSH1 0x20 ADD PUSH0 KECCAK256 PUSH1 0x40 MLOAD DUP1 PUSH1 0x80 ADD PUSH1 0x40 MSTORE SWAP1 DUP2 PUSH0 DUP3 ADD SLOAD DUP2 MSTORE PUSH1 0x20 ADD PUSH1 0x1 DUP3 ADD DUP1 SLOAD PUSH2 0x66F SWAP1 PUSH2 0xE13 JUMP JUMPDEST DUP1 PUSH1 0x1F ADD PUSH1 0x20 DUP1 SWAP2 DIV MUL PUSH1 0x20 ADD PUSH1 0x40 MLOAD SWAP1 DUP2 ADD PUSH1 0x40 MSTORE DUP1 SWAP3 SWAP2 SWAP1 DUP2 DUP2 MSTORE PUSH1 0x20 ADD DUP3 DUP1 SLOAD PUSH2 0x69B SWAP1 PUSH2 0xE13 JUMP JUMPDEST DUP1 ISZERO PUSH2 0x6E6 JUMPI DUP1 PUSH1 0x1F LT PUSH2 0x6BD JUMPI PUSH2 0x100 DUP1 DUP4 SLOAD DIV MUL DUP4 MSTORE SWAP2 PUSH1 0x20 ADD SWAP2 PUSH2 0x6E6 JUMP JUMPDEST DUP3 ADD SWAP2 SWAP1 PUSH0 MSTORE PUSH1 0x20 PUSH0 KECCAK256 SWAP1 JUMPDEST DUP2 SLOAD DUP2 MSTORE SWAP1 PUSH1 0x1 ADD SWAP1 PUSH1 0x20 ADD DUP1 DUP4 GT PUSH2 0x6C9 JUMPI DUP3 SWAP1 SUB PUSH1 0x1F AND DUP3 ADD SWAP2 JUMPDEST POP POP POP POP POP DUP2 MSTORE PUSH1 0x20 ADD PUSH1 0x2 DUP3 ADD DUP1 SLOAD PUSH2 0x6FF SWAP1 PUSH2 0xE13 JUMP JUMPDEST DUP1 PUSH1 0x1F ADD PUSH1 0x20 DUP1 SWAP2 DIV MUL PUSH1 0x20 ADD PUSH1 0x40 MLOAD SWAP1 DUP2 ADD PUSH1 0x40 MSTORE DUP1 SWAP3 SWAP2 SWAP1 DUP2 DUP2 MSTORE PUSH1 0x20 ADD DUP3 DUP1 SLOAD PUSH2 0x72B SWAP1 PUSH2 0xE13 JUMP JUMPDEST DUP1 ISZERO PUSH2 0x776 JUMPI DUP1 PUSH1 0x1F LT PUSH2 0x74D JUMPI PUSH2 0x100 DUP1 DUP4 SLOAD DIV MUL DUP4 MSTORE SWAP2 PUSH1 0x20 ADD SWAP2 PUSH2 0x776 JUMP JUMPDEST DUP3 ADD SWAP2 SWAP1 PUSH0 MSTORE PUSH1 0x20 PUSH0 KECCAK256 SWAP1 JUMPDEST DUP2 SLOAD DUP2 MSTORE SWAP1 PUSH1 0x1 ADD SWAP1 PUSH1 0x20 ADD DUP1 DUP4 GT PUSH2 0x759 JUMPI DUP3 SWAP1 SUB PUSH1 0x1F AND DUP3 ADD SWAP2 JUMPDEST POP POP POP POP POP DUP2 MSTORE PUSH1 0x20 ADD PUSH1 0x3 DUP3 ADD PUSH0 SWAP1 SLOAD SWAP1 PUSH2 0x100 EXP SWAP1 DIV PUSH1 0xFF AND ISZERO ISZERO ISZERO ISZERO DUP2 MSTORE POP POP DUP4 DUP4 DUP2 MLOAD DUP2 LT PUSH2 0x7AC JUMPI PUSH2 0x7AB PUSH2 0x1203 JUMP JUMPDEST JUMPDEST PUSH1 0x20 MUL PUSH1 0x20 ADD ADD DUP2 SWAP1 MSTORE POP DUP2 DUP1 PUSH2 0x7C2 SWAP1 PUSH2 0x10DC JUMP JUMPDEST SWAP3 POP POP JUMPDEST DUP1 DUP1 PUSH1 0x1 ADD SWAP2 POP POP PUSH2 0x60A JUMP JUMPDEST POP DUP2 SWAP4 POP POP POP POP SWAP1 JUMP JUMPDEST PUSH0 DUP1 SLOAD SWAP1 PUSH2 0x100 EXP SWAP1 DIV PUSH20 0xFFFFFFFFFFFFFFFFFFFFFFFFFFFFFFFFFFFFFFFF AND DUP2 JUMP JUMPDEST DUP5 PUSH0 DUP2 EQ ISZERO DUP1 ISZERO PUSH2 0x812 JUMPI POP PUSH1 0x1 SLOAD DUP2 LT JUMPDEST PUSH2 0x851 JUMPI PUSH1 0x40 MLOAD PUSH32 0x8C379A000000000000000000000000000000000000000000000000000000000 DUP2 MSTORE PUSH1 0x4 ADD PUSH2 0x848 SWAP1 PUSH2 0x117D JUMP JUMPDEST PUSH1 0x40 MLOAD DUP1 SWAP2 SUB SWAP1 REVERT JUMPDEST PUSH1 0x2 PUSH0 DUP3 DUP2 MSTORE PUSH1 0x20 ADD SWAP1 DUP2 MSTORE PUSH1 0x20 ADD PUSH0 KECCAK256 PUSH1 0x3 ADD PUSH0 SWAP1 SLOAD SWAP1 PUSH2 0x100 EXP SWAP1 DIV PUSH1 0xFF AND PUSH2 0x8B1 JUMPI PUSH1 0x40 MLOAD PUSH32 0x8C379A000000000000000000000000000000000000000000000000000000000 DUP2 MSTORE PUSH1 0x4 ADD PUSH2 0x8A8 SWAP1 PUSH2 0x11E5 JUMP JUMPDEST PUSH1 0x40 MLOAD DUP1 SWAP2 SUB SWAP1 REVERT JUMPDEST DUP5 DUP5 PUSH1 0x2 PUSH0 DUP10 DUP2 MSTORE PUSH1 0x20 ADD SWAP1 DUP2 MSTORE PUSH1 0x20 ADD PUSH0 KECCAK256 PUSH1 0x1 ADD SWAP2 DUP3 PUSH2 0x8D4 SWAP3 SWAP2 SWAP1 PUSH2 0x123A JUMP JUMPDEST POP DUP3 DUP3 PUSH1 0x2 PUSH0 DUP10 DUP2 MSTORE PUSH1 0x20 ADD SWAP1 DUP2 MSTORE PUSH1 0x20 ADD PUSH0 KECCAK256 PUSH1 0x2 ADD SWAP2 DUP3 PUSH2 0x8F8 SWAP3 SWAP2 SWAP1 PUSH2 0x123A JUMP JUMPDEST POP POP POP POP POP POP POP JUMP JUMPDEST PUSH1 0x40 MLOAD DUP1 PUSH1 0x80 ADD PUSH1 0x40 MSTORE DUP1 PUSH0 DUP2 MSTORE PUSH1 0x20 ADD PUSH1 0x60 DUP2 MSTORE PUSH1 0x20 ADD PUSH1 0x60 DUP2 MSTORE PUSH1 0x20 ADD PUSH0 ISZERO ISZERO DUP2 MSTORE POP SWAP1 JUMP JUMPDEST PUSH0 DUP1 REVERT JUMPDEST PUSH0 DUP1 REVERT JUMPDEST PUSH0 DUP1 REVERT JUMPDEST PUSH0 DUP1 REVERT JUMPDEST PUSH0 DUP1 REVERT JUMPDEST PUSH0 DUP1 DUP4 PUSH1 0x1F DUP5 ADD SLT PUSH2 0x952 JUMPI PUSH2 0x951 PUSH2 0x931 JUMP JUMPDEST JUMPDEST DUP3 CALLDATALOAD SWAP1 POP PUSH8 0xFFFFFFFFFFFFFFFF DUP2 GT ISZERO PUSH2 0x96F JUMPI PUSH2 0x96E PUSH2 0x935 JUMP JUMPDEST JUMPDEST PUSH1 0x20 DUP4 ADD SWAP2 POP DUP4 PUSH1 0x1 DUP3 MUL DUP4 ADD GT ISZERO PUSH2 0x98B JUMPI PUSH2 0x98A PUSH2 0x939 JUMP JUMPDEST JUMPDEST SWAP3 POP SWAP3 SWAP1 POP JUMP JUMPDEST PUSH0 DUP1 PUSH0 DUP1 PUSH1 0x40 DUP6 DUP8 SUB SLT ISZERO PUSH2 0x9AA JUMPI PUSH2 0x9A9 PUSH2 0x929 JUMP JUMPDEST JUMPDEST PUSH0 DUP6 ADD CALLDATALOAD PUSH8 0xFFFFFFFFFFFFFFFF DUP2 GT ISZERO PUSH2 0x9C7 JUMPI PUSH2 0x9C6 PUSH2 0x92D JUMP JUMPDEST JUMPDEST PUSH2 0x9D3 DUP8 DUP3 DUP9 ADD PUSH2 0x93D JUMP JUMPDEST SWAP5 POP SWAP5 POP POP PUSH1 0x20 DUP6 ADD CALLDATALOAD PUSH8 0xFFFFFFFFFFFFFFFF DUP2 GT ISZERO PUSH2 0x9F6 JUMPI PUSH2 0x9F5 PUSH2 0x92D JUMP JUMPDEST JUMPDEST PUSH2 0xA02 DUP8 DUP3 DUP9 ADD PUSH2 0x93D JUMP JUMPDEST SWAP3 POP SWAP3 POP POP SWAP3 SWAP6 SWAP2 SWAP5 POP SWAP3 POP JUMP JUMPDEST PUSH0 DUP2 SWAP1 POP SWAP2 SWAP1 POP JUMP JUMPDEST PUSH2 0xA22 DUP2 PUSH2 0xA10 JUMP JUMPDEST DUP2 EQ PUSH2 0xA2C JUMPI PUSH0 DUP1 REVERT JUMPDEST POP JUMP JUMPDEST PUSH0 DUP2 CALLDATALOAD SWAP1 POP PUSH2 0xA3D DUP2 PUSH2 0xA19 JUMP JUMPDEST SWAP3 SWAP2 POP POP JUMP JUMPDEST PUSH0 PUSH1 0x20 DUP3 DUP5 SUB SLT ISZERO PUSH2 0xA58 JUMPI PUSH2 0xA57 PUSH2 0x929 JUMP JUMPDEST JUMPDEST PUSH0 PUSH2 0xA65 DUP5 DUP3 DUP6 ADD PUSH2 0xA2F JUMP JUMPDEST SWAP2 POP POP SWAP3 SWAP2 POP POP JUMP JUMPDEST PUSH2 0xA77 DUP2 PUSH2 0xA10 JUMP JUMPDEST DUP3 MSTORE POP POP JUMP JUMPDEST PUSH0 DUP2 MLOAD SWAP1 POP SWAP2 SWAP1 POP JUMP JUMPDEST PUSH0 DUP3 DUP3 MSTORE PUSH1 0x20 DUP3 ADD SWAP1 POP SWAP3 SWAP2 POP POP JUMP JUMPDEST DUP3 DUP2 DUP4 MCOPY PUSH0 DUP4 DUP4 ADD MSTORE POP POP POP JUMP JUMPDEST PUSH0 PUSH1 0x1F NOT PUSH1 0x1F DUP4 ADD AND SWAP1 POP SWAP2 SWAP1 POP JUMP JUMPDEST PUSH0 PUSH2 0xABF DUP3 PUSH2 0xA7D JUMP JUMPDEST PUSH2 0xAC9 DUP2 DUP6 PUSH2 0xA87 JUMP JUMPDEST SWAP4 POP PUSH2 0xAD9 DUP2 DUP6 PUSH1 0x20 DUP7 ADD PUSH2 0xA97 JUMP JUMPDEST PUSH2 0xAE2 DUP2 PUSH2 0xAA5 JUMP JUMPDEST DUP5 ADD SWAP2 POP POP SWAP3 SWAP2 POP POP JUMP JUMPDEST PUSH0 DUP2 ISZERO ISZERO SWAP1 POP SWAP2 SWAP1 POP JUMP JUMPDEST PUSH2 0xB01 DUP2 PUSH2 0xAED JUMP JUMPDEST DUP3 MSTORE POP POP JUMP JUMPDEST PUSH0 PUSH1 0x80 DUP4 ADD PUSH0 DUP4 ADD MLOAD PUSH2 0xB1C PUSH0 DUP7 ADD DUP3 PUSH2 0xA6E JUMP JUMPDEST POP PUSH1 0x20 DUP4 ADD MLOAD DUP5 DUP3 SUB PUSH1 0x20 DUP7 ADD MSTORE PUSH2 0xB34 DUP3 DUP3 PUSH2 0xAB5 JUMP JUMPDEST SWAP2 POP POP PUSH1 0x40 DUP4 ADD MLOAD DUP5 DUP3 SUB PUSH1 0x40 DUP7 ADD MSTORE PUSH2 0xB4E DUP3 DUP3 PUSH2 0xAB5 JUMP JUMPDEST SWAP2 POP POP PUSH1 0x60 DUP4 ADD MLOAD PUSH2 0xB63 PUSH1 0x60 DUP7 ADD DUP3 PUSH2 0xAF8 JUMP JUMPDEST POP DUP1 SWAP2 POP POP SWAP3 SWAP2 POP POP JUMP JUMPDEST PUSH0 PUSH1 0x20 DUP3 ADD SWAP1 POP DUP2 DUP2 SUB PUSH0 DUP4 ADD MSTORE PUSH2 0xB86 DUP2 DUP5 PUSH2 0xB07 JUMP JUMPDEST SWAP1 POP SWAP3 SWAP2 POP POP JUMP JUMPDEST PUSH0 DUP2 MLOAD SWAP1 POP SWAP2 SWAP1 POP JUMP JUMPDEST PUSH0 DUP3 DUP3 MSTORE PUSH1 0x20 DUP3 ADD SWAP1 POP SWAP3 SWAP2 POP POP JUMP JUMPDEST PUSH0 DUP2 SWAP1 POP PUSH1 0x20 DUP3 ADD SWAP1 POP SWAP2 SWAP1 POP JUMP JUMPDEST PUSH0 PUSH1 0x80 DUP4 ADD PUSH0 DUP4 ADD MLOAD PUSH2 0xBCC PUSH0 DUP7 ADD DUP3 PUSH2 0xA6E JUMP JUMPDEST POP PUSH1 0x20 DUP4 ADD MLOAD DUP5 DUP3 SUB PUSH1 0x20 DUP7 ADD MSTORE PUSH2 0xBE4 DUP3 DUP3 PUSH2 0xAB5 JUMP JUMPDEST SWAP2 POP POP PUSH1 0x40 DUP4 ADD MLOAD DUP5 DUP3 SUB PUSH1 0x40 DUP7 ADD MSTORE PUSH2 0xBFE DUP3 DUP3 PUSH2 0xAB5 JUMP JUMPDEST SWAP2 POP POP PUSH1 0x60 DUP4 ADD MLOAD PUSH2 0xC13 PUSH1 0x60 DUP7 ADD DUP3 PUSH2 0xAF8 JUMP JUMPDEST POP DUP1 SWAP2 POP POP SWAP3 SWAP2 POP POP JUMP JUMPDEST PUSH0 PUSH2 0xC29 DUP4 DUP4 PUSH2 0xBB7 JUMP JUMPDEST SWAP1 POP SWAP3 SWAP2 POP POP JUMP JUMPDEST PUSH0 PUSH1 0x20 DUP3 ADD SWAP1 POP SWAP2 SWAP1 POP JUMP JUMPDEST PUSH0 PUSH2 0xC47 DUP3 PUSH2 0xB8E JUMP JUMPDEST PUSH2 0xC51 DUP2 DUP6 PUSH2 0xB98 JUMP JUMPDEST SWAP4 POP DUP4 PUSH1 0x20 DUP3 MUL DUP6 ADD PUSH2 0xC63 DUP6 PUSH2 0xBA8 JUMP JUMPDEST DUP1 PUSH0 JUMPDEST DUP6 DUP2 LT ISZERO PUSH2 0xC9E JUMPI DUP5 DUP5 SUB DUP10 MSTORE DUP2 MLOAD PUSH2 0xC7F DUP6 DUP3 PUSH2 0xC1E JUMP JUMPDEST SWAP5 POP PUSH2 0xC8A DUP4 PUSH2 0xC31 JUMP JUMPDEST SWAP3 POP PUSH1 0x20 DUP11 ADD SWAP10 POP POP PUSH1 0x1 DUP2 ADD SWAP1 POP PUSH2 0xC66 JUMP JUMPDEST POP DUP3 SWAP8 POP DUP8 SWAP6 POP POP POP POP POP POP SWAP3 SWAP2 POP POP JUMP JUMPDEST PUSH0 PUSH1 0x20 DUP3 ADD SWAP1 POP DUP2 DUP2 SUB PUSH0 DUP4 ADD MSTORE PUSH2 0xCC8 DUP2 DUP5 PUSH2 0xC3D JUMP JUMPDEST SWAP1 POP SWAP3 SWAP2 POP POP JUMP JUMPDEST PUSH0 PUSH20 0xFFFFFFFFFFFFFFFFFFFFFFFFFFFFFFFFFFFFFFFF DUP3 AND SWAP1 POP SWAP2 SWAP1 POP JUMP JUMPDEST PUSH0 PUSH2 0xCF9 DUP3 PUSH2 0xCD0 JUMP JUMPDEST SWAP1 POP SWAP2 SWAP1 POP JUMP JUMPDEST PUSH2 0xD09 DUP2 PUSH2 0xCEF JUMP JUMPDEST DUP3 MSTORE POP POP JUMP JUMPDEST PUSH0 PUSH1 0x20 DUP3 ADD SWAP1 POP PUSH2 0xD22 PUSH0 DUP4 ADD DUP5 PUSH2 0xD00 JUMP JUMPDEST SWAP3 SWAP2 POP POP JUMP JUMPDEST PUSH0 DUP1 PUSH0 DUP1 PUSH0 PUSH1 0x60 DUP7 DUP9 SUB SLT ISZERO PUSH2 0xD41 JUMPI PUSH2 0xD40 PUSH2 0x929 JUMP JUMPDEST JUMPDEST PUSH0 PUSH2 0xD4E DUP9 DUP3 DUP10 ADD PUSH2 0xA2F JUMP JUMPDEST SWAP6 POP POP PUSH1 0x20 DUP7 ADD CALLDATALOAD PUSH8 0xFFFFFFFFFFFFFFFF DUP2 GT ISZERO PUSH2 0xD6F JUMPI PUSH2 0xD6E PUSH2 0x92D JUMP JUMPDEST JUMPDEST PUSH2 0xD7B DUP9 DUP3 DUP10 ADD PUSH2 0x93D JUMP JUMPDEST SWAP5 POP SWAP5 POP POP PUSH1 0x40 DUP7 ADD CALLDATALOAD PUSH8 0xFFFFFFFFFFFFFFFF DUP2 GT ISZERO PUSH2 0xD9E JUMPI PUSH2 0xD9D PUSH2 0x92D JUMP JUMPDEST JUMPDEST PUSH2 0xDAA DUP9 DUP3 DUP10 ADD PUSH2 0x93D JUMP JUMPDEST SWAP3 POP SWAP3 POP POP SWAP3 SWAP6 POP SWAP3 SWAP6 SWAP1 SWAP4 POP JUMP JUMPDEST PUSH32 0x4E487B7100000000000000000000000000000000000000000000000000000000 PUSH0 MSTORE PUSH1 0x41 PUSH1 0x4 MSTORE PUSH1 0x24 PUSH0 REVERT JUMPDEST PUSH32 0x4E487B7100000000000000000000000000000000000000000000000000000000 PUSH0 MSTORE PUSH1 0x22 PUSH1 0x4 MSTORE PUSH1 0x24 PUSH0 REVERT JUMPDEST PUSH0 PUSH1 0x2 DUP3 DIV SWAP1 POP PUSH1 0x1 DUP3 AND DUP1 PUSH2 0xE2A JUMPI PUSH1 0x7F DUP3 AND SWAP2 POP JUMPDEST PUSH1 0x20 DUP3 LT DUP2 SUB PUSH2 0xE3D JUMPI PUSH2 0xE3C PUSH2 0xDE6 JUMP JUMPDEST JUMPDEST POP SWAP2 SWAP1 POP JUMP JUMPDEST PUSH0 DUP2 SWAP1 POP DUP2 PUSH0 MSTORE PUSH1 0x20 PUSH0 KECCAK256 SWAP1 POP SWAP2 SWAP1 POP JUMP JUMPDEST PUSH0 PUSH1 0x20 PUSH1 0x1F DUP4 ADD DIV SWAP1 POP SWAP2 SWAP1 POP JUMP JUMPDEST PUSH0 DUP3 DUP3 SHL SWAP1 POP SWAP3 SWAP2 POP POP JUMP JUMPDEST PUSH0 PUSH1 0x8 DUP4 MUL PUSH2 0xE9F PUSH32 0xFFFFFFFFFFFFFFFFFFFFFFFFFFFFFFFFFFFFFFFFFFFFFFFFFFFFFFFFFFFFFFFF DUP3 PUSH2 0xE64 JUMP JUMPDEST PUSH2 0xEA9 DUP7 DUP4 PUSH2 0xE64 JUMP JUMPDEST SWAP6 POP DUP1 NOT DUP5 AND SWAP4 POP DUP1 DUP7 AND DUP5 OR SWAP3 POP POP POP SWAP4 SWAP3 POP POP POP JUMP JUMPDEST PUSH0 DUP2 SWAP1 POP SWAP2 SWAP1 POP JUMP JUMPDEST PUSH0 PUSH2 0xEE4 PUSH2 0xEDF PUSH2 0xEDA DUP5 PUSH2 0xA10 JUMP JUMPDEST PUSH2 0xEC1 JUMP JUMPDEST PUSH2 0xA10 JUMP JUMPDEST SWAP1 POP SWAP2 SWAP1 POP JUMP JUMPDEST PUSH0 DUP2 SWAP1 POP SWAP2 SWAP1 POP JUMP JUMPDEST PUSH2 0xEFD DUP4 PUSH2 0xECA JUMP JUMPDEST PUSH2 0xF11 PUSH2 0xF09 DUP3 PUSH2 0xEEB JUMP JUMPDEST DUP5 DUP5 SLOAD PUSH2 0xE70 JUMP JUMPDEST DUP3 SSTORE POP POP POP POP JUMP JUMPDEST PUSH0 SWAP1 JUMP JUMPDEST PUSH2 0xF25 PUSH2 0xF19 JUMP JUMPDEST PUSH2 0xF30 DUP2 DUP5 DUP5 PUSH2 0xEF4 JUMP JUMPDEST POP POP POP JUMP JUMPDEST JUMPDEST DUP2 DUP2 LT ISZERO PUSH2 0xF53 JUMPI PUSH2 0xF48 PUSH0 DUP3 PUSH2 0xF1D JUMP JUMPDEST PUSH1 0x1 DUP2 ADD SWAP1 POP PUSH2 0xF36 JUMP JUMPDEST POP POP JUMP JUMPDEST PUSH1 0x1F DUP3 GT ISZERO PUSH2 0xF98 JUMPI PUSH2 0xF69 DUP2 PUSH2 0xE43 JUMP JUMPDEST PUSH2 0xF72 DUP5 PUSH2 0xE55 JUMP JUMPDEST DUP2 ADD PUSH1 0x20 DUP6 LT ISZERO PUSH2 0xF81 JUMPI DUP2 SWAP1 POP JUMPDEST PUSH2 0xF95 PUSH2 0xF8D DUP6 PUSH2 0xE55 JUMP JUMPDEST DUP4 ADD DUP3 PUSH2 0xF35 JUMP JUMPDEST POP POP JUMPDEST POP POP POP JUMP JUMPDEST PUSH0 DUP3 DUP3 SHR SWAP1 POP SWAP3 SWAP2 POP POP JUMP JUMPDEST PUSH0 PUSH2 0xFB8 PUSH0 NOT DUP5 PUSH1 0x8 MUL PUSH2 0xF9D JUMP JUMPDEST NOT DUP1 DUP4 AND SWAP2 POP POP SWAP3 SWAP2 POP POP JUMP JUMPDEST PUSH0 PUSH2 0xFD0 DUP4 DUP4 PUSH2 0xFA9 JUMP JUMPDEST SWAP2 POP DUP3 PUSH1 0x2 MUL DUP3 OR SWAP1 POP SWAP3 SWAP2 POP POP JUMP JUMPDEST PUSH2 0xFE9 DUP3 PUSH2 0xA7D JUMP JUMPDEST PUSH8 0xFFFFFFFFFFFFFFFF DUP2 GT ISZERO PUSH2 0x1002 JUMPI PUSH2 0x1001 PUSH2 0xDB9 JUMP JUMPDEST JUMPDEST PUSH2 0x100C DUP3 SLOAD PUSH2 0xE13 JUMP JUMPDEST PUSH2 0x1017 DUP3 DUP3 DUP6 PUSH2 0xF57 JUMP JUMPDEST PUSH0 PUSH1 0x20 SWAP1 POP PUSH1 0x1F DUP4 GT PUSH1 0x1 DUP2 EQ PUSH2 0x1048 JUMPI PUSH0 DUP5 ISZERO PUSH2 0x1036 JUMPI DUP3 DUP8 ADD MLOAD SWAP1 POP JUMPDEST PUSH2 0x1040 DUP6 DUP3 PUSH2 0xFC5 JUMP JUMPDEST DUP7 SSTORE POP PUSH2 0x10A7 JUMP JUMPDEST PUSH1 0x1F NOT DUP5 AND PUSH2 0x1056 DUP7 PUSH2 0xE43 JUMP JUMPDEST PUSH0 JUMPDEST DUP3 DUP2 LT ISZERO PUSH2 0x107D JUMPI DUP5 DUP10 ADD MLOAD DUP3 SSTORE PUSH1 0x1 DUP3 ADD SWAP2 POP PUSH1 0x20 DUP6 ADD SWAP5 POP PUSH1 0x20 DUP2 ADD SWAP1 POP PUSH2 0x1058 JUMP JUMPDEST DUP7 DUP4 LT ISZERO PUSH2 0x109A JUMPI DUP5 DUP10 ADD MLOAD PUSH2 0x1096 PUSH1 0x1F DUP10 AND DUP3 PUSH2 0xFA9 JUMP JUMPDEST DUP4 SSTORE POP JUMPDEST PUSH1 0x1 PUSH1 0x2 DUP9 MUL ADD DUP9 SSTORE POP POP POP JUMPDEST POP POP POP POP POP POP JUMP JUMPDEST PUSH32 0x4E487B7100000000000000000000000000000000000000000000000000000000 PUSH0 MSTORE PUSH1 0x11 PUSH1 0x4 MSTORE PUSH1 0x24 PUSH0 REVERT JUMPDEST PUSH0 PUSH2 0x10E6 DUP3 PUSH2 0xA10 JUMP JUMPDEST SWAP2 POP PUSH32 0xFFFFFFFFFFFFFFFFFFFFFFFFFFFFFFFFFFFFFFFFFFFFFFFFFFFFFFFFFFFFFFFF DUP3 SUB PUSH2 0x1118 JUMPI PUSH2 0x1117 PUSH2 0x10AF JUMP JUMPDEST JUMPDEST PUSH1 0x1 DUP3 ADD SWAP1 POP SWAP2 SWAP1 POP JUMP JUMPDEST PUSH0 DUP3 DUP3 MSTORE PUSH1 0x20 DUP3 ADD SWAP1 POP SWAP3 SWAP2 POP POP JUMP JUMPDEST PUSH32 0x496E76616C696420494400000000000000000000000000000000000000000000 PUSH0 DUP3 ADD MSTORE POP JUMP JUMPDEST PUSH0 PUSH2 0x1167 PUSH1 0xA DUP4 PUSH2 0x1123 JUMP JUMPDEST SWAP2 POP PUSH2 0x1172 DUP3 PUSH2 0x1133 JUMP JUMPDEST PUSH1 0x20 DUP3 ADD SWAP1 POP SWAP2 SWAP1 POP JUMP JUMPDEST PUSH0 PUSH1 0x20 DUP3 ADD SWAP1 POP DUP2 DUP2 SUB PUSH0 DUP4 ADD MSTORE PUSH2 0x1194 DUP2 PUSH2 0x115B JUMP JUMPDEST SWAP1 POP SWAP2 SWAP1 POP JUMP JUMPDEST PUSH32 0x5461736B20646F6573206E6F7420657869737400000000000000000000000000 PUSH0 DUP3 ADD MSTORE POP JUMP JUMPDEST PUSH0 PUSH2 0x11CF PUSH1 0x13 DUP4 PUSH2 0x1123 JUMP JUMPDEST SWAP2 POP PUSH2 0x11DA DUP3 PUSH2 0x119B JUMP JUMPDEST PUSH1 0x20 DUP3 ADD SWAP1 POP SWAP2 SWAP1 POP JUMP JUMPDEST PUSH0 PUSH1 0x20 DUP3 ADD SWAP1 POP DUP2 DUP2 SUB PUSH0 DUP4 ADD MSTORE PUSH2 0x11FC DUP2 PUSH2 0x11C3 JUMP JUMPDEST SWAP1 POP SWAP2 SWAP1 POP JUMP JUMPDEST PUSH32 0x4E487B7100000000000000000000000000000000000000000000000000000000 PUSH0 MSTORE PUSH1 0x32 PUSH1 0x4 MSTORE PUSH1 0x24 PUSH0 REVERT JUMPDEST PUSH0 DUP3 SWAP1 POP SWAP3 SWAP2 POP POP JUMP JUMPDEST PUSH2 0x1244 DUP4 DUP4 PUSH2 0x1230 JUMP JUMPDEST PUSH8 0xFFFFFFFFFFFFFFFF DUP2 GT ISZERO PUSH2 0x125D JUMPI PUSH2 0x125C PUSH2 0xDB9 JUMP JUMPDEST JUMPDEST PUSH2 0x1267 DUP3 SLOAD PUSH2 0xE13 JUMP JUMPDEST PUSH2 0x1272 DUP3 DUP3 DUP6 PUSH2 0xF57 JUMP JUMPDEST PUSH0 PUSH1 0x1F DUP4 GT PUSH1 0x1 DUP2 EQ PUSH2 0x129F JUMPI PUSH0 DUP5 ISZERO PUSH2 0x128D JUMPI DUP3 DUP8 ADD CALLDATALOAD SWAP1 POP JUMPDEST PUSH2 0x1297 DUP6 DUP3 PUSH2 0xFC5 JUMP JUMPDEST DUP7 SSTORE POP PUSH2 0x12FE JUMP JUMPDEST PUSH1 0x1F NOT DUP5 AND PUSH2 0x12AD DUP7 PUSH2 0xE43 JUMP JUMPDEST PUSH0 JUMPDEST DUP3 DUP2 LT ISZERO PUSH2 0x12D4 JUMPI DUP5 DUP10 ADD CALLDATALOAD DUP3 SSTORE PUSH1 0x1 DUP3 ADD SWAP2 POP PUSH1 0x20 DUP6 ADD SWAP5 POP PUSH1 0x20 DUP2 ADD SWAP1 POP PUSH2 0x12AF JUMP JUMPDEST DUP7 DUP4 LT ISZERO PUSH2 0x12F1 JUMPI DUP5 DUP10 ADD CALLDATALOAD PUSH2 0x12ED PUSH1 0x1F DUP10 AND DUP3 PUSH2 0xFA9 JUMP JUMPDEST DUP4 SSTORE POP JUMPDEST PUSH1 0x1 PUSH1 0x2 DUP9 MUL ADD DUP9 SSTORE POP POP POP JUMPDEST POP POP POP POP POP POP POP JUMP INVALID LOG2 PUSH5 0x6970667358 0x22 SLT KECCAK256 0x25 PUSH28 0x170BA78E813C40693BF5258F4A7848D7A0812B07453B5F6EF53EF8B1 DUP13 DUP10 PUSH5 0x736F6C6343 STOP ADDMOD BYTE STOP CALLER "
				},
				"gasEstimates": {
					"creation": {
						"codeDepositCost": "985000",
						"executionCost": "47390",
						"totalCost": "1032390"
					},
					"external": {
						"createTask(string,string)": "infinite",
						"deleteTask(uint256)": "29165",
						"getAllTasks()": "infinite",
						"owner()": "2571",
						"updateTask(uint256,string,string)": "infinite",
						"viewTask(uint256)": "infinite"
					}
				},
				"methodIdentifiers": {
					"createTask(string,string)": "292a4585",
					"deleteTask(uint256)": "560f3192",
					"getAllTasks()": "779900b4",
					"owner()": "8da5cb5b",
					"updateTask(uint256,string,string)": "c72ef41f",
					"viewTask(uint256)": "3b3d7e56"
				}
			},
			"storageLayout": {
				"storage": [
					{
						"astId": 12,
						"contract": "contracts/Todo.sol:Todo",
						"label": "owner",
						"offset": 0,
						"slot": "0",
						"type": "t_address"
					},
					{
						"astId": 15,
						"contract": "contracts/Todo.sol:Todo",
						"label": "taskId",
						"offset": 0,
						"slot": "1",
						"type": "t_uint256"
					},
					{
						"astId": 20,
						"contract": "contracts/Todo.sol:Todo",
						"label": "tasks",
						"offset": 0,
						"slot": "2",
						"type": "t_mapping(t_uint256,t_struct(Task)10_storage)"
					}
				],
				"types": {
					"t_address": {
						"encoding": "inplace",
						"label": "address",
						"numberOfBytes": "20"
					},
					"t_bool": {
						"encoding": "inplace",
						"label": "bool",
						"numberOfBytes": "1"
					},
					"t_mapping(t_uint256,t_struct(Task)10_storage)": {
						"encoding": "mapping",
						"key": "t_uint256",
						"label": "mapping(uint256 => struct Todo.Task)",
						"numberOfBytes": "32",
						"value": "t_struct(Task)10_storage"
					},
					"t_string_storage": {
						"encoding": "bytes",
						"label": "string",
						"numberOfBytes": "32"
					},
					"t_struct(Task)10_storage": {
						"encoding": "inplace",
						"label": "struct Todo.Task",
						"members": [
							{
								"astId": 3,
								"contract": "contracts/Todo.sol:Todo",
								"label": "id",
								"offset": 0,
								"slot": "0",
								"type": "t_uint256"
							},
							{
								"astId": 5,
								"contract": "contracts/Todo.sol:Todo",
								"label": "name",
								"offset": 0,
								"slot": "1",
								"type": "t_string_storage"
							},
							{
								"astId": 7,
								"contract": "contracts/Todo.sol:Todo",
								"label": "data",
								"offset": 0,
								"slot": "2",
								"type": "t_string_storage"
							},
							{
								"astId": 9,
								"contract": "contracts/Todo.sol:Todo",
								"label": "exists",
								"offset": 0,
								"slot": "3",
								"type": "t_bool"
							}
						],
						"numberOfBytes": "128"
					},
					"t_uint256": {
						"encoding": "inplace",
						"label": "uint256",
						"numberOfBytes": "32"
					}
				}
			},
			"userdoc": {
				"kind": "user",
				"methods": {},
				"version": 1
			}
		}
	}
}